:020000040000FA
:0100000000FF
:0100010002FC
:0100020005F8
:0100030009F3
:010004000FEC
:0100050017E3
:0100060000F9
:010007000AEE
:0100080016E1
:0100090004F2
:01000A0013E2
:01000B0003F1
:01000C0015DE
:01000D0008EA
:01000E001DD4
:01000F0014DC
:010010000CE3
:0100110005E9
:0100120000ED
:010013001CD0
:010014001AD1
:0100150019D1
:010016001ACF
:010017001CCC
:0100180000E7
:0100190005E1
:01001A000CD9
:01001B0014D0
:01001C001EC5
:01001D0009D9
:01001E0015CC
:01001F0003DD
:0100200013CC
:0100210004DA
:0100220016C7
:010023000AD2
:0100240000DB
:0100250017C3
:010026000FCA
:0100270009CF
:0100280004D3
:0100290001D5
:01002A001FB6
:01002B001FB5
:01002C0000D3
:01002D0002D0
:01002E0007CA
:01002F000CC4
:0100300013BC
:010031001BB3
:0100320005C8
:0100330011BB
:010034001DAE
:010035000CBE
:010036001BAE
:010037000CBC
:010038001FA8
:0100390013B3
:01003A0009BC
:01003B001FA5
:01003C0018AB
:01003D0012B0
:01003E000DB4
:01003F000AB6
:0100400008B7
:0100410007B7
:0100420008B5
:010043000BB1
:010044000FAC
:0100450014A6
:010046001B9E
:0100470003B5
:010048000DAA
:01004900189E
:01004A0005B0
:01004B0013A1
:01004C0002B1
:01004D00139F
:01004E0005AC
:01004F001997
:010050000EA1
:0100510005A9
:010052001D90
:010053001696
:01005400119A
:010055000D9D
:010056000B9E
:010057000A9E
:010058000A9D
:010059000C9A
:01005A001095
:01005B00158F
:01005C001B88
:01005D0002A0
:01005E000B96
:01005F00168A
:01006000029D
:010061000F8F
:010062001E7F
:010063000E8E
:01006400009B
:010065001387
:010066000792
:010067001D7B
:010068001483
:010069000C8A
:01006A00068F
:01006B000292
:01006C001F74
:01006D001D75
:01006E001D74
:01006F001E72
:01007000008F
:01007100048A
:010072000984
:01007300107C
:010074001873
:010075000189
:010076000C7D
:010077001870
:010078000681
:010079001571
:01007A000580
:01007B00176D
:01007C000A79
:01007D001F63
:01007E00156C
:01007F000C74
:01008000057A
:010081001F5F
:010082001B62
:010083001864
:010084001665
:010085001664
:010086001762
:01008700195F
:010088001D5A
:010089000274
:01008A00096C
:01008B001163
:01008C001A59
:01008D00056D
:01008E001160
:01008F001F51
:010090000E61
:010091001E50
:010092000F5E
:01009300026A
:010094001754
:010095000D5D
:010096000465
:010097001C4C
:010098001651
:010099001155
:01009A000E57
:01009B000C58
:01009C000B58
:01009D000C56
:01009E000E53
:01009F00114F
:0100A0001649
:0100A1001C42
:0100A2000459
:0100A3000D4F
:0100A4001744
:0100A5000357
:0100A6001049
:0100A7001E3A
:0100A8000E49
:0100A9001F37
:0100AA001144
:0100AB00054F
:0100AC001A39
:0100AD001042
:0100AE000849
:0100AF00014F
:0100B0001C33
:0100B1001836
:0100B2001538
:0100B3001339
:0100B4001338
:0100B5001436
:0100B6001732
:0100B7001B2D
:0100B8000047
:0100B900073F
:0100BA000F36
:0100BB00182C
:0100BC000340
:0100BD000F33
:0100BE001C25
:0100BF000B35
:0100C0001B24
:0100C1000C32
:0100C2001F1E
:0100C3001329
:0100C4000833
:0100C5001F1B
:0100C6001722
:0100C7001028
:0100C8000B2C
:0100C900072F
:0100CA000431
:0100CB000331
:0100CC000330
:0100CD00042E
:0100CE00072A
:0100CF000B25
:0100D000101F
:0100D1001717
:0100D2001F0E
:0100D3000824
:0100D4001318
:0100D5001E0C
:0100D6000C1D
:0100D7001A0E
:0100D8000A1D
:0100D9001B0B
:0100DA000E17
:0100DB000222
:0100DC00170C
:0100DD000D15
:0100DE00051C
:0100DF001E02
:0100E0001906
:0100E100140A
:0100E200110C
:0100E300100C
:0100E4000F0C
:0100E500100A
:0100E6001306
:0100E7001602
:0100E8001BFC
:0100E9000115
:0100EA00090C
:0100EB001202
:0100EC001CF7
:0100ED00070B
:0100EE0014FD
:0100EF00020E
:0100F00011FE
:0100F100020C
:0100F20014F9
:0100F3000705
:0100F4001CEF
:0100F50011F9
:0100F6000801
:0100F7000107
:0100F8001BEC
:0100F90016F0
:0100FA0012F3
:0100FB000FF5
:0100FC000EF5
:0100FD000EF4
:0100FE0010F1
:0100FF0013ED
:0101000017E7
:010101001CE1
:0101020003F9
:010103000BF0
:0101040014E6
:010105001EDB
:010106000AEE
:0101070017E0
:0101080005F1
:0101090015E0
:01010A0006EE
:01010B0018DB
:01010C000CE6
:01010D0000F1
:01010E0016DA
:01010F000EE1
:0101100006E8
:0101110000ED
:010112001BD1
:0101130018D3
:0101140015D5
:0101150014D5
:0101160014D4
:0101170016D1
:0101180019CD
:010119001DC8
:01011A0002E2
:01011B0009DA
:01011C0010D2
:01011D001AC7
:01011E0004DC
:01011F0010CF
:010120001DC1
:010121000BD2
:010122001AC2
:010123000BD0
:010124001DBD
:0101250010C9
:0101260005D3
:010127001ABD
:0101280011C5
:010129000ACB
:01012A0003D1
:01012B001EB5
:01012C001AB8
:01012D0017BA
:01012E0016BA
:01012F0016B9
:0101300017B7
:0101310019B4
:010132001DAF
:0101330002C9
:0101340008C2
:010135000FBA
:0101360018B0
:0101370001C6
:010138000DB9
:0101390019AC
:01013A0006BE
:01013B0015AE
:01013C0005BD
:01013D0017AA
:01013E0009B7
:01013F001DA2
:0101400012AC
:0101410008B5
:0101420000BC
:0101430019A2
:0101440013A7
:010145000EAB
:010146000AAE
:0101470008AF
:0101480007AF
:0101490007AE
:01014A0009AB
:01014B000BA8
:01014C000FA3
:01014D00159C
:01014E001B95
:01014F0003AC
:010150000BA3
:010151001598
:0101520001AB
:010153000D9E
:010154001B8F
:010155000A9F
:010156001A8E
:010157000C9B
:010158001E88
:010159001293
:01015A00079D
:01015B001E85
:01015C00158D
:01015D000E93
:01015E000898
:01015F00039C
:01016000009E
:010161001E7F
:010162001D7F
:010163001D7E
:010164001E7C
:010165000198
:010166000494
:01016700098E
:010168001086
:01016900177E
:01016A000094
:01016B00098A
:01016C00157D
:01016D000190
:01016E000E82
:01016F001D72
:010170000D81
:010171001E6F
:01017200107C
:010173000487
:010174001971
:010175000F7A
:010176000682
:010177001E69
:01017800186E
:010179001273
:01017A000E76
:01017B000C77
:01017C000A78
:01017D000A77
:01017E000A76
:01017F000C73
:010180000F6F
:010181001469
:010182001963
:01018300007B
:010184000872
:010185001168
:010186001C5C
:010187000770
:010188001462
:010189000273
:01018A001163
:01018B000172
:01018C00135F
:01018D00066B
:01018E001957
:01018F000F60
:010190000569
:010191001C51
:010192001557
:010193000F5C
:010194000A60
:010195000663
:010196000365
:010197000265
:010198000264
:010199000362
:01019A00055F
:01019B00085B
:01019C000D55
:01019D00124F
:01019E001947
:01019F00015E
:0101A0000A54
:0101A1001548
:0101A200005C
:0101A3000D4E
:0101A4001B3F
:0101A5000A4F
:0101A6001A3E
:0101A7000C4B
:0101A8001E38
:0101A9001243
:0101AA00074D
:0101AB001D36
:0101AC00143E
:0101AD000D44
:0101AE000749
:0101AF00014E
:0101B0001D31
:0101B1001A33
:0101B2001933
:0101B3001833
:0101B4001931
:0101B5001B2E
:0101B6001E2A
:0101B7000245
:0101B800073F
:0101B9000D38
:0101BA00152F
:0101BB001E25
:0101BC00083A
:0101BD00132E
:0101BE001F21
:0101BF000C33
:0101C0001B23
:0101C1000B32
:0101C2001C20
:0101C3000E2D
:0101C4000139
:0101C5001524
:0101C6000B2D
:0101C7000136
:0101C800191D
:0101C9001223
:0101CA000C28
:0101CB00072C
:0101CC00042E
:0101CD000130
:0101CE000030
:0101CF00002F
:0101D000012D
:0101D100032A
:0101D2000626
:0101D3000B20
:0101D400101A
:0101D5001712
:0101D6001F09
:0101D700081F
:0101D8001214
:0101D9001D08
:0101DA000A1A
:0101DB00170C
:0101DC00061C
:0101DD00160B
:0101DE000719
:0101DF001906
:0101E0000C12
:0101E100011C
:0101E2001606
:0101E3000D0E
:0101E4000515
:0101E5001EFB
:0101E6001800
:0101E7001304
:0101E8000F07
:0101E9000D08
:0101EA000B09
:0101EB000B08
:0101EC000C06
:0101ED000E03
:0101EE0011FF
:0101EF0015FA
:0101F0001BF3
:0101F100010C
:0101F2000903
:0101F30012F9
:0101F4001CEE
:0101F5000702
:0101F60013F5
:0101F7000007
:0101F8000EF8
:0101F9001EE7
:0101FA000EF6
:0101FB000003
:0101FC0013EF
:0101FD0007FA
:0101FE001CE4
:0101FF0012ED
:010200000AF3
:0102010002FA
:010202001CDF
:0102030016E4
:0102040012E7
:010205000FE9
:010206000DEA
:010207000CEA
:010208000DE8
:010209000EE6
:01020A0010E3
:01020B0014DE
:01020C0019D8
:01020D001FD1
:01020E0005EA
:01020F000DE1
:0102100017D6
:0102110001EB
:010212000CDF
:0102130019D1
:0102140006E3
:0102150015D3
:0102160005E2
:0102170016D0
:0102180008DD
:010219001BC9
:01021A000FD4
:01021B0004DE
:01021C001AC7
:01021D0012CE
:01021E000BD4
:01021F0004DA
:010220001FBE
:010221001BC1
:0102220018C3
:0102230016C4
:0102240015C4
:0102250015C3
:0102260017C0
:0102270019BD
:010228001DB8
:0102290001D3
:01022A0007CC
:01022B000EC4
:01022C0016BB
:01022D001FB1
:01022E0009C6
:01022F0014BA
:0102300001CC
:010231000EBE
:010232001CAF
:010233000CBE
:010234001DAC
:010235000EBA
:0102360001C6
:0102370015B1
:010238000ABB
:0102390000C4
:01023A0017AC
:01023B000FB3
:01023C0009B8
:01023D0003BD
:01023E001FA0
:01023F001BA3
:0102400019A4
:0102410017A5
:0102420017A4
:0102430018A2
:010244001A9F
:010245001D9B
:0102460001B6
:0102470006B0
:010248000DA8
:0102490014A0
:01024A001C97
:01024B0006AC
:01024C0010A1
:01024D001C94
:01024E0009A6
:01024F001698
:0102500005A8
:010251001597
:0102520006A5
:010253001892
:010254000B9E
:010255001F89
:010256001592
:010257000B9B
:0102580002A3
:010259001B89
:01025A00148F
:01025B000F93
:01025C000A97
:01025D000799
:01025E00059A
:01025F00049A
:010260000499
:010261000498
:010262000695
:010263000A90
:010264000E8B
:010265001385
:01026600197E
:010267000096
:01026800098C
:010269001282
:01026A001D76
:01026B00088A
:01026C00157C
:01026D00028E
:01026E00117E
:01026F00018D
:01027000127B
:010271000389
:010272001675
:010273000A80
:010274001F6A
:010275001573
:010276000C7B
:010277000482
:010278001E67
:01027900186C
:01027A001370
:01027B001072
:01027C000D74
:01027D000B75
:01027E000B74
:01027F000B73
:010280000D70
:010281000F6D
:010282001368
:010283001862
:010284001D5C
:010285000474
:010286000C6B
:010287001561
:010288001F56
:010289000A6A
:01028A00165D
:01028B00036F
:01028C001160
:01028D000070
:01028E00105F
:01028F00016D
:01029000135A
:010291000666
:010292001B50
:01029300105A
:010294000663
:010295001E4A
:010296001651
:010297000F57
:010298000A5B
:01029900055F
:01029A000261
:01029B001F43
:01029C001E43
:01029D001D43
:01029E001E41
:01029F00005E
:0102A000025B
:0102A1000656
:0102A2000B50
:0102A3001149
:0102A4001742
:0102A5001F39
:0102A600084F
:0102A7001244
:0102A8001D38
:0102A900084C
:0102AA00153E
:0102AB00034F
:0102AC00123F
:0102AD00024E
:0102AE00133C
:0102AF000549
:0102B0001835
:0102B1000C40
:0102B200014A
:0102B3001733
:0102B4000E3B
:0102B5000642
:0102B6000047
:0102B7001A2C
:0102B8001530
:0102B9001133
:0102BA000E35
:0102BB000C36
:0102BC000B36
:0102BD000C34
:0102BE000D32
:0102BF000F2F
:0102C000122B
:0102C1001725
:0102C2001C1F
:0102C3000238
:0102C4000930
:0102C5001226
:0102C6001B1C
:0102C7000531
:0102C8001025
:0102C9001D17
:0102CA000A29
:0102CB00181A
:0102CC000829
:0102CD001818
:0102CE000926
:0102CF001B13
:0102D0000F1E
:0102D1000329
:0102D2001813
:0102D3000F1B
:0102D4000623
:0102D5001E0A
:0102D600180F
:0102D7001214
:0102D8000D18
:0102D900091B
:0102DA00071C
:0102DB00051D
:0102DC00041D
:0102DD00041C
:0102DE000619
:0102DF000816
:0102E0000B12
:0102E1000F0D
:0102E2001506
:0102E3001BFF
:0102E4000217
:0102E5000A0E
:0102E6001304
:0102E7001EF8
:0102E800090C
:0102E90015FF
:0102EA000211
:0102EB001002
:0102EC001FF2
:0102ED000F01
:0102EE00010E
:0102EF0013FB
:0102F0000607
:0102F1001AF2
:0102F2000FFC
:0102F3000505
:0102F4001CED
:0102F50014F4
:0102F6000DFA
:0102F70007FF
:0102F8000203
:0102F9001DE7
:0102FA001AE9
:0102FB0018EA
:0102FC0017EA
:0102FD0017E9
:0102FE0018E7
:0102FF0019E5
:010300001CE0
:0103010000FB
:0103020004F6
:010303000AEF
:0103040011E7
:0103050018DF
:0103060001F5
:010307000BEA
:0103080015DF
:0103090001F2
:01030A000DE5
:01030B001BD6
:01030C0009E7
:01030D0018D7
:01030E0009E5
:01030F001AD3
:010310000CE0
:0103110000EB
:0103120014D6
:0103130009E0
:010314001FC9
:0103150016D1
:010316000ED8
:0103170007DE
:0103180001E3
:010319001CC7
:01031A0018CA
:01031B0015CC
:01031C0013CD
:01031D0012CD
:01031E0012CC
:01031F0013CA
:0103200014C8
:0103210017C4
:010322001BBF
:010323001FBA
:0103240005D3
:010325000BCC
:0103260013C3
:010327001BBA
:0103280005CF
:010329000FC4
:01032A001AB8
:01032B0006CB
:01032C0014BC
:01032D0002CD
:01032E0011BD
:01032F0001CC
:0103300012BA
:0103310004C7
:0103320017B3
:010333000BBE
:0103340000C8
:0103350015B2
:010336000CBA
:0103370004C1
:010338001CA8
:0103390016AD
:01033A0011B1
:01033B000CB5
:01033C0008B8
:01033D0006B9
:01033E0004BA
:01033F0003BA
:0103400004B8
:0103410005B6
:0103420007B3
:010343000AAF
:010344000EAA
:0103450013A4
:01034600199D
:010347001F96
:0103480007AD
:0103490010A3
:01034A001999
:01034B0004AD
:01034C000FA1
:01034D001C93
:01034E0009A5
:01034F001895
:0103500007A5
:010351001794
:0103520008A2
:010353001A8F
:010354000D9B
:0103550001A6
:010356001690
:010357000C99
:0103580003A1
:010359001A89
:01035A00138F
:01035B000C95
:01035C000799
:01035D00029D
:01035E001F7F
:01035F001C81
:010360001A82
:010361001982
:010362001981
:010363001A7F
:010364001C7C
:010365001F78
:010366000393
:01036700078E
:010368000D87
:010369001380
:01036A001B77
:01036B00038E
:01036C000D83
:01036D001778
:01036E00028C
:01036F000E7F
:010370001B71
:010371000982
:010372001872
:010373000881
:010374001870
:010375000A7D
:010376001C6A
:010377001075
:010378000480
:010379001A69
:01037A001072
:01037B00077A
:01037C001F61
:01037D001867
:01037E00126C
:01037F000C71
:010380000874
:010381000576
:010382000278
:010383000178
:010384000078
:010385000077
:010386000274
:010387000471
:01038800076D
:010389000B68
:01038A000F63
:01038B00155C
:01038C001C54
:01038D00036C
:01038E000C62
:01038F001558
:010390001F4D
:010391000B60
:010392001753
:010393000465
:010394001256
:010395000067
:010396001056
:010397000164
:010398001252
:01039900055E
:01039A00184A
:01039B000C55
:01039C00015F
:01039D001748
:01039E000E50
:01039F000657
:0103A0001F3D
:0103A1001843
:0103A2001347
:0103A3000E4B
:0103A4000B4D
:0103A500084F
:0103A6000650
:0103A7000550
:0103A800054F
:0103A900064D
:0103AA00084A
:0103AB000A47
:0103AC000E42
:0103AD00123D
:0103AE001737
:0103AF001E2F
:0103B0000547
:0103B1000D3E
:0103B2001634
:0103B3001F2A
:0103B4000A3E
:0103B5001631
:0103B6000244
:0103B7000F36
:0103B8001D27
:0103B9000D36
:0103BA001D25
:0103BB000D34
:0103BC001F21
:0103BD00122D
:0103BE000539
:0103BF001A23
:0103C0000F2D
:0103C1000536
:0103C2001C1E
:0103C3001425
:0103C4000D2B
:0103C5000730
:0103C6000234
:0103C7001D18
:0103C8001A1A
:0103C900171C
:0103CA00151D
:0103CB00141D
:0103CC00141C
:0103CD00151A
:0103CE001618
:0103CF001914
:0103D0001C10
:0103D100012A
:0103D2000624
:0103D3000C1D
:0103D4001315
:0103D5001B0C
:0103D6000323
:0103D7000D18
:0103D800170D
:0103D9000320
:0103DA000F13
:0103DB001C05
:0103DC000A16
:0103DD001906
:0103DE000915
:0103DF001904
:0103E0000B11
:0103E1001DFE
:0103E200100A
:0103E3000415
:0103E40019FF
:0103E5000F08
:0103E6000610
:0103E7001DF8
:0103E80016FE
:0103E9000F04
:0103EA000909
:0103EB00040D
:0103EC000010
:0103ED001DF2
:0103EE001AF4
:0103EF0019F4
:0103F00018F4
:0103F10018F3
:0103F20019F1
:0103F3001BEE
:0103F4001EEA
:0103F5000205
:0103F6000600
:0103F7000CF9
:0103F80012F2
:0103F90019EA
:0103FA000101
:0103FB000AF7
:0103FC0014EC
:0103FD001EE1
:0103FE000AF4
:0103FF0016E7
:0104000003F8
:0104010011E9
:0104020000F9
:0104030010E8
:0104040000F7
:0104050012E4
:0104060004F1
:0104070017DD
:010408000BE8
:0104090000F2
:01040A0016DB
:01040B000CE4
:01040C0004EB
:01040D001CD2
:01040E0015D8
:01040F000FDD
:010410000AE1
:0104110005E5
:0104120002E7
:010413001FC9
:010414001EC9
:010415001DC9
:010416001DC8
:010417001DC7
:010418001FC4
:0104190001E1
:01041A0005DC
:01041B0009D7
:01041C000ED1
:01041D0014CA
:01041E001BC2
:01041F0002DA
:010420000BD0
:0104210014C6
:010422001EBB
:0104230009CF
:0104240015C2
:0104250001D5
:010426000FC6
:010427001DB7
:010428000CC7
:010429001CB6
:01042A000DC4
:01042B001FB1
:01042C0011BE
:01042D0005C9
:01042E0019B4
:01042F000EBE
:0104300004C7
:010431001AB0
:0104320012B7
:010433000ABE
:0104340004C3
:010435001EA8
:0104360019AC
:0104370014B0
:0104380011B2
:010439000EB4
:01043A000DB4
:01043B000CB4
:01043C000CB3
:01043D000CB2
:01043E000EAF
:01043F0010AC
:0104400014A7
:0104410018A2
:010442001D9C
:0104430002B6
:0104440009AE
:0104450010A6
:01044600189D
:0104470002B2
:010448000BA8
:01044900169C
:01044A0002AF
:01044B000EA2
:01044C001B94
:01044D0009A5
:01044E001895
:01044F0008A4
:010450001893
:010451000AA0
:010452001C8D
:010453000F99
:0104540003A4
:01045500178F
:010456000D98
:0104570003A1
:010458001A89
:010459001290
:01045A000B96
:01045B00049C
:01045C001F80
:01045D001A84
:01045E001687
:01045F001389
:01046000118A
:010461000F8B
:010462000F8A
:010463000F89
:010464001087
:010465001185
:010466001481
:01046700177D
:010468001C77
:010469000191
:01046A00078A
:01046B000D83
:01046C00157A
:01046D001D71
:01046E000687
:01046F00107C
:010470001B70
:010471000684
:010472001376
:010473000088
:010474000E79
:010475001D69
:010476000C79
:010477001D67
:010478000E75
:010479000082
:01047A00136E
:01047B000779
:01047C001B64
:01047D00106E
:01047E000677
:01047F001D5F
:010480001566
:010481000E6C
:010482000772
:010483000177
:010484001C5B
:01048500185E
:010486001461
:010487001262
:010488001063
:010489000F63
:01048A000E63
:01048B000F61
:01048C00105F
:01048D00135B
:01048E001657
:01048F001953
:010490001E4D
:010491000367
:010492000960
:010493001058
:01049400184F
:010495000165
:010496000A5B
:010497001450
:010498001F44
:010499000B57
:01049A001849
:01049B00055B
:01049C00134C
:01049D00025C
:01049E00124B
:01049F00025A
:0104A0001447
:0104A1000654
:0104A2001940
:0104A3000D4B
:0104A4000156
:0104A5001640
:0104A6000D48
:0104A7000351
:0104A8001B38
:0104A900143E
:0104AA000D44
:0104AB000749
:0104AC00024D
:0104AD001E30
:0104AE001A33
:0104AF001735
:0104B0001536
:0104B1001436
:0104B2001435
:0104B3001434
:0104B4001532
:0104B500172F
:0104B6001A2B
:0104B7001D27
:0104B8000241
:0104B900073B
:0104BA000D34
:0104BB00132D
:0104BC001B24
:0104BD00033B
:0104BE000C31
:0104BF001626
:0104C000013A
:0104C1000C2E
:0104C2001821
:0104C3000533
:0104C4001324
:0104C5000135
:0104C6001124
:0104C7000133
:0104C8001221
:0104C900032F
:0104CA00161B
:0104CB000927
:0104CC001D12
:0104CD00111D
:0104CE000726
:0104CF001D0F
:0104D0001417
:0104D1000C1E
:0104D2000524
:0104D3001E0A
:0104D400180F
:0104D5001313
:0104D6000F16
:0104D7000C18
:0104D800091A
:0104D900071B
:0104DA00061B
:0104DB00061A
:0104DC000619
:0104DD000717
:0104DE000914
:0104DF000C10
:0104E0000F0C
:0104E1001307
:0104E2001801
:0104E3001EFA
:0104E4000512
:0104E5000C0A
:0104E6001401
:0104E7001DF7
:0104E800070C
:0104E9001101
:0104EA001CF5
:0104EB000808
:0104EC0015FA
:0104ED00020C
:0104EE0011FC
:0104EF00000C
:0104F0000FFC
:0104F100000A
:0104F20011F8
:0104F3000305
:0104F40016F1
:0104F5000AFC
:0104F6001EE7
:0104F70013F1
:0104F80009FA
:0104F9000002
:0104FA0017EA
:0104FB000FF1
:0104FC0008F7
:0104FD0002FC
:0104FE001CE1
:0104FF0018E4
:0105000014E6
:0105010010E9
:010502000EEA
:010503000CEB
:010504000BEB
:010505000BEA
:010506000BE9
:010507000DE6
:010508000FE3
:0105090011E0
:01050A0015DB
:01050B0019D6
:01050C001ED0
:01050D0004E9
:01050E000BE1
:01050F0012D9
:010510001AD0
:0105110003E6
:010512000DDB
:0105130017D0
:0105140002E4
:010515000ED7
:010516001BC9
:0105170008DB
:0105180016CC
:0105190005DC
:01051A0015CB
:01051B0005DA
:01051C0016C8
:01051D0008D5
:01051E001BC1
:01051F000ECD
:0105200002D8
:0105210017C2
:010522000DCB
:0105230003D4
:010524001ABC
:0105250012C3
:010526000ACA
:0105270004CF
:010528001EB4
:0105290019B8
:01052A0014BC
:01052B0011BE
:01052C000EC0
:01052D000CC1
:01052E000AC2
:01052F0009C2
:010530000AC0
:010531000ABF
:010532000CBC
:010533000EB9
:0105340011B5
:0105350015B0
:0105360019AB
:010537001FA4
:0105380005BD
:010539000BB6
:01053A0013AD
:01053B001BA4
:01053C0004BA
:01053D000EAF
:01053E0018A4
:01053F0003B8
:010540000FAB
:010541001C9D
:0105420009AF
:0105430017A0
:0105440006B0
:01054500169F
:0105460006AE
:01054700179C
:0105480009A9
:010549001C95
:01054A000FA1
:01054B0003AC
:01054C001896
:01054D000DA0
:01054E0003A9
:01054F001A91
:010550001298
:010551000A9F
:0105520003A5
:010553001D8A
:01055400188E
:010555001392
:010556000F95
:010557000C97
:010558000A98
:010559000899
:01055A000799
:01055B000699
:01055C000797
:01055D000895
:01055E000A92
:01055F000D8E
:01056000108A
:010561001485
:01056200197F
:010563001E79
:010564000591
:010565000C89
:010566001381
:010567001C77
:01056800058D
:010569000F82
:01056A001977
:01056B00058A
:01056C00117D
:01056D001D70
:01056E000B81
:01056F001972
:010570000882
:010571001871
:010572000880
:01057300196E
:010574000B7B
:010575001E67
:010576001173
:01057700057E
:010578001A68
:010579000F72
:01057A00057B
:01057B001C63
:01057C00136B
:01057D000C71
:01057E000577
:01057F001F5C
:010580001961
:010581001465
:010582001068
:010583000D6A
:010584000A6C
:01058500086D
:01058600076D
:01058700066D
:01058800066C
:01058900076A
:01058A000967
:01058B000B64
:01058C000E60
:01058D00125B
:01058E001656
:01058F001B50
:010590000169
:010591000861
:010592000F59
:010593001750
:010594000066
:01059500095C
:010596001351
:010597001E45
:010598000A58
:01059900164B
:01059A00035D
:01059B00114E
:01059C001F3F
:01059D000E4F
:01059E001E3E
:01059F000F4C
:0105A000005A
:0105A1001247
:0105A2000454
:0105A300183F
:0105A4000C4A
:0105A5000055
:0105A600163E
:0105A7000C47
:0105A800034F
:0105A9001A37
:0105AA00133D
:0105AB000C43
:0105AC000549
:0105AD00004D
:0105AE001B31
:0105AF001635
:0105B0001337
:0105B1001039
:0105B2000E3A
:0105B3000D3A
:0105B4000C3A
:0105B5000C39
:0105B6000D37
:0105B7000E35
:0105B8001032
:0105B900132E
:0105BA00162A
:0105BB001A25
:0105BC001F1F
:0105BD000538
:0105BE000B31
:0105BF001229
:0105C0001A20
:0105C1000237
:0105C2000B2D
:0105C3001522
:0105C4001F17
:0105C5000A2B
:0105C600161E
:0105C7000330
:0105C8001022
:0105C9001E13
:0105CA000C24
:0105CB001C13
:0105CC000C22
:0105CD001C11
:0105CE000E1E
:0105CF00002B
:0105D0001317
:0105D1000623
:0105D2001A0E
:0105D3000F18
:0105D4000422
:0105D5001B0A
:0105D6001212
:0105D700091A
:0105D8000121
:0105D9001A07
:0105DA00140C
:0105DB000E11
:0105DC000915
:0105DD000518
:0105DE00011B
:0105DF001FFC
:0105E0001CFE
:0105E1001BFE
:0105E2001AFE
:0105E3001AFD
:0105E4001AFC
:0105E5001BFA
:0105E6001DF7
:0105E7000013
:0105E800030F
:0105E900070A
:0105EA000C04
:0105EB0011FE
:0105EC0017F7
:0105ED001EEF
:0105EE000507
:0105EF000DFE
:0105F00016F4
:0105F1001FEA
:0105F20009FF
:0105F30014F3
:0105F4001FE7
:0105F5000CF9
:0105F60018EC
:0105F70006FD
:0105F80014EE
:0105F90003FE
:0105FA0012EE
:0105FB0003FC
:0105FC0013EB
:0105FD0005F8
:0105FE0017E5
:0105FF000AF1
:010600001EDB
:0106010012E6
:0106020007F0
:010603001CDA
:0106040013E2
:010605000AEA
:0106060001F2
:010607001AD8
:0106080013DE
:010609000CE4
:01060A0007E8
:01060B0002EC
:01060C001DD0
:01060D001AD2
:01060E0017D4
:01060F0014D6
:0106100013D6
:0106110012D6
:0106120011D6
:0106130012D4
:0106140013D2
:0106150015CF
:0106160017CC
:010617001AC8
:010618001EC3
:0106190002DE
:01061A0007D8
:01061B000DD1
:01061C0013CA
:01061D001AC2
:01061E0002D9
:01061F000BCF
:0106200014C5
:010621001DBB
:0106220008CF
:0106230013C3
:010624001FB6
:010625000BC9
:0106260018BB
:0106270006CC
:0106280014BD
:0106290003CD
:01062A0013BC
:01062B0003CB
:01062C0015B8
:01062D0006C6
:01062E0019B2
:01062F000CBE
:010630001FAA
:0106310014B4
:0106320009BE
:010633001FA7
:0106340015B0
:010635000CB8
:0106360004BF
:010637001CA6
:0106380015AC
:010639000FB1
:01063A0009B6
:01063B0004BA
:01063C0000BD
:01063D001CA0
:01063E0019A2
:01063F0016A4
:0106400015A4
:0106410014A4
:0106420013A4
:0106430013A3
:0106440014A1
:01064500169E
:01064600189B
:010647001B97
:010648001E93
:0106490003AD
:01064A0008A7
:01064B000DA1
:01064C00139A
:01064D001A92
:01064E0001AA
:01064F000AA0
:010650001297
:010651001C8C
:0106520006A1
:010653001096
:010654001C89
:01065500089C
:01065600158E
:0106570002A0
:010658001091
:010659001E82
:01065A000E91
:01065B001E80
:01065C000E8F
:01065D001F7D
:01065E00118A
:01065F000496
:010660001782
:010661000B8D
:010662001F78
:010663001482
:010664000A8B
:010665000193
:01066600187B
:010667000F83
:010668000889
:01066900018F
:01066A001A75
:01066B001579
:01066C00107D
:01066D000B81
:01066E000784
:01066F000486
:010670000287
:010671000088
:010672001F68
:010673001E68
:010674001E67
:010675001F65
:010676000083
:010677000280
:01067800057C
:010679000878
:01067A000C73
:01067B00116D
:01067C001667
:01067D001C60
:01067E000378
:01067F000A70
:010680001267
:010681001A5E
:010682000374
:010683000D69
:01068400175E
:010685000272
:010686000E65
:010687001A58
:01068800076A
:01068900145C
:01068A00026D
:01068B00115D
:01068C00016C
:01068D00115B
:01068E000269
:01068F001357
:010690000564
:010691001751
:010692000B5C
:010693001F47
:010694001352
:01069500085C
:010696001E45
:01069700154D
:010698000C55
:01069900035D
:01069A001C43
:01069B001549
:01069C000E4F
:01069D000854
:01069E000358
:01069F001F3B
:0106A0001B3E
:0106A1001840
:0106A2001542
:0106A3001343
:0106A4001243
:0106A5001143
:0106A6001142
:0106A7001141
:0106A800123F
:0106A900143C
:0106AA001738
:0106AB001A34
:0106AC001D30
:0106AD00024A
:0106AE000744
:0106AF000C3E
:0106B0001237
:0106B100192F
:0106B2000047
:0106B300093D
:0106B4001134
:0106B5001A2A
:0106B600043F
:0106B7000F33
:0106B8001A27
:0106B900063A
:0106BA00122D
:0106BB001F1F
:0106BC000D30
:0106BD001B21
:0106BE000A31
:0106BF001A20
:0106C0000A2F
:0106C1001B1D
:0106C2000C2B
:0106C3001E18
:0106C4001124
:0106C5000430
:0106C600181B
:0106C7000D25
:0106C800022F
:0106C9001719
:0106CA000E21
:0106CB000529
:0106CC001C11
:0106CD001517
:0106CE000D1E
:0106CF000723
:0106D0000128
:0106D1001C0C
:0106D2001710
:0106D3001313
:0106D4001015
:0106D5000D17
:0106D6000A19
:0106D7000919
:0106D8000819
:0106D9000818
:0106DA000817
:0106DB000915
:0106DC000A13
:0106DD000C10
:0106DE000F0C
:0106DF001208
:0106E0001603
:0106E1001BFD
:0106E2000017
:0106E3000610
:0106E4000C09
:0106E5001301
:0106E6001BF8
:0106E700030F
:0106E8000C05
:0106E90015FB
:0106EA001FF0
:0106EB000A04
:0106EC0015F8
:0106ED00010B
:0106EE000EFD
:0106EF001BEF
:0106F0000801
:0106F10017F1
:0106F2000601
:0106F30015F1
:0106F4000500
:0106F50016EE
:0106F60008FB
:0106F7001AE8
:0106F8000CF5
:0106F9001FE1
:0106FA0013EC
:0106FB0008F6
:0106FC001DE0
:0106FD0012EA
:0106FE0008F3
:0106FF001FDB
:0107000017E1
:010701000FE8
:0107020007EF
:0107030001F4
:010704001BD9
:0107050015DE
:0107060010E2
:010707000CE5
:0107080008E8
:0107090005EA
:01070A0002EC
:01070B0000ED
:01070C001FCD
:01070D001ECD
:01070E001ECC
:01070F001FCA
:0107100000E8
:0107110002E5
:0107120004E2
:0107130007DE
:010714000ADA
:010715000ED5
:0107160013CF
:0107170018C9
:010718001EC2
:0107190005DA
:01071A000CD2
:01071B0014C9
:01071C001CC0
:01071D0005D6
:01071E000ECC
:01071F0018C1
:0107200003D5
:010721000EC9
:010722001ABC
:0107230007CE
:0107240014C0
:0107250002D1
:0107260010C2
:010727001FB2
:010728000EC2
:010729001EB1
:01072A000FBF
:01072B0000CD
:01072C0012BA
:01072D0004C7
:01072E0017B3
:01072F000BBE
:010730001FA9
:0107310014B3
:0107320009BD
:010733001FA6
:0107340016AE
:010735000DB6
:0107360005BD
:010737001DA4
:0107380016AA
:0107390010AF
:01073A000AB4
:01073B0005B8
:01073C0000BC
:01073D001C9F
:01073E0018A2
:01073F0015A4
:0107400013A5
:0107410011A6
:0107420010A6
:0107430010A5
:0107440010A4
:0107450010A3
:0107460011A1
:01074700139E
:01074800169A
:010749001996
:01074A001C92
:01074B0000AD
:01074C0005A7
:01074D000AA1
:01074E00109A
:01074F001792
:010750001E8A
:0107510005A2
:010752000E98
:01075300168F
:0107540000A4
:010755000A99
:01075600148E
:0107570000A1
:010758000B95
:010759001887
:01075A000599
:01075B00128B
:01075C00009C
:01075D000F8C
:01075E001E7C
:01075F000E8B
:010760001E7A
:010761000F88
:010762000195
:010763001382
:01076400068E
:01076500197A
:010766000D85
:010767000190
:01076800167A
:010769000C83
:01076A00028C
:01076B001974
:01076C00107C
:01076D000883
:01076E000189
:01076F001A6F
:010770001474
:010771000E79
:01077200097D
:010773000481
:010774000084
:010775001D66
:010776001A68
:01077700176A
:01077800166A
:01077900156A
:01077A00146A
:01077B001469
:01077C001567
:01077D001665
:01077E001862
:01077F001A5F
:010780001D5B
:010781000077
:010782000472
:01078300096C
:010784000E66
:01078500145F
:010786001A58
:010787000170
:010788000967
:01078900115E
:01078A001955
:01078B00026B
:01078C000C60
:01078D001655
:01078E000169
:01078F000D5C
:01079000194F
:010791000562
:010792001353
:010793000065
:010794000F55
:010795001E45
:010796000D55
:010797001D44
:010798000E52
:010799001F40
:01079A00104E
:01079B00035A
:01079C001646
:01079D000952
:01079E001D3D
:01079F001247
:0107A0000751
:0107A1001C3B
:0107A2001343
:0107A300094C
:0107A4000153
:0107A500193A
:0107A6001141
:0107A7000A47
:0107A800044C
:0107A9001E31
:0107AA001935
:0107AB001439
:0107AC00103C
:0107AD000D3E
:0107AE000A40
:0107AF000742
:0107B0000642
:0107B1000443
:0107B2000442
:0107B3000342
:0107B4000440
:0107B500053E
:0107B600063C
:0107B7000839
:0107B8000B35
:0107B9000E31
:0107BA00122C
:0107BB001627
:0107BC001B21
:0107BD00013A
:0107BE000733
:0107BF000D2C
:0107C0001424
:0107C1001C1B
:0107C2000432
:0107C3000D28
:0107C400161E
:0107C5000033
:0107C6000B27
:0107C700161B
:0107C800012F
:0107C9000E21
:0107CA001A14
:0107CB000825
:0107CC001517
:0107CD000427
:0107CE001317
:0107CF000227
:0107D0001216
:0107D1000324
:0107D2001412
:0107D300061F
:0107D400180C
:0107D5000B18
:0107D6001E04
:0107D700120F
:0107D800061A
:0107D9001B04
:0107DA00110D
:0107DB000716
:0107DC001EFE
:0107DD001506
:0107DE000D0D
:0107DF000514
:0107E0001EFA
:0107E1001700
:0107E2001105
:0107E3000C09
:0107E400070D
:0107E5000310
:0107E6001FF3
:0107E7001CF5
:0107E80019F7
:0107E90017F8
:0107EA0015F9
:0107EB0014F9
:0107EC0014F8
:0107ED0014F7
:0107EE0014F6
:0107EF0015F4
:0107F00017F1
:0107F10019EE
:0107F2001CEA
:0107F3001FE6
:0107F4000301
:0107F50008FB
:0107F6000DF5
:0107F70012EF
:0107F80018E8
:0107F9001FE0
:0107FA0006F8
:0107FB000EEF
:0107FC0016E6
:0107FD001FDC
:0107FE0008F2
:0107FF0012E7
:010800001CDB
:0108010007EF
:0108020013E2
:010803001FD5
:010804000BE8
:0108050019D9
:0108060006EB
:0108070014DC
:0108080003EC
:0108090013DB
:01080A0002EB
:01080B0013D9
:01080C0004E7
:01080D0015D5
:01080E0007E2
:01080F001ACE
:010810000DDA
:0108110001E5
:0108120015D0
:0108130009DB
:010814001FC4
:0108150014CE
:010816000BD6
:0108170002DE
:0108180019C6
:0108190011CD
:01081A000AD3
:01081B0003D9
:01081C001CBF
:01081D0016C4
:01081E0011C8
:01081F000CCC
:0108200008CF
:0108210004D2
:0108220001D4
:010823001EB6
:010824001CB7
:010825001BB7
:010826001AB7
:0108270019B7
:0108280019B6
:010829001AB4
:01082A001BB2
:01082B001CB0
:01082C001EAD
:01082D0001C9
:01082E0004C5
:01082F0008C0
:010830000CBB
:0108310011B5
:0108320017AE
:010833001CA8
:0108340003C0
:010835000AB8
:0108360011B0
:0108370019A7
:0108380002BD
:010839000BB3
:01083A0015A8
:01083B001F9D
:01083C000AB1
:01083D0015A5
:01083E0000B9
:01083F000DAB
:010840001A9D
:0108410007AF
:0108420015A0
:0108430003B1
:0108440012A1
:0108450002B0
:01084600129F
:0108470002AE
:01084800139C
:0108490005A9
:01084A001796
:01084B0009A3
:01084C001D8E
:01084D00109A
:01084E0004A5
:01084F00198F
:010850000E99
:0108510004A2
:010852001B8A
:010853001193
:01085400099A
:0108550001A1
:010856001988
:01085700128E
:010858000C93
:010859000698
:01085A00009D
:01085B001B81
:01085C001784
:01085D001387
:01085E000F8A
:01085F000D8B
:010860000A8D
:01086100088E
:01086200078E
:01086300068E
:01086400068D
:01086500078B
:01086600078A
:010867000987
:010868000B84
:010869000D81
:01086A00107D
:01086B001379
:01086C001774
:01086D001C6E
:01086E000188
:01086F000682
:010870000C7B
:010871001373
:010872001A6B
:010873000183
:01087400097A
:010875001270
:010876001B66
:01087700057B
:010878000F70
:010879001A64
:01087A000578
:01087B00116B
:01087C001D5E
:01087D000A70
:01087E001762
:01087F000573
:010880001364
:010881000274
:010882001164
:010883000173
:010884001261
:010885000270
:01088600145D
:01088700066A
:010888001857
:010889000B63
:01088A001F4E
:01088B001359
:01088C000764
:01088D001C4E
:01088E001257
:01088F000860
:010890001E49
:010891001650
:010892000D58
:01089300055F
:010894001E45
:01089500174B
:010896001150
:010897000B55
:01089800055A
:01089900015D
:01089A001C41
:01089B001943
:01089C001546
:01089D001347
:01089E001049
:01089F000E4A
:0108A0000D4A
:0108A1000D49
:0108A2000C49
:0108A3000D47
:0108A4000D46
:0108A5000F43
:0108A6001140
:0108A700133D
:0108A8001639
:0108A9001935
:0108AA001D30
:0108AB00014B
:0108AC000645
:0108AD000C3E
:0108AE001138
:0108AF001830
:0108B0001F28
:0108B1000640
:0108B2000E37
:0108B300162E
:0108B4001F24
:0108B5000939
:0108B600132E
:0108B7001D23
:0108B8000837
:0108B900142A
:0108BA00003D
:0108BB000C30
:0108BC001922
:0108BD000733
:0108BE001524
:0108BF000335
:0108C0001225
:0108C1000135
:0108C2001124
:0108C3000232
:0108C4001320
:0108C500052D
:0108C600171A
:0108C7000927
:0108C8001C13
:0108C900101E
:0108CA000429
:0108CB001814
:0108CC000D1E
:0108CD000327
:0108CE001910
:0108CF000F19
:0108D0000621
:0108D1001E08
:0108D200160F
:0108D3000E16
:0108D400071C
:0108D5000121
:0108D6001B06
:0108D700160A
:0108D800110E
:0108D9000C12
:0108DA000815
:0108DB000517
:0108DC000219
:0108DD001FFB
:0108DE001DFC
:0108DF001CFC
:0108E0001BFC
:0108E1001AFC
:0108E2001AFB
:0108E3001BF9
:0108E4001CF7
:0108E5001DF5
:0108E6001FF2
:0108E700020E
:0108E800050A
:0108E9000806
:0108EA000C01
:0108EB0011FB
:0108EC0016F5
:0108ED001BEF
:0108EE000108
:0108EF000800
:0108F0000FF8
:0108F10016F0
:0108F2001EE7
:0108F30006FE
:0108F4000FF4
:0108F50019E9
:0108F60003FE
:0108F7000DF3
:0108F80018E7
:0108F90003FB
:0108FA000FEE
:0108FB001CE0
:0108FC0009F2
:0108FD0016E4
:0108FE0004F5
:0108FF0012E6
:0109000001F5
:0109010010E5
:0109020000F4
:0109030011E2
:0109040001F1
:0109050013DE
:0109060004EC
:0109070017D8
:010908000AE4
:010909001DD0
:01090A0011DB
:01090B0005E6
:01090C001AD0
:01090D000FDA
:01090E0004E4
:01090F001BCC
:0109100011D5
:0109110009DC
:0109120000E4
:0109130018CB
:0109140011D1
:010915000AD7
:0109160004DC
:010917001EC1
:0109180018C6
:0109190014C9
:01091A000FCD
:01091B000BD0
:01091C0008D2
:01091D0005D4
:01091E0002D6
:01091F0000D7
:010920001FB7
:010921001EB7
:010922001DB7
:010923001DB6
:010924001DB5
:010925001EB3
:0109260000D0
:0109270002CD
:0109280004CA
:0109290007C6
:01092A000AC2
:01092B000EBD
:01092C0012B8
:01092D0017B2
:01092E001CAC
:01092F0002C5
:0109300008BE
:010931000FB6
:0109320016AE
:010933001EA5
:0109340006BC
:010935000FB2
:0109360018A8
:0109370001BE
:010938000BB3
:0109390016A7
:01093A0001BB
:01093B000CAF
:01093C0018A2
:01093D0005B4
:01093E0012A6
:01093F001F98
:010940000DA9
:010941001C99
:010942000AAA
:010943001A99
:010944000AA8
:010945001A97
:010946000BA5
:010947001C93
:010948000EA0
:0109490000AD
:01094A001399
:01094B0006A5
:01094C001A90
:01094D000E9B
:01094E0002A6
:01094F001790
:010950000D99
:0109510003A2
:010952001A8A
:010953001093
:01095400089A
:0109550000A1
:010956001888
:01095700118E
:010958000B93
:010959000499
:01095A001F7D
:01095B001A81
:01095C001585
:01095D001188
:01095E000D8B
:01095F00098E
:01096000078F
:010961000491
:010962000292
:010963000192
:010964000092
:010965000091
:010966000090
:01096700008F
:01096800018D
:01096900028B
:01096A000488
:01096B000784
:01096C000981
:01096D000D7C
:01096E001177
:01096F001572
:010970001A6C
:010971001F66
:010972000480
:010973000B78
:010974001171
:010975001869
:010976000080
:010977000877
:01097800106E
:010979001964
:01097A000379
:01097B000C6F
:01097C001763
:01097D000277
:01097E000D6B
:01097F00195E
:010980000571
:010981001263
:010982001F55
:010983000C67
:010984001A58
:010985000968
:010986001858
:010987000867
:010988001856
:010989000865
:01098A001953
:01098B000A61
:01098C001C4E
:01098D000E5B
:01098E000167
:01098F001453
:01099000085E
:010991001C49
:010992001153
:01099300065D
:010994001B47
:010995001150
:010996000858
:010997001F40
:010998001648
:010999000E4F
:01099A000656
:01099B001F3C
:01099C001842
:01099D001247
:01099E000C4C
:01099F000750
:0109A0000254
:0109A1001E37
:0109A2001A3A
:0109A300163D
:0109A400133F
:0109A5001140
:0109A6000E42
:0109A7000D42
:0109A8000C42
:0109A9000B42
:0109AA000B41
:0109AB000B40
:0109AC000B3F
:0109AD000C3D
:0109AE000E3A
:0109AF001037
:0109B0001234
:0109B1001530
:0109B200192B
:0109B3001D26
:0109B4000141
:0109B500063B
:0109B6000B35
:0109B700112E
:0109B8001727
:0109B9001D20
:0109BA000438
:0109BB000C2F
:0109BC001426
:0109BD001C1D
:0109BE000533
:0109BF000F28
:0109C000181E
:0109C1000332
:0109C2000D27
:0109C300191A
:0109C400042E
:0109C5001021
:0109C6001D13
:0109C7000A25
:0109C8001717
:0109C9000528
:0109CA001319
:0109CB000229
:0109CC001218
:0109CD000128
:0109CE001117
:0109CF000225
:0109D0001313
:0109D1000520
:0109D200170D
:0109D300091A
:0109D4001C06
:0109D5000F12
:0109D600031D
:0109D7001708
:0109D8000C12
:0109D900011C
:0109DA001705
:0109DB000D0E
:0109DC000317
:0109DD001AFF
:0109DE001206
:0109DF000A0D
:0109E0000214
:0109E1001BFA
:0109E2001400
:0109E3000E05
:0109E400080A
:0109E500020F
:0109E6001DF3
:0109E70019F6
:0109E80015F9
:0109E90011FC
:0109EA000EFE
:0109EB000B00
:0109EC000901
:0109ED000702
:0109EE000602
:0109EF000502
:0109F0000402
:0109F1000401
:0109F20005FF
:0109F30006FD
:0109F40007FB
:0109F50009F8
:0109F6000BF5
:0109F7000EF1
:0109F80011ED
:0109F90014E9
:0109FA0018E4
:0109FB001DDE
:0109FC0001F9
:0109FD0007F2
:0109FE000DEB
:0109FF0013E4
:010A000019DC
:010A010001F3
:010A020008EB
:010A030010E2
:010A040019D8
:010A050001EF
:010A06000BE4
:010A070015D9
:010A08001FCE
:010A09000AE2
:010A0A0015D6
:010A0B0000EA
:010A0C000CDD
:010A0D0019CF
:010A0E0006E1
:010A0F0013D3
:010A100001E4
:010A11000FD5
:010A12001EC5
:010A13000DD5
:010A14001CC5
:010A15000CD4
:010A16001DC2
:010A17000DD1
:010A18001FBE
:010A190011CB
:010A1A0003D8
:010A1B0015C5
:010A1C0008D1
:010A1D001CBC
:010A1E0010C7
:010A1F0004D2
:010A200019BC
:010A21000EC6
:010A220004CF
:010A23001AB8
:010A240011C0
:010A250008C8
:010A26001FB0
:010A270017B7
:010A280010BD
:010A290009C3
:010A2A0002C9
:010A2B001BAF
:010A2C0016B3
:010A2D0010B8
:010A2E000BBC
:010A2F0006C0
:010A300002C3
:010A31001FA5
:010A32001BA8
:010A330019A9
:010A340016AB
:010A350014AC
:010A360013AC
:010A370012AC
:010A380011AC
:010A390011AB
:010A3A0011AA
:010A3B0012A8
:010A3C0013A6
:010A3D0014A4
:010A3E0016A1
:010A3F00199D
:010A40001C99
:010A41001F95
:010A420003B0
:010A430007AB
:010A44000BA6
:010A450010A0
:010A46001699
:010A47001C92
:010A480002AB
:010A490009A3
:010A4A00109B
:010A4B001892
:010A4C0000A9
:010A4D0008A0
:010A4E001196
:010A4F001A8C
:010A500004A1
:010A51000E96
:010A5200198A
:010A5300049E
:010A54001091
:010A55001C84
:010A56000897
:010A57001589
:010A5800029B
:010A5900108C
:010A5A001E7D
:010A5B000C8E
:010A5C001B7E
:010A5D000B8D
:010A5E001B7C
:010A5F000B8B
:010A60001B7A
:010A61000D87
:010A62001E75
:010A63001082
:010A6400038E
:010A6500157B
:010A66000986
:010A67001C72
:010A6800107D
:010A69000587
:010A6A001A71
:010A6B000F7B
:010A6C000584
:010A6D001B6D
:010A6E001275
:010A6F00097D
:010A70000184
:010A7100196B
:010A72001172
:010A73000A78
:010A7400037E
:010A75001D63
:010A76001768
:010A7700126C
:010A78000D70
:010A79000874
:010A7A000477
:010A7B00007A
:010A7C001D5C
:010A7D001A5E
:010A7E001760
:010A7F001561
:010A80001461
:010A81001262
:010A82001261
:010A83001161
:010A84001160
:010A8500125E
:010A8600135C
:010A8700145A
:010A88001657
:010A89001854
:010A8A001B50
:010A8B001E4C
:010A8C000168
:010A8D000563
:010A8E00095E
:010A8F000E58
:010A90001352
:010A9100194B
:010A92001F44
:010A9300055D
:010A94000C55
:010A9500134D
:010A96001B44
:010A9700035B
:010A98000B52
:010A99001448
:010A9A001E3D
:010A9B000753
:010A9C001247
:010A9D001C3C
:010A9E000750
:010A9F001343
:010AA0001F36
:010AA1000B49
:010AA200183B
:010AA300054D
:010AA400123F
:010AA5000050
:010AA6000F40
:010AA7001E30
:010AA8000D40
:010AA9001C30
:010AAA000D3E
:010AAB001D2D
:010AAC000E3B
:010AAD001F29
:010AAE001136
:010AAF000343
:010AB000162F
:010AB100093B
:010AB2001C27
:010AB3001032
:010AB400043D
:010AB5001927
:010AB6000E31
:010AB700043A
:010AB8001924
:010AB900102C
:010ABA000635
:010ABB001E1C
:010ABC001524
:010ABD000D2B
:010ABE000631
:010ABF001E18
:010AC000181D
:010AC1001123
:010AC2000B28
:010AC300062C
:010AC4000130
:010AC5001C14
:010AC6001817
:010AC700141A
:010AC800111C
:010AC9000E1E
:010ACA000B20
:010ACB000921
:010ACC000722
:010ACD000622
:010ACE000522
:010ACF000422
:010AD0000421
:010AD1000420
:010AD200051E
:010AD300061C
:010AD400071A
:010AD5000917
:010AD6000C13
:010AD7000E10
:010AD800120B
:010AD9001507
:010ADA001902
:010ADB001EFC
:010ADC000217
:010ADD000810
:010ADE000D0A
:010ADF001303
:010AE0001AFB
:010AE1000113
:010AE200080B
:010AE3000F03
:010AE40018F9
:010AE5000010
:010AE6000906
:010AE70012FC
:010AE8001CF1
:010AE9000606
:010AEA0011FA
:010AEB001CEE
:010AEC000702
:010AED0013F5
:010AEE001FE8
:010AEF000BFB
:010AF00018ED
:010AF10006FE
:010AF20014EF
:010AF3000200
:010AF40010F1
:010AF5001FE1
:010AF6000FF0
:010AF7001FDF
:010AF8000FEE
:010AF90000FC
:010AFA0011EA
:010AFB0002F8
:010AFC0014E5
:010AFD0006F2
:010AFE0019DE
:010AFF000CEA
:010B000000F4
:010B010014DF
:010B020008EA
:010B03001DD4
:010B040012DE
:010B050007E8
:010B06001DD1
:010B070013DA
:010B08000AE2
:010B090001EA
:010B0A0019D1
:010B0B0011D8
:010B0C0009DF
:010B0D0002E5
:010B0E001BCB
:010B0F0015D0
:010B10000FD5
:010B110009DA
:010B120004DE
:010B13001FC2
:010B14001AC6
:010B150016C9
:010B160013CB
:010B170010CD
:010B18000DCF
:010B19000AD1
:010B1A0008D2
:010B1B0007D2
:010B1C0006D2
:010B1D0005D2
:010B1E0004D2
:010B1F0004D1
:010B200005CF
:010B210006CD
:010B220007CB
:010B230008C9
:010B24000AC6
:010B25000DC2
:010B26000FBF
:010B270013BA
:010B280016B6
:010B29001AB1
:010B2A001FAB
:010B2B0003C6
:010B2C0009BF
:010B2D000EB9
:010B2E0014B2
:010B2F001BAA
:010B300001C3
:010B310009BA
:010B320010B2
:010B330018A9
:010B340001BF
:010B350009B6
:010B360013AB
:010B37001CA1
:010B380006B6
:010B390010AB
:010B3A001B9F
:010B3B0006B3
:010B3C0012A6
:010B3D001E99
:010B3E000AAC
:010B3F00179E
:010B400004B0
:010B410012A1
:010B420000B2
:010B43000EA3
:010B44001D93
:010B45000CA3
:010B46001B93
:010B47000BA2
:010B48001C90
:010B49000C9F
:010B4A001D8D
:010B4B000F9A
:010B4C0001A7
:010B4D001394
:010B4E0006A0
:010B4F00198C
:010B50000C98
:010B510000A3
:010B5200148E
:010B53000998
:010B54001E82
:010B5500148B
:010B56000995
:010B5700009D
:010B58001686
:010B59000D8E
:010B5A000595
:010B5B001D7C
:010B5C001583
:010B5D000D8A
:010B5E000690
:010B5F000095
:010B6000197B
:010B6100147F
:010B62000E84
:010B63000988
:010B6400048C
:010B6500008F
:010B66001C72
:010B67001974
:010B68001676
:010B69001378
:010B6A00107A
:010B6B000F7A
:010B6C000D7B
:010B6D000C7B
:010B6E000B7B
:010B6F000B7A
:010B70000B79
:010B71000B78
:010B72000C76
:010B73000D74
:010B74000F71
:010B7500116E
:010B7600136B
:010B77001667
:010B78001963
:010B79001C5F
:010B7A00007A
:010B7B000475
:010B7C00096F
:010B7D000E69
:010B7E001462
:010B7F00195C
:010B80000074
:010B8100066D
:010B82000D65
:010B8300155C
:010B84001C54
:010B8500056A
:010B86000D61
:010B87001657
:010B88001F4D
:010B89000962
:010B8A001357
:010B8B001E4B
:010B8C000860
:010B8D001453
:010B8E001F47
:010B8F000B5A
:010B9000184C
:010B9100055E
:010B92001250
:010B93001F42
:010B94000D53
:010B95001C43
:010B96000A54
:010B97001944
:010B98000953
:010B99001942
:010B9A000951
:010B9B001A3F
:010B9C000B4D
:010B9D001C3B
:010B9E000E48
:010B9F000055
:010BA0001242
:010BA100054E
:010BA2001939
:010BA3000C45
:010BA4000050
:010BA500153A
:010BA6000A44
:010BA7001F2E
:010BA8001537
:010BA9000B40
:010BAA000149
:010BAB001831
:010BAC000F39
:010BAD000641
:010BAE001E28
:010BAF00172E
:010BB0000F35
:010BB100083B
:010BB2000240
:010BB3001B26
:010BB400162A
:010BB500102F
:010BB6000B33
:010BB7000637
:010BB800023A
:010BB9001E1D
:010BBA001B1F
:010BBB001722
:010BBC001523
:010BBD001225
:010BBE001026
:010BBF000F26
:010BC0000D27
:010BC1000C27
:010BC2000C26
:010BC3000C25
:010BC4000C24
:010BC5000D22
:010BC6000E20
:010BC7000F1E
:010BC800111B
:010BC9001318
:010BCA001515
:010BCB001811
:010BCC001C0C
:010BCD001F08
:010BCE000323
:010BCF00081D
:010BD0000C18
:010BD1001211
:010BD200170B
:010BD3001D04
:010BD400031D
:010BD5000A15
:010BD600110D
:010BD7001805
:010BD800001C
:010BD9000813
:010BDA001109
:010BDB001AFF
:010BDC000315
:010BDD000D0A
:010BDE0017FF
:010BDF000114
:010BE0000C08
:010BE10017FC
:010BE200030F
:010BE3000F02
:010BE4001BF5
:010BE5000708
:010BE60014FA
:010BE700020B
:010BE80010FC
:010BE9001EED
:010BEA000CFE
:010BEB001BEE
:010BEC000AFE
:010BED001AED
:010BEE000AFC
:010BEF001AEB
:010BF0000BF9
:010BF1001CE7
:010BF2000EF4
:010BF3000001
:010BF40012EE
:010BF50005FA
:010BF60018E6
:010BF7000BF2
:010BF8001FDD
:010BF90013E8
:010BFA0007F3
:010BFB001CDD
:010BFC0011E7
:010BFD0007F0
:010BFE001DD9
:010BFF0013E2
:010C00000AE9
:010C010001F1
:010C020018D9
:010C030010E0
:010C040008E7
:010C050001ED
:010C06001AD3
:010C070013D9
:010C08000DDE
:010C090007E3
:010C0A0001E8
:010C0B001CCC
:010C0C0017D0
:010C0D0012D4
:010C0E000ED7
:010C0F000BD9
:010C100007DC
:010C110004DE
:010C120001E0
:010C13001FC1
:010C14001DC2
:010C15001CC2
:010C16001BC2
:010C17001AC2
:010C180019C2
:010C190019C1
:010C1A0019C0
:010C1B001ABE
:010C1C001BBC
:010C1D001CBA
:010C1E001EB7
:010C1F0000D4
:010C200003D0
:010C210006CC
:010C220009C8
:010C23000CC4
:010C240010BF
:010C250015B9
:010C260019B4
:010C27001EAE
:010C280004C7
:010C29000AC0
:010C2A0010B9
:010C2B0016B2
:010C2C001DAA
:010C2D0004C2
:010C2E000CB9
:010C2F0014B0
:010C30001CA7
:010C310005BD
:010C32000EB3
:010C330017A9
:010C340001BE
:010C35000BB3
:010C360016A7
:010C370001BB
:010C38000CAF
:010C390017A3
:010C3A0003B6
:010C3B0010A8
:010C3C001C9B
:010C3D0009AD
:010C3E00179E
:010C3F0005AF
:010C400013A0
:010C410001B1
:010C420010A1
:010C43001F91
:010C44000FA0
:010C45001F8F
:010C46000F9E
:010C470000AC
:010C4800119A
:010C490002A8
:010C4A001495
:010C4B0006A2
:010C4C00188F
:010C4D000B9B
:010C4E001E87
:010C4F001292
:010C5000069D
:010C51001A88
:010C52000F92
:010C5300049C
:010C54001986
:010C55000F8F
:010C56000598
:010C57001B81
:010C58001289
:010C59000991
:010C5A000198
:010C5B00197F
:010C5C001186
:010C5D00098D
:010C5E000293
:010C5F001C78
:010C6000157E
:010C61000F83
:010C62000A87
:010C6300048C
:010C64001F70
:010C65001B73
:010C66001776
:010C67001379
:010C68000F7C
:010C69000C7E
:010C6A000980
:010C6B000781
:010C6C000582
:010C6D000383
:010C6E000283
:010C6F000183
:010C70000083
:010C71000082
:010C72000081
:010C7300017F
:010C7400017E
:010C7500027C
:010C76000479
:010C77000676
:010C78000873
:010C79000B6F
:010C7A000E6B
:010C7B001167
:010C7C001463
:010C7D00185E
:010C7E001D58
:010C7F000173
:010C8000076C
:010C81000C66
:010C8200125F
:010C83001858
:010C84001E51
:010C85000569
:010C86000C61
:010C87001458
:010C88001C4F
:010C89000466
:010C8A000C5D
:010C8B001553
:010C8C001F48
:010C8D00085E
:010C8E001253
:010C8F001D47
:010C9000075C
:010C91001250
:010C92001E43
:010C93000A56
:010C94001649
:010C9500025C
:010C96000F4E
:010C97001C40
:010C98000A51
:010C99001842
:010C9A000653
:010C9B001444
:010C9C000354
:010C9D001343
:010C9E000253
:010C9F001242
:010CA0000251
:010CA100133F
:010CA200044D
:010CA300163A
:010CA4000748
:010CA5001935
:010CA6000C41
:010CA7001F2D
:010CA8001239
:010CA9000545
:010CAA001930
:010CAB000D3B
:010CAC000245
:010CAD00172F
:010CAE000C39
:010CAF000143
:010CB000172C
:010CB1000D35
:010CB200043D
:010CB3001B25
:010CB400122D
:010CB5000A34
:010CB600023B
:010CB7001A22
:010CB8001328
:010CB9000C2E
:010CBA000534
:010CBB001F19
:010CBC00191E
:010CBD001422
:010CBE000F26
:010CBF000A2A
:010CC000052E
:010CC1000131
:010CC2001D14
:010CC3001A16
:010CC4001619
:010CC500141A
:010CC600111C
:010CC7000F1D
:010CC8000D1E
:010CC9000C1E
:010CCA000B1E
:010CCB000A1E
:010CCC000A1D
:010CCD000A1C
:010CCE000A1B
:010CCF000B19
:010CD0000C17
:010CD1000D15
:010CD2000F12
:010CD300110F
:010CD400130C
:010CD5001608
:010CD6001904
:010CD7001C00
:010CD800001B
:010CD9000416
:010CDA000910
:010CDB000E0A
:010CDC001304
:010CDD0018FE
:010CDE001EF7
:010CDF000410
:010CE0000B08
:010CE1001101
:010CE20019F8
:010CE3000010
:010CE4000807
:010CE50010FE
:010CE60019F4
:010CE700020A
:010CE8000B00
:010CE90015F5
:010CEA001FEA
:010CEB0009FF
:010CEC0013F4
:010CED001EE8
:010CEE000AFB
:010CEF0015EF
:010CF0000102
:010CF1000EF4
:010CF2001AE7
:010CF30007F9
:010CF40015EA
:010CF50002FC
:010CF60010ED
:010CF7001FDD
:010CF8000DEE
:010CF9001CDE
:010CFA000CED
:010CFB001BDD
:010CFC000CEB
:010CFD001CDA
:010CFE000DE8
:010CFF001ED6
:010D00000FE3
:010D010001F0
:010D020013DD
:010D030005EA
:010D040018D6
:010D05000BE2
:010D06001FCD
:010D070013D8
:010D080007E3
:010D09001BCE
:010D0A0010D8
:010D0B0005E2
:010D0C001BCB
:010D0D0010D5
:010D0E0007DD
:010D0F001DC6
:010D100014CE
:010D11000BD6
:010D120003DD
:010D13001AC5
:010D140013CB
:010D15000BD2
:010D160004D8
:010D17001DBE
:010D180017C3
:010D190010C9
:010D1A000BCD
:010D1B0005D2
:010D1C0000D6
:010D1D001BBA
:010D1E0017BD
:010D1F0013C0
:010D20000FC3
:010D21000BC6
:010D220008C8
:010D230006C9
:010D240003CB
:010D250001CC
:010D26001FAD
:010D27001EAD
:010D28001DAD
:010D29001CAD
:010D2A001BAD
:010D2B001BAC
:010D2C001CAA
:010D2D001CA9
:010D2E001DA7
:010D2F001EA5
:010D300000C2
:010D310002BF
:010D320004BC
:010D330007B8
:010D340009B5
:010D35000DB0
:010D360010AC
:010D370014A7
:010D380018A2
:010D39001D9C
:010D3A0002B6
:010D3B0007B0
:010D3C000DA9
:010D3D0013A2
:010D3E00199B
:010D3F001F94
:010D400006AC
:010D41000DA4
:010D4200159B
:010D43001D92
:010D440005A9
:010D45000E9F
:010D46001696
:010D470000AB
:010D480009A1
:010D49001396
:010D4A001D8B
:010D4B00089F
:010D4C001393
:010D4D001E87
:010D4E00099B
:010D4F00158E
:010D500001A1
:010D51000E93
:010D52001B85
:010D53000897
:010D54001688
:010D5500039A
:010D5600128A
:010D5700009B
:010D58000F8B
:010D59001E7B
:010D5A000E8A
:010D5B001D7A
:010D5C000D89
:010D5D001E77
:010D5E000F85
:010D5F000093
:010D60001181
:010D6100038E
:010D6200157B
:010D63000887
:010D64001A74
:010D65000E7F
:010D6600018B
:010D67001576
:010D68000981
:010D69001D6C
:010D6A001276
:010D6B000780
:010D6C001C6A
:010D6D001273
:010D6E00087C
:010D6F001F64
:010D7000156D
:010D71000C75
:010D7200047C
:010D73001B64
:010D7400136B
:010D75000C71
:010D76000478
:010D77001D5E
:010D78001763
:010D79001069
:010D7A000A6E
:010D7B000473
:010D7C001F57
:010D7D001A5B
:010D7E00155F
:010D7F001162
:010D80000D65
:010D81000968
:010D8200066A
:010D8300026D
:010D8400006E
:010D85001D50
:010D86001B51
:010D87001952
:010D88001852
:010D89001752
:010D8A001652
:010D8B001552
:010D8C001551
:010D8D001550
:010D8E00164E
:010D8F00164D
:010D9000174B
:010D91001948
:010D92001B45
:010D93001D42
:010D94001F3F
:010D9500025B
:010D96000557
:010D97000853
:010D98000C4E
:010D99001049
:010D9A001444
:010D9B00193E
:010D9C001E38
:010D9D000352
:010D9E00094B
:010D9F000F44
:010DA000153D
:010DA1001B36
:010DA200024E
:010DA3000A45
:010DA400113D
:010DA5001934
:010DA600014B
:010DA7000A41
:010DA8001238
:010DA9001C2D
:010DAA000543
:010DAB000F38
:010DAC00192D
:010DAD000342
:010DAE000E36
:010DAF00192A
:010DB000053D
:010DB1001031
:010DB2001C24
:010DB3000936
:010DB4001529
:010DB500023B
:010DB600102C
:010DB7001D1E
:010DB8000B2F
:010DB9001920
:010DBA000830
:010DBB001720
:010DBC000630
:010DBD00161F
:010DBE00062E
:010DBF00161D
:010DC000062C
:010DC100171A
:010DC2000828
:010DC3001A15
:010DC4000B23
:010DC5001D10
:010DC600101C
:010DC7000328
:010DC8001614
:010DC9000920
:010DCA001D0B
:010DCB001116
:010DCC000521
:010DCD00190C
:010DCE000E16
:010DCF00041F
:010DD0001909
:010DD1000F12
:010DD200051B
:010DD3001C03
:010DD400130B
:010DD5000A13
:010DD600011B
:010DD7001902
:010DD8001109
:010DD9000A0F
:010DDA000216
:010DDB001BFC
:010DDC001501
:010DDD000E07
:010DDE00080C
:010DDF000310
:010DE0001DF5
:010DE10018F9
:010DE20013FD
:010DE3000F00
:010DE4000B03
:010DE5000706
:010DE6000408
:010DE700000B
:010DE8001EEC
:010DE9001BEE
:010DEA0019EF
:010DEB0017F0
:010DEC0015F1
:010DED0014F1
:010DEE0013F1
:010DEF0012F1
:010DF00012F0
:010DF10012EF
:010DF20012EE
:010DF30013EC
:010DF40014EA
:010DF50015E8
:010DF60016E6
:010DF70018E3
:010DF8001AE0
:010DF9001DDC
:010DFA0000F8
:010DFB0003F4
:010DFC0006F0
:010DFD000AEB
:010DFE000EE6
:010DFF0012E1
:010E000017DA
:010E01001CD4
:010E020001EE
:010E030007E7
:010E04000CE1
:010E050013D9
:010E060019D2
:010E070000EA
:010E080007E2
:010E09000FD9
:010E0A0016D1
:010E0B001EC8
:010E0C0007DE
:010E0D000FD5
:010E0E0018CB
:010E0F0002E0
:010E10000BD6
:010E110015CB
:010E120000DF
:010E13000AD4
:010E140015C8
:010E150000DC
:010E16000CCF
:010E170017C3
:010E180003D6
:010E190010C8
:010E1A001DBA
:010E1B000ACC
:010E1C0017BE
:010E1D0005CF
:010E1E0012C1
:010E1F0001D1
:010E20000FC2
:010E21001EB2
:010E22000DC2
:010E23001DB1
:010E24000DC0
:010E25001DAF
:010E26000DBE
:010E27001EAC
:010E28000FBA
:010E290000C8
:010E2A0012B5
:010E2B0004C2
:010E2C0016AF
:010E2D0009BB
:010E2E001BA8
:010E2F000FB3
:010E300002BF
:010E310016AA
:010E32000AB5
:010E33001EA0
:010E340013AA
:010E350008B4
:010E36001D9E
:010E370013A7
:010E380009B0
:010E39001F99
:010E3A0016A1
:010E3B000DA9
:010E3C0004B1
:010E3D001B99
:010E3E0013A0
:010E3F000BA7
:010E400004AD
:010E41001C94
:010E4200159A
:010E43000EA0
:010E440008A5
:010E450002AA
:010E46001C8F
:010E47001793
:010E48001297
:010E49000D9B
:010E4A00089F
:010E4B0004A2
:010E4C0000A5
:010E4D001C88
:010E4E00198A
:010E4F00168C
:010E5000138E
:010E5100118F
:010E52000E91
:010E53000D91
:010E54000B92
:010E55000A92
:010E56000992
:010E57000892
:010E58000891
:010E59000890
:010E5A00088F
:010E5B00098D
:010E5C000A8B
:010E5D000B89
:010E5E000C87
:010E5F000E84
:010E60001081
:010E6100137D
:010E6200157A
:010E63001876
:010E64001C71
:010E65001F6D
:010E66000388
:010E67000783
:010E68000C7D
:010E69001177
:010E6A001671
:010E6B001B6B
:010E6C000184
:010E6D00077D
:010E6E000D76
:010E6F00146E
:010E70001B66
:010E7100027E
:010E72000976
:010E7300116D
:010E74001964
:010E7500027A
:010E76000B70
:010E77001466
:010E78001D5C
:010E79000672
:010E7A001067
:010E7B001B5B
:010E7C000570
:010E7D001064
:010E7E001B58
:010E7F00066C
:010E8000125F
:010E81001E52
:010E82000A65
:010E83001757
:010E84000469
:010E8500115B
:010E86001F4C
:010E87000D5D
:010E88001B4E
:010E8900095F
:010E8A00184F
:010E8B00075F
:010E8C00164F
:010E8D00065E
:010E8E00154E
:010E8F00065C
:010E9000164B
:010E91000759
:010E92001847
:010E93000955
:010E94001B42
:010E95000D4F
:010E96001F3C
:010E97001248
:010E98000554
:010E99001840
:010E9A000B4C
:010E9B001F37
:010E9C001342
:010E9D00074D
:010E9E001C37
:010E9F001141
:010EA000064B
:010EA1001C34
:010EA200123D
:010EA3000846
:010EA4001E2F
:010EA5001537
:010EA6000C3F
:010EA7000347
:010EA8001B2E
:010EA9001335
:010EAA000B3C
:010EAB000343
:010EAC001C29
:010EAD00152F
:010EAE000E35
:010EAF00083A
:010EB000023F
:010EB1001C24
:010EB2001728
:010EB300122C
:010EB4000D30
:010EB5000834
:010EB6000437
:010EB700003A
:010EB8001C1D
:010EB900191F
:010EBA001621
:010EBB001323
:010EBC001025
:010EBD000E26
:010EBE000C27
:010EBF000B27
:010EC0000928
:010EC1000828
:010EC2000827
:010EC3000727
:010EC4000726
:010EC5000725
:010EC6000724
:010EC7000822
:010EC8000920
:010EC9000A1E
:010ECA000C1B
:010ECB000E18
:010ECC001015
:010ECD001212
:010ECE00150E
:010ECF00180A
:010ED0001C05
:010ED1001F01
:010ED200031C
:010ED3000717
:010ED4000C11
:010ED500110B
:010ED6001605
:010ED7001BFF
:010ED8000118
:010ED9000711
:010EDA000D0A
:010EDB001303
:010EDC001AFB
:010EDD000113
:010EDE00090A
:010EDF001002
:010EE00018F9
:010EE100010F
:010EE2000906
:010EE30012FC
:010EE4001BF2
:010EE5000507
:010EE6000EFD
:010EE70018F2
:010EE8000306
:010EE9000DFB
:010EEA0018EF
:010EEB000303
:010EEC000FF6
:010EED001AEA
:010EEE0006FD
:010EEF0013EF
:010EF0001FE2
:010EF1000CF4
:010EF20019E6
:010EF30007F7
:010EF40015E8
:010EF50003F9
:010EF60011EA
:010EF70000FA
:010EF8000FEA
:010EF9001EDA
:010EFA000DEA
:010EFB001DD9
:010EFC000DE8
:010EFD001DD7
:010EFE000EE5
:010EFF001FD3
:010F000010E0
:010F010002ED
:010F020014DA
:010F030006E7
:010F040018D4
:010F05000BE0
:010F06001ECC
:010F070011D8
:010F080004E4
:010F090018CF
:010F0A000CDA
:010F0B0000E5
:010F0C0015CF
:010F0D000AD9
:010F0E001FC3
:010F0F0015CC
:010F10000BD5
:010F110001DE
:010F120017C7
:010F13000ECF
:010F140005D7
:010F15001CBF
:010F160013C7
:010F17000BCE
:010F180003D5
:010F19001CBB
:010F1A0014C2
:010F1B000DC8
:010F1C0006CE
:010F1D0000D3
:010F1E001AB8
:010F1F0014BD
:010F20000EC2
:010F210009C6
:010F220004CA
:010F23001FAE
:010F24001AB2
:010F250016B5
:010F260012B8
:010F27000EBB
:010F28000BBD
:010F290008BF
:010F2A0005C1
:010F2B0003C2
:010F2C0000C4
:010F2D001EA5
:010F2E001DA5
:010F2F001BA6
:010F30001AA6
:010F310019A6
:010F320019A5
:010F330019A4
:010F340019A3
:010F350019A2
:010F36001AA0
:010F37001A9F
:010F38001C9C
:010F39001D9A
:010F3A001F97
:010F3B0001B4
:010F3C0003B1
:010F3D0005AE
:010F3E0008AA
:010F3F000BA6
:010F40000FA1
:010F4100139C
:010F42001698
:010F43001B92
:010F44001F8D
:010F450004A7
:010F460009A1
:010F47000F9A
:010F48001494
:010F49001A8D
:010F4A0000A6
:010F4B00079E
:010F4C000E96
:010F4D00158E
:010F4E001C86
:010F4F00049D
:010F50000B95
:010F5100148B
:010F52001C82
:010F53000598
:010F54000E8E
:010F55001784
:010F56000199
:010F57000A8F
:010F58001583
:010F59001F78
:010F5A000A8C
:010F5B001580
:010F5C000094
:010F5D000B88
:010F5E00177B
:010F5F00038E
:010F60001080
:010F61001C73
:010F62000985
:010F63001677
:010F64000488
:010F65001279
:010F6600008A
:010F67000E7B
:010F68001D6B
:010F69000B7C
:010F6A001B6B
:010F6B000A7B
:010F6C001A6A
:010F6D000A79
:010F6E001A68
:010F6F000A77
:010F70001B65
:010F71000C73
:010F72001E60
:010F73000F6E
:010F7400017B
:010F75001368
:010F76000674
:010F77001960
:010F78000C6C
:010F79001F58
:010F7A001363
:010F7B00066F
:010F7C001B59
:010F7D000F64
:010F7E00046E
:010F7F001958
:010F80000E62
:010F8100036C
:010F82001955
:010F83000F5E
:010F84000567
:010F85001C4F
:010F86001357
:010F87000A5F
:010F88000266
:010F8900194E
:010F8A001155
:010F8B00095C
:010F8C000262
:010F8D001B48
:010F8E00144E
:010F8F000D54
:010F90000759
:010F9100015E
:010F92001B43
:010F93001548
:010F9400104C
:010F95000B50
:010F96000654
:010F97000257
:010F98001E3A
:010F99001A3D
:010F9A001640
:010F9B001342
:010F9C001044
:010F9D000D46
:010F9E000A48
:010F9F000849
:010FA000064A
:010FA100054A
:010FA200034B
:010FA300024B
:010FA400014B
:010FA500004B
:010FA600004A
:010FA7000049
:010FA8000048
:010FA9000146
:010FAA000145
:010FAB000243
:010FAC000440
:010FAD00053E
:010FAE00073B
:010FAF000938
:010FB0000B35
:010FB1000E31
:010FB200112D
:010FB3001429
:010FB4001824
:010FB5001B20
:010FB6001F1B
:010FB7000435
:010FB8000830
:010FB9000D2A
:010FBA001224
:010FBB00171E
:010FBC001D17
:010FBD000330
:010FBE000929
:010FBF001021
:010FC000161A
:010FC1001D12
:010FC2000529
:010FC3000C21
:010FC4001418
:010FC5001C0F
:010FC6000426
:010FC7000D1C
:010FC8001612
:010FC9001F08
:010FCA00081E
:010FCB001213
:010FCC001C08
:010FCD00061D
:010FCE001111
:010FCF001B06
:010FD000061A
:010FD100120D
:010FD2001D01
:010FD3000914
:010FD4001507
:010FD5000219
:010FD6000E0C
:010FD7001BFE
:010FD8000810
:010FD9001601
:010FDA000313
:010FDB001104
:010FDC000014
:010FDD000E05
:010FDE001DF5
:010FDF000C05
:010FE0001BF5
:010FE1000B04
:010FE2001BF3
:010FE3000B02
:010FE4001BF1
:010FE5000CFF
:010FE6001DED
:010FE7000EFB
:010FE8001FE9
:010FE90011F6
:010FEA000303
:010FEB0015F0
:010FEC0008FC
:010FED001BE8
:010FEE000EF4
:010FEF000100
:010FF00015EB
:010FF10009F6
:010FF2001DE1
:010FF30011EC
:010FF40006F6
:010FF5001BE0
:010FF60010EA
:010FF70005F4
:010FF8001BDD
:010FF90011E6
:010FFA0007EF
:010FFB001ED7
:010FFC0015DF
:010FFD000CE7
:010FFE0003EF
:010FFF001BD6
:00000001ff
