:020000040000FA
:0100000000FF
:0100010000FE
:0100020000FD
:0100030000FC
:0100040000FB
:0100050000FA
:0100060001F8
:0100070001F7
:0100080001F6
:0100090002F4
:01000A0002F3
:01000B0003F1
:01000C0003F0
:01000D0004EE
:01000E0004ED
:01000F0005EB
:0100100006E9
:0100110007E7
:0100120008E5
:0100130008E4
:0100140009E2
:010015000AE0
:010016000BDE
:010017000CDC
:010018000ED9
:010019000FD7
:01001A0010D5
:01001B0011D3
:01001C0012D1
:01001D0014CE
:01001E0015CC
:01001F0017C9
:0100200018C7
:010021001AC4
:010022001BC2
:010023001DBF
:010024001FBC
:0100250000DA
:0100260002D7
:0100270004D4
:0100280006D1
:0100290008CE
:01002A0009CC
:01002B000BC9
:01002C000EC5
:01002D0010C2
:01002E0012BF
:01002F0014BC
:0100300016B9
:0100310018B6
:010032001BB2
:010033001DAF
:010034001FAC
:0100350002C8
:0100360004C5
:0100370007C1
:0100380009BE
:010039000CBA
:01003A000FB6
:01003B0011B3
:01003C0014AF
:01003D0017AB
:01003E001AA7
:01003F001DA3
:0100400000BF
:0100410003BB
:0100420006B7
:0100430009B3
:010044000CAF
:010045000FAB
:0100460012A7
:0100470016A2
:01004800199E
:010049001C9A
:01004A0000B5
:01004B0003B1
:01004C0007AC
:01004D000AA8
:01004E000EA3
:01004F00119F
:01005000159A
:010051001995
:010052001C91
:0100530000AC
:0100540004A7
:0100550008A2
:010056000C9D
:010057001098
:010058001493
:01005900188E
:01005A001C89
:01005B0000A4
:01005C00049F
:01005D000999
:01005E000D94
:01005F00118F
:010060001689
:010061001A84
:010062001E7F
:010063000399
:010064000893
:010065000C8E
:010066001188
:010067001583
:010068001A7D
:010069001F77
:01006A000491
:01006B00098B
:01006C000D86
:01006D001280
:01006E00177A
:01006F001C74
:01007000028D
:010071000787
:010072000C81
:01007300117B
:010074001675
:010075001C6E
:010076000188
:010077000682
:010078000C7B
:010079001175
:01007A00176E
:01007B001C68
:01007C000281
:01007D00077B
:01007E000D74
:01007F00136D
:010080001966
:010081001E60
:010082000479
:010083000A72
:01008400106B
:010085001664
:010086001C5D
:010087000276
:01008800086F
:010089000F67
:01008A001560
:01008B001B59
:01008C000172
:01008D00086A
:01008E000E63
:01008F00145C
:010090001B54
:01009100016D
:010092000865
:010093000F5D
:010094001556
:010095001C4E
:010096000366
:01009700095F
:010098001057
:01009900174F
:01009A001E47
:01009B00055F
:01009C000C57
:01009D00134F
:01009E001A47
:01009F00015F
:0100A0000857
:0100A1000F4F
:0100A2001746
:0100A3001E3E
:0100A4000556
:0100A5000D4D
:0100A6001445
:0100A7001B3D
:0100A8000354
:0100A9000A4C
:0100AA001243
:0100AB001A3A
:0100AC000152
:0100AD000949
:0100AE001140
:0100AF001937
:0100B000004F
:0100B1000846
:0100B200103D
:0100B3001834
:0100B400004B
:0100B5000842
:0100B6001039
:0100B7001830
:0100B8000146
:0100B900093D
:0100BA001134
:0100BB00192B
:0100BC000241
:0100BD000A38
:0100BE00122F
:0100BF001B25
:0100C000033C
:0100C1000C32
:0100C2001429
:0100C3001D1F
:0100C4000635
:0100C5000E2C
:0100C6001722
:0100C7000038
:0100C800092E
:0100C9001224
:0100CA001B1A
:0100CB000430
:0100CC000D26
:0100CD00161C
:0100CE001F12
:0100CF000828
:0100D000111E
:0100D1001A14
:0100D200032A
:0100D3000D1F
:0100D4001615
:0100D5001F0B
:0100D6000920
:0100D7001216
:0100D8001C0B
:0100D9000521
:0100DA000F16
:0100DB00190B
:0100DC000221
:0100DD000C16
:0100DE00160B
:0100DF001F01
:0100E0000916
:0100E100130B
:0100E2001D00
:0100E3000715
:0100E400110A
:0100E5001BFF
:0100E6000514
:0100E7000F09
:0100E80019FE
:0100E9000412
:0100EA000E07
:0100EB0018FC
:0100EC000211
:0100ED000D05
:0100EE0017FA
:0100EF00020E
:0100F0000C03
:0100F10017F7
:0100F200010C
:0100F3000C00
:0100F40016F5
:0100F5000109
:0100F6000CFD
:0100F70017F1
:0100F8000106
:0100F9000CFA
:0100FA0017EE
:0100FB000202
:0100FC000DF6
:0100FD0018EA
:0100FE0003FE
:0100FF000EF2
:0101000019E5
:0101010004F9
:0101020010EC
:010103001BE0
:0101040006F4
:0101050011E8
:010106001DDB
:0101070008EF
:0101080014E2
:010109001FD6
:01010A000BE9
:01010B0016DD
:01010C0002F0
:01010D000EE3
:01010E0019D7
:01010F0005EA
:0101100011DD
:010111001DD0
:0101120008E4
:0101130014D7
:0101140000EA
:010115000CDD
:0101160018D0
:0101170004E3
:0101180010D6
:010119001CC9
:01011A0009DB
:01011B0015CE
:01011C0001E1
:01011D000DD4
:01011E001AC6
:01011F0006D9
:0101200012CC
:010121001FBE
:010122000BD1
:0101230018C3
:0101240004D6
:0101250011C8
:010126001EBA
:010127000ACD
:0101280017BF
:0101290004D1
:01012A0011C3
:01012B001DB6
:01012C000AC8
:01012D0017BA
:01012E0004CC
:01012F0011BE
:010130001EB0
:010131000BC2
:0101320018B4
:0101330006C5
:0101340013B7
:0101350000C9
:010136000DBB
:010137001BAC
:0101380008BE
:0101390015B0
:01013A0003C1
:01013B0010B3
:01013C001EA4
:01013D000BB6
:01013E0019A7
:01013F0006B9
:0101400014AA
:0101410002BB
:0101420010AC
:010143001D9E
:010144000BAF
:0101450019A0
:0101460007B1
:0101470015A2
:0101480003B3
:0101490011A4
:01014A001F95
:01014B000DA6
:01014C001B97
:01014D0009A8
:01014E001799
:01014F0006A9
:01015000149A
:0101510002AB
:01015200119B
:010153001F8C
:010154000D9D
:010155001C8D
:010156000A9E
:01015700198E
:01015800079F
:01015900168F
:01015A00059F
:01015B001390
:01015C0002A0
:01015D001190
:01015E0000A0
:01015F000F90
:010160001E80
:010161000C91
:010162001B81
:010163000A91
:010164001981
:010165000990
:010166001880
:010167000790
:010168001680
:010169000590
:01016A00157F
:01016B00048F
:01016C00137F
:01016D00038E
:01016E00127E
:01016F00018E
:01017000117D
:01017100008D
:01017200107C
:01017300008B
:010174000F7B
:010175001F6A
:010176000F79
:010177001E69
:010178000E78
:010179001E67
:01017A000E76
:01017B001E65
:01017C000E74
:01017D001E63
:01017E000E72
:01017F001E61
:010180000E70
:010181001E5F
:010182000E6E
:010183001F5C
:010184000F6B
:010185001F5A
:010186000F69
:010187000077
:010188001066
:010189000174
:01018A001163
:01018B000271
:01018C001260
:01018D00036E
:01018E00135D
:01018F00046B
:010190001559
:010191000568
:010192001656
:010193000764
:010194001852
:010195000960
:010196001A4E
:010197000B5C
:010198001C4A
:010199000D58
:01019A001E46
:01019B000F54
:01019C000062
:01019D001150
:01019E00025E
:01019F00144B
:0101A0000559
:0101A1001647
:0101A2000854
:0101A3001942
:0101A4000A50
:0101A5001C3D
:0101A6000D4B
:0101A7001F38
:0101A8001046
:0101A9000253
:0101AA001440
:0101AB00054E
:0101AC00173B
:0101AD000948
:0101AE001B35
:0101AF000D42
:0101B0001E30
:0101B100103D
:0101B200024A
:0101B3001437
:0101B4000644
:0101B5001831
:0101B6000A3E
:0101B7001D2A
:0101B8000F37
:0101B9000144
:0101BA001331
:0101BB00053E
:0101BC00182A
:0101BD000A37
:0101BE001C24
:0101BF000F30
:0101C000013D
:0101C1001429
:0101C2000636
:0101C3001922
:0101C4000C2E
:0101C5001E1B
:0101C6001127
:0101C7000433
:0101C8001620
:0101C900092C
:0101CA001C18
:0101CB000F24
:0101CC000230
:0101CD00151C
:0101CE000828
:0101CF001B14
:0101D0000E20
:0101D100012C
:0101D2001418
:0101D3000724
:0101D4001A10
:0101D5000D1C
:0101D6000028
:0101D7001413
:0101D800071F
:0101D9001A0B
:0101DA000E16
:0101DB000122
:0101DC00150D
:0101DD000819
:0101DE001C04
:0101DF000F10
:0101E000031B
:0101E1001706
:0101E2000A12
:0101E3001EFD
:0101E4001208
:0101E5000514
:0101E60019FF
:0101E7000D0A
:0101E8000115
:0101E9001500
:0101EA00090B
:0101EB001DF6
:0101EC001101
:0101ED00050C
:0101EE0019F7
:0101EF000D02
:0101F000010D
:0101F10016F7
:0101F2000A02
:0101F3001EED
:0101F40012F8
:0101F5000702
:0101F6001BED
:0101F70010F7
:0101F8000402
:0101F90018ED
:0101FA000DF7
:0101FB000201
:0101FC0016EC
:0101FD000BF6
:0101FE001FE1
:0101FF0014EB
:0102000009F4
:010201001EDE
:0102020012E9
:0102030007F3
:010204001CDD
:0102050011E7
:0102060006F1
:010207001BDB
:0102080010E5
:0102090005EF
:01020A001AD9
:01020B000FE3
:01020C0004ED
:01020D0019D7
:01020E000FE0
:01020F0004EA
:0102100019D4
:010211000FDD
:0102120004E7
:0102130019D1
:010214000FDA
:0102150004E4
:010216001ACD
:010217000FD7
:0102180005E0
:010219001ACA
:01021A0010D3
:01021B0006DC
:01021C001BC6
:01021D0011CF
:01021E0007D8
:01021F001DC1
:0102200012CB
:0102210008D4
:010222001EBD
:0102230014C6
:010224000ACF
:0102250000D8
:0102260016C1
:010227000CCA
:0102280002D3
:0102290019BB
:01022A000FC4
:01022B0005CD
:01022C001BB6
:01022D0011BF
:01022E0008C7
:01022F001EB0
:0102300015B8
:010231000BC1
:0102320001CA
:0102330018B2
:010234000EBB
:0102350005C3
:010236001CAB
:0102370012B4
:0102380009BC
:0102390000C4
:01023A0016AD
:01023B000DB5
:01023C0004BD
:01023D001BA5
:01023E0011AE
:01023F0008B6
:010240001F9E
:0102410016A6
:010242000DAE
:0102430004B6
:010244001B9E
:0102450012A6
:010246000AAD
:0102470001B5
:01024800189D
:010249000FA5
:01024A0006AD
:01024B001E94
:01024C00159C
:01024D000CA4
:01024E0004AB
:01024F001B93
:01025000139A
:010251000AA2
:0102520002A9
:010253001991
:010254001198
:0102550008A0
:0102560000A7
:01025700188E
:010258001095
:01025900079D
:01025A001F84
:01025B00178B
:01025C000F92
:01025D000799
:01025E001F80
:01025F001787
:010260000F8E
:010261000795
:010262001F7C
:010263001783
:010264000F8A
:010265000791
:010266001F78
:01026700187E
:010268001085
:01026900088C
:01026A000093
:01026B001979
:01026C001180
:01026D000A86
:01026E00028D
:01026F001B73
:01027000137A
:010271000C80
:010272000487
:010273001D6D
:010274001574
:010275000E7A
:010276000780
:010277000086
:01027800186D
:010279001173
:01027A000A79
:01027B00037F
:01027C001C65
:01027D00156B
:01027E000E71
:01027F000777
:01028000007D
:010281001963
:010282001269
:010283000B6F
:010284000475
:010285001E5A
:010286001760
:010287001066
:01028800096C
:010289000371
:01028A001C57
:01028B00165C
:01028C000F62
:01028D000967
:01028E00026D
:01028F001C52
:010290001558
:010291000F5D
:010292000863
:010293000268
:010294001C4D
:010295001553
:010296000F58
:01029700095D
:010298000362
:010299001D47
:01029A00174C
:01029B001052
:01029C000A57
:01029D00045C
:01029E001E41
:01029F001945
:0102A000134A
:0102A1000D4F
:0102A2000754
:0102A3000159
:0102A4001B3E
:0102A5001543
:0102A6001047
:0102A7000A4C
:0102A8000451
:0102A9001F35
:0102AA00193A
:0102AB00143E
:0102AC000E43
:0102AD000947
:0102AE00034C
:0102AF001E30
:0102B0001835
:0102B1001339
:0102B2000E3D
:0102B3000842
:0102B4000346
:0102B5001E2A
:0102B600192E
:0102B7001333
:0102B8000E37
:0102B900093B
:0102BA00043F
:0102BB001F23
:0102BC001A27
:0102BD00152B
:0102BE00102F
:0102BF000B33
:0102C0000637
:0102C100013B
:0102C2001C1F
:0102C3001822
:0102C4001326
:0102C5000E2A
:0102C600092E
:0102C7000531
:0102C8000035
:0102C9001B19
:0102CA00171C
:0102CB001220
:0102CC000E23
:0102CD000927
:0102CE00052A
:0102CF00002E
:0102D0001C11
:0102D1001814
:0102D2001318
:0102D3000F1B
:0102D4000B1E
:0102D5000622
:0102D6000225
:0102D7001E08
:0102D8001A0B
:0102D900160E
:0102DA001211
:0102DB000E14
:0102DC000A17
:0102DD00061A
:0102DE00021D
:0102DF001E00
:0102E0001A03
:0102E1001606
:0102E2001209
:0102E3000E0C
:0102E4000B0E
:0102E5000711
:0102E6000314
:0102E7001FF7
:0102E8001CF9
:0102E90018FC
:0102EA0015FE
:0102EB001101
:0102EC000D04
:0102ED000A06
:0102EE000708
:0102EF00030B
:0102F000000D
:0102F1001CF0
:0102F20019F2
:0102F30016F4
:0102F40012F7
:0102F5000FF9
:0102F6000CFB
:0102F70009FD
:0102F80006FF
:0102F9000202
:0102FA001FE4
:0102FB001CE6
:0102FC0019E8
:0102FD0016EA
:0102FE0013EC
:0102FF0010EE
:010300000DEF
:010301000BF0
:0103020008F2
:0103030005F4
:0103040002F6
:010305001FD8
:010306001DD9
:010307001ADB
:0103080017DD
:0103090015DE
:01030A0012E0
:01030B000FE2
:01030C000DE3
:01030D000AE5
:01030E0008E6
:01030F0005E8
:0103100003E9
:0103110001EA
:010312001ECC
:010313001CCD
:0103140019CF
:0103150017D0
:0103160015D1
:0103170013D2
:0103180011D3
:010319000ED5
:01031A000CD6
:01031B000AD7
:01031C0008D8
:01031D0006D9
:01031E0004DA
:01031F0002DB
:0103200000DC
:010321001EBD
:010322001CBE
:010323001ABF
:0103240019BF
:0103250017C0
:0103260015C1
:0103270013C2
:0103280012C2
:0103290010C3
:01032A000EC4
:01032B000DC4
:01032C000BC5
:01032D000AC5
:01032E0008C6
:01032F0007C6
:0103300005C7
:0103310004C7
:0103320002C8
:0103330001C8
:0103340000C8
:010335001EA9
:010336001DA9
:010337001CA9
:010338001AAA
:0103390019AA
:01033A0018AA
:01033B0017AA
:01033C0016AA
:01033D0015AA
:01033E0014AA
:01033F0013AA
:0103400012AA
:0103410011AA
:0103420010AA
:010343000FAA
:010344000EAA
:010345000DAA
:010346000CAA
:010347000BAA
:010348000BA9
:010349000AA9
:01034A0009A9
:01034B0009A8
:01034C0008A8
:01034D0007A8
:01034E0007A7
:01034F0006A7
:0103500006A6
:0103510005A6
:0103520005A5
:0103530004A5
:0103540004A4
:0103550004A3
:0103560003A3
:0103570003A2
:0103580003A1
:0103590002A1
:01035A0002A0
:01035B00029F
:01035C00029E
:01035D00029D
:01035E00019D
:01035F00019C
:01036000019B
:01036100019A
:010362000199
:010363000198
:010364000197
:010365000196
:010366000294
:010367000293
:010368000292
:010369000291
:01036A000290
:01036B00038E
:01036C00038D
:01036D00038C
:01036E00048A
:01036F000489
:010370000488
:010371000586
:010372000585
:010373000683
:010374000682
:010375000780
:01037600077F
:01037700087D
:01037800097B
:01037900097A
:01037A000A78
:01037B000B76
:01037C000B75
:01037D000C73
:01037E000D71
:01037F000E6F
:010380000F6D
:01038100106B
:010382001169
:010383001267
:010384001365
:010385001463
:010386001561
:01038700165F
:01038800175D
:01038900185B
:01038A001959
:01038B001A57
:01038C001B55
:01038D001D52
:01038E001E50
:01038F001F4E
:01039000006C
:010391000269
:010392000367
:010393000564
:010394000662
:01039500085F
:01039600095D
:010397000B5A
:010398000C58
:010399000E55
:01039A000F53
:01039B001150
:01039C00134D
:01039D00144B
:01039E001648
:01039F001845
:0103A0001943
:0103A1001B40
:0103A2001D3D
:0103A3001F3A
:0103A4000157
:0103A5000354
:0103A6000551
:0103A700074E
:0103A800094B
:0103A9000B48
:0103AA000D45
:0103AB000F42
:0103AC00113F
:0103AD00133C
:0103AE001539
:0103AF001736
:0103B0001A32
:0103B1001C2F
:0103B2001E2C
:0103B3000049
:0103B4000345
:0103B5000542
:0103B600083E
:0103B7000A3B
:0103B8000C38
:0103B9000F34
:0103BA001131
:0103BB00142D
:0103BC00162A
:0103BD001926
:0103BE001C22
:0103BF001E1F
:0103C000013B
:0103C1000437
:0103C2000634
:0103C3000930
:0103C4000C2C
:0103C5000F28
:0103C6001224
:0103C7001421
:0103C800171D
:0103C9001A19
:0103CA001D15
:0103CB000031
:0103CC00032D
:0103CD000629
:0103CE000925
:0103CF000C21
:0103D0000F1D
:0103D1001318
:0103D2001614
:0103D3001910
:0103D4001C0C
:0103D5001F08
:0103D6000323
:0103D700061F
:0103D800091B
:0103D9000D16
:0103DA001012
:0103DB00130E
:0103DC001709
:0103DD001A05
:0103DE001E00
:0103DF00011C
:0103E0000517
:0103E1000813
:0103E2000C0E
:0103E3001009
:0103E4001305
:0103E5001700
:0103E6001BFB
:0103E7001EF7
:0103E8000212
:0103E900060D
:0103EA000A08
:0103EB000E03
:0103EC0012FE
:0103ED0015FA
:0103EE0019F5
:0103EF001DF0
:0103F000010B
:0103F1000506
:0103F2000901
:0103F3000DFC
:0103F40011F7
:0103F50016F1
:0103F6001AEC
:0103F7001EE7
:0103F8000202
:0103F90006FD
:0103FA000BF7
:0103FB000FF2
:0103FC0013ED
:0103FD0017E8
:0103FE001CE2
:0103FF0000FD
:0104000005F6
:0104010009F1
:010402000EEB
:0104030012E6
:0104040017E0
:010405001BDB
:0104060000F5
:0104070004F0
:0104080009EA
:010409000EE4
:01040A0012DF
:01040B0017D9
:01040C001CD3
:01040D0000EE
:01040E0005E8
:01040F000AE2
:010410000FDC
:0104110014D6
:0104120019D0
:010413001DCB
:0104140002E5
:0104150007DF
:010416000CD9
:0104170011D3
:0104180016CD
:010419001CC6
:01041A0001E0
:01041B0006DA
:01041C000BD4
:01041D0010CE
:01041E0015C8
:01041F001BC1
:0104200000DB
:0104210005D5
:010422000ACF
:0104230010C8
:0104240015C2
:010425001BBB
:0104260000D5
:0104270005CF
:010428000BC8
:0104290010C2
:01042A0016BB
:01042B001BB5
:01042C0001CE
:01042D0007C7
:01042E000CC1
:01042F0012BA
:0104300018B3
:010431001DAD
:0104320003C6
:0104330009BF
:010434000FB8
:0104350014B2
:010436001AAB
:0104370000C4
:0104380006BD
:010439000CB6
:01043A0012AF
:01043B0018A8
:01043C001EA1
:01043D0004BA
:01043E000AB3
:01043F0010AC
:0104400016A5
:010441001C9E
:0104420002B7
:0104430009AF
:010444000FA8
:0104450015A1
:010446001B9A
:0104470002B2
:0104480008AB
:010449000EA4
:01044A00159C
:01044B001B95
:01044C0001AE
:01044D0008A6
:01044E000E9F
:01044F001597
:010450001B90
:0104510002A8
:0104520008A1
:010453000F99
:010454001691
:010455001C8A
:0104560003A2
:010457000A9A
:010458001093
:01045900178B
:01045A001E83
:01045B00059B
:01045C000B94
:01045D00128C
:01045E001984
:01045F00009C
:010460000794
:010461000E8C
:010462001584
:010463001C7C
:010464000394
:010465000A8C
:010466001184
:01046700187C
:010468001F74
:01046900078B
:01046A000E83
:01046B00157B
:01046C001C73
:01046D00038B
:01046E000B82
:01046F00127A
:010470001972
:010471000189
:010472000881
:010473001078
:010474001770
:010475001E68
:01047600067F
:010477000D77
:01047800156E
:010479001D65
:01047A00047D
:01047B000C74
:01047C00136C
:01047D001B63
:01047E00037A
:01047F000A72
:010480001269
:010481001A60
:010482000277
:010483000A6E
:010484001166
:01048500195D
:010486000174
:01048700096B
:010488001162
:010489001959
:01048A000170
:01048B000967
:01048C00115E
:01048D001955
:01048E00016C
:01048F000963
:01049000115A
:010491001A50
:010492000267
:010493000A5E
:010494001255
:010495001B4B
:010496000362
:010497000B59
:010498001350
:010499001C46
:01049A00045D
:01049B000D53
:01049C00154A
:01049D001E40
:01049E000657
:01049F000F4D
:0104A0001744
:0104A100005A
:0104A2000851
:0104A3001147
:0104A4001A3D
:0104A5000254
:0104A6000B4A
:0104A7001440
:0104A8001C37
:0104A900054D
:0104AA000E43
:0104AB001739
:0104AC00004F
:0104AD000846
:0104AE00113C
:0104AF001A32
:0104B0000348
:0104B1000C3E
:0104B2001534
:0104B3001E2A
:0104B4000740
:0104B5001036
:0104B600192C
:0104B7000242
:0104B8000C37
:0104B900152D
:0104BA001E23
:0104BB000739
:0104BC00102F
:0104BD001A24
:0104BE00033A
:0104BF000C30
:0104C0001625
:0104C1001F1B
:0104C2000831
:0104C3001226
:0104C4001B1C
:0104C5000531
:0104C6000E27
:0104C700181C
:0104C8000132
:0104C9000B27
:0104CA00141D
:0104CB001E12
:0104CC000728
:0104CD00111D
:0104CE001B12
:0104CF000428
:0104D0000E1D
:0104D1001812
:0104D2000227
:0104D3000B1D
:0104D4001512
:0104D5001F07
:0104D600091C
:0104D7001311
:0104D8001D06
:0104D900071B
:0104DA001110
:0104DB001B05
:0104DC00051A
:0104DD000F0F
:0104DE001904
:0104DF000319
:0104E0000D0E
:0104E1001703
:0104E2000118
:0104E3000B0D
:0104E4001601
:0104E5000016
:0104E6000A0B
:0104E7001400
:0104E8001FF4
:0104E9000909
:0104EA0013FE
:0104EB001EF2
:0104EC000807
:0104ED0013FB
:0104EE001DF0
:0104EF000804
:0104F00012F9
:0104F1001DED
:0104F2000702
:0104F30012F6
:0104F4001CEB
:0104F50007FF
:0104F60011F4
:0104F7001CE8
:0104F80007FC
:0104F90012F0
:0104FA001CE5
:0104FB0007F9
:0104FC0012ED
:0104FD001DE1
:0104FE0007F6
:0104FF0012EA
:010500001DDD
:0105010008F1
:0105020013E5
:010503001ED9
:0105040009ED
:0105050014E1
:010506001FD5
:010507000AE9
:0105080015DD
:0105090000F1
:01050A000BE5
:01050B0016D9
:01050C0001ED
:01050D000DE0
:01050E0018D4
:01050F0003E8
:010510000EDC
:010511001ACF
:0105120005E3
:0105130010D7
:010514001CCA
:0105150007DE
:0105160012D2
:010517001EC5
:0105180009D9
:0105190015CC
:01051A0000E0
:01051B000CD3
:01051C0017C7
:01051D0003DA
:01051E000ECE
:01051F001AC1
:0105200006D4
:0105210011C8
:010522001DBB
:0105230009CE
:0105240014C2
:0105250000D5
:010526000CC8
:0105270018BB
:0105280003CF
:010529000FC2
:01052A001BB5
:01052B0007C8
:01052C0013BB
:01052D001FAE
:01052E000BC1
:01052F0017B4
:0105300003C7
:010531000FBA
:010532001BAD
:0105330007C0
:0105340013B3
:010535001FA6
:010536000BB9
:0105370017AC
:0105380004BE
:0105390010B1
:01053A001CA4
:01053B0008B7
:01053C0015A9
:01053D0001BC
:01053E000DAF
:01053F001AA1
:0105400006B4
:0105410012A7
:010542001F99
:010543000BAC
:01054400189E
:0105450004B1
:0105460011A3
:010547001D96
:010548000AA8
:01054900169B
:01054A0003AD
:01054B00109F
:01054C001C92
:01054D0009A4
:01054E001696
:01054F0002A9
:010550000F9B
:010551001C8D
:01055200099F
:010553001592
:0105540002A4
:010555000F96
:010556001C88
:01055700099A
:01055800168C
:01055900039E
:01055A001090
:01055B001D82
:01055C000A94
:01055D001786
:01055E000498
:01055F00118A
:010560001E7C
:010561000B8E
:010562001880
:010563000592
:010564001383
:010565000095
:010566000D87
:010567001A79
:01056800088A
:01056900157C
:01056A00028E
:01056B00107F
:01056C001D71
:01056D000A83
:01056E001874
:01056F000586
:010570001377
:010571000089
:010572000E7A
:010573001B6C
:01057400097D
:01057500166F
:010576000480
:010577001271
:010578001F63
:010579000D74
:01057A001B65
:01057B000877
:01057C001668
:01057D000479
:01057E00126A
:01057F001F5C
:010580000D6D
:010581001B5E
:01058200096F
:010583001760
:010584000571
:010585001362
:010586000173
:010587000F64
:010588001D55
:010589000B66
:01058A001957
:01058B000768
:01058C001559
:01058D00036A
:01058E00115B
:01058F001F4C
:010590000E5C
:010591001C4D
:010592000A5E
:01059300184F
:01059400075F
:010595001550
:010596000361
:010597001152
:010598000062
:010599000E53
:01059A001D43
:01059B000B54
:01059C001945
:01059D000855
:01059E001646
:01059F000556
:0105A0001446
:0105A1000257
:0105A2001147
:0105A3001F38
:0105A4000E48
:0105A5001D38
:0105A6000B49
:0105A7001A39
:0105A8000949
:0105A900173A
:0105AA00064A
:0105AB00153A
:0105AC00044A
:0105AD00133A
:0105AE00014B
:0105AF00103B
:0105B0001F2B
:0105B1000E3B
:0105B2001D2B
:0105B3000C3B
:0105B4001B2B
:0105B5000A3B
:0105B600192B
:0105B700083B
:0105B800172B
:0105B900063B
:0105BA00152B
:0105BB00043B
:0105BC00132B
:0105BD00033A
:0105BE00122A
:0105BF00013A
:0105C000102A
:0105C1000039
:0105C2000F29
:0105C3001E19
:0105C4000D29
:0105C5001D18
:0105C6000C28
:0105C7001C17
:0105C8000B27
:0105C9001A17
:0105CA000A26
:0105CB001916
:0105CC000925
:0105CD001815
:0105CE000824
:0105CF001813
:0105D0000723
:0105D1001712
:0105D2000622
:0105D3001611
:0105D4000620
:0105D5001510
:0105D600051F
:0105D700150E
:0105D800051D
:0105D900140D
:0105DA00041C
:0105DB00140B
:0105DC00041A
:0105DD001409
:0105DE000418
:0105DF001308
:0105E0000317
:0105E1001306
:0105E2000315
:0105E3001304
:0105E4000313
:0105E5001302
:0105E6000311
:0105E70014FF
:0105E800040E
:0105E90014FD
:0105EA00040C
:0105EB0014FB
:0105EC00040A
:0105ED0014F9
:0105EE000507
:0105EF0015F6
:0105F0000505
:0105F10015F4
:0105F2000602
:0105F30016F1
:0105F4000600
:0105F50017EE
:0105F60007FD
:0105F70018EB
:0105F80008FA
:0105F90019E8
:0105FA0009F7
:0105FB001AE5
:0105FC000AF4
:0105FD001BE2
:0105FE000BF1
:0105FF001CDF
:010600000CED
:010601001DDB
:010602000EE9
:010603001ED8
:010604000FE6
:0106050000F4
:0106060011E2
:0106070001F1
:0106080012DF
:0106090003ED
:01060A0014DB
:01060B0005E9
:01060C0015D8
:01060D0006E6
:01060E0017D4
:01060F0008E2
:0106100019D0
:010611000ADE
:010612001BCC
:010613000CDA
:010614001DC8
:010615000ED6
:010616001FC4
:0106170010D2
:0106180001E0
:0106190013CD
:01061A0004DB
:01061B0015C9
:01061C0006D7
:01061D0017C5
:01061E0009D2
:01061F001AC0
:010620000BCE
:010621001CBC
:010622000EC9
:010623001FB7
:0106240010C5
:0106250002D2
:0106260013C0
:0106270005CD
:0106280016BB
:0106290008C8
:01062A0019B6
:01062B000BC3
:01062C001CB1
:01062D000EBE
:01062E001FAC
:01062F0011B9
:0106300002C7
:0106310014B4
:0106320006C1
:0106330017AF
:0106340009BC
:010635001BA9
:010636000DB6
:010637001EA4
:0106380010B1
:0106390002BE
:01063A0014AB
:01063B0006B8
:01063C0018A5
:01063D0009B3
:01063E001BA0
:01063F000DAD
:010640001F9A
:0106410011A7
:0106420003B4
:0106430015A1
:0106440007AE
:01064500199B
:010646000BA8
:010647001D95
:010648000FA2
:0106490002AE
:01064A00149B
:01064B0006A8
:01064C001895
:01064D000AA2
:01064E001D8E
:01064F000F9B
:0106500001A8
:010651001395
:0106520006A1
:01065300188E
:010654000A9B
:010655001D87
:010656000F94
:0106570002A0
:01065800148D
:01065900069A
:01065A001986
:01065B000B93
:01065C001E7F
:01065D00108C
:01065E000398
:01065F001684
:010660000891
:010661001B7D
:010662000D8A
:010663000096
:010664001382
:01066500068E
:01066600187B
:010667000B87
:010668001E73
:01066900117F
:01066A00038C
:01066B001678
:01066C000984
:01066D001C70
:01066E000F7C
:01066F000288
:010670001574
:010671000880
:010672001A6D
:010673000D79
:010674000085
:010675001371
:01067600077C
:010677001A68
:010678000D74
:010679000080
:01067A00136C
:01067B000678
:01067C001964
:01067D000C70
:01067E00007B
:01067F001367
:010680000673
:01068100195F
:010682000D6A
:010683000076
:010684001362
:01068500076D
:010686001A59
:010687000D65
:010688000170
:01068900145C
:01068A000867
:01068B001B53
:01068C000F5E
:01068D00026A
:01068E001655
:01068F000961
:010690001D4C
:010691001058
:010692000463
:01069300174F
:010694000B5A
:010695001F45
:010696001251
:01069700065C
:010698001A47
:010699000E52
:01069A00015E
:01069B001549
:01069C000954
:01069D001D3F
:01069E00114A
:01069F000456
:0106A0001841
:0106A1000C4C
:0106A2000057
:0106A3001442
:0106A400084D
:0106A5001C38
:0106A6001043
:0106A700044E
:0106A8001839
:0106A9000C44
:0106AA00004F
:0106AB00143A
:0106AC000845
:0106AD001D2F
:0106AE00113A
:0106AF000545
:0106B0001930
:0106B1000D3B
:0106B2000245
:0106B3001630
:0106B4000A3B
:0106B5001E26
:0106B6001330
:0106B700073B
:0106B8001B26
:0106B9001030
:0106BA00043B
:0106BB001826
:0106BC000D30
:0106BD00013B
:0106BE001625
:0106BF000A30
:0106C0001F1A
:0106C1001325
:0106C200082F
:0106C3001C1A
:0106C4001124
:0106C500062E
:0106C6001A19
:0106C7000F23
:0106C800042D
:0106C9001818
:0106CA000D22
:0106CB00022C
:0106CC001617
:0106CD000B21
:0106CE00002B
:0106CF001515
:0106D0000A1F
:0106D1001E0A
:0106D2001314
:0106D300081E
:0106D4001D08
:0106D5001212
:0106D600071C
:0106D7001C06
:0106D8001110
:0106D900061A
:0106DA001B04
:0106DB00100E
:0106DC000518
:0106DD001A02
:0106DE000F0C
:0106DF000416
:0106E0001900
:0106E1000E0A
:0106E2000413
:0106E30019FD
:0106E4000E07
:0106E5000311
:0106E60018FB
:0106E7000E04
:0106E800030E
:0106E90018F8
:0106EA000D02
:0106EB00030B
:0106EC0018F5
:0106ED000EFE
:0106EE000308
:0106EF0018F2
:0106F0000EFB
:0106F1000305
:0106F20019EE
:0106F3000EF8
:0106F4000401
:0106F50019EB
:0106F6000FF4
:0106F70004FE
:0106F8001AE7
:0106F9000FF1
:0106FA0005FA
:0106FB001BE3
:0106FC0010ED
:0106FD0006F6
:0106FE001CDF
:0106FF0011E9
:0107000007F1
:010701001DDA
:0107020013E3
:0107030009EC
:010704001ED6
:0107050014DF
:010706000AE8
:0107070000F1
:0107080016DA
:010709000CE3
:01070A0002EC
:01070B0018D5
:01070C000DDF
:01070D0003E8
:01070E0019D1
:01070F000FDA
:0107100006E2
:010711001CCB
:0107120012D4
:0107130008DD
:010714001EC6
:0107150014CF
:010716000AD8
:0107170000E1
:0107180016CA
:010719000DD2
:01071A0003DB
:01071B0019C4
:01071C000FCD
:01071D0006D5
:01071E001CBE
:01071F0012C7
:0107200009CF
:010721001FB8
:0107220015C1
:010723000CC9
:0107240002D2
:0107250019BA
:010726000FC3
:0107270005CC
:010728001CB4
:0107290012BD
:01072A0009C5
:01072B0000CD
:01072C0016B6
:01072D000DBE
:01072E0003C7
:01072F001AAF
:0107300010B8
:0107310007C0
:010732001EA8
:0107330014B1
:010734000BB9
:0107350002C1
:0107360019A9
:010737000FB2
:0107380006BA
:010739001DA2
:01073A0014AA
:01073B000BB2
:01073C0002BA
:01073D0018A3
:01073E000FAB
:01073F0006B3
:010740001D9B
:0107410014A3
:010742000BAB
:0107430002B3
:01074400199B
:0107450010A3
:0107460007AB
:010747001E93
:01074800159B
:010749000CA3
:01074A0003AB
:01074B001B92
:01074C00129A
:01074D0009A2
:01074E0000AA
:01074F001792
:010750000E9A
:0107510006A1
:010752001D89
:010753001491
:010754000C98
:0107550003A0
:010756001A88
:01075700128F
:010758000997
:01075900009F
:01075A001886
:01075B000F8E
:01075C000795
:01075D001E7D
:01075E001585
:01075F000D8C
:010760000494
:010761001C7B
:010762001482
:010763000B8A
:010764000391
:010765001A79
:010766001280
:010767000A87
:01076800018F
:010769001976
:01076A00117D
:01076B000885
:01076C00008C
:01076D001873
:01076E00107A
:01076F000782
:010770001F69
:010771001770
:010772000F77
:01077300077E
:010774001F65
:01077500166D
:010776000E74
:01077700067B
:010778001E62
:010779001669
:01077A000E70
:01077B000677
:01077C001E5E
:01077D001665
:01077E000E6C
:01077F000673
:010780001E5A
:010781001760
:010782000F67
:01078300076E
:010784001F55
:01078500175C
:010786000F63
:010787000869
:010788000070
:010789001857
:01078A00105E
:01078B000964
:01078C00016B
:01078D001952
:01078E001258
:01078F000A5F
:010790000266
:010791001B4C
:010792001353
:010793000C59
:010794000460
:010795001C47
:01079600154D
:010797000D54
:01079800065A
:010799001E41
:01079A001747
:01079B00104D
:01079C000854
:01079D00015A
:01079E001941
:01079F001247
:0107A0000B4D
:0107A1000354
:0107A2001C3A
:0107A3001540
:0107A4000E46
:0107A500064D
:0107A6001F33
:0107A7001839
:0107A800113F
:0107A9000946
:0107AA00024C
:0107AB001B32
:0107AC001438
:0107AD000D3E
:0107AE000644
:0107AF001F2A
:0107B0001830
:0107B1001136
:0107B2000A3C
:0107B3000342
:0107B4001C28
:0107B500152E
:0107B6000E34
:0107B700073A
:0107B8000040
:0107B9001926
:0107BA00122C
:0107BB000B32
:0107BC000438
:0107BD001E1D
:0107BE001723
:0107BF001029
:0107C000092F
:0107C1000235
:0107C2001C1A
:0107C3001520
:0107C4000E26
:0107C500082B
:0107C6000131
:0107C7001A17
:0107C800141C
:0107C9000D22
:0107CA000628
:0107CB00002D
:0107CC001913
:0107CD001318
:0107CE000C1E
:0107CF000623
:0107D0001F09
:0107D100190E
:0107D2001214
:0107D3000C19
:0107D400051F
:0107D5001F04
:0107D600180A
:0107D700120F
:0107D8000C14
:0107D900051A
:0107DA001FFF
:0107DB001904
:0107DC00120A
:0107DD000C0F
:0107DE000614
:0107DF000019
:0107E00019FF
:0107E1001304
:0107E2000D09
:0107E300070E
:0107E4000113
:0107E5001BF8
:0107E60014FE
:0107E7000E03
:0107E8000808
:0107E900020D
:0107EA001CF2
:0107EB0016F7
:0107EC0010FC
:0107ED000A01
:0107EE000406
:0107EF001EEB
:0107F00018F0
:0107F10012F5
:0107F2000CFA
:0107F30006FF
:0107F4000103
:0107F5001BE8
:0107F60015ED
:0107F7000FF2
:0107F80009F7
:0107F90003FC
:0107FA001EE0
:0107FB0018E5
:0107FC0012EA
:0107FD000CEF
:0107FE0007F3
:0107FF0001F8
:010800001BDC
:0108010016E0
:0108020010E5
:010803000AEA
:0108040005EE
:010805001FD3
:010806001AD7
:0108070014DC
:010808000FE0
:0108090009E5
:01080A0004E9
:01080B001ECE
:01080C0019D2
:01080D0013D7
:01080E000EDB
:01080F0008E0
:0108100003E4
:010811001EC8
:0108120018CD
:0108130013D1
:010814000DD6
:0108150008DA
:0108160003DE
:010817001EC2
:0108180018C7
:0108190013CB
:01081A000ECF
:01081B0009D3
:01081C0003D8
:01081D001EBC
:01081E0019C0
:01081F0014C4
:010820000FC8
:010821000ACC
:0108220005D0
:010823001FB5
:010824001AB9
:0108250015BD
:0108260010C1
:010827000BC5
:0108280006C9
:0108290001CD
:01082A001CB1
:01082B0017B5
:01082C0012B9
:01082D000EBC
:01082E0009C0
:01082F0004C4
:010830001FA8
:010831001AAC
:0108320015B0
:0108330010B4
:010834000CB7
:0108350007BB
:0108360002BF
:010837001DA3
:0108380019A6
:0108390014AA
:01083A000FAE
:01083B000AB2
:01083C0006B5
:01083D0001B9
:01083E001D9C
:01083F0018A0
:0108400013A4
:010841000FA7
:010842000AAB
:0108430006AE
:0108440001B2
:010845001D95
:010846001899
:01084700149C
:010848000FA0
:010849000BA3
:01084A0006A7
:01084B0002AA
:01084C001D8E
:01084D001991
:01084E001594
:01084F001098
:010850000C9B
:01085100089E
:0108520003A2
:010853001F85
:010854001B88
:01085500178B
:01085600128F
:010857000E92
:010858000A95
:010859000698
:01085A00029B
:01085B001D7F
:01085C001982
:01085D001585
:01085E001188
:01085F000D8B
:01086000098E
:010861000591
:010862000194
:010863001D77
:01086400197A
:01086500157D
:010866001180
:010867000D83
:010868000986
:010869000589
:01086A00018C
:01086B001D6F
:01086C001972
:01086D001575
:01086E001277
:01086F000E7A
:010870000A7D
:010871000680
:010872000283
:010873001F65
:010874001B68
:01087500176B
:01087600136E
:010877001070
:010878000C73
:010879000876
:01087A000578
:01087B00017B
:01087C001D5E
:01087D001A60
:01087E001663
:01087F001365
:010880000F68
:010881000C6A
:01088200086D
:01088300056F
:010884000172
:010885001E54
:010886001A57
:010887001759
:01088800135C
:01088900105E
:01088A000C61
:01088B000963
:01088C000665
:01088D000268
:01088E001F4A
:01088F001C4C
:01089000184F
:010891001551
:010892001253
:010893000F55
:010894000B58
:01089500085A
:01089600055C
:01089700025E
:010898001F40
:010899001C42
:01089A001845
:01089B001547
:01089C001249
:01089D000F4B
:01089E000C4D
:01089F00094F
:0108A0000651
:0108A1000353
:0108A2000055
:0108A3001D37
:0108A4001A39
:0108A500173B
:0108A600143D
:0108A700113F
:0108A8000E41
:0108A9000B43
:0108AA000845
:0108AB000646
:0108AC000348
:0108AD00004A
:0108AE001D2C
:0108AF001A2E
:0108B0001730
:0108B1001531
:0108B2001233
:0108B3000F35
:0108B4000C37
:0108B5000A38
:0108B600073A
:0108B700043C
:0108B800023D
:0108B9001F1F
:0108BA001D20
:0108BB001A22
:0108BC001724
:0108BD001525
:0108BE001227
:0108BF001028
:0108C0000D2A
:0108C1000B2B
:0108C200082D
:0108C300062E
:0108C4000330
:0108C5000131
:0108C6001E13
:0108C7001C14
:0108C8001916
:0108C9001717
:0108CA001518
:0108CB00121A
:0108CC00101B
:0108CD000E1C
:0108CE000B1E
:0108CF00091F
:0108D0000720
:0108D1000422
:0108D2000223
:0108D3000024
:0108D4001E05
:0108D5001C06
:0108D6001908
:0108D7001709
:0108D800150A
:0108D900130B
:0108DA00110C
:0108DB000F0D
:0108DC000D0E
:0108DD000A10
:0108DE000811
:0108DF000612
:0108E0000413
:0108E1000214
:0108E2000015
:0108E3001EF6
:0108E4001CF7
:0108E5001AF8
:0108E60018F9
:0108E70017F9
:0108E80015FA
:0108E90013FB
:0108EA0011FC
:0108EB000FFD
:0108EC000DFE
:0108ED000BFF
:0108EE000AFF
:0108EF000800
:0108F0000601
:0108F1000402
:0108F2000203
:0108F3000103
:0108F4001FE4
:0108F5001DE5
:0108F6001CE5
:0108F7001AE6
:0108F80018E7
:0108F90017E7
:0108FA0015E8
:0108FB0013E9
:0108FC0012E9
:0108FD0010EA
:0108FE000FEA
:0108FF000DEB
:010900000CEA
:010901000AEB
:0109020009EB
:0109030007EC
:0109040006EC
:0109050004ED
:0109060003ED
:0109070001EE
:0109080000EE
:010909001ECF
:01090A001DCF
:01090B001CCF
:01090C001AD0
:01090D0019D0
:01090E0018D0
:01090F0016D1
:0109100015D1
:0109110014D1
:0109120013D1
:0109130011D2
:0109140010D2
:010915000FD2
:010916000ED2
:010917000CD3
:010918000BD3
:010919000AD3
:01091A0009D3
:01091B0008D3
:01091C0007D3
:01091D0006D3
:01091E0005D3
:01091F0004D3
:0109200002D4
:0109210001D4
:0109220000D4
:010923001FB4
:010924001EB4
:010925001DB4
:010926001DB3
:010927001CB3
:010928001BB3
:010929001AB3
:01092A0019B3
:01092B0018B3
:01092C0017B3
:01092D0016B3
:01092E0015B3
:01092F0015B2
:0109300014B2
:0109310013B2
:0109320012B2
:0109330011B2
:0109340011B1
:0109350010B1
:010936000FB1
:010937000FB0
:010938000EB0
:010939000DB0
:01093A000DAF
:01093B000CAF
:01093C000BAF
:01093D000BAE
:01093E000AAE
:01093F0009AE
:0109400009AD
:0109410008AD
:0109420008AC
:0109430007AC
:0109440007AB
:0109450006AB
:0109460006AA
:0109470005AA
:0109480005A9
:0109490005A8
:01094A0004A8
:01094B0004A7
:01094C0003A7
:01094D0003A6
:01094E0003A5
:01094F0002A5
:0109500002A4
:0109510002A3
:0109520001A3
:0109530001A2
:0109540001A1
:0109550001A0
:0109560000A0
:01095700009F
:01095800009E
:01095900009D
:01095A001F7D
:01095B001F7C
:01095C001F7B
:01095D001F7A
:01095E001F79
:01095F001F78
:010960001F77
:010961001F76
:010962001F75
:010963001F74
:010964001F73
:010965001F72
:010966001F71
:010967001F70
:010968001F6F
:010969001F6E
:01096A001F6D
:01096B001F6C
:01096C001F6B
:01096D001F6A
:01096E001F69
:01096F001F68
:010970001F67
:010971001F66
:010972000084
:010973000083
:010974000082
:010975000081
:01097600017F
:01097700017E
:01097800017D
:01097900017C
:01097A00027A
:01097B000279
:01097C000278
:01097D000376
:01097E000375
:01097F000374
:010980000472
:010981000471
:010982000470
:01098300056E
:01098400056D
:01098500066B
:01098600066A
:010987000768
:010988000767
:010989000865
:01098A000864
:01098B000962
:01098C000961
:01098D000A5F
:01098E000B5D
:01098F000B5C
:010990000C5A
:010991000C59
:010992000D57
:010993000E55
:010994000E54
:010995000F52
:010996001050
:01099700104F
:01099800114D
:01099900124B
:01099A001349
:01099B001348
:01099C001446
:01099D001544
:01099E001642
:01099F001740
:0109A000183E
:0109A100183D
:0109A200193B
:0109A3001A39
:0109A4001B37
:0109A5001C35
:0109A6001D33
:0109A7001E31
:0109A8001F2F
:0109A900004D
:0109AA00014B
:0109AB000249
:0109AC000347
:0109AD000445
:0109AE000543
:0109AF000641
:0109B000073F
:0109B100083D
:0109B200093B
:0109B3000A39
:0109B4000C36
:0109B5000D34
:0109B6000E32
:0109B7000F30
:0109B800102E
:0109B900112C
:0109BA001329
:0109BB001427
:0109BC001525
:0109BD001623
:0109BE001820
:0109BF00191E
:0109C0001A1C
:0109C1001C19
:0109C2001D17
:0109C3001E15
:0109C4000032
:0109C5000130
:0109C600022E
:0109C700042B
:0109C8000529
:0109C9000726
:0109CA000824
:0109CB000A21
:0109CC000B1F
:0109CD000D1C
:0109CE000E1A
:0109CF001017
:0109D0001115
:0109D1001312
:0109D2001410
:0109D300160D
:0109D400170B
:0109D5001908
:0109D6001B05
:0109D7001C03
:0109D8001E00
:0109D900001D
:0109DA00011B
:0109DB000318
:0109DC000515
:0109DD000613
:0109DE000810
:0109DF000A0D
:0109E0000C0A
:0109E1000D08
:0109E2000F05
:0109E3001102
:0109E40013FF
:0109E50015FC
:0109E60016FA
:0109E70018F7
:0109E8001AF4
:0109E9001CF1
:0109EA001EEE
:0109EB00000B
:0109EC000208
:0109ED000405
:0109EE000602
:0109EF0008FF
:0109F0000AFC
:0109F1000CF9
:0109F2000EF6
:0109F30010F3
:0109F40012F0
:0109F50014ED
:0109F60016EA
:0109F70018E7
:0109F8001AE4
:0109F9001CE1
:0109FA001EDE
:0109FB0000FB
:0109FC0003F7
:0109FD0005F4
:0109FE0007F1
:0109FF0009EE
:010A00000BEA
:010A01000EE6
:010A020010E3
:010A030012E0
:010A040014DD
:010A050017D9
:010A060019D6
:010A07001BD3
:010A08001DD0
:010A090000EC
:010A0A0002E9
:010A0B0005E5
:010A0C0007E2
:010A0D0009DF
:010A0E000CDB
:010A0F000ED8
:010A100011D4
:010A110013D1
:010A120015CE
:010A130018CA
:010A14001AC7
:010A15001DC3
:010A16001FC0
:010A170002DC
:010A180004D9
:010A190007D5
:010A1A000AD1
:010A1B000CCE
:010A1C000FCA
:010A1D0011C7
:010A1E0014C3
:010A1F0017BF
:010A200019BC
:010A21001CB8
:010A22001FB4
:010A230001D1
:010A240004CD
:010A250007C9
:010A260009C6
:010A27000CC2
:010A28000FBE
:010A290012BA
:010A2A0015B6
:010A2B0017B3
:010A2C001AAF
:010A2D001DAB
:010A2E0000C7
:010A2F0003C3
:010A300006BF
:010A310008BC
:010A32000BB8
:010A33000EB4
:010A340011B0
:010A350014AC
:010A360017A8
:010A37001AA4
:010A38001DA0
:010A390000BC
:010A3A0003B8
:010A3B0006B4
:010A3C0009B0
:010A3D000CAC
:010A3E000FA8
:010A3F0012A4
:010A400015A0
:010A4100189C
:010A42001C97
:010A43001F93
:010A440002AF
:010A450005AB
:010A460008A7
:010A47000BA3
:010A48000F9E
:010A4900129A
:010A4A001596
:010A4B001892
:010A4C001C8D
:010A4D001F89
:010A4E0002A5
:010A4F0005A1
:010A5000099C
:010A51000C98
:010A52000F94
:010A5300138F
:010A5400168B
:010A55001987
:010A56001D82
:010A5700009E
:010A58000499
:010A59000795
:010A5A000A91
:010A5B000E8C
:010A5C001188
:010A5D001583
:010A5E00187F
:010A5F001C7A
:010A60001F76
:010A61000391
:010A6200068D
:010A63000A88
:010A64000E83
:010A6500117F
:010A6600157A
:010A67001876
:010A68001C71
:010A6900008C
:010A6A000388
:010A6B000783
:010A6C000B7E
:010A6D000E7A
:010A6E001275
:010A6F001670
:010A70001A6B
:010A71001D67
:010A72000182
:010A7300057D
:010A74000978
:010A75000C74
:010A7600106F
:010A7700146A
:010A78001865
:010A79001C60
:010A7A00007B
:010A7B000476
:010A7C000772
:010A7D000B6D
:010A7E000F68
:010A7F001363
:010A8000175E
:010A81001B59
:010A82001F54
:010A8300036F
:010A8400076A
:010A85000B65
:010A86000F60
:010A8700135B
:010A88001756
:010A89001B51
:010A8A001F4C
:010A8B000367
:010A8C000861
:010A8D000C5C
:010A8E001057
:010A8F001452
:010A9000184D
:010A91001C48
:010A92000063
:010A9300055D
:010A94000958
:010A95000D53
:010A9600114E
:010A97001648
:010A98001A43
:010A99001E3E
:010A9A000259
:010A9B000753
:010A9C000B4E
:010A9D000F49
:010A9E001443
:010A9F00183E
:010AA0001C39
:010AA1000153
:010AA200054E
:010AA3000A48
:010AA4000E43
:010AA500133D
:010AA6001738
:010AA7001B33
:010AA800004D
:010AA9000448
:010AAA000942
:010AAB000D3D
:010AAC001237
:010AAD001632
:010AAE001B2C
:010AAF000046
:010AB0000441
:010AB100093B
:010AB2000D36
:010AB3001230
:010AB400172A
:010AB5001B25
:010AB600003F
:010AB7000539
:010AB8000934
:010AB9000E2E
:010ABA001328
:010ABB001723
:010ABC001C1D
:010ABD000137
:010ABE000631
:010ABF000A2C
:010AC0000F26
:010AC1001420
:010AC200191A
:010AC3001E14
:010AC400032E
:010AC5000729
:010AC6000C23
:010AC700111D
:010AC8001617
:010AC9001B11
:010ACA00002B
:010ACB000525
:010ACC000A1F
:010ACD000F19
:010ACE001413
:010ACF00190D
:010AD0001E07
:010AD1000321
:010AD200081B
:010AD3000D15
:010AD400120F
:010AD5001709
:010AD6001C03
:010AD700011D
:010AD8000617
:010AD9000B11
:010ADA00100B
:010ADB001505
:010ADC001BFE
:010ADD000018
:010ADE000512
:010ADF000A0C
:010AE0000F06
:010AE10015FF
:010AE2001AF9
:010AE3001FF3
:010AE400040D
:010AE5000A06
:010AE6000F00
:010AE70014FA
:010AE80019F4
:010AE9001FED
:010AEA000407
:010AEB000901
:010AEC000FFA
:010AED0014F4
:010AEE0019EE
:010AEF001FE7
:010AF0000401
:010AF1000AFA
:010AF2000FF4
:010AF30015ED
:010AF4001AE7
:010AF5001FE1
:010AF60005FA
:010AF7000AF4
:010AF80010ED
:010AF90016E6
:010AFA001BE0
:010AFB0001F9
:010AFC0006F3
:010AFD000CEC
:010AFE0011E6
:010AFF0017DF
:010B00001DD7
:010B010002F1
:010B020008EA
:010B03000DE4
:010B040013DD
:010B050019D6
:010B06001ED0
:010B070004E9
:010B08000AE2
:010B090010DB
:010B0A0015D5
:010B0B001BCE
:010B0C0001E7
:010B0D0007E0
:010B0E000CDA
:010B0F0012D3
:010B100018CC
:010B11001EC5
:010B120004DE
:010B130009D8
:010B14000FD1
:010B150015CA
:010B16001BC3
:010B170001DC
:010B180007D5
:010B19000DCE
:010B1A0013C7
:010B1B0019C0
:010B1C001FB9
:010B1D0005D2
:010B1E000BCB
:010B1F0011C4
:010B200017BD
:010B21001DB6
:010B220003CF
:010B230009C8
:010B24000FC1
:010B250015BA
:010B26001BB3
:010B270001CC
:010B280007C5
:010B29000DBE
:010B2A0013B7
:010B2B001AAF
:010B2C0000C8
:010B2D0006C1
:010B2E000CBA
:010B2F0012B3
:010B300019AB
:010B31001FA4
:010B320005BD
:010B33000BB6
:010B340012AE
:010B350018A7
:010B36001EA0
:010B370004B9
:010B38000BB1
:010B390011AA
:010B3A0017A3
:010B3B001E9B
:010B3C0004B4
:010B3D000AAD
:010B3E0011A5
:010B3F00179E
:010B40001E96
:010B410004AF
:010B42000BA7
:010B430011A0
:010B44001799
:010B45001E91
:010B460004AA
:010B47000BA2
:010B4800119B
:010B49001893
:010B4A001E8C
:010B4B0005A4
:010B4C000C9C
:010B4D001295
:010B4E00198D
:010B4F001F86
:010B5000069E
:010B51000D96
:010B5200138F
:010B53001A87
:010B540000A0
:010B55000798
:010B56000E90
:010B57001588
:010B58001B81
:010B59000299
:010B5A000991
:010B5B000F8A
:010B5C001682
:010B5D001D7A
:010B5E000492
:010B5F000B8A
:010B60001183
:010B6100187B
:010B62001F73
:010B6300068B
:010B64000D83
:010B6500147B
:010B66001A74
:010B6700018C
:010B68000884
:010B69000F7C
:010B6A001674
:010B6B001D6C
:010B6C000484
:010B6D000B7C
:010B6E001274
:010B6F00196C
:010B70000084
:010B7100077C
:010B72000E74
:010B7300156C
:010B74001C64
:010B7500037C
:010B76000A74
:010B7700116C
:010B78001864
:010B79001F5C
:010B7A000773
:010B7B000E6B
:010B7C001563
:010B7D001C5B
:010B7E000373
:010B7F000A6B
:010B80001262
:010B8100195A
:010B82000072
:010B8300076A
:010B84000E62
:010B85001659
:010B86001D51
:010B87000469
:010B88000B61
:010B89001358
:010B8A001A50
:010B8B000168
:010B8C00095F
:010B8D001057
:010B8E00174F
:010B8F001F46
:010B9000065E
:010B91000E55
:010B9200154D
:010B93001C45
:010B9400045C
:010B95000B54
:010B9600134B
:010B97001A43
:010B9800025A
:010B99000952
:010B9A001149
:010B9B001841
:010B9C000058
:010B9D000750
:010B9E000F47
:010B9F00173E
:010BA0001E36
:010BA100064D
:010BA2000D45
:010BA300153C
:010BA4001D33
:010BA500044B
:010BA6000C42
:010BA700133A
:010BA8001B31
:010BA9000348
:010BAA000B3F
:010BAB001237
:010BAC001A2E
:010BAD000245
:010BAE00093D
:010BAF001134
:010BB000192B
:010BB1000142
:010BB2000939
:010BB3001031
:010BB4001828
:010BB500003F
:010BB6000836
:010BB700102D
:010BB8001824
:010BB9001F1C
:010BBA000733
:010BBB000F2A
:010BBC001721
:010BBD001F18
:010BBE00072F
:010BBF000F26
:010BC000171D
:010BC1001F14
:010BC200072B
:010BC3000F22
:010BC4001719
:010BC5001F10
:010BC6000727
:010BC7000F1E
:010BC8001715
:010BC9001F0C
:010BCA000723
:010BCB000F1A
:010BCC001711
:010BCD001F08
:010BCE00081E
:010BCF001015
:010BD000180C
:010BD1000023
:010BD200081A
:010BD3001011
:010BD4001907
:010BD500011E
:010BD6000915
:010BD700110C
:010BD8001A02
:010BD9000219
:010BDA000A10
:010BDB001207
:010BDC001BFD
:010BDD000314
:010BDE000B0B
:010BDF001401
:010BE0001CF8
:010BE100040F
:010BE2000D05
:010BE30015FC
:010BE4001DF3
:010BE5000609
:010BE6000E00
:010BE70017F6
:010BE8001FED
:010BE9000704
:010BEA0010FA
:010BEB0018F1
:010BEC000107
:010BED0009FE
:010BEE0012F4
:010BEF001AEB
:010BF0000301
:010BF1000BF8
:010BF20014EE
:010BF3001DE4
:010BF40005FB
:010BF5000EF1
:010BF60016E8
:010BF7001FDE
:010BF80007F5
:010BF90010EB
:010BFA0019E1
:010BFB0001F8
:010BFC000AEE
:010BFD0013E4
:010BFE001BDB
:010BFF0004F1
:010C00000DE6
:010C010016DC
:010C02001ED3
:010C030007E9
:010C040010DF
:010C050019D5
:010C060001EC
:010C07000AE2
:010C080013D8
:010C09001CCE
:010C0A0005E4
:010C0B000DDB
:010C0C0016D1
:010C0D001FC7
:010C0E0008DD
:010C0F0011D3
:010C10001AC9
:010C110003DF
:010C12000CD5
:010C130014CC
:010C14001DC2
:010C150006D8
:010C16000FCE
:010C170018C4
:010C180001DA
:010C19000AD0
:010C1A0013C6
:010C1B001CBC
:010C1C0005D2
:010C1D000EC8
:010C1E0017BE
:010C1F0001D3
:010C20000AC9
:010C210013BF
:010C22001CB5
:010C230005CB
:010C24000EC1
:010C250017B7
:010C260000CD
:010C270009C3
:010C280013B8
:010C29001CAE
:010C2A0005C4
:010C2B000EBA
:010C2C0017B0
:010C2D0001C5
:010C2E000ABB
:010C2F0013B1
:010C30001CA7
:010C310006BC
:010C32000FB2
:010C330018A8
:010C340002BD
:010C35000BB3
:010C360014A9
:010C37001E9E
:010C380007B4
:010C390010AA
:010C3A001A9F
:010C3B0003B5
:010C3C000CAB
:010C3D0016A0
:010C3E001F96
:010C3F0009AB
:010C400012A1
:010C41001C96
:010C420005AC
:010C43000EA2
:010C44001897
:010C450001AD
:010C46000BA2
:010C47001597
:010C48001E8D
:010C490008A2
:010C4A001198
:010C4B001B8D
:010C4C0004A3
:010C4D000E98
:010C4E00178E
:010C4F0001A3
:010C50000B98
:010C5100148E
:010C52001E83
:010C53000898
:010C5400118E
:010C55001B83
:010C56000598
:010C57000E8E
:010C58001883
:010C59000298
:010C5A000C8D
:010C5B001583
:010C5C001F78
:010C5D00098D
:010C5E001382
:010C5F001C78
:010C6000068D
:010C61001082
:010C62001A77
:010C6300048C
:010C64000D82
:010C65001777
:010C6600018C
:010C67000B81
:010C68001576
:010C69001F6B
:010C6A000980
:010C6B001375
:010C6C001D6A
:010C6D00077F
:010C6E001174
:010C6F001B69
:010C7000057E
:010C71000F73
:010C72001968
:010C7300037D
:010C74000D72
:010C75001767
:010C7600017C
:010C77000B71
:010C78001566
:010C79001F5B
:010C7A000970
:010C7B001365
:010C7C001D5A
:010C7D00076F
:010C7E001164
:010C7F001C58
:010C8000066D
:010C81001062
:010C82001A57
:010C8300046C
:010C84000E61
:010C85001955
:010C8600036A
:010C87000D5F
:010C88001754
:010C89000268
:010C8A000C5D
:010C8B001652
:010C8C000067
:010C8D000B5B
:010C8E001550
:010C8F001F45
:010C90000A59
:010C9100144E
:010C92001E43
:010C93000957
:010C9400134C
:010C95001E40
:010C96000855
:010C9700124A
:010C98001D3E
:010C99000753
:010C9A001247
:010C9B001C3C
:010C9C000750
:010C9D001145
:010C9E001C39
:010C9F00064E
:010CA0001142
:010CA1001B37
:010CA200064B
:010CA3001040
:010CA4001B34
:010CA5000549
:010CA600103D
:010CA7001A32
:010CA8000546
:010CA900103A
:010CAA001A2F
:010CAB000543
:010CAC001037
:010CAD001A2C
:010CAE000540
:010CAF001034
:010CB0001A29
:010CB100053D
:010CB2001031
:010CB3001A26
:010CB400053A
:010CB500102E
:010CB6001B22
:010CB7000537
:010CB800102B
:010CB9001B1F
:010CBA000633
:010CBB001028
:010CBC001B1C
:010CBD000630
:010CBE001124
:010CBF001C18
:010CC000072C
:010CC1001220
:010CC2001C15
:010CC3000729
:010CC400121D
:010CC5001D11
:010CC6000825
:010CC7001319
:010CC8001E0D
:010CC9000921
:010CCA001415
:010CCB001F09
:010CCC000A1D
:010CCD001511
:010CCE000025
:010CCF000B19
:010CD000160D
:010CD1000121
:010CD2000C15
:010CD3001709
:010CD400021D
:010CD5000D11
:010CD6001805
:010CD7000319
:010CD8000F0C
:010CD9001A00
:010CDA000514
:010CDB001008
:010CDC001BFC
:010CDD000610
:010CDE001104
:010CDF001DF7
:010CE000080B
:010CE10013FF
:010CE2001EF3
:010CE3000A06
:010CE40015FA
:010CE500000E
:010CE6000B02
:010CE70017F5
:010CE8000209
:010CE9000DFD
:010CEA0018F1
:010CEB000404
:010CEC000FF8
:010CED001AEC
:010CEE0006FF
:010CEF0011F3
:010CF0001DE6
:010CF10008FA
:010CF20013EE
:010CF3001FE1
:010CF4000AF5
:010CF50016E8
:010CF60001FC
:010CF7000CF0
:010CF80018E3
:010CF90003F7
:010CFA000FEA
:010CFB001ADE
:010CFC0006F1
:010CFD0011E5
:010CFE001DD8
:010CFF0008EC
:010D000014DE
:010D010000F1
:010D02000BE5
:010D030017D8
:010D040002EC
:010D05000EDF
:010D060019D3
:010D070005E6
:010D080011D9
:010D09001CCD
:010D0A0008E0
:010D0B0014D3
:010D0C001FC7
:010D0D000BDA
:010D0E0017CD
:010D0F0002E1
:010D10000ED4
:010D11001AC7
:010D120006DA
:010D130011CE
:010D14001DC1
:010D150009D4
:010D160015C7
:010D170000DB
:010D18000CCE
:010D190018C1
:010D1A0004D4
:010D1B0010C7
:010D1C001CBA
:010D1D0007CE
:010D1E0013C1
:010D1F001FB4
:010D20000BC7
:010D210017BA
:010D220003CD
:010D23000FC0
:010D24001BB3
:010D250007C6
:010D260012BA
:010D27001EAD
:010D28000AC0
:010D290016B3
:010D2A0002C6
:010D2B000EB9
:010D2C001AAC
:010D2D0006BF
:010D2E0012B2
:010D2F001EA5
:010D30000BB7
:010D310017AA
:010D320003BD
:010D33000FB0
:010D34001BA3
:010D350007B6
:010D360013A9
:010D37001F9C
:010D38000BAF
:010D390017A2
:010D3A0004B4
:010D3B0010A7
:010D3C001C9A
:010D3D0008AD
:010D3E0014A0
:010D3F0000B3
:010D40000DA5
:010D41001998
:010D420005AB
:010D4300119E
:010D44001E90
:010D45000AA3
:010D46001696
:010D470003A8
:010D48000F9B
:010D49001B8E
:010D4A0007A1
:010D4B001493
:010D4C0000A6
:010D4D000C99
:010D4E00198B
:010D4F00059E
:010D50001290
:010D51001E83
:010D52000A96
:010D53001788
:010D5400039B
:010D5500108D
:010D56001C80
:010D57000992
:010D58001585
:010D59000198
:010D5A000E8A
:010D5B001A7D
:010D5C00078F
:010D5D001382
:010D5E000094
:010D5F000D86
:010D60001979
:010D6100068B
:010D6200127E
:010D63001F70
:010D64000B83
:010D65001875
:010D66000587
:010D6700117A
:010D68001E6C
:010D69000A7F
:010D6A001771
:010D6B000483
:010D6C001076
:010D6D001D68
:010D6E000A7A
:010D6F00166D
:010D7000037F
:010D71001071
:010D72001D63
:010D73000976
:010D74001668
:010D7500037A
:010D7600106C
:010D77001C5F
:010D78000971
:010D79001663
:010D7A000375
:010D7B001067
:010D7C001C5A
:010D7D00096C
:010D7E00165E
:010D7F000370
:010D80001062
:010D81001D54
:010D82000A66
:010D83001758
:010D8400046A
:010D8500105D
:010D86001D4F
:010D87000A61
:010D88001753
:010D89000465
:010D8A001157
:010D8B001E49
:010D8C000B5B
:010D8D00184D
:010D8E00055F
:010D8F001251
:010D90001F43
:010D91000C55
:010D92001947
:010D93000659
:010D9400134B
:010D9500015C
:010D96000E4E
:010D97001B40
:010D98000852
:010D99001544
:010D9A000256
:010D9B000F48
:010D9C001C3A
:010D9D000A4B
:010D9E00173D
:010D9F00044F
:010DA0001141
:010DA1001E33
:010DA2000C44
:010DA3001936
:010DA4000648
:010DA500133A
:010DA600014B
:010DA7000E3D
:010DA8001B2F
:010DA9000841
:010DAA001632
:010DAB000344
:010DAC001036
:010DAD001E27
:010DAE000B39
:010DAF00182B
:010DB000063C
:010DB100132E
:010DB2000040
:010DB3000E31
:010DB4001B23
:010DB5000934
:010DB6001626
:010DB7000338
:010DB8001129
:010DB9001E1B
:010DBA000C2C
:010DBB00191E
:010DBC00072F
:010DBD001421
:010DBE000232
:010DBF000F24
:010DC0001D15
:010DC1000A27
:010DC2001818
:010DC300052A
:010DC400131B
:010DC500002D
:010DC6000E1E
:010DC7001C0F
:010DC8000921
:010DC9001712
:010DCA000424
:010DCB001215
:010DCC000026
:010DCD000D18
:010DCE001B09
:010DCF00091A
:010DD000160C
:010DD100041D
:010DD200120E
:010DD3001F00
:010DD4000D11
:010DD5001B02
:010DD6000913
:010DD7001605
:010DD8000416
:010DD9001207
:010DDA000018
:010DDB000D0A
:010DDC001BFB
:010DDD00090C
:010DDE0017FD
:010DDF00050E
:010DE0001200
:010DE1000011
:010DE2000E02
:010DE3001CF3
:010DE4000A04
:010DE50018F5
:010DE6000606
:010DE70014F7
:010DE8000109
:010DE9000FFA
:010DEA001DEB
:010DEB000BFC
:010DEC0019ED
:010DED0007FE
:010DEE0015EF
:010DEF000300
:010DF00011F1
:010DF1001FE2
:010DF2000DF3
:010DF3001BE4
:010DF40009F5
:010DF50017E6
:010DF60005F7
:010DF70013E8
:010DF80001F9
:010DF9000FEA
:010DFA001EDA
:010DFB000CEB
:010DFC001ADC
:010DFD0008ED
:010DFE0016DE
:010DFF0004EF
:010E000012DF
:010E010000F0
:010E02000FE0
:010E03001DD1
:010E04000BE2
:010E050019D3
:010E060007E4
:010E070016D4
:010E080004E5
:010E090012D6
:010E0A0000E7
:010E0B000ED8
:010E0C001DC8
:010E0D000BD9
:010E0E0019CA
:010E0F0008DA
:010E100016CB
:010E110004DC
:010E120013CC
:010E130001DD
:010E14000FCE
:010E15001EBE
:010E16000CCF
:010E17001AC0
:010E180009D0
:010E190017C1
:010E1A0005D2
:010E1B0014C2
:010E1C0002D3
:010E1D0011C3
:010E1E001FB4
:010E1F000EC4
:010E20001CB5
:010E21000AC6
:010E220019B6
:010E230007C7
:010E240016B7
:010E250004C8
:010E260013B8
:010E270001C9
:010E280010B9
:010E29001FA9
:010E2A000DBA
:010E2B001CAA
:010E2C000ABB
:010E2D0019AB
:010E2E0007BC
:010E2F0016AC
:010E300005BC
:010E310013AD
:010E320002BD
:010E330010AE
:010E34001F9E
:010E35000EAE
:010E36001C9F
:010E37000BAF
:010E38001A9F
:010E390008B0
:010E3A0017A0
:010E3B0006B0
:010E3C0015A0
:010E3D0003B1
:010E3E0012A1
:010E3F0001B1
:010E400010A1
:010E41001E92
:010E42000DA2
:010E43001C92
:010E44000BA2
:010E45001A92
:010E460008A3
:010E47001793
:010E480006A3
:010E49001593
:010E4A0004A3
:010E4B001393
:010E4C0002A3
:010E4D001094
:010E4E001F84
:010E4F000E94
:010E50001D84
:010E51000C94
:010E52001B84
:010E53000A94
:010E54001984
:010E55000894
:010E56001784
:010E57000694
:010E58001584
:010E59000494
:010E5A001384
:010E5B000294
:010E5C001184
:010E5D000094
:010E5E000F84
:010E5F001E74
:010E60000D84
:010E61001C74
:010E62000B84
:010E63001A74
:010E64000984
:010E65001874
:010E66000883
:010E67001773
:010E68000683
:010E69001573
:010E6A000483
:010E6B001373
:010E6C000382
:010E6D001272
:010E6E000182
:010E6F001072
:010E70001F62
:010E71000F71
:010E72001E61
:010E73000D71
:010E74001C61
:010E75000C70
:010E76001B60
:010E77000A70
:010E78001960
:010E7900096F
:010E7A00185F
:010E7B00076F
:010E7C00175E
:010E7D00066E
:010E7E00155E
:010E7F00056D
:010E8000145D
:010E8100036D
:010E8200135C
:010E8300026C
:010E8400125B
:010E8500016B
:010E8600105B
:010E8700006A
:010E88000F5A
:010E89001F49
:010E8A000E59
:010E8B001E48
:010E8C000D58
:010E8D001D47
:010E8E000C57
:010E8F001C46
:010E90000B56
:010E91001B45
:010E92000A55
:010E93001A44
:010E94000954
:010E95001943
:010E96000853
:010E97001842
:010E98000851
:010E99001741
:010E9A000750
:010E9B001640
:010E9C00064F
:010E9D00163E
:010E9E00054E
:010E9F00153D
:010EA000054C
:010EA100143C
:010EA200044B
:010EA300143A
:010EA400034A
:010EA5001339
:010EA6000348
:010EA7001337
:010EA8000247
:010EA9001236
:010EAA000245
:010EAB001234
:010EAC000144
:010EAD001133
:010EAE000142
:010EAF001131
:010EB0000140
:010EB1001030
:010EB200003F
:010EB300102E
:010EB400003D
:010EB500102C
:010EB600003B
:010EB700102A
:010EB8001F1A
:010EB9000F29
:010EBA001F18
:010EBB000F27
:010EBC001F16
:010EBD000F25
:010EBE001F14
:010EBF000F23
:010EC0001F12
:010EC1000F21
:010EC2001F10
:010EC3000F1F
:010EC4001F0E
:010EC5000F1D
:010EC6001F0C
:010EC7000F1B
:010EC8001F0A
:010EC9000F19
:010ECA001F08
:010ECB000F17
:010ECC001F06
:010ECD000F15
:010ECE001F04
:010ECF000F13
:010ED0001F02
:010ED1000F11
:010ED200001F
:010ED300100E
:010ED400001D
:010ED500100C
:010ED600001B
:010ED700100A
:010ED8000118
:010ED9001107
:010EDA000116
:010EDB001105
:010EDC000114
:010EDD001202
:010EDE000211
:010EDF001200
:010EE000020F
:010EE10013FD
:010EE200030C
:010EE30013FB
:010EE400030A
:010EE50014F8
:010EE6000407
:010EE70014F6
:010EE8000504
:010EE90015F3
:010EEA000502
:010EEB0016F0
:010EEC0006FF
:010EED0016EE
:010EEE0007FC
:010EEF0017EB
:010EF00007FA
:010EF10018E8
:010EF20008F7
:010EF30019E5
:010EF40009F4
:010EF5001AE2
:010EF6000AF1
:010EF7001BDF
:010EF8000BEE
:010EF9001BDD
:010EFA000CEB
:010EFB001CDA
:010EFC000DE8
:010EFD001DD7
:010EFE000EE5
:010EFF001ED4
:010F00000FE1
:010F010000EF
:010F020010DE
:010F030001EC
:010F040011DB
:010F050002E9
:010F060012D8
:010F070003E6
:010F080014D4
:010F090004E3
:010F0A0015D1
:010F0B0006DF
:010F0C0016CE
:010F0D0007DC
:010F0E0017CB
:010F0F0008D9
:010F100019C7
:010F11000AD5
:010F12001AC4
:010F13000BD2
:010F14001CC0
:010F15000CCF
:010F16001DBD
:010F17000ECB
:010F18001FB9
:010F19000FC8
:010F1A0000D6
:010F1B0011C4
:010F1C0002D2
:010F1D0013C0
:010F1E0003CF
:010F1F0014BD
:010F200005CB
:010F210016B9
:010F220007C7
:010F230017B6
:010F240008C4
:010F250019B2
:010F26000AC0
:010F27001BAE
:010F28000CBC
:010F29001DAA
:010F2A000EB8
:010F2B001FA6
:010F2C0010B4
:010F2D0000C3
:010F2E0011B1
:010F2F0002BF
:010F300013AD
:010F310004BB
:010F320015A9
:010F330006B7
:010F340017A5
:010F350008B3
:010F360019A1
:010F37000AAF
:010F38001B9D
:010F39000CAB
:010F3A001D99
:010F3B000FA6
:010F3C0000B4
:010F3D0011A2
:010F3E0002B0
:010F3F00139E
:010F400004AC
:010F4100159A
:010F420006A8
:010F43001796
:010F440008A4
:010F45001A91
:010F46000B9F
:010F47001C8D
:010F48000D9B
:010F49001E89
:010F4A001096
:010F4B0001A4
:010F4C001292
:010F4D0003A0
:010F4E00148E
:010F4F00069B
:010F50001789
:010F51000897
:010F52001985
:010F53000B92
:010F54001C80
:010F55000D8E
:010F56001F7B
:010F57001089
:010F58000197
:010F59001285
:010F5A000492
:010F5B001580
:010F5C00078D
:010F5D00187B
:010F5E000989
:010F5F001B76
:010F60000C84
:010F61001D72
:010F62000F7F
:010F6300008D
:010F6400127A
:010F65000388
:010F66001575
:010F67000683
:010F68001771
:010F6900097E
:010F6A001A6C
:010F6B000C79
:010F6C001D67
:010F6D000F74
:010F6E000082
:010F6F00126F
:010F7000037D
:010F7100156A
:010F72000678
:010F73001865
:010F74000A72
:010F75001B60
:010F76000D6D
:010F77001E5B
:010F78001068
:010F79000176
:010F7A001363
:010F7B000570
:010F7C00165E
:010F7D00086B
:010F7E001A58
:010F7F000B66
:010F80001D53
:010F81000F60
:010F8200006E
:010F8300125B
:010F84000468
:010F85001556
:010F86000763
:010F87001950
:010F88000B5D
:010F89001C4B
:010F8A000E58
:010F8B000065
:010F8C001252
:010F8D000360
:010F8E00154D
:010F8F00075A
:010F90001947
:010F91000B54
:010F92001C42
:010F93000E4F
:010F9400005C
:010F95001249
:010F96000456
:010F97001643
:010F98000751
:010F9900193E
:010F9A000B4B
:010F9B001D38
:010F9C000F45
:010F9D000152
:010F9E00133F
:010F9F00054C
:010FA0001739
:010FA1000946
:010FA2001B33
:010FA3000D40
:010FA4001F2D
:010FA500113A
:010FA6000347
:010FA7001534
:010FA8000741
:010FA900192E
:010FAA000B3B
:010FAB001D28
:010FAC000F35
:010FAD000142
:010FAE00132F
:010FAF00053C
:010FB0001729
:010FB1000936
:010FB2001B23
:010FB3000D30
:010FB4001F1D
:010FB500112A
:010FB6000337
:010FB7001623
:010FB8000830
:010FB9001A1D
:010FBA000C2A
:010FBB001E17
:010FBC001024
:010FBD000330
:010FBE00151D
:010FBF00072A
:010FC0001917
:010FC1000B24
:010FC2001E10
:010FC300101D
:010FC400022A
:010FC5001417
:010FC6000723
:010FC7001910
:010FC8000B1D
:010FC9001D0A
:010FCA001016
:010FCB000223
:010FCC001410
:010FCD00071C
:010FCE001909
:010FCF000B16
:010FD0001E02
:010FD100100F
:010FD200021C
:010FD3001508
:010FD4000715
:010FD5001A01
:010FD6000C0E
:010FD7001EFB
:010FD8001107
:010FD9000314
:010FDA001600
:010FDB00080D
:010FDC001BF9
:010FDD000D06
:010FDE001FF3
:010FDF0012FF
:010FE000040C
:010FE10017F8
:010FE2000905
:010FE3001CF1
:010FE4000EFE
:010FE500010A
:010FE60013F7
:010FE7000603
:010FE80018F0
:010FE9000BFC
:010FEA001EE8
:010FEB0010F5
:010FEC000301
:010FED0015EE
:010FEE0008FA
:010FEF001BE6
:010FF0000DF3
:010FF10000FF
:010FF20012EC
:010FF30005F8
:010FF40018E4
:010FF5000AF1
:010FF6001DDD
:010FF70010E9
:010FF80002F6
:010FF90015E2
:010FFA0008EE
:010FFB001ADB
:010FFC000DE7
:010FFD0000F3
:010FFE0013DF
:010FFF0005EC
:00000001ff
