:020000040000FA
:010000001FE0
:010001001FDF
:010002001FDE
:010003001FDD
:010004001FDC
:010005001FDB
:010006001FDA
:010007001FD9
:010008001ED9
:010009001ED8
:01000A001ED7
:01000B001ED6
:01000C001ED5
:01000D001ED4
:01000E001ED3
:01000F001ED2
:010010001DD2
:010011001DD1
:010012001DD0
:010013001DCF
:010014001DCE
:010015001DCD
:010016001DCC
:010017001DCB
:010018001CCB
:010019001CCA
:01001A001CC9
:01001B001CC8
:01001C001CC7
:01001D001CC6
:01001E001CC5
:01001F001CC4
:010020001BC4
:010021001BC3
:010022001BC2
:010023001BC1
:010024001BC0
:010025001BBF
:010026001BBE
:010027001BBD
:010028001ABD
:010029001ABC
:01002A001ABB
:01002B001ABA
:01002C001AB9
:01002D001AB8
:01002E001AB7
:01002F001AB6
:0100300019B6
:0100310019B5
:0100320019B4
:0100330019B3
:0100340019B2
:0100350019B1
:0100360019B0
:0100370019AF
:0100380019AE
:0100390018AE
:01003A0018AD
:01003B0018AC
:01003C0018AB
:01003D0018AA
:01003E0018A9
:01003F0018A8
:0100400018A7
:0100410017A7
:0100420017A6
:0100430017A5
:0100440017A4
:0100450017A3
:0100460017A2
:0100470017A1
:0100480017A0
:0100490016A0
:01004A00169F
:01004B00169E
:01004C00169D
:01004D00169C
:01004E00169B
:01004F00169A
:010050001699
:010051001599
:010052001598
:010053001597
:010054001596
:010055001595
:010056001594
:010057001593
:010058001592
:010059001492
:01005A001491
:01005B001490
:01005C00148F
:01005D00148E
:01005E00148D
:01005F00148C
:01006000148B
:01006100148A
:01006200138A
:010063001389
:010064001388
:010065001387
:010066001386
:010067001385
:010068001384
:010069001383
:01006A001283
:01006B001282
:01006C001281
:01006D001280
:01006E00127F
:01006F00127E
:01007000127D
:01007100127C
:01007200117C
:01007300117B
:01007400117A
:010075001179
:010076001178
:010077001177
:010078001176
:010079001175
:01007A001174
:01007B001074
:01007C001073
:01007D001072
:01007E001071
:01007F001070
:01008000106F
:01008100106E
:01008200106D
:010083000F6D
:010084000F6C
:010085000F6B
:010086000F6A
:010087000F69
:010088000F68
:010089000F67
:01008A000F66
:01008B000E66
:01008C000E65
:01008D000E64
:01008E000E63
:01008F000E62
:010090000E61
:010091000E60
:010092000E5F
:010093000E5E
:010094000D5E
:010095000D5D
:010096000D5C
:010097000D5B
:010098000D5A
:010099000D59
:01009A000D58
:01009B000D57
:01009C000C57
:01009D000C56
:01009E000C55
:01009F000C54
:0100A0000C53
:0100A1000C52
:0100A2000C51
:0100A3000C50
:0100A4000C4F
:0100A5000B4F
:0100A6000B4E
:0100A7000B4D
:0100A8000B4C
:0100A9000B4B
:0100AA000B4A
:0100AB000B49
:0100AC000B48
:0100AD000A48
:0100AE000A47
:0100AF000A46
:0100B0000A45
:0100B1000A44
:0100B2000A43
:0100B3000A42
:0100B4000A41
:0100B5000A40
:0100B6000940
:0100B700093F
:0100B800093E
:0100B900093D
:0100BA00093C
:0100BB00093B
:0100BC00093A
:0100BD000939
:0100BE000839
:0100BF000838
:0100C0000837
:0100C1000836
:0100C2000835
:0100C3000834
:0100C4000833
:0100C5000832
:0100C6000831
:0100C7000731
:0100C8000730
:0100C900072F
:0100CA00072E
:0100CB00072D
:0100CC00072C
:0100CD00072B
:0100CE00072A
:0100CF000729
:0100D0000629
:0100D1000628
:0100D2000627
:0100D3000626
:0100D4000625
:0100D5000624
:0100D6000623
:0100D7000622
:0100D8000522
:0100D9000521
:0100DA000520
:0100DB00051F
:0100DC00051E
:0100DD00051D
:0100DE00051C
:0100DF00051B
:0100E000051A
:0100E100041A
:0100E2000419
:0100E3000418
:0100E4000417
:0100E5000416
:0100E6000415
:0100E7000414
:0100E8000413
:0100E9000412
:0100EA000312
:0100EB000311
:0100EC000310
:0100ED00030F
:0100EE00030E
:0100EF00030D
:0100F000030C
:0100F100030B
:0100F200020B
:0100F300020A
:0100F4000209
:0100F5000208
:0100F6000207
:0100F7000206
:0100F8000205
:0100F9000204
:0100FA000203
:0100FB000103
:0100FC000102
:0100FD000101
:0100FE000100
:0100FF0001FF
:0101000001FD
:0101010001FC
:0101020001FB
:0101030001FA
:0101040000FA
:0101050000F9
:0101060000F8
:0101070000F7
:0101080000F6
:0101090000F5
:01010A0000F4
:01010B0000F3
:01010C0000F2
:01010D001FD2
:01010E001FD1
:01010F001FD0
:010110001FCF
:010111001FCE
:010112001FCD
:010113001FCC
:010114001FCB
:010115001ECB
:010116001ECA
:010117001EC9
:010118001EC8
:010119001EC7
:01011A001EC6
:01011B001EC5
:01011C001EC4
:01011D001EC3
:01011E001DC3
:01011F001DC2
:010120001DC1
:010121001DC0
:010122001DBF
:010123001DBE
:010124001DBD
:010125001DBC
:010126001DBB
:010127001CBB
:010128001CBA
:010129001CB9
:01012A001CB8
:01012B001CB7
:01012C001CB6
:01012D001CB5
:01012E001CB4
:01012F001CB3
:010130001BB3
:010131001BB2
:010132001BB1
:010133001BB0
:010134001BAF
:010135001BAE
:010136001BAD
:010137001BAC
:010138001BAB
:010139001AAB
:01013A001AAA
:01013B001AA9
:01013C001AA8
:01013D001AA7
:01013E001AA6
:01013F001AA5
:010140001AA4
:010141001AA3
:0101420019A3
:0101430019A2
:0101440019A1
:0101450019A0
:01014600199F
:01014700199E
:01014800199D
:01014900199C
:01014A00199B
:01014B00189B
:01014C00189A
:01014D001899
:01014E001898
:01014F001897
:010150001896
:010151001895
:010152001894
:010153001893
:010154001793
:010155001792
:010156001791
:010157001790
:01015800178F
:01015900178E
:01015A00178D
:01015B00178C
:01015C00178B
:01015D00168B
:01015E00168A
:01015F001689
:010160001688
:010161001687
:010162001686
:010163001685
:010164001684
:010165001683
:010166001583
:010167001582
:010168001581
:010169001580
:01016A00157F
:01016B00157E
:01016C00157D
:01016D00157C
:01016E00157B
:01016F00147B
:01017000147A
:010171001479
:010172001478
:010173001477
:010174001476
:010175001475
:010176001474
:010177001473
:010178001373
:010179001372
:01017A001371
:01017B001370
:01017C00136F
:01017D00136E
:01017E00136D
:01017F00136C
:01018000136B
:01018100126B
:01018200126A
:010183001269
:010184001268
:010185001267
:010186001266
:010187001265
:010188001264
:010189001263
:01018A001163
:01018B001162
:01018C001161
:01018D001160
:01018E00115F
:01018F00115E
:01019000115D
:01019100115C
:01019200115B
:01019300115A
:01019400105A
:010195001059
:010196001058
:010197001057
:010198001056
:010199001055
:01019A001054
:01019B001053
:01019C001052
:01019D000F52
:01019E000F51
:01019F000F50
:0101A0000F4F
:0101A1000F4E
:0101A2000F4D
:0101A3000F4C
:0101A4000F4B
:0101A5000F4A
:0101A6000E4A
:0101A7000E49
:0101A8000E48
:0101A9000E47
:0101AA000E46
:0101AB000E45
:0101AC000E44
:0101AD000E43
:0101AE000E42
:0101AF000D42
:0101B0000D41
:0101B1000D40
:0101B2000D3F
:0101B3000D3E
:0101B4000D3D
:0101B5000D3C
:0101B6000D3B
:0101B7000D3A
:0101B8000D39
:0101B9000C39
:0101BA000C38
:0101BB000C37
:0101BC000C36
:0101BD000C35
:0101BE000C34
:0101BF000C33
:0101C0000C32
:0101C1000C31
:0101C2000B31
:0101C3000B30
:0101C4000B2F
:0101C5000B2E
:0101C6000B2D
:0101C7000B2C
:0101C8000B2B
:0101C9000B2A
:0101CA000B29
:0101CB000A29
:0101CC000A28
:0101CD000A27
:0101CE000A26
:0101CF000A25
:0101D0000A24
:0101D1000A23
:0101D2000A22
:0101D3000A21
:0101D4000A20
:0101D5000920
:0101D600091F
:0101D700091E
:0101D800091D
:0101D900091C
:0101DA00091B
:0101DB00091A
:0101DC000919
:0101DD000918
:0101DE000818
:0101DF000817
:0101E0000816
:0101E1000815
:0101E2000814
:0101E3000813
:0101E4000812
:0101E5000811
:0101E6000810
:0101E700080F
:0101E800070F
:0101E900070E
:0101EA00070D
:0101EB00070C
:0101EC00070B
:0101ED00070A
:0101EE000709
:0101EF000708
:0101F0000707
:0101F1000607
:0101F2000606
:0101F3000605
:0101F4000604
:0101F5000603
:0101F6000602
:0101F7000601
:0101F8000600
:0101F90006FF
:0101FA0006FE
:0101FB0005FE
:0101FC0005FD
:0101FD0005FC
:0101FE0005FB
:0101FF0005FA
:0102000005F8
:0102010005F7
:0102020005F6
:0102030005F5
:0102040004F5
:0102050004F4
:0102060004F3
:0102070004F2
:0102080004F1
:0102090004F0
:01020A0004EF
:01020B0004EE
:01020C0004ED
:01020D0004EC
:01020E0003EC
:01020F0003EB
:0102100003EA
:0102110003E9
:0102120003E8
:0102130003E7
:0102140003E6
:0102150003E5
:0102160003E4
:0102170002E4
:0102180002E3
:0102190002E2
:01021A0002E1
:01021B0002E0
:01021C0002DF
:01021D0002DE
:01021E0002DD
:01021F0002DC
:0102200002DB
:0102210001DB
:0102220001DA
:0102230001D9
:0102240001D8
:0102250001D7
:0102260001D6
:0102270001D5
:0102280001D4
:0102290001D3
:01022A0001D2
:01022B0000D2
:01022C0000D1
:01022D0000D0
:01022E0000CF
:01022F0000CE
:0102300000CD
:0102310000CC
:0102320000CB
:0102330000CA
:010234001FAA
:010235001FA9
:010236001FA8
:010237001FA7
:010238001FA6
:010239001FA5
:01023A001FA4
:01023B001FA3
:01023C001FA2
:01023D001FA1
:01023E001EA1
:01023F001EA0
:010240001E9F
:010241001E9E
:010242001E9D
:010243001E9C
:010244001E9B
:010245001E9A
:010246001E99
:010247001E98
:010248001D98
:010249001D97
:01024A001D96
:01024B001D95
:01024C001D94
:01024D001D93
:01024E001D92
:01024F001D91
:010250001D90
:010251001D8F
:010252001C8F
:010253001C8E
:010254001C8D
:010255001C8C
:010256001C8B
:010257001C8A
:010258001C89
:010259001C88
:01025A001C87
:01025B001B87
:01025C001B86
:01025D001B85
:01025E001B84
:01025F001B83
:010260001B82
:010261001B81
:010262001B80
:010263001B7F
:010264001B7E
:010265001A7E
:010266001A7D
:010267001A7C
:010268001A7B
:010269001A7A
:01026A001A79
:01026B001A78
:01026C001A77
:01026D001A76
:01026E001A75
:01026F001975
:010270001974
:010271001973
:010272001972
:010273001971
:010274001970
:01027500196F
:01027600196E
:01027700196D
:01027800196C
:01027900186C
:01027A00186B
:01027B00186A
:01027C001869
:01027D001868
:01027E001867
:01027F001866
:010280001865
:010281001864
:010282001863
:010283001763
:010284001762
:010285001761
:010286001760
:01028700175F
:01028800175E
:01028900175D
:01028A00175C
:01028B00175B
:01028C00175A
:01028D00165A
:01028E001659
:01028F001658
:010290001657
:010291001656
:010292001655
:010293001654
:010294001653
:010295001652
:010296001651
:010297001551
:010298001550
:01029900154F
:01029A00154E
:01029B00154D
:01029C00154C
:01029D00154B
:01029E00154A
:01029F001549
:0102A0001548
:0102A1001448
:0102A2001447
:0102A3001446
:0102A4001445
:0102A5001444
:0102A6001443
:0102A7001442
:0102A8001441
:0102A9001440
:0102AA00143F
:0102AB00133F
:0102AC00133E
:0102AD00133D
:0102AE00133C
:0102AF00133B
:0102B000133A
:0102B1001339
:0102B2001338
:0102B3001337
:0102B4001336
:0102B5001236
:0102B6001235
:0102B7001234
:0102B8001233
:0102B9001232
:0102BA001231
:0102BB001230
:0102BC00122F
:0102BD00122E
:0102BE00122D
:0102BF00112D
:0102C000112C
:0102C100112B
:0102C200112A
:0102C3001129
:0102C4001128
:0102C5001127
:0102C6001126
:0102C7001125
:0102C8001124
:0102C9001024
:0102CA001023
:0102CB001022
:0102CC001021
:0102CD001020
:0102CE00101F
:0102CF00101E
:0102D000101D
:0102D100101C
:0102D200101B
:0102D300101A
:0102D4000F1A
:0102D5000F19
:0102D6000F18
:0102D7000F17
:0102D8000F16
:0102D9000F15
:0102DA000F14
:0102DB000F13
:0102DC000F12
:0102DD000F11
:0102DE000E11
:0102DF000E10
:0102E0000E0F
:0102E1000E0E
:0102E2000E0D
:0102E3000E0C
:0102E4000E0B
:0102E5000E0A
:0102E6000E09
:0102E7000E08
:0102E8000D08
:0102E9000D07
:0102EA000D06
:0102EB000D05
:0102EC000D04
:0102ED000D03
:0102EE000D02
:0102EF000D01
:0102F0000D00
:0102F1000DFF
:0102F2000CFF
:0102F3000CFE
:0102F4000CFD
:0102F5000CFC
:0102F6000CFB
:0102F7000CFA
:0102F8000CF9
:0102F9000CF8
:0102FA000CF7
:0102FB000CF6
:0102FC000CF5
:0102FD000BF5
:0102FE000BF4
:0102FF000BF3
:010300000BF1
:010301000BF0
:010302000BEF
:010303000BEE
:010304000BED
:010305000BEC
:010306000BEB
:010307000AEB
:010308000AEA
:010309000AE9
:01030A000AE8
:01030B000AE7
:01030C000AE6
:01030D000AE5
:01030E000AE4
:01030F000AE3
:010310000AE2
:010311000AE1
:0103120009E1
:0103130009E0
:0103140009DF
:0103150009DE
:0103160009DD
:0103170009DC
:0103180009DB
:0103190009DA
:01031A0009D9
:01031B0009D8
:01031C0008D8
:01031D0008D7
:01031E0008D6
:01031F0008D5
:0103200008D4
:0103210008D3
:0103220008D2
:0103230008D1
:0103240008D0
:0103250008CF
:0103260007CF
:0103270007CE
:0103280007CD
:0103290007CC
:01032A0007CB
:01032B0007CA
:01032C0007C9
:01032D0007C8
:01032E0007C7
:01032F0007C6
:0103300007C5
:0103310006C5
:0103320006C4
:0103330006C3
:0103340006C2
:0103350006C1
:0103360006C0
:0103370006BF
:0103380006BE
:0103390006BD
:01033A0006BC
:01033B0005BC
:01033C0005BB
:01033D0005BA
:01033E0005B9
:01033F0005B8
:0103400005B7
:0103410005B6
:0103420005B5
:0103430005B4
:0103440005B3
:0103450005B2
:0103460004B2
:0103470004B1
:0103480004B0
:0103490004AF
:01034A0004AE
:01034B0004AD
:01034C0004AC
:01034D0004AB
:01034E0004AA
:01034F0004A9
:0103500004A8
:0103510003A8
:0103520003A7
:0103530003A6
:0103540003A5
:0103550003A4
:0103560003A3
:0103570003A2
:0103580003A1
:0103590003A0
:01035A00039F
:01035B00029F
:01035C00029E
:01035D00029D
:01035E00029C
:01035F00029B
:01036000029A
:010361000299
:010362000298
:010363000297
:010364000296
:010365000295
:010366000195
:010367000194
:010368000193
:010369000192
:01036A000191
:01036B000190
:01036C00018F
:01036D00018E
:01036E00018D
:01036F00018C
:01037000018B
:01037100008B
:01037200008A
:010373000089
:010374000088
:010375000087
:010376000086
:010377000085
:010378000084
:010379000083
:01037A000082
:01037B001F62
:01037C001F61
:01037D001F60
:01037E001F5F
:01037F001F5E
:010380001F5D
:010381001F5C
:010382001F5B
:010383001F5A
:010384001F59
:010385001F58
:010386001E58
:010387001E57
:010388001E56
:010389001E55
:01038A001E54
:01038B001E53
:01038C001E52
:01038D001E51
:01038E001E50
:01038F001E4F
:010390001E4E
:010391001D4E
:010392001D4D
:010393001D4C
:010394001D4B
:010395001D4A
:010396001D49
:010397001D48
:010398001D47
:010399001D46
:01039A001D45
:01039B001D44
:01039C001C44
:01039D001C43
:01039E001C42
:01039F001C41
:0103A0001C40
:0103A1001C3F
:0103A2001C3E
:0103A3001C3D
:0103A4001C3C
:0103A5001C3B
:0103A6001C3A
:0103A7001B3A
:0103A8001B39
:0103A9001B38
:0103AA001B37
:0103AB001B36
:0103AC001B35
:0103AD001B34
:0103AE001B33
:0103AF001B32
:0103B0001B31
:0103B1001A31
:0103B2001A30
:0103B3001A2F
:0103B4001A2E
:0103B5001A2D
:0103B6001A2C
:0103B7001A2B
:0103B8001A2A
:0103B9001A29
:0103BA001A28
:0103BB001A27
:0103BC001927
:0103BD001926
:0103BE001925
:0103BF001924
:0103C0001923
:0103C1001922
:0103C2001921
:0103C3001920
:0103C400191F
:0103C500191E
:0103C600191D
:0103C700181D
:0103C800181C
:0103C900181B
:0103CA00181A
:0103CB001819
:0103CC001818
:0103CD001817
:0103CE001816
:0103CF001815
:0103D0001814
:0103D1001813
:0103D2001713
:0103D3001712
:0103D4001711
:0103D5001710
:0103D600170F
:0103D700170E
:0103D800170D
:0103D900170C
:0103DA00170B
:0103DB00170A
:0103DC001709
:0103DD001609
:0103DE001608
:0103DF001607
:0103E0001606
:0103E1001605
:0103E2001604
:0103E3001603
:0103E4001602
:0103E5001601
:0103E6001600
:0103E70016FF
:0103E80016FE
:0103E90015FE
:0103EA0015FD
:0103EB0015FC
:0103EC0015FB
:0103ED0015FA
:0103EE0015F9
:0103EF0015F8
:0103F00015F7
:0103F10015F6
:0103F20015F5
:0103F30015F4
:0103F40014F4
:0103F50014F3
:0103F60014F2
:0103F70014F1
:0103F80014F0
:0103F90014EF
:0103FA0014EE
:0103FB0014ED
:0103FC0014EC
:0103FD0014EB
:0103FE0014EA
:0103FF0013EA
:0104000013E8
:0104010013E7
:0104020013E6
:0104030013E5
:0104040013E4
:0104050013E3
:0104060013E2
:0104070013E1
:0104080013E0
:0104090013DF
:01040A0012DF
:01040B0012DE
:01040C0012DD
:01040D0012DC
:01040E0012DB
:01040F0012DA
:0104100012D9
:0104110012D8
:0104120012D7
:0104130012D6
:0104140012D5
:0104150011D5
:0104160011D4
:0104170011D3
:0104180011D2
:0104190011D1
:01041A0011D0
:01041B0011CF
:01041C0011CE
:01041D0011CD
:01041E0011CC
:01041F0011CB
:0104200011CA
:0104210010CA
:0104220010C9
:0104230010C8
:0104240010C7
:0104250010C6
:0104260010C5
:0104270010C4
:0104280010C3
:0104290010C2
:01042A0010C1
:01042B0010C0
:01042C000FC0
:01042D000FBF
:01042E000FBE
:01042F000FBD
:010430000FBC
:010431000FBB
:010432000FBA
:010433000FB9
:010434000FB8
:010435000FB7
:010436000FB6
:010437000EB6
:010438000EB5
:010439000EB4
:01043A000EB3
:01043B000EB2
:01043C000EB1
:01043D000EB0
:01043E000EAF
:01043F000EAE
:010440000EAD
:010441000EAC
:010442000EAB
:010443000DAB
:010444000DAA
:010445000DA9
:010446000DA8
:010447000DA7
:010448000DA6
:010449000DA5
:01044A000DA4
:01044B000DA3
:01044C000DA2
:01044D000DA1
:01044E000CA1
:01044F000CA0
:010450000C9F
:010451000C9E
:010452000C9D
:010453000C9C
:010454000C9B
:010455000C9A
:010456000C99
:010457000C98
:010458000C97
:010459000B97
:01045A000B96
:01045B000B95
:01045C000B94
:01045D000B93
:01045E000B92
:01045F000B91
:010460000B90
:010461000B8F
:010462000B8E
:010463000B8D
:010464000B8C
:010465000A8C
:010466000A8B
:010467000A8A
:010468000A89
:010469000A88
:01046A000A87
:01046B000A86
:01046C000A85
:01046D000A84
:01046E000A83
:01046F000A82
:010470000982
:010471000981
:010472000980
:01047300097F
:01047400097E
:01047500097D
:01047600097C
:01047700097B
:01047800097A
:010479000979
:01047A000978
:01047B000977
:01047C000877
:01047D000876
:01047E000875
:01047F000874
:010480000873
:010481000872
:010482000871
:010483000870
:01048400086F
:01048500086E
:01048600086D
:01048700086C
:01048800076C
:01048900076B
:01048A00076A
:01048B000769
:01048C000768
:01048D000767
:01048E000766
:01048F000765
:010490000764
:010491000763
:010492000762
:010493000662
:010494000661
:010495000660
:01049600065F
:01049700065E
:01049800065D
:01049900065C
:01049A00065B
:01049B00065A
:01049C000659
:01049D000658
:01049E000657
:01049F000557
:0104A0000556
:0104A1000555
:0104A2000554
:0104A3000553
:0104A4000552
:0104A5000551
:0104A6000550
:0104A700054F
:0104A800054E
:0104A900054D
:0104AA00054C
:0104AB00044C
:0104AC00044B
:0104AD00044A
:0104AE000449
:0104AF000448
:0104B0000447
:0104B1000446
:0104B2000445
:0104B3000444
:0104B4000443
:0104B5000442
:0104B6000342
:0104B7000341
:0104B8000340
:0104B900033F
:0104BA00033E
:0104BB00033D
:0104BC00033C
:0104BD00033B
:0104BE00033A
:0104BF000339
:0104C0000338
:0104C1000337
:0104C2000237
:0104C3000236
:0104C4000235
:0104C5000234
:0104C6000233
:0104C7000232
:0104C8000231
:0104C9000230
:0104CA00022F
:0104CB00022E
:0104CC00022D
:0104CD00022C
:0104CE00012C
:0104CF00012B
:0104D000012A
:0104D1000129
:0104D2000128
:0104D3000127
:0104D4000126
:0104D5000125
:0104D6000124
:0104D7000123
:0104D8000122
:0104D9000121
:0104DA000021
:0104DB000020
:0104DC00001F
:0104DD00001E
:0104DE00001D
:0104DF00001C
:0104E000001B
:0104E100001A
:0104E2000019
:0104E3000018
:0104E4000017
:0104E5000016
:0104E6001FF6
:0104E7001FF5
:0104E8001FF4
:0104E9001FF3
:0104EA001FF2
:0104EB001FF1
:0104EC001FF0
:0104ED001FEF
:0104EE001FEE
:0104EF001FED
:0104F0001FEC
:0104F1001FEB
:0104F2001EEB
:0104F3001EEA
:0104F4001EE9
:0104F5001EE8
:0104F6001EE7
:0104F7001EE6
:0104F8001EE5
:0104F9001EE4
:0104FA001EE3
:0104FB001EE2
:0104FC001EE1
:0104FD001EE0
:0104FE001DE0
:0104FF001DDF
:010500001DDD
:010501001DDC
:010502001DDB
:010503001DDA
:010504001DD9
:010505001DD8
:010506001DD7
:010507001DD6
:010508001DD5
:010509001DD4
:01050A001CD4
:01050B001CD3
:01050C001CD2
:01050D001CD1
:01050E001CD0
:01050F001CCF
:010510001CCE
:010511001CCD
:010512001CCC
:010513001CCB
:010514001CCA
:010515001CC9
:010516001BC9
:010517001BC8
:010518001BC7
:010519001BC6
:01051A001BC5
:01051B001BC4
:01051C001BC3
:01051D001BC2
:01051E001BC1
:01051F001BC0
:010520001BBF
:010521001BBE
:010522001ABE
:010523001ABD
:010524001ABC
:010525001ABB
:010526001ABA
:010527001AB9
:010528001AB8
:010529001AB7
:01052A001AB6
:01052B001AB5
:01052C001AB4
:01052D001AB3
:01052E0019B3
:01052F0019B2
:0105300019B1
:0105310019B0
:0105320019AF
:0105330019AE
:0105340019AD
:0105350019AC
:0105360019AB
:0105370019AA
:0105380019A9
:0105390019A8
:01053A0018A8
:01053B0018A7
:01053C0018A6
:01053D0018A5
:01053E0018A4
:01053F0018A3
:0105400018A2
:0105410018A1
:0105420018A0
:01054300189F
:01054400189E
:01054500189D
:01054600189C
:01054700179C
:01054800179B
:01054900179A
:01054A001799
:01054B001798
:01054C001797
:01054D001796
:01054E001795
:01054F001794
:010550001793
:010551001792
:010552001791
:010553001691
:010554001690
:01055500168F
:01055600168E
:01055700168D
:01055800168C
:01055900168B
:01055A00168A
:01055B001689
:01055C001688
:01055D001687
:01055E001686
:01055F001586
:010560001585
:010561001584
:010562001583
:010563001582
:010564001581
:010565001580
:01056600157F
:01056700157E
:01056800157D
:01056900157C
:01056A00157B
:01056B00157A
:01056C00147A
:01056D001479
:01056E001478
:01056F001477
:010570001476
:010571001475
:010572001474
:010573001473
:010574001472
:010575001471
:010576001470
:01057700146F
:01057800136F
:01057900136E
:01057A00136D
:01057B00136C
:01057C00136B
:01057D00136A
:01057E001369
:01057F001368
:010580001367
:010581001366
:010582001365
:010583001364
:010584001363
:010585001263
:010586001262
:010587001261
:010588001260
:01058900125F
:01058A00125E
:01058B00125D
:01058C00125C
:01058D00125B
:01058E00125A
:01058F001259
:010590001258
:010591001158
:010592001157
:010593001156
:010594001155
:010595001154
:010596001153
:010597001152
:010598001151
:010599001150
:01059A00114F
:01059B00114E
:01059C00114D
:01059D00114C
:01059E00104C
:01059F00104B
:0105A000104A
:0105A1001049
:0105A2001048
:0105A3001047
:0105A4001046
:0105A5001045
:0105A6001044
:0105A7001043
:0105A8001042
:0105A9001041
:0105AA000F41
:0105AB000F40
:0105AC000F3F
:0105AD000F3E
:0105AE000F3D
:0105AF000F3C
:0105B0000F3B
:0105B1000F3A
:0105B2000F39
:0105B3000F38
:0105B4000F37
:0105B5000F36
:0105B6000F35
:0105B7000E35
:0105B8000E34
:0105B9000E33
:0105BA000E32
:0105BB000E31
:0105BC000E30
:0105BD000E2F
:0105BE000E2E
:0105BF000E2D
:0105C0000E2C
:0105C1000E2B
:0105C2000E2A
:0105C3000D2A
:0105C4000D29
:0105C5000D28
:0105C6000D27
:0105C7000D26
:0105C8000D25
:0105C9000D24
:0105CA000D23
:0105CB000D22
:0105CC000D21
:0105CD000D20
:0105CE000D1F
:0105CF000D1E
:0105D0000C1E
:0105D1000C1D
:0105D2000C1C
:0105D3000C1B
:0105D4000C1A
:0105D5000C19
:0105D6000C18
:0105D7000C17
:0105D8000C16
:0105D9000C15
:0105DA000C14
:0105DB000C13
:0105DC000C12
:0105DD000B12
:0105DE000B11
:0105DF000B10
:0105E0000B0F
:0105E1000B0E
:0105E2000B0D
:0105E3000B0C
:0105E4000B0B
:0105E5000B0A
:0105E6000B09
:0105E7000B08
:0105E8000B07
:0105E9000B06
:0105EA000A06
:0105EB000A05
:0105EC000A04
:0105ED000A03
:0105EE000A02
:0105EF000A01
:0105F0000A00
:0105F1000AFF
:0105F2000AFE
:0105F3000AFD
:0105F4000AFC
:0105F5000AFB
:0105F6000AFA
:0105F70009FA
:0105F80009F9
:0105F90009F8
:0105FA0009F7
:0105FB0009F6
:0105FC0009F5
:0105FD0009F4
:0105FE0009F3
:0105FF0009F2
:0106000009F0
:0106010009EF
:0106020009EE
:0106030008EE
:0106040008ED
:0106050008EC
:0106060008EB
:0106070008EA
:0106080008E9
:0106090008E8
:01060A0008E7
:01060B0008E6
:01060C0008E5
:01060D0008E4
:01060E0008E3
:01060F0008E2
:0106100007E2
:0106110007E1
:0106120007E0
:0106130007DF
:0106140007DE
:0106150007DD
:0106160007DC
:0106170007DB
:0106180007DA
:0106190007D9
:01061A0007D8
:01061B0007D7
:01061C0007D6
:01061D0006D6
:01061E0006D5
:01061F0006D4
:0106200006D3
:0106210006D2
:0106220006D1
:0106230006D0
:0106240006CF
:0106250006CE
:0106260006CD
:0106270006CC
:0106280006CB
:0106290006CA
:01062A0005CA
:01062B0005C9
:01062C0005C8
:01062D0005C7
:01062E0005C6
:01062F0005C5
:0106300005C4
:0106310005C3
:0106320005C2
:0106330005C1
:0106340005C0
:0106350005BF
:0106360005BE
:0106370004BE
:0106380004BD
:0106390004BC
:01063A0004BB
:01063B0004BA
:01063C0004B9
:01063D0004B8
:01063E0004B7
:01063F0004B6
:0106400004B5
:0106410004B4
:0106420004B3
:0106430004B2
:0106440004B1
:0106450003B1
:0106460003B0
:0106470003AF
:0106480003AE
:0106490003AD
:01064A0003AC
:01064B0003AB
:01064C0003AA
:01064D0003A9
:01064E0003A8
:01064F0003A7
:0106500003A6
:0106510003A5
:0106520002A5
:0106530002A4
:0106540002A3
:0106550002A2
:0106560002A1
:0106570002A0
:01065800029F
:01065900029E
:01065A00029D
:01065B00029C
:01065C00029B
:01065D00029A
:01065E000299
:01065F000199
:010660000198
:010661000197
:010662000196
:010663000195
:010664000194
:010665000193
:010666000192
:010667000191
:010668000190
:01066900018F
:01066A00018E
:01066B00018D
:01066C00008D
:01066D00008C
:01066E00008B
:01066F00008A
:010670000089
:010671000088
:010672000087
:010673000086
:010674000085
:010675000084
:010676000083
:010677000082
:010678000081
:010679000080
:01067A001F60
:01067B001F5F
:01067C001F5E
:01067D001F5D
:01067E001F5C
:01067F001F5B
:010680001F5A
:010681001F59
:010682001F58
:010683001F57
:010684001F56
:010685001F55
:010686001F54
:010687001E54
:010688001E53
:010689001E52
:01068A001E51
:01068B001E50
:01068C001E4F
:01068D001E4E
:01068E001E4D
:01068F001E4C
:010690001E4B
:010691001E4A
:010692001E49
:010693001E48
:010694001D48
:010695001D47
:010696001D46
:010697001D45
:010698001D44
:010699001D43
:01069A001D42
:01069B001D41
:01069C001D40
:01069D001D3F
:01069E001D3E
:01069F001D3D
:0106A0001D3C
:0106A1001D3B
:0106A2001C3B
:0106A3001C3A
:0106A4001C39
:0106A5001C38
:0106A6001C37
:0106A7001C36
:0106A8001C35
:0106A9001C34
:0106AA001C33
:0106AB001C32
:0106AC001C31
:0106AD001C30
:0106AE001C2F
:0106AF001B2F
:0106B0001B2E
:0106B1001B2D
:0106B2001B2C
:0106B3001B2B
:0106B4001B2A
:0106B5001B29
:0106B6001B28
:0106B7001B27
:0106B8001B26
:0106B9001B25
:0106BA001B24
:0106BB001B23
:0106BC001B22
:0106BD001A22
:0106BE001A21
:0106BF001A20
:0106C0001A1F
:0106C1001A1E
:0106C2001A1D
:0106C3001A1C
:0106C4001A1B
:0106C5001A1A
:0106C6001A19
:0106C7001A18
:0106C8001A17
:0106C9001A16
:0106CA001916
:0106CB001915
:0106CC001914
:0106CD001913
:0106CE001912
:0106CF001911
:0106D0001910
:0106D100190F
:0106D200190E
:0106D300190D
:0106D400190C
:0106D500190B
:0106D600190A
:0106D7001909
:0106D8001809
:0106D9001808
:0106DA001807
:0106DB001806
:0106DC001805
:0106DD001804
:0106DE001803
:0106DF001802
:0106E0001801
:0106E1001800
:0106E20018FF
:0106E30018FE
:0106E40018FD
:0106E50018FC
:0106E60017FC
:0106E70017FB
:0106E80017FA
:0106E90017F9
:0106EA0017F8
:0106EB0017F7
:0106EC0017F6
:0106ED0017F5
:0106EE0017F4
:0106EF0017F3
:0106F00017F2
:0106F10017F1
:0106F20017F0
:0106F30016F0
:0106F40016EF
:0106F50016EE
:0106F60016ED
:0106F70016EC
:0106F80016EB
:0106F90016EA
:0106FA0016E9
:0106FB0016E8
:0106FC0016E7
:0106FD0016E6
:0106FE0016E5
:0106FF0016E4
:0107000016E2
:0107010015E2
:0107020015E1
:0107030015E0
:0107040015DF
:0107050015DE
:0107060015DD
:0107070015DC
:0107080015DB
:0107090015DA
:01070A0015D9
:01070B0015D8
:01070C0015D7
:01070D0015D6
:01070E0015D5
:01070F0014D5
:0107100014D4
:0107110014D3
:0107120014D2
:0107130014D1
:0107140014D0
:0107150014CF
:0107160014CE
:0107170014CD
:0107180014CC
:0107190014CB
:01071A0014CA
:01071B0014C9
:01071C0014C8
:01071D0013C8
:01071E0013C7
:01071F0013C6
:0107200013C5
:0107210013C4
:0107220013C3
:0107230013C2
:0107240013C1
:0107250013C0
:0107260013BF
:0107270013BE
:0107280013BD
:0107290013BC
:01072A0013BB
:01072B0012BB
:01072C0012BA
:01072D0012B9
:01072E0012B8
:01072F0012B7
:0107300012B6
:0107310012B5
:0107320012B4
:0107330012B3
:0107340012B2
:0107350012B1
:0107360012B0
:0107370012AF
:0107380012AE
:0107390011AE
:01073A0011AD
:01073B0011AC
:01073C0011AB
:01073D0011AA
:01073E0011A9
:01073F0011A8
:0107400011A7
:0107410011A6
:0107420011A5
:0107430011A4
:0107440011A3
:0107450011A2
:0107460011A1
:0107470010A1
:0107480010A0
:01074900109F
:01074A00109E
:01074B00109D
:01074C00109C
:01074D00109B
:01074E00109A
:01074F001099
:010750001098
:010751001097
:010752001096
:010753001095
:010754001094
:010755000F94
:010756000F93
:010757000F92
:010758000F91
:010759000F90
:01075A000F8F
:01075B000F8E
:01075C000F8D
:01075D000F8C
:01075E000F8B
:01075F000F8A
:010760000F89
:010761000F88
:010762000F87
:010763000E87
:010764000E86
:010765000E85
:010766000E84
:010767000E83
:010768000E82
:010769000E81
:01076A000E80
:01076B000E7F
:01076C000E7E
:01076D000E7D
:01076E000E7C
:01076F000E7B
:010770000E7A
:010771000D7A
:010772000D79
:010773000D78
:010774000D77
:010775000D76
:010776000D75
:010777000D74
:010778000D73
:010779000D72
:01077A000D71
:01077B000D70
:01077C000D6F
:01077D000D6E
:01077E000D6D
:01077F000C6D
:010780000C6C
:010781000C6B
:010782000C6A
:010783000C69
:010784000C68
:010785000C67
:010786000C66
:010787000C65
:010788000C64
:010789000C63
:01078A000C62
:01078B000C61
:01078C000C60
:01078D000B60
:01078E000B5F
:01078F000B5E
:010790000B5D
:010791000B5C
:010792000B5B
:010793000B5A
:010794000B59
:010795000B58
:010796000B57
:010797000B56
:010798000B55
:010799000B54
:01079A000B53
:01079B000B52
:01079C000A52
:01079D000A51
:01079E000A50
:01079F000A4F
:0107A0000A4E
:0107A1000A4D
:0107A2000A4C
:0107A3000A4B
:0107A4000A4A
:0107A5000A49
:0107A6000A48
:0107A7000A47
:0107A8000A46
:0107A9000A45
:0107AA000945
:0107AB000944
:0107AC000943
:0107AD000942
:0107AE000941
:0107AF000940
:0107B000093F
:0107B100093E
:0107B200093D
:0107B300093C
:0107B400093B
:0107B500093A
:0107B6000939
:0107B7000938
:0107B8000937
:0107B9000837
:0107BA000836
:0107BB000835
:0107BC000834
:0107BD000833
:0107BE000832
:0107BF000831
:0107C0000830
:0107C100082F
:0107C200082E
:0107C300082D
:0107C400082C
:0107C500082B
:0107C600082A
:0107C700072A
:0107C8000729
:0107C9000728
:0107CA000727
:0107CB000726
:0107CC000725
:0107CD000724
:0107CE000723
:0107CF000722
:0107D0000721
:0107D1000720
:0107D200071F
:0107D300071E
:0107D400071D
:0107D500061D
:0107D600061C
:0107D700061B
:0107D800061A
:0107D9000619
:0107DA000618
:0107DB000617
:0107DC000616
:0107DD000615
:0107DE000614
:0107DF000613
:0107E0000612
:0107E1000611
:0107E2000610
:0107E300060F
:0107E400050F
:0107E500050E
:0107E600050D
:0107E700050C
:0107E800050B
:0107E900050A
:0107EA000509
:0107EB000508
:0107EC000507
:0107ED000506
:0107EE000505
:0107EF000504
:0107F0000503
:0107F1000502
:0107F2000501
:0107F3000401
:0107F4000400
:0107F50004FF
:0107F60004FE
:0107F70004FD
:0107F80004FC
:0107F90004FB
:0107FA0004FA
:0107FB0004F9
:0107FC0004F8
:0107FD0004F7
:0107FE0004F6
:0107FF0004F5
:0108000004F3
:0108010003F3
:0108020003F2
:0108030003F1
:0108040003F0
:0108050003EF
:0108060003EE
:0108070003ED
:0108080003EC
:0108090003EB
:01080A0003EA
:01080B0003E9
:01080C0003E8
:01080D0003E7
:01080E0003E6
:01080F0003E5
:0108100002E5
:0108110002E4
:0108120002E3
:0108130002E2
:0108140002E1
:0108150002E0
:0108160002DF
:0108170002DE
:0108180002DD
:0108190002DC
:01081A0002DB
:01081B0002DA
:01081C0002D9
:01081D0002D8
:01081E0002D7
:01081F0001D7
:0108200001D6
:0108210001D5
:0108220001D4
:0108230001D3
:0108240001D2
:0108250001D1
:0108260001D0
:0108270001CF
:0108280001CE
:0108290001CD
:01082A0001CC
:01082B0001CB
:01082C0001CA
:01082D0001C9
:01082E0000C9
:01082F0000C8
:0108300000C7
:0108310000C6
:0108320000C5
:0108330000C4
:0108340000C3
:0108350000C2
:0108360000C1
:0108370000C0
:0108380000BF
:0108390000BE
:01083A0000BD
:01083B0000BC
:01083C0000BB
:01083D001F9B
:01083E001F9A
:01083F001F99
:010840001F98
:010841001F97
:010842001F96
:010843001F95
:010844001F94
:010845001F93
:010846001F92
:010847001F91
:010848001F90
:010849001F8F
:01084A001F8E
:01084B001F8D
:01084C001E8D
:01084D001E8C
:01084E001E8B
:01084F001E8A
:010850001E89
:010851001E88
:010852001E87
:010853001E86
:010854001E85
:010855001E84
:010856001E83
:010857001E82
:010858001E81
:010859001E80
:01085A001E7F
:01085B001D7F
:01085C001D7E
:01085D001D7D
:01085E001D7C
:01085F001D7B
:010860001D7A
:010861001D79
:010862001D78
:010863001D77
:010864001D76
:010865001D75
:010866001D74
:010867001D73
:010868001D72
:010869001D71
:01086A001C71
:01086B001C70
:01086C001C6F
:01086D001C6E
:01086E001C6D
:01086F001C6C
:010870001C6B
:010871001C6A
:010872001C69
:010873001C68
:010874001C67
:010875001C66
:010876001C65
:010877001C64
:010878001C63
:010879001B63
:01087A001B62
:01087B001B61
:01087C001B60
:01087D001B5F
:01087E001B5E
:01087F001B5D
:010880001B5C
:010881001B5B
:010882001B5A
:010883001B59
:010884001B58
:010885001B57
:010886001B56
:010887001B55
:010888001A55
:010889001A54
:01088A001A53
:01088B001A52
:01088C001A51
:01088D001A50
:01088E001A4F
:01088F001A4E
:010890001A4D
:010891001A4C
:010892001A4B
:010893001A4A
:010894001A49
:010895001A48
:010896001A47
:010897001947
:010898001946
:010899001945
:01089A001944
:01089B001943
:01089C001942
:01089D001941
:01089E001940
:01089F00193F
:0108A000193E
:0108A100193D
:0108A200193C
:0108A300193B
:0108A400193A
:0108A5001939
:0108A6001839
:0108A7001838
:0108A8001837
:0108A9001836
:0108AA001835
:0108AB001834
:0108AC001833
:0108AD001832
:0108AE001831
:0108AF001830
:0108B000182F
:0108B100182E
:0108B200182D
:0108B300182C
:0108B400182B
:0108B500182A
:0108B600172A
:0108B7001729
:0108B8001728
:0108B9001727
:0108BA001726
:0108BB001725
:0108BC001724
:0108BD001723
:0108BE001722
:0108BF001721
:0108C0001720
:0108C100171F
:0108C200171E
:0108C300171D
:0108C400171C
:0108C500161C
:0108C600161B
:0108C700161A
:0108C8001619
:0108C9001618
:0108CA001617
:0108CB001616
:0108CC001615
:0108CD001614
:0108CE001613
:0108CF001612
:0108D0001611
:0108D1001610
:0108D200160F
:0108D300160E
:0108D400150E
:0108D500150D
:0108D600150C
:0108D700150B
:0108D800150A
:0108D9001509
:0108DA001508
:0108DB001507
:0108DC001506
:0108DD001505
:0108DE001504
:0108DF001503
:0108E0001502
:0108E1001501
:0108E2001500
:0108E30015FF
:0108E40014FF
:0108E50014FE
:0108E60014FD
:0108E70014FC
:0108E80014FB
:0108E90014FA
:0108EA0014F9
:0108EB0014F8
:0108EC0014F7
:0108ED0014F6
:0108EE0014F5
:0108EF0014F4
:0108F00014F3
:0108F10014F2
:0108F20014F1
:0108F30014F0
:0108F40013F0
:0108F50013EF
:0108F60013EE
:0108F70013ED
:0108F80013EC
:0108F90013EB
:0108FA0013EA
:0108FB0013E9
:0108FC0013E8
:0108FD0013E7
:0108FE0013E6
:0108FF0013E5
:0109000013E3
:0109010013E2
:0109020013E1
:0109030012E1
:0109040012E0
:0109050012DF
:0109060012DE
:0109070012DD
:0109080012DC
:0109090012DB
:01090A0012DA
:01090B0012D9
:01090C0012D8
:01090D0012D7
:01090E0012D6
:01090F0012D5
:0109100012D4
:0109110012D3
:0109120012D2
:0109130011D2
:0109140011D1
:0109150011D0
:0109160011CF
:0109170011CE
:0109180011CD
:0109190011CC
:01091A0011CB
:01091B0011CA
:01091C0011C9
:01091D0011C8
:01091E0011C7
:01091F0011C6
:0109200011C5
:0109210011C4
:0109220011C3
:0109230010C3
:0109240010C2
:0109250010C1
:0109260010C0
:0109270010BF
:0109280010BE
:0109290010BD
:01092A0010BC
:01092B0010BB
:01092C0010BA
:01092D0010B9
:01092E0010B8
:01092F0010B7
:0109300010B6
:0109310010B5
:010932000FB5
:010933000FB4
:010934000FB3
:010935000FB2
:010936000FB1
:010937000FB0
:010938000FAF
:010939000FAE
:01093A000FAD
:01093B000FAC
:01093C000FAB
:01093D000FAA
:01093E000FA9
:01093F000FA8
:010940000FA7
:010941000FA6
:010942000EA6
:010943000EA5
:010944000EA4
:010945000EA3
:010946000EA2
:010947000EA1
:010948000EA0
:010949000E9F
:01094A000E9E
:01094B000E9D
:01094C000E9C
:01094D000E9B
:01094E000E9A
:01094F000E99
:010950000E98
:010951000E97
:010952000D97
:010953000D96
:010954000D95
:010955000D94
:010956000D93
:010957000D92
:010958000D91
:010959000D90
:01095A000D8F
:01095B000D8E
:01095C000D8D
:01095D000D8C
:01095E000D8B
:01095F000D8A
:010960000D89
:010961000D88
:010962000C88
:010963000C87
:010964000C86
:010965000C85
:010966000C84
:010967000C83
:010968000C82
:010969000C81
:01096A000C80
:01096B000C7F
:01096C000C7E
:01096D000C7D
:01096E000C7C
:01096F000C7B
:010970000C7A
:010971000C79
:010972000B79
:010973000B78
:010974000B77
:010975000B76
:010976000B75
:010977000B74
:010978000B73
:010979000B72
:01097A000B71
:01097B000B70
:01097C000B6F
:01097D000B6E
:01097E000B6D
:01097F000B6C
:010980000B6B
:010981000B6A
:010982000A6A
:010983000A69
:010984000A68
:010985000A67
:010986000A66
:010987000A65
:010988000A64
:010989000A63
:01098A000A62
:01098B000A61
:01098C000A60
:01098D000A5F
:01098E000A5E
:01098F000A5D
:010990000A5C
:010991000A5B
:01099200095B
:01099300095A
:010994000959
:010995000958
:010996000957
:010997000956
:010998000955
:010999000954
:01099A000953
:01099B000952
:01099C000951
:01099D000950
:01099E00094F
:01099F00094E
:0109A000094D
:0109A100094C
:0109A200084C
:0109A300084B
:0109A400084A
:0109A5000849
:0109A6000848
:0109A7000847
:0109A8000846
:0109A9000845
:0109AA000844
:0109AB000843
:0109AC000842
:0109AD000841
:0109AE000840
:0109AF00083F
:0109B000083E
:0109B100083D
:0109B200083C
:0109B300073C
:0109B400073B
:0109B500073A
:0109B6000739
:0109B7000738
:0109B8000737
:0109B9000736
:0109BA000735
:0109BB000734
:0109BC000733
:0109BD000732
:0109BE000731
:0109BF000730
:0109C000072F
:0109C100072E
:0109C200072D
:0109C300062D
:0109C400062C
:0109C500062B
:0109C600062A
:0109C7000629
:0109C8000628
:0109C9000627
:0109CA000626
:0109CB000625
:0109CC000624
:0109CD000623
:0109CE000622
:0109CF000621
:0109D0000620
:0109D100061F
:0109D200061E
:0109D300051E
:0109D400051D
:0109D500051C
:0109D600051B
:0109D700051A
:0109D8000519
:0109D9000518
:0109DA000517
:0109DB000516
:0109DC000515
:0109DD000514
:0109DE000513
:0109DF000512
:0109E0000511
:0109E1000510
:0109E200050F
:0109E300050E
:0109E400040E
:0109E500040D
:0109E600040C
:0109E700040B
:0109E800040A
:0109E9000409
:0109EA000408
:0109EB000407
:0109EC000406
:0109ED000405
:0109EE000404
:0109EF000403
:0109F0000402
:0109F1000401
:0109F2000400
:0109F30004FF
:0109F40003FF
:0109F50003FE
:0109F60003FD
:0109F70003FC
:0109F80003FB
:0109F90003FA
:0109FA0003F9
:0109FB0003F8
:0109FC0003F7
:0109FD0003F6
:0109FE0003F5
:0109FF0003F4
:010A000003F2
:010A010003F1
:010A020003F0
:010A030003EF
:010A040003EE
:010A050002EE
:010A060002ED
:010A070002EC
:010A080002EB
:010A090002EA
:010A0A0002E9
:010A0B0002E8
:010A0C0002E7
:010A0D0002E6
:010A0E0002E5
:010A0F0002E4
:010A100002E3
:010A110002E2
:010A120002E1
:010A130002E0
:010A140002DF
:010A150001DF
:010A160001DE
:010A170001DD
:010A180001DC
:010A190001DB
:010A1A0001DA
:010A1B0001D9
:010A1C0001D8
:010A1D0001D7
:010A1E0001D6
:010A1F0001D5
:010A200001D4
:010A210001D3
:010A220001D2
:010A230001D1
:010A240001D0
:010A250001CF
:010A260000CF
:010A270000CE
:010A280000CD
:010A290000CC
:010A2A0000CB
:010A2B0000CA
:010A2C0000C9
:010A2D0000C8
:010A2E0000C7
:010A2F0000C6
:010A300000C5
:010A310000C4
:010A320000C3
:010A330000C2
:010A340000C1
:010A350000C0
:010A360000BF
:010A37001F9F
:010A38001F9E
:010A39001F9D
:010A3A001F9C
:010A3B001F9B
:010A3C001F9A
:010A3D001F99
:010A3E001F98
:010A3F001F97
:010A40001F96
:010A41001F95
:010A42001F94
:010A43001F93
:010A44001F92
:010A45001F91
:010A46001F90
:010A47001F8F
:010A48001E8F
:010A49001E8E
:010A4A001E8D
:010A4B001E8C
:010A4C001E8B
:010A4D001E8A
:010A4E001E89
:010A4F001E88
:010A50001E87
:010A51001E86
:010A52001E85
:010A53001E84
:010A54001E83
:010A55001E82
:010A56001E81
:010A57001E80
:010A58001E7F
:010A59001D7F
:010A5A001D7E
:010A5B001D7D
:010A5C001D7C
:010A5D001D7B
:010A5E001D7A
:010A5F001D79
:010A60001D78
:010A61001D77
:010A62001D76
:010A63001D75
:010A64001D74
:010A65001D73
:010A66001D72
:010A67001D71
:010A68001D70
:010A69001D6F
:010A6A001C6F
:010A6B001C6E
:010A6C001C6D
:010A6D001C6C
:010A6E001C6B
:010A6F001C6A
:010A70001C69
:010A71001C68
:010A72001C67
:010A73001C66
:010A74001C65
:010A75001C64
:010A76001C63
:010A77001C62
:010A78001C61
:010A79001C60
:010A7A001C5F
:010A7B001B5F
:010A7C001B5E
:010A7D001B5D
:010A7E001B5C
:010A7F001B5B
:010A80001B5A
:010A81001B59
:010A82001B58
:010A83001B57
:010A84001B56
:010A85001B55
:010A86001B54
:010A87001B53
:010A88001B52
:010A89001B51
:010A8A001B50
:010A8B001B4F
:010A8C001A4F
:010A8D001A4E
:010A8E001A4D
:010A8F001A4C
:010A90001A4B
:010A91001A4A
:010A92001A49
:010A93001A48
:010A94001A47
:010A95001A46
:010A96001A45
:010A97001A44
:010A98001A43
:010A99001A42
:010A9A001A41
:010A9B001A40
:010A9C001A3F
:010A9D00193F
:010A9E00193E
:010A9F00193D
:010AA000193C
:010AA100193B
:010AA200193A
:010AA3001939
:010AA4001938
:010AA5001937
:010AA6001936
:010AA7001935
:010AA8001934
:010AA9001933
:010AAA001932
:010AAB001931
:010AAC001930
:010AAD00192F
:010AAE00182F
:010AAF00182E
:010AB000182D
:010AB100182C
:010AB200182B
:010AB300182A
:010AB4001829
:010AB5001828
:010AB6001827
:010AB7001826
:010AB8001825
:010AB9001824
:010ABA001823
:010ABB001822
:010ABC001821
:010ABD001820
:010ABE00181F
:010ABF00171F
:010AC000171E
:010AC100171D
:010AC200171C
:010AC300171B
:010AC400171A
:010AC5001719
:010AC6001718
:010AC7001717
:010AC8001716
:010AC9001715
:010ACA001714
:010ACB001713
:010ACC001712
:010ACD001711
:010ACE001710
:010ACF00170F
:010AD000160F
:010AD100160E
:010AD200160D
:010AD300160C
:010AD400160B
:010AD500160A
:010AD6001609
:010AD7001608
:010AD8001607
:010AD9001606
:010ADA001605
:010ADB001604
:010ADC001603
:010ADD001602
:010ADE001601
:010ADF001600
:010AE00016FF
:010AE10016FE
:010AE20015FE
:010AE30015FD
:010AE40015FC
:010AE50015FB
:010AE60015FA
:010AE70015F9
:010AE80015F8
:010AE90015F7
:010AEA0015F6
:010AEB0015F5
:010AEC0015F4
:010AED0015F3
:010AEE0015F2
:010AEF0015F1
:010AF00015F0
:010AF10015EF
:010AF20015EE
:010AF30014EE
:010AF40014ED
:010AF50014EC
:010AF60014EB
:010AF70014EA
:010AF80014E9
:010AF90014E8
:010AFA0014E7
:010AFB0014E6
:010AFC0014E5
:010AFD0014E4
:010AFE0014E3
:010AFF0014E2
:010B000014E0
:010B010014DF
:010B020014DE
:010B030014DD
:010B040014DC
:010B050013DC
:010B060013DB
:010B070013DA
:010B080013D9
:010B090013D8
:010B0A0013D7
:010B0B0013D6
:010B0C0013D5
:010B0D0013D4
:010B0E0013D3
:010B0F0013D2
:010B100013D1
:010B110013D0
:010B120013CF
:010B130013CE
:010B140013CD
:010B150013CC
:010B160012CC
:010B170012CB
:010B180012CA
:010B190012C9
:010B1A0012C8
:010B1B0012C7
:010B1C0012C6
:010B1D0012C5
:010B1E0012C4
:010B1F0012C3
:010B200012C2
:010B210012C1
:010B220012C0
:010B230012BF
:010B240012BE
:010B250012BD
:010B260012BC
:010B270012BB
:010B280011BB
:010B290011BA
:010B2A0011B9
:010B2B0011B8
:010B2C0011B7
:010B2D0011B6
:010B2E0011B5
:010B2F0011B4
:010B300011B3
:010B310011B2
:010B320011B1
:010B330011B0
:010B340011AF
:010B350011AE
:010B360011AD
:010B370011AC
:010B380011AB
:010B390011AA
:010B3A0010AA
:010B3B0010A9
:010B3C0010A8
:010B3D0010A7
:010B3E0010A6
:010B3F0010A5
:010B400010A4
:010B410010A3
:010B420010A2
:010B430010A1
:010B440010A0
:010B4500109F
:010B4600109E
:010B4700109D
:010B4800109C
:010B4900109B
:010B4A00109A
:010B4B001099
:010B4C000F99
:010B4D000F98
:010B4E000F97
:010B4F000F96
:010B50000F95
:010B51000F94
:010B52000F93
:010B53000F92
:010B54000F91
:010B55000F90
:010B56000F8F
:010B57000F8E
:010B58000F8D
:010B59000F8C
:010B5A000F8B
:010B5B000F8A
:010B5C000F89
:010B5D000E89
:010B5E000E88
:010B5F000E87
:010B60000E86
:010B61000E85
:010B62000E84
:010B63000E83
:010B64000E82
:010B65000E81
:010B66000E80
:010B67000E7F
:010B68000E7E
:010B69000E7D
:010B6A000E7C
:010B6B000E7B
:010B6C000E7A
:010B6D000E79
:010B6E000E78
:010B6F000D78
:010B70000D77
:010B71000D76
:010B72000D75
:010B73000D74
:010B74000D73
:010B75000D72
:010B76000D71
:010B77000D70
:010B78000D6F
:010B79000D6E
:010B7A000D6D
:010B7B000D6C
:010B7C000D6B
:010B7D000D6A
:010B7E000D69
:010B7F000D68
:010B80000D67
:010B81000C67
:010B82000C66
:010B83000C65
:010B84000C64
:010B85000C63
:010B86000C62
:010B87000C61
:010B88000C60
:010B89000C5F
:010B8A000C5E
:010B8B000C5D
:010B8C000C5C
:010B8D000C5B
:010B8E000C5A
:010B8F000C59
:010B90000C58
:010B91000C57
:010B92000C56
:010B93000B56
:010B94000B55
:010B95000B54
:010B96000B53
:010B97000B52
:010B98000B51
:010B99000B50
:010B9A000B4F
:010B9B000B4E
:010B9C000B4D
:010B9D000B4C
:010B9E000B4B
:010B9F000B4A
:010BA0000B49
:010BA1000B48
:010BA2000B47
:010BA3000B46
:010BA4000B45
:010BA5000B44
:010BA6000A44
:010BA7000A43
:010BA8000A42
:010BA9000A41
:010BAA000A40
:010BAB000A3F
:010BAC000A3E
:010BAD000A3D
:010BAE000A3C
:010BAF000A3B
:010BB0000A3A
:010BB1000A39
:010BB2000A38
:010BB3000A37
:010BB4000A36
:010BB5000A35
:010BB6000A34
:010BB7000A33
:010BB8000933
:010BB9000932
:010BBA000931
:010BBB000930
:010BBC00092F
:010BBD00092E
:010BBE00092D
:010BBF00092C
:010BC000092B
:010BC100092A
:010BC2000929
:010BC3000928
:010BC4000927
:010BC5000926
:010BC6000925
:010BC7000924
:010BC8000923
:010BC9000922
:010BCA000822
:010BCB000821
:010BCC000820
:010BCD00081F
:010BCE00081E
:010BCF00081D
:010BD000081C
:010BD100081B
:010BD200081A
:010BD3000819
:010BD4000818
:010BD5000817
:010BD6000816
:010BD7000815
:010BD8000814
:010BD9000813
:010BDA000812
:010BDB000811
:010BDC000711
:010BDD000710
:010BDE00070F
:010BDF00070E
:010BE000070D
:010BE100070C
:010BE200070B
:010BE300070A
:010BE4000709
:010BE5000708
:010BE6000707
:010BE7000706
:010BE8000705
:010BE9000704
:010BEA000703
:010BEB000702
:010BEC000701
:010BED000700
:010BEE0007FF
:010BEF0006FF
:010BF00006FE
:010BF10006FD
:010BF20006FC
:010BF30006FB
:010BF40006FA
:010BF50006F9
:010BF60006F8
:010BF70006F7
:010BF80006F6
:010BF90006F5
:010BFA0006F4
:010BFB0006F3
:010BFC0006F2
:010BFD0006F1
:010BFE0006F0
:010BFF0006EF
:010C000006ED
:010C010005ED
:010C020005EC
:010C030005EB
:010C040005EA
:010C050005E9
:010C060005E8
:010C070005E7
:010C080005E6
:010C090005E5
:010C0A0005E4
:010C0B0005E3
:010C0C0005E2
:010C0D0005E1
:010C0E0005E0
:010C0F0005DF
:010C100005DE
:010C110005DD
:010C120005DC
:010C130005DB
:010C140004DB
:010C150004DA
:010C160004D9
:010C170004D8
:010C180004D7
:010C190004D6
:010C1A0004D5
:010C1B0004D4
:010C1C0004D3
:010C1D0004D2
:010C1E0004D1
:010C1F0004D0
:010C200004CF
:010C210004CE
:010C220004CD
:010C230004CC
:010C240004CB
:010C250004CA
:010C260004C9
:010C270003C9
:010C280003C8
:010C290003C7
:010C2A0003C6
:010C2B0003C5
:010C2C0003C4
:010C2D0003C3
:010C2E0003C2
:010C2F0003C1
:010C300003C0
:010C310003BF
:010C320003BE
:010C330003BD
:010C340003BC
:010C350003BB
:010C360003BA
:010C370003B9
:010C380003B8
:010C390002B8
:010C3A0002B7
:010C3B0002B6
:010C3C0002B5
:010C3D0002B4
:010C3E0002B3
:010C3F0002B2
:010C400002B1
:010C410002B0
:010C420002AF
:010C430002AE
:010C440002AD
:010C450002AC
:010C460002AB
:010C470002AA
:010C480002A9
:010C490002A8
:010C4A0002A7
:010C4B0002A6
:010C4C0001A6
:010C4D0001A5
:010C4E0001A4
:010C4F0001A3
:010C500001A2
:010C510001A1
:010C520001A0
:010C5300019F
:010C5400019E
:010C5500019D
:010C5600019C
:010C5700019B
:010C5800019A
:010C59000199
:010C5A000198
:010C5B000197
:010C5C000196
:010C5D000195
:010C5E000194
:010C5F000094
:010C60000093
:010C61000092
:010C62000091
:010C63000090
:010C6400008F
:010C6500008E
:010C6600008D
:010C6700008C
:010C6800008B
:010C6900008A
:010C6A000089
:010C6B000088
:010C6C000087
:010C6D000086
:010C6E000085
:010C6F000084
:010C70000083
:010C71000082
:010C72001F62
:010C73001F61
:010C74001F60
:010C75001F5F
:010C76001F5E
:010C77001F5D
:010C78001F5C
:010C79001F5B
:010C7A001F5A
:010C7B001F59
:010C7C001F58
:010C7D001F57
:010C7E001F56
:010C7F001F55
:010C80001F54
:010C81001F53
:010C82001F52
:010C83001F51
:010C84001F50
:010C85001E50
:010C86001E4F
:010C87001E4E
:010C88001E4D
:010C89001E4C
:010C8A001E4B
:010C8B001E4A
:010C8C001E49
:010C8D001E48
:010C8E001E47
:010C8F001E46
:010C90001E45
:010C91001E44
:010C92001E43
:010C93001E42
:010C94001E41
:010C95001E40
:010C96001E3F
:010C97001E3E
:010C98001D3E
:010C99001D3D
:010C9A001D3C
:010C9B001D3B
:010C9C001D3A
:010C9D001D39
:010C9E001D38
:010C9F001D37
:010CA0001D36
:010CA1001D35
:010CA2001D34
:010CA3001D33
:010CA4001D32
:010CA5001D31
:010CA6001D30
:010CA7001D2F
:010CA8001D2E
:010CA9001D2D
:010CAA001D2C
:010CAB001C2C
:010CAC001C2B
:010CAD001C2A
:010CAE001C29
:010CAF001C28
:010CB0001C27
:010CB1001C26
:010CB2001C25
:010CB3001C24
:010CB4001C23
:010CB5001C22
:010CB6001C21
:010CB7001C20
:010CB8001C1F
:010CB9001C1E
:010CBA001C1D
:010CBB001C1C
:010CBC001C1B
:010CBD001C1A
:010CBE001B1A
:010CBF001B19
:010CC0001B18
:010CC1001B17
:010CC2001B16
:010CC3001B15
:010CC4001B14
:010CC5001B13
:010CC6001B12
:010CC7001B11
:010CC8001B10
:010CC9001B0F
:010CCA001B0E
:010CCB001B0D
:010CCC001B0C
:010CCD001B0B
:010CCE001B0A
:010CCF001B09
:010CD0001B08
:010CD1001B07
:010CD2001A07
:010CD3001A06
:010CD4001A05
:010CD5001A04
:010CD6001A03
:010CD7001A02
:010CD8001A01
:010CD9001A00
:010CDA001AFF
:010CDB001AFE
:010CDC001AFD
:010CDD001AFC
:010CDE001AFB
:010CDF001AFA
:010CE0001AF9
:010CE1001AF8
:010CE2001AF7
:010CE3001AF6
:010CE4001AF5
:010CE50019F5
:010CE60019F4
:010CE70019F3
:010CE80019F2
:010CE90019F1
:010CEA0019F0
:010CEB0019EF
:010CEC0019EE
:010CED0019ED
:010CEE0019EC
:010CEF0019EB
:010CF00019EA
:010CF10019E9
:010CF20019E8
:010CF30019E7
:010CF40019E6
:010CF50019E5
:010CF60019E4
:010CF70019E3
:010CF80018E3
:010CF90018E2
:010CFA0018E1
:010CFB0018E0
:010CFC0018DF
:010CFD0018DE
:010CFE0018DD
:010CFF0018DC
:010D000018DA
:010D010018D9
:010D020018D8
:010D030018D7
:010D040018D6
:010D050018D5
:010D060018D4
:010D070018D3
:010D080018D2
:010D090018D1
:010D0A0018D0
:010D0B0018CF
:010D0C0017CF
:010D0D0017CE
:010D0E0017CD
:010D0F0017CC
:010D100017CB
:010D110017CA
:010D120017C9
:010D130017C8
:010D140017C7
:010D150017C6
:010D160017C5
:010D170017C4
:010D180017C3
:010D190017C2
:010D1A0017C1
:010D1B0017C0
:010D1C0017BF
:010D1D0017BE
:010D1E0017BD
:010D1F0016BD
:010D200016BC
:010D210016BB
:010D220016BA
:010D230016B9
:010D240016B8
:010D250016B7
:010D260016B6
:010D270016B5
:010D280016B4
:010D290016B3
:010D2A0016B2
:010D2B0016B1
:010D2C0016B0
:010D2D0016AF
:010D2E0016AE
:010D2F0016AD
:010D300016AC
:010D310016AB
:010D320016AA
:010D330015AA
:010D340015A9
:010D350015A8
:010D360015A7
:010D370015A6
:010D380015A5
:010D390015A4
:010D3A0015A3
:010D3B0015A2
:010D3C0015A1
:010D3D0015A0
:010D3E00159F
:010D3F00159E
:010D4000159D
:010D4100159C
:010D4200159B
:010D4300159A
:010D44001599
:010D45001598
:010D46001597
:010D47001497
:010D48001496
:010D49001495
:010D4A001494
:010D4B001493
:010D4C001492
:010D4D001491
:010D4E001490
:010D4F00148F
:010D5000148E
:010D5100148D
:010D5200148C
:010D5300148B
:010D5400148A
:010D55001489
:010D56001488
:010D57001487
:010D58001486
:010D59001485
:010D5A001484
:010D5B001384
:010D5C001383
:010D5D001382
:010D5E001381
:010D5F001380
:010D6000137F
:010D6100137E
:010D6200137D
:010D6300137C
:010D6400137B
:010D6500137A
:010D66001379
:010D67001378
:010D68001377
:010D69001376
:010D6A001375
:010D6B001374
:010D6C001373
:010D6D001372
:010D6E001371
:010D6F001271
:010D70001270
:010D7100126F
:010D7200126E
:010D7300126D
:010D7400126C
:010D7500126B
:010D7600126A
:010D77001269
:010D78001268
:010D79001267
:010D7A001266
:010D7B001265
:010D7C001264
:010D7D001263
:010D7E001262
:010D7F001261
:010D80001260
:010D8100125F
:010D8200125E
:010D8300115E
:010D8400115D
:010D8500115C
:010D8600115B
:010D8700115A
:010D88001159
:010D89001158
:010D8A001157
:010D8B001156
:010D8C001155
:010D8D001154
:010D8E001153
:010D8F001152
:010D90001151
:010D91001150
:010D9200114F
:010D9300114E
:010D9400114D
:010D9500114C
:010D9600114B
:010D9700104B
:010D9800104A
:010D99001049
:010D9A001048
:010D9B001047
:010D9C001046
:010D9D001045
:010D9E001044
:010D9F001043
:010DA0001042
:010DA1001041
:010DA2001040
:010DA300103F
:010DA400103E
:010DA500103D
:010DA600103C
:010DA700103B
:010DA800103A
:010DA9001039
:010DAA001038
:010DAB000F38
:010DAC000F37
:010DAD000F36
:010DAE000F35
:010DAF000F34
:010DB0000F33
:010DB1000F32
:010DB2000F31
:010DB3000F30
:010DB4000F2F
:010DB5000F2E
:010DB6000F2D
:010DB7000F2C
:010DB8000F2B
:010DB9000F2A
:010DBA000F29
:010DBB000F28
:010DBC000F27
:010DBD000F26
:010DBE000F25
:010DBF000E25
:010DC0000E24
:010DC1000E23
:010DC2000E22
:010DC3000E21
:010DC4000E20
:010DC5000E1F
:010DC6000E1E
:010DC7000E1D
:010DC8000E1C
:010DC9000E1B
:010DCA000E1A
:010DCB000E19
:010DCC000E18
:010DCD000E17
:010DCE000E16
:010DCF000E15
:010DD0000E14
:010DD1000E13
:010DD2000E12
:010DD3000D12
:010DD4000D11
:010DD5000D10
:010DD6000D0F
:010DD7000D0E
:010DD8000D0D
:010DD9000D0C
:010DDA000D0B
:010DDB000D0A
:010DDC000D09
:010DDD000D08
:010DDE000D07
:010DDF000D06
:010DE0000D05
:010DE1000D04
:010DE2000D03
:010DE3000D02
:010DE4000D01
:010DE5000D00
:010DE6000DFF
:010DE7000DFE
:010DE8000CFE
:010DE9000CFD
:010DEA000CFC
:010DEB000CFB
:010DEC000CFA
:010DED000CF9
:010DEE000CF8
:010DEF000CF7
:010DF0000CF6
:010DF1000CF5
:010DF2000CF4
:010DF3000CF3
:010DF4000CF2
:010DF5000CF1
:010DF6000CF0
:010DF7000CEF
:010DF8000CEE
:010DF9000CED
:010DFA000CEC
:010DFB000CEB
:010DFC000BEB
:010DFD000BEA
:010DFE000BE9
:010DFF000BE8
:010E00000BE6
:010E01000BE5
:010E02000BE4
:010E03000BE3
:010E04000BE2
:010E05000BE1
:010E06000BE0
:010E07000BDF
:010E08000BDE
:010E09000BDD
:010E0A000BDC
:010E0B000BDB
:010E0C000BDA
:010E0D000BD9
:010E0E000BD8
:010E0F000BD7
:010E10000BD6
:010E11000AD6
:010E12000AD5
:010E13000AD4
:010E14000AD3
:010E15000AD2
:010E16000AD1
:010E17000AD0
:010E18000ACF
:010E19000ACE
:010E1A000ACD
:010E1B000ACC
:010E1C000ACB
:010E1D000ACA
:010E1E000AC9
:010E1F000AC8
:010E20000AC7
:010E21000AC6
:010E22000AC5
:010E23000AC4
:010E24000AC3
:010E25000AC2
:010E260009C2
:010E270009C1
:010E280009C0
:010E290009BF
:010E2A0009BE
:010E2B0009BD
:010E2C0009BC
:010E2D0009BB
:010E2E0009BA
:010E2F0009B9
:010E300009B8
:010E310009B7
:010E320009B6
:010E330009B5
:010E340009B4
:010E350009B3
:010E360009B2
:010E370009B1
:010E380009B0
:010E390009AF
:010E3A0008AF
:010E3B0008AE
:010E3C0008AD
:010E3D0008AC
:010E3E0008AB
:010E3F0008AA
:010E400008A9
:010E410008A8
:010E420008A7
:010E430008A6
:010E440008A5
:010E450008A4
:010E460008A3
:010E470008A2
:010E480008A1
:010E490008A0
:010E4A00089F
:010E4B00089E
:010E4C00089D
:010E4D00089C
:010E4E00089B
:010E4F00079B
:010E5000079A
:010E51000799
:010E52000798
:010E53000797
:010E54000796
:010E55000795
:010E56000794
:010E57000793
:010E58000792
:010E59000791
:010E5A000790
:010E5B00078F
:010E5C00078E
:010E5D00078D
:010E5E00078C
:010E5F00078B
:010E6000078A
:010E61000789
:010E62000788
:010E63000787
:010E64000687
:010E65000686
:010E66000685
:010E67000684
:010E68000683
:010E69000682
:010E6A000681
:010E6B000680
:010E6C00067F
:010E6D00067E
:010E6E00067D
:010E6F00067C
:010E7000067B
:010E7100067A
:010E72000679
:010E73000678
:010E74000677
:010E75000676
:010E76000675
:010E77000674
:010E78000673
:010E79000573
:010E7A000572
:010E7B000571
:010E7C000570
:010E7D00056F
:010E7E00056E
:010E7F00056D
:010E8000056C
:010E8100056B
:010E8200056A
:010E83000569
:010E84000568
:010E85000567
:010E86000566
:010E87000565
:010E88000564
:010E89000563
:010E8A000562
:010E8B000561
:010E8C000560
:010E8D00055F
:010E8E00045F
:010E8F00045E
:010E9000045D
:010E9100045C
:010E9200045B
:010E9300045A
:010E94000459
:010E95000458
:010E96000457
:010E97000456
:010E98000455
:010E99000454
:010E9A000453
:010E9B000452
:010E9C000451
:010E9D000450
:010E9E00044F
:010E9F00044E
:010EA000044D
:010EA100044C
:010EA200044B
:010EA300034B
:010EA400034A
:010EA5000349
:010EA6000348
:010EA7000347
:010EA8000346
:010EA9000345
:010EAA000344
:010EAB000343
:010EAC000342
:010EAD000341
:010EAE000340
:010EAF00033F
:010EB000033E
:010EB100033D
:010EB200033C
:010EB300033B
:010EB400033A
:010EB5000339
:010EB6000338
:010EB7000337
:010EB8000237
:010EB9000236
:010EBA000235
:010EBB000234
:010EBC000233
:010EBD000232
:010EBE000231
:010EBF000230
:010EC000022F
:010EC100022E
:010EC200022D
:010EC300022C
:010EC400022B
:010EC500022A
:010EC6000229
:010EC7000228
:010EC8000227
:010EC9000226
:010ECA000225
:010ECB000224
:010ECC000223
:010ECD000222
:010ECE000122
:010ECF000121
:010ED0000120
:010ED100011F
:010ED200011E
:010ED300011D
:010ED400011C
:010ED500011B
:010ED600011A
:010ED7000119
:010ED8000118
:010ED9000117
:010EDA000116
:010EDB000115
:010EDC000114
:010EDD000113
:010EDE000112
:010EDF000111
:010EE0000110
:010EE100010F
:010EE200010E
:010EE300000E
:010EE400000D
:010EE500000C
:010EE600000B
:010EE700000A
:010EE8000009
:010EE9000008
:010EEA000007
:010EEB000006
:010EEC000005
:010EED000004
:010EEE000003
:010EEF000002
:010EF0000001
:010EF1000000
:010EF20000FF
:010EF30000FE
:010EF40000FD
:010EF50000FC
:010EF60000FB
:010EF70000FA
:010EF80000F9
:010EF9001FD9
:010EFA001FD8
:010EFB001FD7
:010EFC001FD6
:010EFD001FD5
:010EFE001FD4
:010EFF001FD3
:010F00001FD1
:010F01001FD0
:010F02001FCF
:010F03001FCE
:010F04001FCD
:010F05001FCC
:010F06001FCB
:010F07001FCA
:010F08001FC9
:010F09001FC8
:010F0A001FC7
:010F0B001FC6
:010F0C001FC5
:010F0D001FC4
:010F0E001EC4
:010F0F001EC3
:010F10001EC2
:010F11001EC1
:010F12001EC0
:010F13001EBF
:010F14001EBE
:010F15001EBD
:010F16001EBC
:010F17001EBB
:010F18001EBA
:010F19001EB9
:010F1A001EB8
:010F1B001EB7
:010F1C001EB6
:010F1D001EB5
:010F1E001EB4
:010F1F001EB3
:010F20001EB2
:010F21001EB1
:010F22001EB0
:010F23001EAF
:010F24001DAF
:010F25001DAE
:010F26001DAD
:010F27001DAC
:010F28001DAB
:010F29001DAA
:010F2A001DA9
:010F2B001DA8
:010F2C001DA7
:010F2D001DA6
:010F2E001DA5
:010F2F001DA4
:010F30001DA3
:010F31001DA2
:010F32001DA1
:010F33001DA0
:010F34001D9F
:010F35001D9E
:010F36001D9D
:010F37001D9C
:010F38001D9B
:010F39001D9A
:010F3A001C9A
:010F3B001C99
:010F3C001C98
:010F3D001C97
:010F3E001C96
:010F3F001C95
:010F40001C94
:010F41001C93
:010F42001C92
:010F43001C91
:010F44001C90
:010F45001C8F
:010F46001C8E
:010F47001C8D
:010F48001C8C
:010F49001C8B
:010F4A001C8A
:010F4B001C89
:010F4C001C88
:010F4D001C87
:010F4E001C86
:010F4F001C85
:010F50001B85
:010F51001B84
:010F52001B83
:010F53001B82
:010F54001B81
:010F55001B80
:010F56001B7F
:010F57001B7E
:010F58001B7D
:010F59001B7C
:010F5A001B7B
:010F5B001B7A
:010F5C001B79
:010F5D001B78
:010F5E001B77
:010F5F001B76
:010F60001B75
:010F61001B74
:010F62001B73
:010F63001B72
:010F64001B71
:010F65001B70
:010F66001A70
:010F67001A6F
:010F68001A6E
:010F69001A6D
:010F6A001A6C
:010F6B001A6B
:010F6C001A6A
:010F6D001A69
:010F6E001A68
:010F6F001A67
:010F70001A66
:010F71001A65
:010F72001A64
:010F73001A63
:010F74001A62
:010F75001A61
:010F76001A60
:010F77001A5F
:010F78001A5E
:010F79001A5D
:010F7A001A5C
:010F7B001A5B
:010F7C00195B
:010F7D00195A
:010F7E001959
:010F7F001958
:010F80001957
:010F81001956
:010F82001955
:010F83001954
:010F84001953
:010F85001952
:010F86001951
:010F87001950
:010F8800194F
:010F8900194E
:010F8A00194D
:010F8B00194C
:010F8C00194B
:010F8D00194A
:010F8E001949
:010F8F001948
:010F90001947
:010F91001946
:010F92001846
:010F93001845
:010F94001844
:010F95001843
:010F96001842
:010F97001841
:010F98001840
:010F9900183F
:010F9A00183E
:010F9B00183D
:010F9C00183C
:010F9D00183B
:010F9E00183A
:010F9F001839
:010FA0001838
:010FA1001837
:010FA2001836
:010FA3001835
:010FA4001834
:010FA5001833
:010FA6001832
:010FA7001831
:010FA8001731
:010FA9001730
:010FAA00172F
:010FAB00172E
:010FAC00172D
:010FAD00172C
:010FAE00172B
:010FAF00172A
:010FB0001729
:010FB1001728
:010FB2001727
:010FB3001726
:010FB4001725
:010FB5001724
:010FB6001723
:010FB7001722
:010FB8001721
:010FB9001720
:010FBA00171F
:010FBB00171E
:010FBC00171D
:010FBD00171C
:010FBE00161C
:010FBF00161B
:010FC000161A
:010FC1001619
:010FC2001618
:010FC3001617
:010FC4001616
:010FC5001615
:010FC6001614
:010FC7001613
:010FC8001612
:010FC9001611
:010FCA001610
:010FCB00160F
:010FCC00160E
:010FCD00160D
:010FCE00160C
:010FCF00160B
:010FD000160A
:010FD1001609
:010FD2001608
:010FD3001607
:010FD4001606
:010FD5001506
:010FD6001505
:010FD7001504
:010FD8001503
:010FD9001502
:010FDA001501
:010FDB001500
:010FDC0015FF
:010FDD0015FE
:010FDE0015FD
:010FDF0015FC
:010FE00015FB
:010FE10015FA
:010FE20015F9
:010FE30015F8
:010FE40015F7
:010FE50015F6
:010FE60015F5
:010FE70015F4
:010FE80015F3
:010FE90015F2
:010FEA0015F1
:010FEB0014F1
:010FEC0014F0
:010FED0014EF
:010FEE0014EE
:010FEF0014ED
:010FF00014EC
:010FF10014EB
:010FF20014EA
:010FF30014E9
:010FF40014E8
:010FF50014E7
:010FF60014E6
:010FF70014E5
:010FF80014E4
:010FF90014E3
:010FFA0014E2
:010FFB0014E1
:010FFC0014E0
:010FFD0014DF
:010FFE0014DE
:010FFF0014DD
:00000001ff
