:020000040000FA
:010000001FE0
:010001001FDF
:010002001FDE
:010003001FDD
:010004001FDC
:010005001FDB
:010006001FDA
:010007001FD9
:010008001FD8
:010009001FD7
:01000A001FD6
:01000B001FD5
:01000C001FD4
:01000D001FD3
:01000E001FD2
:01000F001FD1
:010010001FD0
:010011001FCF
:010012001FCE
:010013001FCD
:010014001FCC
:010015001FCB
:010016001FCA
:010017001FC9
:010018001FC8
:010019001FC7
:01001A001FC6
:01001B001FC5
:01001C001FC4
:01001D001FC3
:01001E001FC2
:01001F001FC1
:010020001FC0
:010021001FBF
:010022001FBE
:010023001FBD
:010024001FBC
:010025001FBB
:010026001FBA
:010027001FB9
:010028001FB8
:010029001FB7
:01002A001FB6
:01002B001FB5
:01002C001FB4
:01002D001FB3
:01002E001FB2
:01002F001FB1
:010030001FB0
:010031001FAF
:010032001FAE
:010033001FAD
:010034001FAC
:010035001FAB
:010036001FAA
:010037001FA9
:010038001FA8
:010039001FA7
:01003A001FA6
:01003B001FA5
:01003C001FA4
:01003D001FA3
:01003E001FA2
:01003F001FA1
:010040001FA0
:010041001F9F
:010042001F9E
:010043001F9D
:010044001F9C
:010045001F9B
:010046001F9A
:010047001F99
:010048001F98
:010049001F97
:01004A001F96
:01004B001F95
:01004C001F94
:01004D001F93
:01004E001F92
:01004F001F91
:010050001F90
:010051001F8F
:010052001F8E
:010053001F8D
:010054001F8C
:010055001F8B
:010056001F8A
:010057001F89
:010058001F88
:010059001F87
:01005A001F86
:01005B001F85
:01005C001F84
:01005D001F83
:01005E001F82
:01005F001F81
:010060001F80
:010061001F7F
:010062001F7E
:010063001F7D
:010064001F7C
:010065001F7B
:010066001F7A
:010067001F79
:010068001F78
:010069001F77
:01006A001F76
:01006B001F75
:01006C001F74
:01006D001F73
:01006E001F72
:01006F001F71
:010070001F70
:010071001F6F
:010072001F6E
:010073001F6D
:010074001F6C
:010075001F6B
:010076001F6A
:010077001F69
:010078001F68
:010079001F67
:01007A001F66
:01007B001F65
:01007C001F64
:01007D001F63
:01007E001F62
:01007F001F61
:010080001F60
:010081001F5F
:010082001F5E
:010083001F5D
:010084001F5C
:010085001F5B
:010086001F5A
:010087001F59
:010088001F58
:010089001F57
:01008A001F56
:01008B001F55
:01008C001F54
:01008D001F53
:01008E001F52
:01008F001F51
:010090001F50
:010091001F4F
:010092001F4E
:010093001F4D
:010094001F4C
:010095001F4B
:010096001F4A
:010097001F49
:010098001F48
:010099001F47
:01009A001F46
:01009B001F45
:01009C001F44
:01009D001F43
:01009E001F42
:01009F001F41
:0100A0001F40
:0100A1001F3F
:0100A2001F3E
:0100A3001F3D
:0100A4001F3C
:0100A5001F3B
:0100A6001F3A
:0100A7001F39
:0100A8001F38
:0100A9001F37
:0100AA001F36
:0100AB001F35
:0100AC001F34
:0100AD001F33
:0100AE001F32
:0100AF001F31
:0100B0001F30
:0100B1001F2F
:0100B2001F2E
:0100B3001F2D
:0100B4001F2C
:0100B5001F2B
:0100B6001F2A
:0100B7001F29
:0100B8001F28
:0100B9001F27
:0100BA001F26
:0100BB001F25
:0100BC001F24
:0100BD001F23
:0100BE001F22
:0100BF001F21
:0100C0001F20
:0100C1001F1F
:0100C2001F1E
:0100C3001F1D
:0100C4001F1C
:0100C5001F1B
:0100C6001F1A
:0100C7001F19
:0100C8001F18
:0100C9001F17
:0100CA001F16
:0100CB001F15
:0100CC001F14
:0100CD001F13
:0100CE001F12
:0100CF001F11
:0100D0001F10
:0100D1001F0F
:0100D2001F0E
:0100D3001F0D
:0100D4001F0C
:0100D5001F0B
:0100D6001F0A
:0100D7001F09
:0100D8001F08
:0100D9001F07
:0100DA001F06
:0100DB001F05
:0100DC001F04
:0100DD001F03
:0100DE001F02
:0100DF001F01
:0100E0001F00
:0100E1001FFF
:0100E2001FFE
:0100E3001FFD
:0100E4001FFC
:0100E5001FFB
:0100E6001FFA
:0100E7001FF9
:0100E8001FF8
:0100E9001FF7
:0100EA001FF6
:0100EB001FF5
:0100EC001FF4
:0100ED001FF3
:0100EE001FF2
:0100EF001FF1
:0100F0001FF0
:0100F1001FEF
:0100F2001FEE
:0100F3001FED
:0100F4001FEC
:0100F5001FEB
:0100F6001FEA
:0100F7001FE9
:0100F8001FE8
:0100F9001FE7
:0100FA001FE6
:0100FB001FE5
:0100FC001FE4
:0100FD001FE3
:0100FE001FE2
:0100FF001FE1
:010100001FDF
:010101001FDE
:010102001FDD
:010103001FDC
:010104001FDB
:010105001FDA
:010106001FD9
:010107001FD8
:010108001FD7
:010109001FD6
:01010A001FD5
:01010B001FD4
:01010C001FD3
:01010D001ED3
:01010E001ED2
:01010F001ED1
:010110001ED0
:010111001ECF
:010112001ECE
:010113001ECD
:010114001ECC
:010115001ECB
:010116001ECA
:010117001EC9
:010118001EC8
:010119001EC7
:01011A001EC6
:01011B001EC5
:01011C001EC4
:01011D001EC3
:01011E001EC2
:01011F001EC1
:010120001EC0
:010121001EBF
:010122001EBE
:010123001EBD
:010124001EBC
:010125001EBB
:010126001EBA
:010127001EB9
:010128001EB8
:010129001EB7
:01012A001EB6
:01012B001EB5
:01012C001EB4
:01012D001EB3
:01012E001EB2
:01012F001EB1
:010130001EB0
:010131001EAF
:010132001EAE
:010133001EAD
:010134001EAC
:010135001EAB
:010136001EAA
:010137001EA9
:010138001EA8
:010139001EA7
:01013A001EA6
:01013B001EA5
:01013C001EA4
:01013D001EA3
:01013E001EA2
:01013F001EA1
:010140001EA0
:010141001E9F
:010142001E9E
:010143001E9D
:010144001E9C
:010145001E9B
:010146001E9A
:010147001E99
:010148001E98
:010149001E97
:01014A001E96
:01014B001E95
:01014C001E94
:01014D001E93
:01014E001E92
:01014F001E91
:010150001E90
:010151001E8F
:010152001E8E
:010153001E8D
:010154001E8C
:010155001E8B
:010156001E8A
:010157001E89
:010158001E88
:010159001E87
:01015A001E86
:01015B001E85
:01015C001E84
:01015D001E83
:01015E001E82
:01015F001E81
:010160001E80
:010161001E7F
:010162001E7E
:010163001E7D
:010164001E7C
:010165001E7B
:010166001E7A
:010167001E79
:010168001E78
:010169001E77
:01016A001E76
:01016B001E75
:01016C001E74
:01016D001E73
:01016E001E72
:01016F001E71
:010170001E70
:010171001E6F
:010172001E6E
:010173001E6D
:010174001E6C
:010175001E6B
:010176001E6A
:010177001E69
:010178001E68
:010179001E67
:01017A001E66
:01017B001E65
:01017C001E64
:01017D001E63
:01017E001E62
:01017F001E61
:010180001E60
:010181001E5F
:010182001E5E
:010183001E5D
:010184001E5C
:010185001E5B
:010186001E5A
:010187001E59
:010188001E58
:010189001E57
:01018A001E56
:01018B001E55
:01018C001E54
:01018D001E53
:01018E001E52
:01018F001E51
:010190001E50
:010191001E4F
:010192001E4E
:010193001E4D
:010194001E4C
:010195001E4B
:010196001E4A
:010197001E49
:010198001E48
:010199001E47
:01019A001E46
:01019B001E45
:01019C001E44
:01019D001E43
:01019E001E42
:01019F001E41
:0101A0001E40
:0101A1001E3F
:0101A2001E3E
:0101A3001E3D
:0101A4001E3C
:0101A5001E3B
:0101A6001E3A
:0101A7001E39
:0101A8001E38
:0101A9001E37
:0101AA001E36
:0101AB001E35
:0101AC001E34
:0101AD001E33
:0101AE001E32
:0101AF001E31
:0101B0001E30
:0101B1001E2F
:0101B2001E2E
:0101B3001E2D
:0101B4001E2C
:0101B5001E2B
:0101B6001E2A
:0101B7001E29
:0101B8001E28
:0101B9001E27
:0101BA001E26
:0101BB001E25
:0101BC001E24
:0101BD001E23
:0101BE001E22
:0101BF001E21
:0101C0001E20
:0101C1001E1F
:0101C2001E1E
:0101C3001E1D
:0101C4001E1C
:0101C5001E1B
:0101C6001E1A
:0101C7001E19
:0101C8001E18
:0101C9001E17
:0101CA001E16
:0101CB001E15
:0101CC001E14
:0101CD001E13
:0101CE001E12
:0101CF001E11
:0101D0001E10
:0101D1001E0F
:0101D2001E0E
:0101D3001E0D
:0101D4001E0C
:0101D5001E0B
:0101D6001E0A
:0101D7001E09
:0101D8001E08
:0101D9001E07
:0101DA001E06
:0101DB001E05
:0101DC001E04
:0101DD001E03
:0101DE001E02
:0101DF001E01
:0101E0001E00
:0101E1001EFF
:0101E2001EFE
:0101E3001EFD
:0101E4001EFC
:0101E5001EFB
:0101E6001EFA
:0101E7001EF9
:0101E8001EF8
:0101E9001EF7
:0101EA001EF6
:0101EB001EF5
:0101EC001EF4
:0101ED001EF3
:0101EE001EF2
:0101EF001EF1
:0101F0001EF0
:0101F1001EEF
:0101F2001EEE
:0101F3001EED
:0101F4001EEC
:0101F5001EEB
:0101F6001EEA
:0101F7001EE9
:0101F8001EE8
:0101F9001EE7
:0101FA001EE6
:0101FB001EE5
:0101FC001EE4
:0101FD001EE3
:0101FE001EE2
:0101FF001EE1
:010200001EDF
:010201001EDE
:010202001EDD
:010203001EDC
:010204001EDB
:010205001EDA
:010206001ED9
:010207001ED8
:010208001ED7
:010209001ED6
:01020A001ED5
:01020B001ED4
:01020C001ED3
:01020D001ED2
:01020E001ED1
:01020F001ED0
:010210001ECF
:010211001ECE
:010212001ECD
:010213001ECC
:010214001ECB
:010215001ECA
:010216001EC9
:010217001EC8
:010218001EC7
:010219001EC6
:01021A001EC5
:01021B001EC4
:01021C001EC3
:01021D001EC2
:01021E001EC1
:01021F001EC0
:010220001EBF
:010221001EBE
:010222001EBD
:010223001EBC
:010224001EBB
:010225001EBA
:010226001EB9
:010227001EB8
:010228001EB7
:010229001EB6
:01022A001EB5
:01022B001EB4
:01022C001EB3
:01022D001EB2
:01022E001EB1
:01022F001EB0
:010230001EAF
:010231001EAE
:010232001EAD
:010233001EAC
:010234001DAC
:010235001DAB
:010236001DAA
:010237001DA9
:010238001DA8
:010239001DA7
:01023A001DA6
:01023B001DA5
:01023C001DA4
:01023D001DA3
:01023E001DA2
:01023F001DA1
:010240001DA0
:010241001D9F
:010242001D9E
:010243001D9D
:010244001D9C
:010245001D9B
:010246001D9A
:010247001D99
:010248001D98
:010249001D97
:01024A001D96
:01024B001D95
:01024C001D94
:01024D001D93
:01024E001D92
:01024F001D91
:010250001D90
:010251001D8F
:010252001D8E
:010253001D8D
:010254001D8C
:010255001D8B
:010256001D8A
:010257001D89
:010258001D88
:010259001D87
:01025A001D86
:01025B001D85
:01025C001D84
:01025D001D83
:01025E001D82
:01025F001D81
:010260001D80
:010261001D7F
:010262001D7E
:010263001D7D
:010264001D7C
:010265001D7B
:010266001D7A
:010267001D79
:010268001D78
:010269001D77
:01026A001D76
:01026B001D75
:01026C001D74
:01026D001D73
:01026E001D72
:01026F001D71
:010270001D70
:010271001D6F
:010272001D6E
:010273001D6D
:010274001D6C
:010275001D6B
:010276001D6A
:010277001D69
:010278001D68
:010279001D67
:01027A001D66
:01027B001D65
:01027C001D64
:01027D001D63
:01027E001D62
:01027F001D61
:010280001D60
:010281001D5F
:010282001D5E
:010283001D5D
:010284001D5C
:010285001D5B
:010286001D5A
:010287001D59
:010288001D58
:010289001D57
:01028A001D56
:01028B001D55
:01028C001D54
:01028D001D53
:01028E001D52
:01028F001D51
:010290001D50
:010291001D4F
:010292001D4E
:010293001D4D
:010294001D4C
:010295001D4B
:010296001D4A
:010297001D49
:010298001D48
:010299001D47
:01029A001D46
:01029B001D45
:01029C001D44
:01029D001D43
:01029E001D42
:01029F001D41
:0102A0001D40
:0102A1001D3F
:0102A2001D3E
:0102A3001D3D
:0102A4001D3C
:0102A5001D3B
:0102A6001D3A
:0102A7001D39
:0102A8001D38
:0102A9001D37
:0102AA001D36
:0102AB001D35
:0102AC001D34
:0102AD001D33
:0102AE001D32
:0102AF001D31
:0102B0001D30
:0102B1001D2F
:0102B2001D2E
:0102B3001D2D
:0102B4001D2C
:0102B5001D2B
:0102B6001D2A
:0102B7001D29
:0102B8001D28
:0102B9001D27
:0102BA001D26
:0102BB001D25
:0102BC001D24
:0102BD001D23
:0102BE001D22
:0102BF001D21
:0102C0001D20
:0102C1001D1F
:0102C2001D1E
:0102C3001D1D
:0102C4001D1C
:0102C5001D1B
:0102C6001D1A
:0102C7001D19
:0102C8001D18
:0102C9001D17
:0102CA001D16
:0102CB001D15
:0102CC001D14
:0102CD001D13
:0102CE001D12
:0102CF001D11
:0102D0001D10
:0102D1001D0F
:0102D2001D0E
:0102D3001D0D
:0102D4001D0C
:0102D5001D0B
:0102D6001D0A
:0102D7001D09
:0102D8001D08
:0102D9001D07
:0102DA001D06
:0102DB001D05
:0102DC001D04
:0102DD001D03
:0102DE001D02
:0102DF001D01
:0102E0001D00
:0102E1001DFF
:0102E2001DFE
:0102E3001DFD
:0102E4001DFC
:0102E5001DFB
:0102E6001DFA
:0102E7001DF9
:0102E8001DF8
:0102E9001DF7
:0102EA001DF6
:0102EB001DF5
:0102EC001DF4
:0102ED001DF3
:0102EE001DF2
:0102EF001DF1
:0102F0001DF0
:0102F1001DEF
:0102F2001DEE
:0102F3001DED
:0102F4001DEC
:0102F5001DEB
:0102F6001DEA
:0102F7001DE9
:0102F8001DE8
:0102F9001DE7
:0102FA001DE6
:0102FB001DE5
:0102FC001DE4
:0102FD001DE3
:0102FE001DE2
:0102FF001DE1
:010300001DDF
:010301001DDE
:010302001DDD
:010303001DDC
:010304001DDB
:010305001DDA
:010306001DD9
:010307001DD8
:010308001DD7
:010309001DD6
:01030A001DD5
:01030B001DD4
:01030C001DD3
:01030D001DD2
:01030E001DD1
:01030F001DD0
:010310001DCF
:010311001DCE
:010312001DCD
:010313001DCC
:010314001DCB
:010315001DCA
:010316001DC9
:010317001DC8
:010318001DC7
:010319001DC6
:01031A001DC5
:01031B001DC4
:01031C001DC3
:01031D001DC2
:01031E001DC1
:01031F001DC0
:010320001DBF
:010321001DBE
:010322001DBD
:010323001DBC
:010324001DBB
:010325001DBA
:010326001DB9
:010327001DB8
:010328001DB7
:010329001DB6
:01032A001DB5
:01032B001DB4
:01032C001DB3
:01032D001DB2
:01032E001DB1
:01032F001DB0
:010330001DAF
:010331001DAE
:010332001DAD
:010333001DAC
:010334001DAB
:010335001DAA
:010336001DA9
:010337001DA8
:010338001DA7
:010339001DA6
:01033A001DA5
:01033B001DA4
:01033C001DA3
:01033D001DA2
:01033E001DA1
:01033F001DA0
:010340001D9F
:010341001D9E
:010342001D9D
:010343001D9C
:010344001D9B
:010345001D9A
:010346001D99
:010347001D98
:010348001D97
:010349001D96
:01034A001D95
:01034B001D94
:01034C001D93
:01034D001D92
:01034E001D91
:01034F001D90
:010350001D8F
:010351001D8E
:010352001D8D
:010353001D8C
:010354001D8B
:010355001D8A
:010356001D89
:010357001D88
:010358001D87
:010359001D86
:01035A001D85
:01035B001D84
:01035C001D83
:01035D001D82
:01035E001D81
:01035F001D80
:010360001D7F
:010361001D7E
:010362001D7D
:010363001D7C
:010364001D7B
:010365001D7A
:010366001D79
:010367001D78
:010368001D77
:010369001D76
:01036A001D75
:01036B001D74
:01036C001D73
:01036D001D72
:01036E001D71
:01036F001D70
:010370001D6F
:010371001D6E
:010372001D6D
:010373001D6C
:010374001D6B
:010375001D6A
:010376001D69
:010377001D68
:010378001D67
:010379001D66
:01037A001D65
:01037B001C65
:01037C001C64
:01037D001C63
:01037E001C62
:01037F001C61
:010380001C60
:010381001C5F
:010382001C5E
:010383001C5D
:010384001C5C
:010385001C5B
:010386001C5A
:010387001C59
:010388001C58
:010389001C57
:01038A001C56
:01038B001C55
:01038C001C54
:01038D001C53
:01038E001C52
:01038F001C51
:010390001C50
:010391001C4F
:010392001C4E
:010393001C4D
:010394001C4C
:010395001C4B
:010396001C4A
:010397001C49
:010398001C48
:010399001C47
:01039A001C46
:01039B001C45
:01039C001C44
:01039D001C43
:01039E001C42
:01039F001C41
:0103A0001C40
:0103A1001C3F
:0103A2001C3E
:0103A3001C3D
:0103A4001C3C
:0103A5001C3B
:0103A6001C3A
:0103A7001C39
:0103A8001C38
:0103A9001C37
:0103AA001C36
:0103AB001C35
:0103AC001C34
:0103AD001C33
:0103AE001C32
:0103AF001C31
:0103B0001C30
:0103B1001C2F
:0103B2001C2E
:0103B3001C2D
:0103B4001C2C
:0103B5001C2B
:0103B6001C2A
:0103B7001C29
:0103B8001C28
:0103B9001C27
:0103BA001C26
:0103BB001C25
:0103BC001C24
:0103BD001C23
:0103BE001C22
:0103BF001C21
:0103C0001C20
:0103C1001C1F
:0103C2001C1E
:0103C3001C1D
:0103C4001C1C
:0103C5001C1B
:0103C6001C1A
:0103C7001C19
:0103C8001C18
:0103C9001C17
:0103CA001C16
:0103CB001C15
:0103CC001C14
:0103CD001C13
:0103CE001C12
:0103CF001C11
:0103D0001C10
:0103D1001C0F
:0103D2001C0E
:0103D3001C0D
:0103D4001C0C
:0103D5001C0B
:0103D6001C0A
:0103D7001C09
:0103D8001C08
:0103D9001C07
:0103DA001C06
:0103DB001C05
:0103DC001C04
:0103DD001C03
:0103DE001C02
:0103DF001C01
:0103E0001C00
:0103E1001CFF
:0103E2001CFE
:0103E3001CFD
:0103E4001CFC
:0103E5001CFB
:0103E6001CFA
:0103E7001CF9
:0103E8001CF8
:0103E9001CF7
:0103EA001CF6
:0103EB001CF5
:0103EC001CF4
:0103ED001CF3
:0103EE001CF2
:0103EF001CF1
:0103F0001CF0
:0103F1001CEF
:0103F2001CEE
:0103F3001CED
:0103F4001CEC
:0103F5001CEB
:0103F6001CEA
:0103F7001CE9
:0103F8001CE8
:0103F9001CE7
:0103FA001CE6
:0103FB001CE5
:0103FC001CE4
:0103FD001CE3
:0103FE001CE2
:0103FF001CE1
:010400001CDF
:010401001CDE
:010402001CDD
:010403001CDC
:010404001CDB
:010405001CDA
:010406001CD9
:010407001CD8
:010408001CD7
:010409001CD6
:01040A001CD5
:01040B001CD4
:01040C001CD3
:01040D001CD2
:01040E001CD1
:01040F001CD0
:010410001CCF
:010411001CCE
:010412001CCD
:010413001CCC
:010414001CCB
:010415001CCA
:010416001CC9
:010417001CC8
:010418001CC7
:010419001CC6
:01041A001CC5
:01041B001CC4
:01041C001CC3
:01041D001CC2
:01041E001CC1
:01041F001CC0
:010420001CBF
:010421001CBE
:010422001CBD
:010423001CBC
:010424001CBB
:010425001CBA
:010426001CB9
:010427001CB8
:010428001CB7
:010429001CB6
:01042A001CB5
:01042B001CB4
:01042C001CB3
:01042D001CB2
:01042E001CB1
:01042F001CB0
:010430001CAF
:010431001CAE
:010432001CAD
:010433001CAC
:010434001CAB
:010435001CAA
:010436001CA9
:010437001CA8
:010438001CA7
:010439001CA6
:01043A001CA5
:01043B001CA4
:01043C001CA3
:01043D001CA2
:01043E001CA1
:01043F001CA0
:010440001C9F
:010441001C9E
:010442001C9D
:010443001C9C
:010444001C9B
:010445001C9A
:010446001C99
:010447001C98
:010448001C97
:010449001C96
:01044A001C95
:01044B001C94
:01044C001C93
:01044D001C92
:01044E001C91
:01044F001C90
:010450001C8F
:010451001C8E
:010452001C8D
:010453001C8C
:010454001C8B
:010455001C8A
:010456001C89
:010457001C88
:010458001C87
:010459001C86
:01045A001C85
:01045B001C84
:01045C001C83
:01045D001C82
:01045E001C81
:01045F001C80
:010460001C7F
:010461001C7E
:010462001C7D
:010463001C7C
:010464001C7B
:010465001C7A
:010466001C79
:010467001C78
:010468001C77
:010469001C76
:01046A001C75
:01046B001C74
:01046C001C73
:01046D001C72
:01046E001C71
:01046F001C70
:010470001C6F
:010471001C6E
:010472001C6D
:010473001C6C
:010474001C6B
:010475001C6A
:010476001C69
:010477001C68
:010478001C67
:010479001C66
:01047A001C65
:01047B001C64
:01047C001C63
:01047D001C62
:01047E001C61
:01047F001C60
:010480001C5F
:010481001C5E
:010482001C5D
:010483001C5C
:010484001C5B
:010485001C5A
:010486001C59
:010487001C58
:010488001C57
:010489001C56
:01048A001C55
:01048B001C54
:01048C001C53
:01048D001C52
:01048E001C51
:01048F001C50
:010490001C4F
:010491001C4E
:010492001C4D
:010493001C4C
:010494001C4B
:010495001C4A
:010496001C49
:010497001C48
:010498001C47
:010499001C46
:01049A001C45
:01049B001C44
:01049C001C43
:01049D001C42
:01049E001C41
:01049F001C40
:0104A0001C3F
:0104A1001C3E
:0104A2001C3D
:0104A3001C3C
:0104A4001C3B
:0104A5001C3A
:0104A6001C39
:0104A7001C38
:0104A8001C37
:0104A9001C36
:0104AA001C35
:0104AB001C34
:0104AC001C33
:0104AD001C32
:0104AE001C31
:0104AF001C30
:0104B0001C2F
:0104B1001C2E
:0104B2001C2D
:0104B3001C2C
:0104B4001C2B
:0104B5001C2A
:0104B6001C29
:0104B7001C28
:0104B8001C27
:0104B9001C26
:0104BA001C25
:0104BB001C24
:0104BC001C23
:0104BD001C22
:0104BE001C21
:0104BF001C20
:0104C0001C1F
:0104C1001C1E
:0104C2001C1D
:0104C3001C1C
:0104C4001C1B
:0104C5001C1A
:0104C6001C19
:0104C7001C18
:0104C8001C17
:0104C9001C16
:0104CA001C15
:0104CB001C14
:0104CC001C13
:0104CD001C12
:0104CE001C11
:0104CF001C10
:0104D0001C0F
:0104D1001C0E
:0104D2001C0D
:0104D3001C0C
:0104D4001C0B
:0104D5001C0A
:0104D6001C09
:0104D7001C08
:0104D8001C07
:0104D9001C06
:0104DA001C05
:0104DB001C04
:0104DC001C03
:0104DD001C02
:0104DE001C01
:0104DF001C00
:0104E0001CFF
:0104E1001CFE
:0104E2001CFD
:0104E3001CFC
:0104E4001CFB
:0104E5001CFA
:0104E6001BFA
:0104E7001BF9
:0104E8001BF8
:0104E9001BF7
:0104EA001BF6
:0104EB001BF5
:0104EC001BF4
:0104ED001BF3
:0104EE001BF2
:0104EF001BF1
:0104F0001BF0
:0104F1001BEF
:0104F2001BEE
:0104F3001BED
:0104F4001BEC
:0104F5001BEB
:0104F6001BEA
:0104F7001BE9
:0104F8001BE8
:0104F9001BE7
:0104FA001BE6
:0104FB001BE5
:0104FC001BE4
:0104FD001BE3
:0104FE001BE2
:0104FF001BE1
:010500001BDF
:010501001BDE
:010502001BDD
:010503001BDC
:010504001BDB
:010505001BDA
:010506001BD9
:010507001BD8
:010508001BD7
:010509001BD6
:01050A001BD5
:01050B001BD4
:01050C001BD3
:01050D001BD2
:01050E001BD1
:01050F001BD0
:010510001BCF
:010511001BCE
:010512001BCD
:010513001BCC
:010514001BCB
:010515001BCA
:010516001BC9
:010517001BC8
:010518001BC7
:010519001BC6
:01051A001BC5
:01051B001BC4
:01051C001BC3
:01051D001BC2
:01051E001BC1
:01051F001BC0
:010520001BBF
:010521001BBE
:010522001BBD
:010523001BBC
:010524001BBB
:010525001BBA
:010526001BB9
:010527001BB8
:010528001BB7
:010529001BB6
:01052A001BB5
:01052B001BB4
:01052C001BB3
:01052D001BB2
:01052E001BB1
:01052F001BB0
:010530001BAF
:010531001BAE
:010532001BAD
:010533001BAC
:010534001BAB
:010535001BAA
:010536001BA9
:010537001BA8
:010538001BA7
:010539001BA6
:01053A001BA5
:01053B001BA4
:01053C001BA3
:01053D001BA2
:01053E001BA1
:01053F001BA0
:010540001B9F
:010541001B9E
:010542001B9D
:010543001B9C
:010544001B9B
:010545001B9A
:010546001B99
:010547001B98
:010548001B97
:010549001B96
:01054A001B95
:01054B001B94
:01054C001B93
:01054D001B92
:01054E001B91
:01054F001B90
:010550001B8F
:010551001B8E
:010552001B8D
:010553001B8C
:010554001B8B
:010555001B8A
:010556001B89
:010557001B88
:010558001B87
:010559001B86
:01055A001B85
:01055B001B84
:01055C001B83
:01055D001B82
:01055E001B81
:01055F001B80
:010560001B7F
:010561001B7E
:010562001B7D
:010563001B7C
:010564001B7B
:010565001B7A
:010566001B79
:010567001B78
:010568001B77
:010569001B76
:01056A001B75
:01056B001B74
:01056C001B73
:01056D001B72
:01056E001B71
:01056F001B70
:010570001B6F
:010571001B6E
:010572001B6D
:010573001B6C
:010574001B6B
:010575001B6A
:010576001B69
:010577001B68
:010578001B67
:010579001B66
:01057A001B65
:01057B001B64
:01057C001B63
:01057D001B62
:01057E001B61
:01057F001B60
:010580001B5F
:010581001B5E
:010582001B5D
:010583001B5C
:010584001B5B
:010585001B5A
:010586001B59
:010587001B58
:010588001B57
:010589001B56
:01058A001B55
:01058B001B54
:01058C001B53
:01058D001B52
:01058E001B51
:01058F001B50
:010590001B4F
:010591001B4E
:010592001B4D
:010593001B4C
:010594001B4B
:010595001B4A
:010596001B49
:010597001B48
:010598001B47
:010599001B46
:01059A001B45
:01059B001B44
:01059C001B43
:01059D001B42
:01059E001B41
:01059F001B40
:0105A0001B3F
:0105A1001B3E
:0105A2001B3D
:0105A3001B3C
:0105A4001B3B
:0105A5001B3A
:0105A6001B39
:0105A7001B38
:0105A8001B37
:0105A9001B36
:0105AA001B35
:0105AB001B34
:0105AC001B33
:0105AD001B32
:0105AE001B31
:0105AF001B30
:0105B0001B2F
:0105B1001B2E
:0105B2001B2D
:0105B3001B2C
:0105B4001B2B
:0105B5001B2A
:0105B6001B29
:0105B7001B28
:0105B8001B27
:0105B9001B26
:0105BA001B25
:0105BB001B24
:0105BC001B23
:0105BD001B22
:0105BE001B21
:0105BF001B20
:0105C0001B1F
:0105C1001B1E
:0105C2001B1D
:0105C3001B1C
:0105C4001B1B
:0105C5001B1A
:0105C6001B19
:0105C7001B18
:0105C8001B17
:0105C9001B16
:0105CA001B15
:0105CB001B14
:0105CC001B13
:0105CD001B12
:0105CE001B11
:0105CF001B10
:0105D0001B0F
:0105D1001B0E
:0105D2001B0D
:0105D3001B0C
:0105D4001B0B
:0105D5001B0A
:0105D6001B09
:0105D7001B08
:0105D8001B07
:0105D9001B06
:0105DA001B05
:0105DB001B04
:0105DC001B03
:0105DD001B02
:0105DE001B01
:0105DF001B00
:0105E0001BFF
:0105E1001BFE
:0105E2001BFD
:0105E3001BFC
:0105E4001BFB
:0105E5001BFA
:0105E6001BF9
:0105E7001BF8
:0105E8001BF7
:0105E9001BF6
:0105EA001BF5
:0105EB001BF4
:0105EC001BF3
:0105ED001BF2
:0105EE001BF1
:0105EF001BF0
:0105F0001BEF
:0105F1001BEE
:0105F2001BED
:0105F3001BEC
:0105F4001BEB
:0105F5001BEA
:0105F6001BE9
:0105F7001BE8
:0105F8001BE7
:0105F9001BE6
:0105FA001BE5
:0105FB001BE4
:0105FC001BE3
:0105FD001BE2
:0105FE001BE1
:0105FF001BE0
:010600001BDE
:010601001BDD
:010602001BDC
:010603001BDB
:010604001BDA
:010605001BD9
:010606001BD8
:010607001BD7
:010608001BD6
:010609001BD5
:01060A001BD4
:01060B001BD3
:01060C001BD2
:01060D001BD1
:01060E001BD0
:01060F001BCF
:010610001BCE
:010611001BCD
:010612001BCC
:010613001BCB
:010614001BCA
:010615001BC9
:010616001BC8
:010617001BC7
:010618001BC6
:010619001BC5
:01061A001BC4
:01061B001BC3
:01061C001BC2
:01061D001BC1
:01061E001BC0
:01061F001BBF
:010620001BBE
:010621001BBD
:010622001BBC
:010623001BBB
:010624001BBA
:010625001BB9
:010626001BB8
:010627001BB7
:010628001BB6
:010629001BB5
:01062A001BB4
:01062B001BB3
:01062C001BB2
:01062D001BB1
:01062E001BB0
:01062F001BAF
:010630001BAE
:010631001BAD
:010632001BAC
:010633001BAB
:010634001BAA
:010635001BA9
:010636001BA8
:010637001BA7
:010638001BA6
:010639001BA5
:01063A001BA4
:01063B001BA3
:01063C001BA2
:01063D001BA1
:01063E001BA0
:01063F001B9F
:010640001B9E
:010641001B9D
:010642001B9C
:010643001B9B
:010644001B9A
:010645001B99
:010646001B98
:010647001B97
:010648001B96
:010649001B95
:01064A001B94
:01064B001B93
:01064C001B92
:01064D001B91
:01064E001B90
:01064F001B8F
:010650001B8E
:010651001B8D
:010652001B8C
:010653001B8B
:010654001B8A
:010655001B89
:010656001B88
:010657001B87
:010658001B86
:010659001B85
:01065A001B84
:01065B001B83
:01065C001B82
:01065D001B81
:01065E001B80
:01065F001B7F
:010660001B7E
:010661001B7D
:010662001B7C
:010663001B7B
:010664001B7A
:010665001B79
:010666001B78
:010667001B77
:010668001B76
:010669001B75
:01066A001B74
:01066B001B73
:01066C001B72
:01066D001B71
:01066E001B70
:01066F001B6F
:010670001B6E
:010671001B6D
:010672001B6C
:010673001B6B
:010674001B6A
:010675001B69
:010676001B68
:010677001B67
:010678001B66
:010679001B65
:01067A001A65
:01067B001A64
:01067C001A63
:01067D001A62
:01067E001A61
:01067F001A60
:010680001A5F
:010681001A5E
:010682001A5D
:010683001A5C
:010684001A5B
:010685001A5A
:010686001A59
:010687001A58
:010688001A57
:010689001A56
:01068A001A55
:01068B001A54
:01068C001A53
:01068D001A52
:01068E001A51
:01068F001A50
:010690001A4F
:010691001A4E
:010692001A4D
:010693001A4C
:010694001A4B
:010695001A4A
:010696001A49
:010697001A48
:010698001A47
:010699001A46
:01069A001A45
:01069B001A44
:01069C001A43
:01069D001A42
:01069E001A41
:01069F001A40
:0106A0001A3F
:0106A1001A3E
:0106A2001A3D
:0106A3001A3C
:0106A4001A3B
:0106A5001A3A
:0106A6001A39
:0106A7001A38
:0106A8001A37
:0106A9001A36
:0106AA001A35
:0106AB001A34
:0106AC001A33
:0106AD001A32
:0106AE001A31
:0106AF001A30
:0106B0001A2F
:0106B1001A2E
:0106B2001A2D
:0106B3001A2C
:0106B4001A2B
:0106B5001A2A
:0106B6001A29
:0106B7001A28
:0106B8001A27
:0106B9001A26
:0106BA001A25
:0106BB001A24
:0106BC001A23
:0106BD001A22
:0106BE001A21
:0106BF001A20
:0106C0001A1F
:0106C1001A1E
:0106C2001A1D
:0106C3001A1C
:0106C4001A1B
:0106C5001A1A
:0106C6001A19
:0106C7001A18
:0106C8001A17
:0106C9001A16
:0106CA001A15
:0106CB001A14
:0106CC001A13
:0106CD001A12
:0106CE001A11
:0106CF001A10
:0106D0001A0F
:0106D1001A0E
:0106D2001A0D
:0106D3001A0C
:0106D4001A0B
:0106D5001A0A
:0106D6001A09
:0106D7001A08
:0106D8001A07
:0106D9001A06
:0106DA001A05
:0106DB001A04
:0106DC001A03
:0106DD001A02
:0106DE001A01
:0106DF001A00
:0106E0001AFF
:0106E1001AFE
:0106E2001AFD
:0106E3001AFC
:0106E4001AFB
:0106E5001AFA
:0106E6001AF9
:0106E7001AF8
:0106E8001AF7
:0106E9001AF6
:0106EA001AF5
:0106EB001AF4
:0106EC001AF3
:0106ED001AF2
:0106EE001AF1
:0106EF001AF0
:0106F0001AEF
:0106F1001AEE
:0106F2001AED
:0106F3001AEC
:0106F4001AEB
:0106F5001AEA
:0106F6001AE9
:0106F7001AE8
:0106F8001AE7
:0106F9001AE6
:0106FA001AE5
:0106FB001AE4
:0106FC001AE3
:0106FD001AE2
:0106FE001AE1
:0106FF001AE0
:010700001ADE
:010701001ADD
:010702001ADC
:010703001ADB
:010704001ADA
:010705001AD9
:010706001AD8
:010707001AD7
:010708001AD6
:010709001AD5
:01070A001AD4
:01070B001AD3
:01070C001AD2
:01070D001AD1
:01070E001AD0
:01070F001ACF
:010710001ACE
:010711001ACD
:010712001ACC
:010713001ACB
:010714001ACA
:010715001AC9
:010716001AC8
:010717001AC7
:010718001AC6
:010719001AC5
:01071A001AC4
:01071B001AC3
:01071C001AC2
:01071D001AC1
:01071E001AC0
:01071F001ABF
:010720001ABE
:010721001ABD
:010722001ABC
:010723001ABB
:010724001ABA
:010725001AB9
:010726001AB8
:010727001AB7
:010728001AB6
:010729001AB5
:01072A001AB4
:01072B001AB3
:01072C001AB2
:01072D001AB1
:01072E001AB0
:01072F001AAF
:010730001AAE
:010731001AAD
:010732001AAC
:010733001AAB
:010734001AAA
:010735001AA9
:010736001AA8
:010737001AA7
:010738001AA6
:010739001AA5
:01073A001AA4
:01073B001AA3
:01073C001AA2
:01073D001AA1
:01073E001AA0
:01073F001A9F
:010740001A9E
:010741001A9D
:010742001A9C
:010743001A9B
:010744001A9A
:010745001A99
:010746001A98
:010747001A97
:010748001A96
:010749001A95
:01074A001A94
:01074B001A93
:01074C001A92
:01074D001A91
:01074E001A90
:01074F001A8F
:010750001A8E
:010751001A8D
:010752001A8C
:010753001A8B
:010754001A8A
:010755001A89
:010756001A88
:010757001A87
:010758001A86
:010759001A85
:01075A001A84
:01075B001A83
:01075C001A82
:01075D001A81
:01075E001A80
:01075F001A7F
:010760001A7E
:010761001A7D
:010762001A7C
:010763001A7B
:010764001A7A
:010765001A79
:010766001A78
:010767001A77
:010768001A76
:010769001A75
:01076A001A74
:01076B001A73
:01076C001A72
:01076D001A71
:01076E001A70
:01076F001A6F
:010770001A6E
:010771001A6D
:010772001A6C
:010773001A6B
:010774001A6A
:010775001A69
:010776001A68
:010777001A67
:010778001A66
:010779001A65
:01077A001A64
:01077B001A63
:01077C001A62
:01077D001A61
:01077E001A60
:01077F001A5F
:010780001A5E
:010781001A5D
:010782001A5C
:010783001A5B
:010784001A5A
:010785001A59
:010786001A58
:010787001A57
:010788001A56
:010789001A55
:01078A001A54
:01078B001A53
:01078C001A52
:01078D001A51
:01078E001A50
:01078F001A4F
:010790001A4E
:010791001A4D
:010792001A4C
:010793001A4B
:010794001A4A
:010795001A49
:010796001A48
:010797001A47
:010798001A46
:010799001A45
:01079A001A44
:01079B001A43
:01079C001A42
:01079D001A41
:01079E001A40
:01079F001A3F
:0107A0001A3E
:0107A1001A3D
:0107A2001A3C
:0107A3001A3B
:0107A4001A3A
:0107A5001A39
:0107A6001A38
:0107A7001A37
:0107A8001A36
:0107A9001A35
:0107AA001A34
:0107AB001A33
:0107AC001A32
:0107AD001A31
:0107AE001A30
:0107AF001A2F
:0107B0001A2E
:0107B1001A2D
:0107B2001A2C
:0107B3001A2B
:0107B4001A2A
:0107B5001A29
:0107B6001A28
:0107B7001A27
:0107B8001A26
:0107B9001A25
:0107BA001A24
:0107BB001A23
:0107BC001A22
:0107BD001A21
:0107BE001A20
:0107BF001A1F
:0107C0001A1E
:0107C1001A1D
:0107C2001A1C
:0107C3001A1B
:0107C4001A1A
:0107C5001A19
:0107C6001A18
:0107C7001A17
:0107C8001A16
:0107C9001A15
:0107CA001A14
:0107CB001A13
:0107CC001A12
:0107CD001A11
:0107CE001A10
:0107CF001A0F
:0107D0001A0E
:0107D1001A0D
:0107D2001A0C
:0107D3001A0B
:0107D4001A0A
:0107D5001A09
:0107D6001A08
:0107D7001A07
:0107D8001A06
:0107D9001A05
:0107DA001A04
:0107DB001A03
:0107DC001A02
:0107DD001A01
:0107DE001A00
:0107DF001AFF
:0107E0001AFE
:0107E1001AFD
:0107E2001AFC
:0107E3001AFB
:0107E4001AFA
:0107E5001AF9
:0107E6001AF8
:0107E7001AF7
:0107E8001AF6
:0107E9001AF5
:0107EA001AF4
:0107EB001AF3
:0107EC001AF2
:0107ED001AF1
:0107EE001AF0
:0107EF001AEF
:0107F0001AEE
:0107F1001AED
:0107F2001AEC
:0107F3001AEB
:0107F4001AEA
:0107F5001AE9
:0107F6001AE8
:0107F7001AE7
:0107F8001AE6
:0107F9001AE5
:0107FA001AE4
:0107FB001AE3
:0107FC001AE2
:0107FD001AE1
:0107FE001AE0
:0107FF001ADF
:010800001ADD
:010801001ADC
:010802001ADB
:010803001ADA
:010804001AD9
:010805001AD8
:010806001AD7
:010807001AD6
:010808001AD5
:010809001AD4
:01080A001AD3
:01080B001AD2
:01080C001AD1
:01080D001AD0
:01080E001ACF
:01080F001ACE
:010810001ACD
:010811001ACC
:010812001ACB
:010813001ACA
:010814001AC9
:010815001AC8
:010816001AC7
:010817001AC6
:010818001AC5
:010819001AC4
:01081A001AC3
:01081B001AC2
:01081C001AC1
:01081D001AC0
:01081E001ABF
:01081F001ABE
:010820001ABD
:010821001ABC
:010822001ABB
:010823001ABA
:010824001AB9
:010825001AB8
:010826001AB7
:010827001AB6
:010828001AB5
:010829001AB4
:01082A001AB3
:01082B001AB2
:01082C001AB1
:01082D001AB0
:01082E001AAF
:01082F001AAE
:010830001AAD
:010831001AAC
:010832001AAB
:010833001AAA
:010834001AA9
:010835001AA8
:010836001AA7
:010837001AA6
:010838001AA5
:010839001AA4
:01083A001AA3
:01083B001AA2
:01083C001AA1
:01083D0019A1
:01083E0019A0
:01083F00199F
:01084000199E
:01084100199D
:01084200199C
:01084300199B
:01084400199A
:010845001999
:010846001998
:010847001997
:010848001996
:010849001995
:01084A001994
:01084B001993
:01084C001992
:01084D001991
:01084E001990
:01084F00198F
:01085000198E
:01085100198D
:01085200198C
:01085300198B
:01085400198A
:010855001989
:010856001988
:010857001987
:010858001986
:010859001985
:01085A001984
:01085B001983
:01085C001982
:01085D001981
:01085E001980
:01085F00197F
:01086000197E
:01086100197D
:01086200197C
:01086300197B
:01086400197A
:010865001979
:010866001978
:010867001977
:010868001976
:010869001975
:01086A001974
:01086B001973
:01086C001972
:01086D001971
:01086E001970
:01086F00196F
:01087000196E
:01087100196D
:01087200196C
:01087300196B
:01087400196A
:010875001969
:010876001968
:010877001967
:010878001966
:010879001965
:01087A001964
:01087B001963
:01087C001962
:01087D001961
:01087E001960
:01087F00195F
:01088000195E
:01088100195D
:01088200195C
:01088300195B
:01088400195A
:010885001959
:010886001958
:010887001957
:010888001956
:010889001955
:01088A001954
:01088B001953
:01088C001952
:01088D001951
:01088E001950
:01088F00194F
:01089000194E
:01089100194D
:01089200194C
:01089300194B
:01089400194A
:010895001949
:010896001948
:010897001947
:010898001946
:010899001945
:01089A001944
:01089B001943
:01089C001942
:01089D001941
:01089E001940
:01089F00193F
:0108A000193E
:0108A100193D
:0108A200193C
:0108A300193B
:0108A400193A
:0108A5001939
:0108A6001938
:0108A7001937
:0108A8001936
:0108A9001935
:0108AA001934
:0108AB001933
:0108AC001932
:0108AD001931
:0108AE001930
:0108AF00192F
:0108B000192E
:0108B100192D
:0108B200192C
:0108B300192B
:0108B400192A
:0108B5001929
:0108B6001928
:0108B7001927
:0108B8001926
:0108B9001925
:0108BA001924
:0108BB001923
:0108BC001922
:0108BD001921
:0108BE001920
:0108BF00191F
:0108C000191E
:0108C100191D
:0108C200191C
:0108C300191B
:0108C400191A
:0108C5001919
:0108C6001918
:0108C7001917
:0108C8001916
:0108C9001915
:0108CA001914
:0108CB001913
:0108CC001912
:0108CD001911
:0108CE001910
:0108CF00190F
:0108D000190E
:0108D100190D
:0108D200190C
:0108D300190B
:0108D400190A
:0108D5001909
:0108D6001908
:0108D7001907
:0108D8001906
:0108D9001905
:0108DA001904
:0108DB001903
:0108DC001902
:0108DD001901
:0108DE001900
:0108DF0019FF
:0108E00019FE
:0108E10019FD
:0108E20019FC
:0108E30019FB
:0108E40019FA
:0108E50019F9
:0108E60019F8
:0108E70019F7
:0108E80019F6
:0108E90019F5
:0108EA0019F4
:0108EB0019F3
:0108EC0019F2
:0108ED0019F1
:0108EE0019F0
:0108EF0019EF
:0108F00019EE
:0108F10019ED
:0108F20019EC
:0108F30019EB
:0108F40019EA
:0108F50019E9
:0108F60019E8
:0108F70019E7
:0108F80019E6
:0108F90019E5
:0108FA0019E4
:0108FB0019E3
:0108FC0019E2
:0108FD0019E1
:0108FE0019E0
:0108FF0019DF
:0109000019DD
:0109010019DC
:0109020019DB
:0109030019DA
:0109040019D9
:0109050019D8
:0109060019D7
:0109070019D6
:0109080019D5
:0109090019D4
:01090A0019D3
:01090B0019D2
:01090C0019D1
:01090D0019D0
:01090E0019CF
:01090F0019CE
:0109100019CD
:0109110019CC
:0109120019CB
:0109130019CA
:0109140019C9
:0109150019C8
:0109160019C7
:0109170019C6
:0109180019C5
:0109190019C4
:01091A0019C3
:01091B0019C2
:01091C0019C1
:01091D0019C0
:01091E0019BF
:01091F0019BE
:0109200019BD
:0109210019BC
:0109220019BB
:0109230019BA
:0109240019B9
:0109250019B8
:0109260019B7
:0109270019B6
:0109280019B5
:0109290019B4
:01092A0019B3
:01092B0019B2
:01092C0019B1
:01092D0019B0
:01092E0019AF
:01092F0019AE
:0109300019AD
:0109310019AC
:0109320019AB
:0109330019AA
:0109340019A9
:0109350019A8
:0109360019A7
:0109370019A6
:0109380019A5
:0109390019A4
:01093A0019A3
:01093B0019A2
:01093C0019A1
:01093D0019A0
:01093E00199F
:01093F00199E
:01094000199D
:01094100199C
:01094200199B
:01094300199A
:010944001999
:010945001998
:010946001997
:010947001996
:010948001995
:010949001994
:01094A001993
:01094B001992
:01094C001991
:01094D001990
:01094E00198F
:01094F00198E
:01095000198D
:01095100198C
:01095200198B
:01095300198A
:010954001989
:010955001988
:010956001987
:010957001986
:010958001985
:010959001984
:01095A001983
:01095B001982
:01095C001981
:01095D001980
:01095E00197F
:01095F00197E
:01096000197D
:01096100197C
:01096200197B
:01096300197A
:010964001979
:010965001978
:010966001977
:010967001976
:010968001975
:010969001974
:01096A001973
:01096B001972
:01096C001971
:01096D001970
:01096E00196F
:01096F00196E
:01097000196D
:01097100196C
:01097200196B
:01097300196A
:010974001969
:010975001968
:010976001967
:010977001966
:010978001965
:010979001964
:01097A001963
:01097B001962
:01097C001961
:01097D001960
:01097E00195F
:01097F00195E
:01098000195D
:01098100195C
:01098200195B
:01098300195A
:010984001959
:010985001958
:010986001957
:010987001956
:010988001955
:010989001954
:01098A001953
:01098B001952
:01098C001951
:01098D001950
:01098E00194F
:01098F00194E
:01099000194D
:01099100194C
:01099200194B
:01099300194A
:010994001949
:010995001948
:010996001947
:010997001946
:010998001945
:010999001944
:01099A001943
:01099B001942
:01099C001941
:01099D001940
:01099E00193F
:01099F00193E
:0109A000193D
:0109A100193C
:0109A200193B
:0109A300193A
:0109A4001939
:0109A5001938
:0109A6001937
:0109A7001936
:0109A8001935
:0109A9001934
:0109AA001933
:0109AB001932
:0109AC001931
:0109AD001930
:0109AE00192F
:0109AF00192E
:0109B000192D
:0109B100192C
:0109B200192B
:0109B300192A
:0109B4001929
:0109B5001928
:0109B6001927
:0109B7001926
:0109B8001925
:0109B9001924
:0109BA001923
:0109BB001922
:0109BC001921
:0109BD001920
:0109BE00191F
:0109BF00191E
:0109C000191D
:0109C100191C
:0109C200191B
:0109C300191A
:0109C4001919
:0109C5001918
:0109C6001917
:0109C7001916
:0109C8001915
:0109C9001914
:0109CA001913
:0109CB001912
:0109CC001911
:0109CD001910
:0109CE00190F
:0109CF00190E
:0109D000190D
:0109D100190C
:0109D200190B
:0109D300190A
:0109D4001909
:0109D5001908
:0109D6001907
:0109D7001906
:0109D8001905
:0109D9001904
:0109DA001903
:0109DB001902
:0109DC001901
:0109DD001900
:0109DE0019FF
:0109DF0019FE
:0109E00019FD
:0109E10019FC
:0109E20019FB
:0109E30019FA
:0109E40019F9
:0109E50019F8
:0109E60019F7
:0109E70019F6
:0109E80019F5
:0109E90019F4
:0109EA0019F3
:0109EB0019F2
:0109EC0019F1
:0109ED0019F0
:0109EE0019EF
:0109EF0019EE
:0109F00019ED
:0109F10019EC
:0109F20019EB
:0109F30019EA
:0109F40019E9
:0109F50019E8
:0109F60019E7
:0109F70019E6
:0109F80019E5
:0109F90019E4
:0109FA0019E3
:0109FB0019E2
:0109FC0019E1
:0109FD0019E0
:0109FE0019DF
:0109FF0019DE
:010A000019DC
:010A010019DB
:010A020019DA
:010A030019D9
:010A040019D8
:010A050019D7
:010A060019D6
:010A070019D5
:010A080019D4
:010A090019D3
:010A0A0019D2
:010A0B0019D1
:010A0C0019D0
:010A0D0019CF
:010A0E0019CE
:010A0F0019CD
:010A100019CC
:010A110019CB
:010A120019CA
:010A130019C9
:010A140019C8
:010A150019C7
:010A160019C6
:010A170019C5
:010A180019C4
:010A190019C3
:010A1A0019C2
:010A1B0019C1
:010A1C0019C0
:010A1D0019BF
:010A1E0019BE
:010A1F0019BD
:010A200019BC
:010A210019BB
:010A220019BA
:010A230019B9
:010A240019B8
:010A250019B7
:010A260019B6
:010A270019B5
:010A280019B4
:010A290019B3
:010A2A0019B2
:010A2B0019B1
:010A2C0019B0
:010A2D0019AF
:010A2E0019AE
:010A2F0019AD
:010A300019AC
:010A310019AB
:010A320019AA
:010A330019A9
:010A340019A8
:010A350019A7
:010A360019A6
:010A370018A6
:010A380018A5
:010A390018A4
:010A3A0018A3
:010A3B0018A2
:010A3C0018A1
:010A3D0018A0
:010A3E00189F
:010A3F00189E
:010A4000189D
:010A4100189C
:010A4200189B
:010A4300189A
:010A44001899
:010A45001898
:010A46001897
:010A47001896
:010A48001895
:010A49001894
:010A4A001893
:010A4B001892
:010A4C001891
:010A4D001890
:010A4E00188F
:010A4F00188E
:010A5000188D
:010A5100188C
:010A5200188B
:010A5300188A
:010A54001889
:010A55001888
:010A56001887
:010A57001886
:010A58001885
:010A59001884
:010A5A001883
:010A5B001882
:010A5C001881
:010A5D001880
:010A5E00187F
:010A5F00187E
:010A6000187D
:010A6100187C
:010A6200187B
:010A6300187A
:010A64001879
:010A65001878
:010A66001877
:010A67001876
:010A68001875
:010A69001874
:010A6A001873
:010A6B001872
:010A6C001871
:010A6D001870
:010A6E00186F
:010A6F00186E
:010A7000186D
:010A7100186C
:010A7200186B
:010A7300186A
:010A74001869
:010A75001868
:010A76001867
:010A77001866
:010A78001865
:010A79001864
:010A7A001863
:010A7B001862
:010A7C001861
:010A7D001860
:010A7E00185F
:010A7F00185E
:010A8000185D
:010A8100185C
:010A8200185B
:010A8300185A
:010A84001859
:010A85001858
:010A86001857
:010A87001856
:010A88001855
:010A89001854
:010A8A001853
:010A8B001852
:010A8C001851
:010A8D001850
:010A8E00184F
:010A8F00184E
:010A9000184D
:010A9100184C
:010A9200184B
:010A9300184A
:010A94001849
:010A95001848
:010A96001847
:010A97001846
:010A98001845
:010A99001844
:010A9A001843
:010A9B001842
:010A9C001841
:010A9D001840
:010A9E00183F
:010A9F00183E
:010AA000183D
:010AA100183C
:010AA200183B
:010AA300183A
:010AA4001839
:010AA5001838
:010AA6001837
:010AA7001836
:010AA8001835
:010AA9001834
:010AAA001833
:010AAB001832
:010AAC001831
:010AAD001830
:010AAE00182F
:010AAF00182E
:010AB000182D
:010AB100182C
:010AB200182B
:010AB300182A
:010AB4001829
:010AB5001828
:010AB6001827
:010AB7001826
:010AB8001825
:010AB9001824
:010ABA001823
:010ABB001822
:010ABC001821
:010ABD001820
:010ABE00181F
:010ABF00181E
:010AC000181D
:010AC100181C
:010AC200181B
:010AC300181A
:010AC4001819
:010AC5001818
:010AC6001817
:010AC7001816
:010AC8001815
:010AC9001814
:010ACA001813
:010ACB001812
:010ACC001811
:010ACD001810
:010ACE00180F
:010ACF00180E
:010AD000180D
:010AD100180C
:010AD200180B
:010AD300180A
:010AD4001809
:010AD5001808
:010AD6001807
:010AD7001806
:010AD8001805
:010AD9001804
:010ADA001803
:010ADB001802
:010ADC001801
:010ADD001800
:010ADE0018FF
:010ADF0018FE
:010AE00018FD
:010AE10018FC
:010AE20018FB
:010AE30018FA
:010AE40018F9
:010AE50018F8
:010AE60018F7
:010AE70018F6
:010AE80018F5
:010AE90018F4
:010AEA0018F3
:010AEB0018F2
:010AEC0018F1
:010AED0018F0
:010AEE0018EF
:010AEF0018EE
:010AF00018ED
:010AF10018EC
:010AF20018EB
:010AF30018EA
:010AF40018E9
:010AF50018E8
:010AF60018E7
:010AF70018E6
:010AF80018E5
:010AF90018E4
:010AFA0018E3
:010AFB0018E2
:010AFC0018E1
:010AFD0018E0
:010AFE0018DF
:010AFF0018DE
:010B000018DC
:010B010018DB
:010B020018DA
:010B030018D9
:010B040018D8
:010B050018D7
:010B060018D6
:010B070018D5
:010B080018D4
:010B090018D3
:010B0A0018D2
:010B0B0018D1
:010B0C0018D0
:010B0D0018CF
:010B0E0018CE
:010B0F0018CD
:010B100018CC
:010B110018CB
:010B120018CA
:010B130018C9
:010B140018C8
:010B150018C7
:010B160018C6
:010B170018C5
:010B180018C4
:010B190018C3
:010B1A0018C2
:010B1B0018C1
:010B1C0018C0
:010B1D0018BF
:010B1E0018BE
:010B1F0018BD
:010B200018BC
:010B210018BB
:010B220018BA
:010B230018B9
:010B240018B8
:010B250018B7
:010B260018B6
:010B270018B5
:010B280018B4
:010B290018B3
:010B2A0018B2
:010B2B0018B1
:010B2C0018B0
:010B2D0018AF
:010B2E0018AE
:010B2F0018AD
:010B300018AC
:010B310018AB
:010B320018AA
:010B330018A9
:010B340018A8
:010B350018A7
:010B360018A6
:010B370018A5
:010B380018A4
:010B390018A3
:010B3A0018A2
:010B3B0018A1
:010B3C0018A0
:010B3D00189F
:010B3E00189E
:010B3F00189D
:010B4000189C
:010B4100189B
:010B4200189A
:010B43001899
:010B44001898
:010B45001897
:010B46001896
:010B47001895
:010B48001894
:010B49001893
:010B4A001892
:010B4B001891
:010B4C001890
:010B4D00188F
:010B4E00188E
:010B4F00188D
:010B5000188C
:010B5100188B
:010B5200188A
:010B53001889
:010B54001888
:010B55001887
:010B56001886
:010B57001885
:010B58001884
:010B59001883
:010B5A001882
:010B5B001881
:010B5C001880
:010B5D00187F
:010B5E00187E
:010B5F00187D
:010B6000187C
:010B6100187B
:010B6200187A
:010B63001879
:010B64001878
:010B65001877
:010B66001876
:010B67001875
:010B68001874
:010B69001873
:010B6A001872
:010B6B001871
:010B6C001870
:010B6D00186F
:010B6E00186E
:010B6F00186D
:010B7000186C
:010B7100186B
:010B7200186A
:010B73001869
:010B74001868
:010B75001867
:010B76001866
:010B77001865
:010B78001864
:010B79001863
:010B7A001862
:010B7B001861
:010B7C001860
:010B7D00185F
:010B7E00185E
:010B7F00185D
:010B8000185C
:010B8100185B
:010B8200185A
:010B83001859
:010B84001858
:010B85001857
:010B86001856
:010B87001855
:010B88001854
:010B89001853
:010B8A001852
:010B8B001851
:010B8C001850
:010B8D00184F
:010B8E00184E
:010B8F00184D
:010B9000184C
:010B9100184B
:010B9200184A
:010B93001849
:010B94001848
:010B95001847
:010B96001846
:010B97001845
:010B98001844
:010B99001843
:010B9A001842
:010B9B001841
:010B9C001840
:010B9D00183F
:010B9E00183E
:010B9F00183D
:010BA000183C
:010BA100183B
:010BA200183A
:010BA3001839
:010BA4001838
:010BA5001837
:010BA6001836
:010BA7001835
:010BA8001834
:010BA9001833
:010BAA001832
:010BAB001831
:010BAC001830
:010BAD00182F
:010BAE00182E
:010BAF00182D
:010BB000182C
:010BB100182B
:010BB200182A
:010BB3001829
:010BB4001828
:010BB5001827
:010BB6001826
:010BB7001825
:010BB8001824
:010BB9001823
:010BBA001822
:010BBB001821
:010BBC001820
:010BBD00181F
:010BBE00181E
:010BBF00181D
:010BC000181C
:010BC100181B
:010BC200181A
:010BC3001819
:010BC4001818
:010BC5001817
:010BC6001816
:010BC7001815
:010BC8001814
:010BC9001813
:010BCA001812
:010BCB001811
:010BCC001810
:010BCD00180F
:010BCE00180E
:010BCF00180D
:010BD000180C
:010BD100180B
:010BD200180A
:010BD3001809
:010BD4001808
:010BD5001807
:010BD6001806
:010BD7001805
:010BD8001804
:010BD9001803
:010BDA001802
:010BDB001801
:010BDC001800
:010BDD0018FF
:010BDE0018FE
:010BDF0018FD
:010BE00018FC
:010BE10018FB
:010BE20018FA
:010BE30018F9
:010BE40018F8
:010BE50018F7
:010BE60018F6
:010BE70018F5
:010BE80018F4
:010BE90018F3
:010BEA0018F2
:010BEB0018F1
:010BEC0018F0
:010BED0018EF
:010BEE0018EE
:010BEF0018ED
:010BF00018EC
:010BF10018EB
:010BF20018EA
:010BF30018E9
:010BF40018E8
:010BF50018E7
:010BF60018E6
:010BF70018E5
:010BF80018E4
:010BF90018E3
:010BFA0018E2
:010BFB0018E1
:010BFC0018E0
:010BFD0018DF
:010BFE0018DE
:010BFF0018DD
:010C000018DB
:010C010018DA
:010C020018D9
:010C030018D8
:010C040018D7
:010C050018D6
:010C060018D5
:010C070018D4
:010C080018D3
:010C090018D2
:010C0A0018D1
:010C0B0018D0
:010C0C0018CF
:010C0D0018CE
:010C0E0018CD
:010C0F0018CC
:010C100018CB
:010C110018CA
:010C120018C9
:010C130018C8
:010C140018C7
:010C150018C6
:010C160018C5
:010C170018C4
:010C180018C3
:010C190018C2
:010C1A0018C1
:010C1B0018C0
:010C1C0018BF
:010C1D0018BE
:010C1E0018BD
:010C1F0018BC
:010C200018BB
:010C210018BA
:010C220018B9
:010C230018B8
:010C240018B7
:010C250018B6
:010C260018B5
:010C270018B4
:010C280018B3
:010C290018B2
:010C2A0018B1
:010C2B0018B0
:010C2C0018AF
:010C2D0018AE
:010C2E0018AD
:010C2F0018AC
:010C300018AB
:010C310018AA
:010C320018A9
:010C330018A8
:010C340018A7
:010C350018A6
:010C360018A5
:010C370018A4
:010C380018A3
:010C390018A2
:010C3A0018A1
:010C3B0018A0
:010C3C00189F
:010C3D00189E
:010C3E00189D
:010C3F00189C
:010C4000189B
:010C4100189A
:010C42001899
:010C43001898
:010C44001897
:010C45001896
:010C46001895
:010C47001894
:010C48001893
:010C49001892
:010C4A001891
:010C4B001890
:010C4C00188F
:010C4D00188E
:010C4E00188D
:010C4F00188C
:010C5000188B
:010C5100188A
:010C52001889
:010C53001888
:010C54001887
:010C55001886
:010C56001885
:010C57001884
:010C58001883
:010C59001882
:010C5A001881
:010C5B001880
:010C5C00187F
:010C5D00187E
:010C5E00187D
:010C5F00187C
:010C6000187B
:010C6100187A
:010C62001879
:010C63001878
:010C64001877
:010C65001876
:010C66001875
:010C67001874
:010C68001873
:010C69001872
:010C6A001871
:010C6B001870
:010C6C00186F
:010C6D00186E
:010C6E00186D
:010C6F00186C
:010C7000186B
:010C7100186A
:010C7200176A
:010C73001769
:010C74001768
:010C75001767
:010C76001766
:010C77001765
:010C78001764
:010C79001763
:010C7A001762
:010C7B001761
:010C7C001760
:010C7D00175F
:010C7E00175E
:010C7F00175D
:010C8000175C
:010C8100175B
:010C8200175A
:010C83001759
:010C84001758
:010C85001757
:010C86001756
:010C87001755
:010C88001754
:010C89001753
:010C8A001752
:010C8B001751
:010C8C001750
:010C8D00174F
:010C8E00174E
:010C8F00174D
:010C9000174C
:010C9100174B
:010C9200174A
:010C93001749
:010C94001748
:010C95001747
:010C96001746
:010C97001745
:010C98001744
:010C99001743
:010C9A001742
:010C9B001741
:010C9C001740
:010C9D00173F
:010C9E00173E
:010C9F00173D
:010CA000173C
:010CA100173B
:010CA200173A
:010CA3001739
:010CA4001738
:010CA5001737
:010CA6001736
:010CA7001735
:010CA8001734
:010CA9001733
:010CAA001732
:010CAB001731
:010CAC001730
:010CAD00172F
:010CAE00172E
:010CAF00172D
:010CB000172C
:010CB100172B
:010CB200172A
:010CB3001729
:010CB4001728
:010CB5001727
:010CB6001726
:010CB7001725
:010CB8001724
:010CB9001723
:010CBA001722
:010CBB001721
:010CBC001720
:010CBD00171F
:010CBE00171E
:010CBF00171D
:010CC000171C
:010CC100171B
:010CC200171A
:010CC3001719
:010CC4001718
:010CC5001717
:010CC6001716
:010CC7001715
:010CC8001714
:010CC9001713
:010CCA001712
:010CCB001711
:010CCC001710
:010CCD00170F
:010CCE00170E
:010CCF00170D
:010CD000170C
:010CD100170B
:010CD200170A
:010CD3001709
:010CD4001708
:010CD5001707
:010CD6001706
:010CD7001705
:010CD8001704
:010CD9001703
:010CDA001702
:010CDB001701
:010CDC001700
:010CDD0017FF
:010CDE0017FE
:010CDF0017FD
:010CE00017FC
:010CE10017FB
:010CE20017FA
:010CE30017F9
:010CE40017F8
:010CE50017F7
:010CE60017F6
:010CE70017F5
:010CE80017F4
:010CE90017F3
:010CEA0017F2
:010CEB0017F1
:010CEC0017F0
:010CED0017EF
:010CEE0017EE
:010CEF0017ED
:010CF00017EC
:010CF10017EB
:010CF20017EA
:010CF30017E9
:010CF40017E8
:010CF50017E7
:010CF60017E6
:010CF70017E5
:010CF80017E4
:010CF90017E3
:010CFA0017E2
:010CFB0017E1
:010CFC0017E0
:010CFD0017DF
:010CFE0017DE
:010CFF0017DD
:010D000017DB
:010D010017DA
:010D020017D9
:010D030017D8
:010D040017D7
:010D050017D6
:010D060017D5
:010D070017D4
:010D080017D3
:010D090017D2
:010D0A0017D1
:010D0B0017D0
:010D0C0017CF
:010D0D0017CE
:010D0E0017CD
:010D0F0017CC
:010D100017CB
:010D110017CA
:010D120017C9
:010D130017C8
:010D140017C7
:010D150017C6
:010D160017C5
:010D170017C4
:010D180017C3
:010D190017C2
:010D1A0017C1
:010D1B0017C0
:010D1C0017BF
:010D1D0017BE
:010D1E0017BD
:010D1F0017BC
:010D200017BB
:010D210017BA
:010D220017B9
:010D230017B8
:010D240017B7
:010D250017B6
:010D260017B5
:010D270017B4
:010D280017B3
:010D290017B2
:010D2A0017B1
:010D2B0017B0
:010D2C0017AF
:010D2D0017AE
:010D2E0017AD
:010D2F0017AC
:010D300017AB
:010D310017AA
:010D320017A9
:010D330017A8
:010D340017A7
:010D350017A6
:010D360017A5
:010D370017A4
:010D380017A3
:010D390017A2
:010D3A0017A1
:010D3B0017A0
:010D3C00179F
:010D3D00179E
:010D3E00179D
:010D3F00179C
:010D4000179B
:010D4100179A
:010D42001799
:010D43001798
:010D44001797
:010D45001796
:010D46001795
:010D47001794
:010D48001793
:010D49001792
:010D4A001791
:010D4B001790
:010D4C00178F
:010D4D00178E
:010D4E00178D
:010D4F00178C
:010D5000178B
:010D5100178A
:010D52001789
:010D53001788
:010D54001787
:010D55001786
:010D56001785
:010D57001784
:010D58001783
:010D59001782
:010D5A001781
:010D5B001780
:010D5C00177F
:010D5D00177E
:010D5E00177D
:010D5F00177C
:010D6000177B
:010D6100177A
:010D62001779
:010D63001778
:010D64001777
:010D65001776
:010D66001775
:010D67001774
:010D68001773
:010D69001772
:010D6A001771
:010D6B001770
:010D6C00176F
:010D6D00176E
:010D6E00176D
:010D6F00176C
:010D7000176B
:010D7100176A
:010D72001769
:010D73001768
:010D74001767
:010D75001766
:010D76001765
:010D77001764
:010D78001763
:010D79001762
:010D7A001761
:010D7B001760
:010D7C00175F
:010D7D00175E
:010D7E00175D
:010D7F00175C
:010D8000175B
:010D8100175A
:010D82001759
:010D83001758
:010D84001757
:010D85001756
:010D86001755
:010D87001754
:010D88001753
:010D89001752
:010D8A001751
:010D8B001750
:010D8C00174F
:010D8D00174E
:010D8E00174D
:010D8F00174C
:010D9000174B
:010D9100174A
:010D92001749
:010D93001748
:010D94001747
:010D95001746
:010D96001745
:010D97001744
:010D98001743
:010D99001742
:010D9A001741
:010D9B001740
:010D9C00173F
:010D9D00173E
:010D9E00173D
:010D9F00173C
:010DA000173B
:010DA100173A
:010DA2001739
:010DA3001738
:010DA4001737
:010DA5001736
:010DA6001735
:010DA7001734
:010DA8001733
:010DA9001732
:010DAA001731
:010DAB001730
:010DAC00172F
:010DAD00172E
:010DAE00172D
:010DAF00172C
:010DB000172B
:010DB100172A
:010DB2001729
:010DB3001728
:010DB4001727
:010DB5001726
:010DB6001725
:010DB7001724
:010DB8001723
:010DB9001722
:010DBA001721
:010DBB001720
:010DBC00171F
:010DBD00171E
:010DBE00171D
:010DBF00171C
:010DC000171B
:010DC100171A
:010DC2001719
:010DC3001718
:010DC4001717
:010DC5001716
:010DC6001715
:010DC7001714
:010DC8001713
:010DC9001712
:010DCA001711
:010DCB001710
:010DCC00170F
:010DCD00170E
:010DCE00170D
:010DCF00170C
:010DD000170B
:010DD100170A
:010DD2001709
:010DD3001708
:010DD4001707
:010DD5001706
:010DD6001705
:010DD7001704
:010DD8001703
:010DD9001702
:010DDA001701
:010DDB001700
:010DDC0017FF
:010DDD0017FE
:010DDE0017FD
:010DDF0017FC
:010DE00017FB
:010DE10017FA
:010DE20017F9
:010DE30017F8
:010DE40017F7
:010DE50017F6
:010DE60017F5
:010DE70017F4
:010DE80017F3
:010DE90017F2
:010DEA0017F1
:010DEB0017F0
:010DEC0017EF
:010DED0017EE
:010DEE0017ED
:010DEF0017EC
:010DF00017EB
:010DF10017EA
:010DF20017E9
:010DF30017E8
:010DF40017E7
:010DF50017E6
:010DF60017E5
:010DF70017E4
:010DF80017E3
:010DF90017E2
:010DFA0017E1
:010DFB0017E0
:010DFC0017DF
:010DFD0017DE
:010DFE0017DD
:010DFF0017DC
:010E000017DA
:010E010017D9
:010E020017D8
:010E030017D7
:010E040017D6
:010E050017D5
:010E060017D4
:010E070017D3
:010E080017D2
:010E090017D1
:010E0A0017D0
:010E0B0017CF
:010E0C0017CE
:010E0D0017CD
:010E0E0017CC
:010E0F0017CB
:010E100017CA
:010E110017C9
:010E120017C8
:010E130017C7
:010E140017C6
:010E150017C5
:010E160017C4
:010E170017C3
:010E180017C2
:010E190017C1
:010E1A0017C0
:010E1B0017BF
:010E1C0017BE
:010E1D0017BD
:010E1E0017BC
:010E1F0017BB
:010E200017BA
:010E210017B9
:010E220017B8
:010E230017B7
:010E240017B6
:010E250017B5
:010E260017B4
:010E270017B3
:010E280017B2
:010E290017B1
:010E2A0017B0
:010E2B0017AF
:010E2C0017AE
:010E2D0017AD
:010E2E0017AC
:010E2F0017AB
:010E300017AA
:010E310017A9
:010E320017A8
:010E330017A7
:010E340017A6
:010E350017A5
:010E360017A4
:010E370017A3
:010E380017A2
:010E390017A1
:010E3A0017A0
:010E3B00179F
:010E3C00179E
:010E3D00179D
:010E3E00179C
:010E3F00179B
:010E4000179A
:010E41001799
:010E42001798
:010E43001797
:010E44001796
:010E45001795
:010E46001794
:010E47001793
:010E48001792
:010E49001791
:010E4A001790
:010E4B00178F
:010E4C00178E
:010E4D00178D
:010E4E00178C
:010E4F00178B
:010E5000178A
:010E51001789
:010E52001788
:010E53001787
:010E54001786
:010E55001785
:010E56001784
:010E57001783
:010E58001782
:010E59001781
:010E5A001780
:010E5B00177F
:010E5C00177E
:010E5D00177D
:010E5E00177C
:010E5F00177B
:010E6000177A
:010E61001779
:010E62001778
:010E63001777
:010E64001776
:010E65001775
:010E66001774
:010E67001773
:010E68001772
:010E69001771
:010E6A001770
:010E6B00176F
:010E6C00176E
:010E6D00176D
:010E6E00176C
:010E6F00176B
:010E7000176A
:010E71001769
:010E72001768
:010E73001767
:010E74001766
:010E75001765
:010E76001764
:010E77001763
:010E78001762
:010E79001761
:010E7A001760
:010E7B00175F
:010E7C00175E
:010E7D00175D
:010E7E00175C
:010E7F00175B
:010E8000175A
:010E81001759
:010E82001758
:010E83001757
:010E84001756
:010E85001755
:010E86001754
:010E87001753
:010E88001752
:010E89001751
:010E8A001750
:010E8B00174F
:010E8C00174E
:010E8D00174D
:010E8E00174C
:010E8F00174B
:010E9000174A
:010E91001749
:010E92001748
:010E93001747
:010E94001746
:010E95001745
:010E96001744
:010E97001743
:010E98001742
:010E99001741
:010E9A001740
:010E9B00173F
:010E9C00173E
:010E9D00173D
:010E9E00173C
:010E9F00173B
:010EA000173A
:010EA1001739
:010EA2001738
:010EA3001737
:010EA4001736
:010EA5001735
:010EA6001734
:010EA7001733
:010EA8001732
:010EA9001731
:010EAA001730
:010EAB00172F
:010EAC00172E
:010EAD00172D
:010EAE00172C
:010EAF00172B
:010EB000172A
:010EB1001729
:010EB2001728
:010EB3001727
:010EB4001726
:010EB5001725
:010EB6001724
:010EB7001723
:010EB8001722
:010EB9001721
:010EBA001720
:010EBB00171F
:010EBC00171E
:010EBD00171D
:010EBE00171C
:010EBF00171B
:010EC000171A
:010EC1001719
:010EC2001718
:010EC3001717
:010EC4001716
:010EC5001715
:010EC6001714
:010EC7001713
:010EC8001712
:010EC9001711
:010ECA001710
:010ECB00170F
:010ECC00170E
:010ECD00170D
:010ECE00170C
:010ECF00170B
:010ED000170A
:010ED1001709
:010ED2001708
:010ED3001707
:010ED4001706
:010ED5001705
:010ED6001704
:010ED7001703
:010ED8001702
:010ED9001701
:010EDA001700
:010EDB0017FF
:010EDC0017FE
:010EDD0017FD
:010EDE0017FC
:010EDF0017FB
:010EE00017FA
:010EE10017F9
:010EE20017F8
:010EE30017F7
:010EE40017F6
:010EE50017F5
:010EE60017F4
:010EE70017F3
:010EE80017F2
:010EE90017F1
:010EEA0017F0
:010EEB0017EF
:010EEC0017EE
:010EED0017ED
:010EEE0017EC
:010EEF0017EB
:010EF00017EA
:010EF10017E9
:010EF20017E8
:010EF30017E7
:010EF40017E6
:010EF50017E5
:010EF60017E4
:010EF70017E3
:010EF80017E2
:010EF90016E2
:010EFA0016E1
:010EFB0016E0
:010EFC0016DF
:010EFD0016DE
:010EFE0016DD
:010EFF0016DC
:010F000016DA
:010F010016D9
:010F020016D8
:010F030016D7
:010F040016D6
:010F050016D5
:010F060016D4
:010F070016D3
:010F080016D2
:010F090016D1
:010F0A0016D0
:010F0B0016CF
:010F0C0016CE
:010F0D0016CD
:010F0E0016CC
:010F0F0016CB
:010F100016CA
:010F110016C9
:010F120016C8
:010F130016C7
:010F140016C6
:010F150016C5
:010F160016C4
:010F170016C3
:010F180016C2
:010F190016C1
:010F1A0016C0
:010F1B0016BF
:010F1C0016BE
:010F1D0016BD
:010F1E0016BC
:010F1F0016BB
:010F200016BA
:010F210016B9
:010F220016B8
:010F230016B7
:010F240016B6
:010F250016B5
:010F260016B4
:010F270016B3
:010F280016B2
:010F290016B1
:010F2A0016B0
:010F2B0016AF
:010F2C0016AE
:010F2D0016AD
:010F2E0016AC
:010F2F0016AB
:010F300016AA
:010F310016A9
:010F320016A8
:010F330016A7
:010F340016A6
:010F350016A5
:010F360016A4
:010F370016A3
:010F380016A2
:010F390016A1
:010F3A0016A0
:010F3B00169F
:010F3C00169E
:010F3D00169D
:010F3E00169C
:010F3F00169B
:010F4000169A
:010F41001699
:010F42001698
:010F43001697
:010F44001696
:010F45001695
:010F46001694
:010F47001693
:010F48001692
:010F49001691
:010F4A001690
:010F4B00168F
:010F4C00168E
:010F4D00168D
:010F4E00168C
:010F4F00168B
:010F5000168A
:010F51001689
:010F52001688
:010F53001687
:010F54001686
:010F55001685
:010F56001684
:010F57001683
:010F58001682
:010F59001681
:010F5A001680
:010F5B00167F
:010F5C00167E
:010F5D00167D
:010F5E00167C
:010F5F00167B
:010F6000167A
:010F61001679
:010F62001678
:010F63001677
:010F64001676
:010F65001675
:010F66001674
:010F67001673
:010F68001672
:010F69001671
:010F6A001670
:010F6B00166F
:010F6C00166E
:010F6D00166D
:010F6E00166C
:010F6F00166B
:010F7000166A
:010F71001669
:010F72001668
:010F73001667
:010F74001666
:010F75001665
:010F76001664
:010F77001663
:010F78001662
:010F79001661
:010F7A001660
:010F7B00165F
:010F7C00165E
:010F7D00165D
:010F7E00165C
:010F7F00165B
:010F8000165A
:010F81001659
:010F82001658
:010F83001657
:010F84001656
:010F85001655
:010F86001654
:010F87001653
:010F88001652
:010F89001651
:010F8A001650
:010F8B00164F
:010F8C00164E
:010F8D00164D
:010F8E00164C
:010F8F00164B
:010F9000164A
:010F91001649
:010F92001648
:010F93001647
:010F94001646
:010F95001645
:010F96001644
:010F97001643
:010F98001642
:010F99001641
:010F9A001640
:010F9B00163F
:010F9C00163E
:010F9D00163D
:010F9E00163C
:010F9F00163B
:010FA000163A
:010FA1001639
:010FA2001638
:010FA3001637
:010FA4001636
:010FA5001635
:010FA6001634
:010FA7001633
:010FA8001632
:010FA9001631
:010FAA001630
:010FAB00162F
:010FAC00162E
:010FAD00162D
:010FAE00162C
:010FAF00162B
:010FB000162A
:010FB1001629
:010FB2001628
:010FB3001627
:010FB4001626
:010FB5001625
:010FB6001624
:010FB7001623
:010FB8001622
:010FB9001621
:010FBA001620
:010FBB00161F
:010FBC00161E
:010FBD00161D
:010FBE00161C
:010FBF00161B
:010FC000161A
:010FC1001619
:010FC2001618
:010FC3001617
:010FC4001616
:010FC5001615
:010FC6001614
:010FC7001613
:010FC8001612
:010FC9001611
:010FCA001610
:010FCB00160F
:010FCC00160E
:010FCD00160D
:010FCE00160C
:010FCF00160B
:010FD000160A
:010FD1001609
:010FD2001608
:010FD3001607
:010FD4001606
:010FD5001605
:010FD6001604
:010FD7001603
:010FD8001602
:010FD9001601
:010FDA001600
:010FDB0016FF
:010FDC0016FE
:010FDD0016FD
:010FDE0016FC
:010FDF0016FB
:010FE00016FA
:010FE10016F9
:010FE20016F8
:010FE30016F7
:010FE40016F6
:010FE50016F5
:010FE60016F4
:010FE70016F3
:010FE80016F2
:010FE90016F1
:010FEA0016F0
:010FEB0016EF
:010FEC0016EE
:010FED0016ED
:010FEE0016EC
:010FEF0016EB
:010FF00016EA
:010FF10016E9
:010FF20016E8
:010FF30016E7
:010FF40016E6
:010FF50016E5
:010FF60016E4
:010FF70016E3
:010FF80016E2
:010FF90016E1
:010FFA0016E0
:010FFB0016DF
:010FFC0016DE
:010FFD0016DD
:010FFE0016DC
:010FFF0016DB
:00000001ff
