:020000040000FA
:010000001EE1
:010001001AE4
:0100020016E7
:0100030012EA
:010004000EED
:010005000AF0
:0100060006F3
:0100070002F6
:010008001ED9
:010009001ADC
:01000A0016DF
:01000B0012E2
:01000C000EE5
:01000D000AE8
:01000E0006EB
:01000F0002EE
:010010001ED1
:010011001AD4
:0100120016D7
:0100130012DA
:010014000EDD
:010015000AE0
:0100160006E3
:0100170002E6
:010018001EC9
:010019001ACC
:01001A0016CF
:01001B0012D2
:01001C000ED5
:01001D000AD8
:01001E0006DB
:01001F0002DE
:010020001EC1
:010021001AC4
:0100220016C7
:0100230012CA
:010024000ECD
:010025000BCF
:0100260007D2
:0100270003D5
:010028001FB8
:010029001BBB
:01002A0017BE
:01002B0013C1
:01002C000FC4
:01002D000BC7
:01002E0007CA
:01002F0003CD
:010030001FB0
:010031001BB3
:0100320017B6
:0100330013B9
:010034000FBC
:010035000CBE
:0100360008C1
:0100370004C4
:0100380000C7
:010039001CAA
:01003A0018AD
:01003B0014B0
:01003C0010B3
:01003D000CB6
:01003E0008B9
:01003F0004BC
:0100400001BE
:010041001DA1
:0100420019A4
:0100430015A7
:0100440011AA
:010045000DAD
:0100460009B0
:0100470005B3
:0100480001B6
:010049001D99
:01004A001A9B
:01004B00169E
:01004C0012A1
:01004D000EA4
:01004E000AA7
:01004F0006AA
:0100500002AD
:010051001E90
:010052001A93
:010053001795
:010054001398
:010055000F9B
:010056000B9E
:0100570007A1
:0100580003A4
:010059001F87
:01005A001B8A
:01005B00188C
:01005C00148F
:01005D001092
:01005E000C95
:01005F000898
:01006000049B
:01006100009E
:010062001C81
:010063001983
:010064001586
:010065001189
:010066000D8C
:01006700098F
:010068000592
:010069000195
:01006A001E77
:01006B001A7A
:01006C00167D
:01006D001280
:01006E000E83
:01006F000A86
:010070000788
:01007100038B
:010072001F6E
:010073001B71
:010074001774
:010075001377
:010076001079
:010077000C7C
:01007800087F
:010079000482
:01007A000085
:01007B001C68
:01007C00196A
:01007D00156D
:01007E001170
:01007F000D73
:010080000976
:010081000579
:01008200027B
:010083001E5E
:010084001A61
:010085001664
:010086001267
:010087000F69
:010088000B6C
:01008900076F
:01008A000372
:01008B001F55
:01008C001C57
:01008D00185A
:01008E00145D
:01008F001060
:010090000C63
:010091000965
:010092000568
:01009300016B
:010094001D4E
:010095001951
:010096001653
:010097001256
:010098000E59
:010099000A5C
:01009A00065F
:01009B000361
:01009C001F44
:01009D001B47
:01009E00174A
:01009F00144C
:0100A000104F
:0100A1000C52
:0100A2000855
:0100A3000458
:0100A400015A
:0100A5001D3D
:0100A6001940
:0100A7001543
:0100A8001245
:0100A9000E48
:0100AA000A4B
:0100AB00064E
:0100AC000350
:0100AD001F33
:0100AE001B36
:0100AF001739
:0100B000143B
:0100B100103E
:0100B2000C41
:0100B3000844
:0100B4000546
:0100B5000149
:0100B6001D2C
:0100B700192F
:0100B8001631
:0100B9001234
:0100BA000E37
:0100BB000A3A
:0100BC00073C
:0100BD00033F
:0100BE001F22
:0100BF001B25
:0100C0001827
:0100C100142A
:0100C200102D
:0100C3000C30
:0100C4000932
:0100C5000535
:0100C6000138
:0100C7001E1A
:0100C8001A1D
:0100C9001620
:0100CA001223
:0100CB000F25
:0100CC000B28
:0100CD00072B
:0100CE00032E
:0100CF000030
:0100D0001C13
:0100D1001816
:0100D2001518
:0100D300111B
:0100D4000D1E
:0100D5000921
:0100D6000623
:0100D7000226
:0100D8001E09
:0100D9001B0B
:0100DA00170E
:0100DB001311
:0100DC001013
:0100DD000C16
:0100DE000819
:0100DF00041C
:0100E000011E
:0100E1001D01
:0100E2001904
:0100E3001606
:0100E4001209
:0100E5000E0C
:0100E6000B0E
:0100E7000711
:0100E8000314
:0100E9000016
:0100EA001CF9
:0100EB0018FC
:0100EC0015FE
:0100ED001101
:0100EE000D04
:0100EF000A06
:0100F0000609
:0100F100020C
:0100F2001FEE
:0100F3001BF1
:0100F40017F4
:0100F50014F6
:0100F60010F9
:0100F7000CFC
:0100F80009FE
:0100F9000501
:0100FA000104
:0100FB001EE6
:0100FC001AE9
:0100FD0016EC
:0100FE0013EE
:0100FF000FF1
:010100000BF3
:0101010008F5
:0101020004F8
:0101030000FB
:010104001DDD
:0101050019E0
:0101060015E3
:0101070012E5
:010108000EE8
:010109000AEB
:01010A0007ED
:01010B0003F0
:01010C0000F2
:01010D001CD5
:01010E0018D8
:01010F0015DA
:0101100011DD
:010111000DE0
:010112000AE2
:0101130006E5
:0101140003E7
:010115001FCA
:010116001BCD
:0101170018CF
:0101180014D2
:0101190010D5
:01011A000DD7
:01011B0009DA
:01011C0006DC
:01011D0002DF
:01011E001EC2
:01011F001BC4
:0101200017C7
:0101210013CA
:0101220010CC
:010123000CCF
:0101240009D1
:0101250005D4
:0101260001D7
:010127001EB9
:010128001ABC
:0101290017BE
:01012A0013C1
:01012B000FC4
:01012C000CC6
:01012D0008C9
:01012E0005CB
:01012F0001CE
:010130001DB1
:010131001AB3
:0101320016B6
:0101330013B8
:010134000FBB
:010135000CBD
:0101360008C0
:0101370004C3
:0101380001C5
:010139001DA8
:01013A001AAA
:01013B0016AD
:01013C0012B0
:01013D000FB2
:01013E000BB5
:01013F0008B7
:0101400004BA
:0101410001BC
:010142001D9F
:0101430019A2
:0101440016A4
:0101450012A7
:010146000FA9
:010147000BAC
:0101480008AE
:0101490004B1
:01014A0000B4
:01014B001D96
:01014C001999
:01014D00169B
:01014E00129E
:01014F000FA0
:010150000BA3
:0101510008A5
:0101520004A8
:0101530000AB
:010154001D8D
:010155001990
:010156001692
:010157001295
:010158000F97
:010159000B9A
:01015A00089C
:01015B00049F
:01015C0001A1
:01015D001D84
:01015E001A86
:01015F001689
:01016000128C
:010161000F8E
:010162000B91
:010163000893
:010164000496
:010165000198
:010166001D7B
:010167001A7D
:010168001680
:010169001382
:01016A000F85
:01016B000C87
:01016C00088A
:01016D00058C
:01016E00018F
:01016F001E71
:010170001A74
:010171001776
:010172001379
:01017300107B
:010174000C7E
:010175000881
:010176000583
:010177000186
:010178001E68
:010179001A6B
:01017A00176D
:01017B001370
:01017C001072
:01017D000C75
:01017E000977
:01017F00057A
:01018000027C
:010181001E5F
:010182001B61
:010183001764
:010184001466
:010185001069
:010186000D6B
:010187000A6D
:010188000670
:010189000372
:01018A001F55
:01018B001C57
:01018C00185A
:01018D00155C
:01018E00115F
:01018F000E61
:010190000A64
:010191000766
:010192000369
:01019300006B
:010194001C4E
:010195001950
:010196001553
:010197001255
:010198000E58
:010199000B5A
:01019A00075D
:01019B00045F
:01019C000161
:01019D001D44
:01019E001A46
:01019F001649
:0101A000134B
:0101A1000F4E
:0101A2000C50
:0101A3000853
:0101A4000555
:0101A5000158
:0101A6001E3A
:0101A7001A3D
:0101A800173F
:0101A9001441
:0101AA001044
:0101AB000D46
:0101AC000949
:0101AD00064B
:0101AE00024E
:0101AF001F30
:0101B0001B33
:0101B1001835
:0101B2001537
:0101B300113A
:0101B4000E3C
:0101B5000A3F
:0101B6000741
:0101B7000344
:0101B8000046
:0101B9001D28
:0101BA00192B
:0101BB00162D
:0101BC001230
:0101BD000F32
:0101BE000B35
:0101BF000837
:0101C0000539
:0101C100013C
:0101C2001E1E
:0101C3001A21
:0101C4001723
:0101C5001326
:0101C6001028
:0101C7000D2A
:0101C800092D
:0101C900062F
:0101CA000232
:0101CB001F14
:0101CC001C16
:0101CD001819
:0101CE00151B
:0101CF00111E
:0101D0000E20
:0101D1000B22
:0101D2000725
:0101D3000427
:0101D400002A
:0101D5001D0C
:0101D6001A0E
:0101D7001611
:0101D8001313
:0101D9000F16
:0101DA000C18
:0101DB00091A
:0101DC00051D
:0101DD00021F
:0101DE001E02
:0101DF001B04
:0101E0001806
:0101E1001409
:0101E200110B
:0101E3000D0E
:0101E4000A10
:0101E5000712
:0101E6000315
:0101E7000017
:0101E8001DF9
:0101E90019FC
:0101EA0016FE
:0101EB001201
:0101EC000F03
:0101ED000C05
:0101EE000808
:0101EF00050A
:0101F000020C
:0101F1001EEF
:0101F2001BF1
:0101F30017F4
:0101F40014F6
:0101F50011F8
:0101F6000DFB
:0101F7000AFD
:0101F80007FF
:0101F9000302
:0101FA000004
:0101FB001DE6
:0101FC0019E9
:0101FD0016EB
:0101FE0012EE
:0101FF000FF0
:010200000CF1
:0102010008F4
:0102020005F6
:0102030002F8
:010204001EDB
:010205001BDD
:0102060018DF
:0102070014E2
:0102080011E4
:010209000EE6
:01020A000AE9
:01020B0007EB
:01020C0004ED
:01020D0000F0
:01020E001DD2
:01020F001AD4
:0102100016D7
:0102110013D9
:0102120010DB
:010213000CDE
:0102140009E0
:0102150006E2
:0102160002E5
:010217001FC7
:010218001CC9
:0102190018CC
:01021A0015CE
:01021B0012D0
:01021C000ED3
:01021D000BD5
:01021E0008D7
:01021F0004DA
:0102200001DC
:010221001EBE
:010222001AC1
:0102230017C3
:0102240014C5
:0102250011C7
:010226000DCA
:010227000ACC
:0102280007CE
:0102290003D1
:01022A0000D3
:01022B001DB5
:01022C0019B8
:01022D0016BA
:01022E0013BC
:01022F000FBF
:010230000CC1
:0102310009C3
:0102320006C5
:0102330002C8
:010234001FAA
:010235001CAC
:0102360018AF
:0102370015B1
:0102380012B3
:010239000FB5
:01023A000BB8
:01023B0008BA
:01023C0005BC
:01023D0001BF
:01023E001EA1
:01023F001BA3
:0102400017A6
:0102410014A8
:0102420011AA
:010243000EAC
:010244000AAF
:0102450007B1
:0102460004B3
:0102470001B5
:010248001D98
:010249001A9A
:01024A00179C
:01024B00139F
:01024C0010A1
:01024D000DA3
:01024E000AA5
:01024F0006A8
:0102500003AA
:0102510000AC
:010252001D8E
:010253001991
:010254001693
:010255001395
:010256001097
:010257000C9A
:01025800099C
:01025900069E
:01025A0002A1
:01025B001F83
:01025C001C85
:01025D001987
:01025E00158A
:01025F00128C
:010260000F8E
:010261000C90
:010262000893
:010263000595
:010264000297
:010265001F79
:010266001B7C
:01026700187E
:010268001580
:010269001282
:01026A000F84
:01026B000B87
:01026C000889
:01026D00058B
:01026E00028D
:01026F001E70
:010270001B72
:010271001874
:010272001576
:010273001179
:010274000E7B
:010275000B7D
:01027600087F
:010277000581
:010278000184
:010279001E66
:01027A001B68
:01027B00186A
:01027C00146D
:01027D00116F
:01027E000E71
:01027F000B73
:010280000875
:010281000478
:01028200017A
:010283001E5C
:010284001B5E
:010285001761
:010286001463
:010287001165
:010288000E67
:010289000B69
:01028A00076C
:01028B00046E
:01028C000170
:01028D001E52
:01028E001B54
:01028F001757
:010290001459
:01029100115B
:010292000E5D
:010293000B5F
:010294000762
:010295000464
:010296000166
:010297001E48
:010298001B4A
:01029900174D
:01029A00144F
:01029B001151
:01029C000E53
:01029D000B55
:01029E000758
:01029F00045A
:0102A000015C
:0102A1001E3E
:0102A2001B40
:0102A3001842
:0102A4001445
:0102A5001147
:0102A6000E49
:0102A7000B4B
:0102A800084D
:0102A9000450
:0102AA000152
:0102AB001E34
:0102AC001B36
:0102AD001838
:0102AE00153A
:0102AF00113D
:0102B0000E3F
:0102B1000B41
:0102B2000843
:0102B3000545
:0102B4000247
:0102B5001E2A
:0102B6001B2C
:0102B700182E
:0102B8001530
:0102B9001232
:0102BA000F34
:0102BB000B37
:0102BC000839
:0102BD00053B
:0102BE00023D
:0102BF001F1F
:0102C0001C21
:0102C1001923
:0102C2001526
:0102C3001228
:0102C4000F2A
:0102C5000C2C
:0102C600092E
:0102C7000630
:0102C8000332
:0102C9001F15
:0102CA001C17
:0102CB001919
:0102CC00161B
:0102CD00131D
:0102CE00101F
:0102CF000D21
:0102D0000924
:0102D1000626
:0102D2000328
:0102D300002A
:0102D4001D0C
:0102D5001A0E
:0102D6001710
:0102D7001313
:0102D8001015
:0102D9000D17
:0102DA000A19
:0102DB00071B
:0102DC00041D
:0102DD00011F
:0102DE001E01
:0102DF001A04
:0102E0001706
:0102E1001408
:0102E200110A
:0102E3000E0C
:0102E4000B0E
:0102E5000810
:0102E6000512
:0102E7000115
:0102E8001EF7
:0102E9001BF9
:0102EA0018FB
:0102EB0015FD
:0102EC0012FF
:0102ED000F01
:0102EE000C03
:0102EF000905
:0102F0000607
:0102F100020A
:0102F2001FEC
:0102F3001CEE
:0102F40019F0
:0102F50016F2
:0102F60013F4
:0102F70010F6
:0102F8000DF8
:0102F9000AFA
:0102FA0006FD
:0102FB0003FF
:0102FC000001
:0102FD001DE3
:0102FE001AE5
:0102FF0017E7
:0103000014E8
:0103010011EA
:010302000EEC
:010303000BEE
:0103040008F0
:0103050004F3
:0103060001F5
:010307001ED7
:010308001BD9
:0103090018DB
:01030A0015DD
:01030B0012DF
:01030C000FE1
:01030D000CE3
:01030E0009E5
:01030F0006E7
:0103100003E9
:0103110000EB
:010312001CCE
:0103130019D0
:0103140016D2
:0103150013D4
:0103160010D6
:010317000DD8
:010318000ADA
:0103190007DC
:01031A0004DE
:01031B0001E0
:01031C001EC2
:01031D001BC4
:01031E0018C6
:01031F0015C8
:0103200012CA
:010321000ECD
:010322000BCF
:0103230008D1
:0103240005D3
:0103250002D5
:010326001FB7
:010327001CB9
:0103280019BB
:0103290016BD
:01032A0013BF
:01032B0010C1
:01032C000DC3
:01032D000AC5
:01032E0007C7
:01032F0004C9
:0103300001CB
:010331001EAD
:010332001BAF
:0103330018B1
:0103340015B3
:0103350011B6
:010336000EB8
:010337000BBA
:0103380008BC
:0103390005BE
:01033A0002C0
:01033B001FA2
:01033C001CA4
:01033D0019A6
:01033E0016A8
:01033F0013AA
:0103400010AC
:010341000DAE
:010342000AB0
:0103430007B2
:0103440004B4
:0103450001B6
:010346001E98
:010347001B9A
:01034800189C
:01034900159E
:01034A0012A0
:01034B000FA2
:01034C000CA4
:01034D0009A6
:01034E0006A8
:01034F0003AA
:0103500000AC
:010351001D8E
:010352001A90
:010353001792
:010354001494
:010355001196
:010356000E98
:010357000B9A
:01035800089C
:01035900059E
:01035A0002A0
:01035B001F82
:01035C001C84
:01035D001986
:01035E001688
:01035F00138A
:01036000108C
:010361000D8E
:010362000A90
:010363000792
:010364000494
:010365000196
:010366001E78
:010367001B7A
:01036800187C
:01036900157E
:01036A001280
:01036B000F82
:01036C000C84
:01036D000986
:01036E000688
:01036F00038A
:01037000008C
:010371001D6E
:010372001A70
:010373001772
:010374001474
:010375001176
:010376000E78
:010377000B7A
:01037800087C
:01037900057E
:01037A000280
:01037B001F62
:01037C001C64
:01037D001966
:01037E001668
:01037F00136A
:01038000106C
:010381000D6E
:010382000A70
:010383000772
:010384000474
:010385000176
:010386001E58
:010387001B5A
:01038800185C
:01038900155E
:01038A001260
:01038B000F62
:01038C000C64
:01038D000966
:01038E000668
:01038F00036A
:01039000016B
:010391001E4D
:010392001B4F
:010393001851
:010394001553
:010395001255
:010396000F57
:010397000C59
:01039800095B
:01039900065D
:01039A00035F
:01039B000061
:01039C001D43
:01039D001A45
:01039E001747
:01039F001449
:0103A000114B
:0103A1000E4D
:0103A2000B4F
:0103A3000851
:0103A4000652
:0103A5000354
:0103A6000056
:0103A7001D38
:0103A8001A3A
:0103A900173C
:0103AA00143E
:0103AB001140
:0103AC000E42
:0103AD000B44
:0103AE000846
:0103AF000548
:0103B000024A
:0103B1001F2C
:0103B2001C2E
:0103B3001A2F
:0103B4001731
:0103B5001433
:0103B6001135
:0103B7000E37
:0103B8000B39
:0103B900083B
:0103BA00053D
:0103BB00023F
:0103BC001F21
:0103BD001C23
:0103BE001925
:0103BF001627
:0103C0001428
:0103C100112A
:0103C2000E2C
:0103C3000B2E
:0103C4000830
:0103C5000532
:0103C6000234
:0103C7001F16
:0103C8001C18
:0103C900191A
:0103CA00161C
:0103CB00141D
:0103CC00111F
:0103CD000E21
:0103CE000B23
:0103CF000825
:0103D0000527
:0103D1000229
:0103D2001F0B
:0103D3001C0D
:0103D400190F
:0103D5001611
:0103D6001412
:0103D7001114
:0103D8000E16
:0103D9000B18
:0103DA00081A
:0103DB00051C
:0103DC00021E
:0103DD001F00
:0103DE001C02
:0103DF001A03
:0103E0001705
:0103E1001407
:0103E2001109
:0103E3000E0B
:0103E4000B0D
:0103E500080F
:0103E6000511
:0103E7000213
:0103E8000014
:0103E9001DF6
:0103EA001AF8
:0103EB0017FA
:0103EC0014FC
:0103ED0011FE
:0103EE000E00
:0103EF000B02
:0103F0000903
:0103F1000605
:0103F2000307
:0103F3000009
:0103F4001DEB
:0103F5001AED
:0103F60017EF
:0103F70014F1
:0103F80012F2
:0103F9000FF4
:0103FA000CF6
:0103FB0009F8
:0103FC0006FA
:0103FD0003FC
:0103FE0000FE
:0103FF001EDF
:010400001BE0
:0104010018E2
:0104020015E4
:0104030012E6
:010404000FE8
:010405000CEA
:010406000AEB
:0104070007ED
:0104080004EF
:0104090001F1
:01040A001ED3
:01040B001BD5
:01040C0018D7
:01040D0016D8
:01040E0013DA
:01040F0010DC
:010410000DDE
:010411000AE0
:0104120007E2
:0104130004E4
:0104140002E5
:010415001FC7
:010416001CC9
:0104170019CB
:0104180016CD
:0104190013CF
:01041A0011D0
:01041B000ED2
:01041C000BD4
:01041D0008D6
:01041E0005D8
:01041F0002DA
:0104200000DB
:010421001DBD
:010422001ABF
:0104230017C1
:0104240014C3
:0104250011C5
:010426000FC6
:010427000CC8
:0104280009CA
:0104290006CC
:01042A0003CE
:01042B0000D0
:01042C001EB1
:01042D001BB3
:01042E0018B5
:01042F0015B7
:0104300012B9
:010431000FBB
:010432000DBC
:010433000ABE
:0104340007C0
:0104350004C2
:0104360001C4
:010437001FA5
:010438001CA7
:0104390019A9
:01043A0016AB
:01043B0013AD
:01043C0010AF
:01043D000EB0
:01043E000BB2
:01043F0008B4
:0104400005B6
:0104410002B8
:0104420000B9
:010443001D9B
:010444001A9D
:01044500179F
:0104460014A1
:0104470012A2
:010448000FA4
:010449000CA6
:01044A0009A8
:01044B0006AA
:01044C0004AB
:01044D0001AD
:01044E001E8F
:01044F001B91
:010450001893
:010451001694
:010452001396
:010453001098
:010454000D9A
:010455000A9C
:01045600089D
:01045700059F
:0104580002A1
:010459001F83
:01045A001C85
:01045B001A86
:01045C001788
:01045D00148A
:01045E00118C
:01045F000F8D
:010460000C8F
:010461000991
:010462000693
:010463000395
:010464000196
:010465001E78
:010466001B7A
:01046700187C
:01046800157E
:01046900137F
:01046A001081
:01046B000D83
:01046C000A85
:01046D000886
:01046E000588
:01046F00028A
:010470001F6C
:010471001D6D
:010472001A6F
:010473001771
:010474001473
:010475001175
:010476000F76
:010477000C78
:01047800097A
:01047900067C
:01047A00047D
:01047B00017F
:01047C001E61
:01047D001B63
:01047E001964
:01047F001666
:010480001368
:01048100106A
:010482000E6B
:010483000B6D
:01048400086F
:010485000571
:010486000372
:010487000074
:010488001D56
:010489001A58
:01048A001859
:01048B00155B
:01048C00125D
:01048D000F5F
:01048E000D60
:01048F000A62
:010490000764
:010491000466
:010492000267
:010493001F49
:010494001C4B
:01049500194D
:01049600174E
:010497001450
:010498001152
:010499000E54
:01049A000C55
:01049B000957
:01049C000659
:01049D00035B
:01049E00015C
:01049F001E3E
:0104A0001B40
:0104A1001941
:0104A2001643
:0104A3001345
:0104A4001047
:0104A5000E48
:0104A6000B4A
:0104A700084C
:0104A800054E
:0104A900034F
:0104AA000051
:0104AB001D33
:0104AC001B34
:0104AD001836
:0104AE001538
:0104AF00123A
:0104B000103B
:0104B1000D3D
:0104B2000A3F
:0104B3000741
:0104B4000542
:0104B5000244
:0104B6001F26
:0104B7001D27
:0104B8001A29
:0104B900172B
:0104BA00142D
:0104BB00122E
:0104BC000F30
:0104BD000C32
:0104BE000A33
:0104BF000735
:0104C0000437
:0104C1000139
:0104C2001F1A
:0104C3001C1C
:0104C400191E
:0104C500171F
:0104C6001421
:0104C7001123
:0104C8000F24
:0104C9000C26
:0104CA000928
:0104CB00062A
:0104CC00042B
:0104CD00012D
:0104CE001E0F
:0104CF001C10
:0104D0001912
:0104D1001614
:0104D2001415
:0104D3001117
:0104D4000E19
:0104D5000B1B
:0104D600091C
:0104D700061E
:0104D8000320
:0104D9000121
:0104DA001E03
:0104DB001B05
:0104DC001906
:0104DD001608
:0104DE00130A
:0104DF00110B
:0104E0000E0D
:0104E1000B0F
:0104E2000910
:0104E3000612
:0104E4000314
:0104E5000115
:0104E6001EF7
:0104E7001BF9
:0104E80018FB
:0104E90016FC
:0104EA0013FE
:0104EB001000
:0104EC000E01
:0104ED000B03
:0104EE000805
:0104EF000606
:0104F0000308
:0104F100000A
:0104F2001EEB
:0104F3001BED
:0104F40018EF
:0104F50016F0
:0104F60013F2
:0104F70010F4
:0104F8000EF5
:0104F9000BF7
:0104FA0008F9
:0104FB0006FA
:0104FC0003FC
:0104FD0000FE
:0104FE001EDF
:0104FF001BE1
:0105000018E2
:0105010016E3
:0105020013E5
:0105030010E7
:010504000EE8
:010505000BEA
:0105060008EC
:0105070006ED
:0105080003EF
:0105090001F0
:01050A001ED2
:01050B001BD4
:01050C0019D5
:01050D0016D7
:01050E0013D9
:01050F0011DA
:010510000EDC
:010511000BDE
:0105120009DF
:0105130006E1
:0105140003E3
:0105150001E4
:010516001EC6
:010517001BC8
:0105180019C9
:0105190016CB
:01051A0014CC
:01051B0011CE
:01051C000ED0
:01051D000CD1
:01051E0009D3
:01051F0006D5
:0105200004D6
:0105210001D8
:010522001EBA
:010523001CBB
:0105240019BD
:0105250017BE
:0105260014C0
:0105270011C2
:010528000FC3
:010529000CC5
:01052A0009C7
:01052B0007C8
:01052C0004CA
:01052D0001CC
:01052E001FAD
:01052F001CAF
:010530001AB0
:0105310017B2
:0105320014B4
:0105330012B5
:010534000FB7
:010535000CB9
:010536000ABA
:0105370007BC
:0105380005BD
:0105390002BF
:01053A001FA1
:01053B001DA2
:01053C001AA4
:01053D0018A5
:01053E0015A7
:01053F0012A9
:0105400010AA
:010541000DAC
:010542000AAE
:0105430008AF
:0105440005B1
:0105450003B2
:0105460000B4
:010547001D96
:010548001B97
:010549001899
:01054A00169A
:01054B00139C
:01054C00109E
:01054D000E9F
:01054E000BA1
:01054F0009A2
:0105500006A4
:0105510003A6
:0105520001A7
:010553001E89
:010554001C8A
:01055500198C
:01055600168E
:01055700148F
:010558001191
:010559000F92
:01055A000C94
:01055B000996
:01055C000797
:01055D000499
:01055E00029A
:01055F001F7C
:010560001C7E
:010561001A7F
:010562001781
:010563001582
:010564001284
:010565001085
:010566000D87
:010567000A89
:01056800088A
:01056900058C
:01056A00038D
:01056B00008F
:01056C001D71
:01056D001B72
:01056E001874
:01056F001675
:010570001377
:010571001178
:010572000E7A
:010573000B7C
:01057400097D
:01057500067F
:010576000480
:010577000182
:010578001E64
:010579001C65
:01057A001967
:01057B001768
:01057C00146A
:01057D00126B
:01057E000F6D
:01057F000C6F
:010580000A70
:010581000772
:010582000573
:010583000275
:010584000076
:010585001D58
:010586001B59
:01058700185B
:01058800155D
:01058900135E
:01058A001060
:01058B000E61
:01058C000B63
:01058D000964
:01058E000666
:01058F000368
:010590000169
:010591001E4B
:010592001C4C
:01059300194E
:01059400174F
:010595001451
:010596001252
:010597000F54
:010598000D55
:010599000A57
:01059A000759
:01059B00055A
:01059C00025C
:01059D00005D
:01059E001D3F
:01059F001B40
:0105A0001842
:0105A1001643
:0105A2001345
:0105A3001047
:0105A4000E48
:0105A5000B4A
:0105A600094B
:0105A700064D
:0105A800044E
:0105A9000150
:0105AA001F31
:0105AB001C33
:0105AC001A34
:0105AD001736
:0105AE001537
:0105AF001239
:0105B0000F3B
:0105B1000D3C
:0105B2000A3E
:0105B300083F
:0105B4000541
:0105B5000342
:0105B6000044
:0105B7001E25
:0105B8001B27
:0105B9001928
:0105BA00162A
:0105BB00142B
:0105BC00112D
:0105BD000F2E
:0105BE000C30
:0105BF000A31
:0105C0000733
:0105C1000534
:0105C2000236
:0105C3001F18
:0105C4001D19
:0105C5001A1B
:0105C600181C
:0105C700151E
:0105C800131F
:0105C9001021
:0105CA000E22
:0105CB000B24
:0105CC000925
:0105CD000627
:0105CE000428
:0105CF00012A
:0105D0001F0B
:0105D1001C0D
:0105D2001A0E
:0105D3001710
:0105D4001511
:0105D5001213
:0105D6001014
:0105D7000D16
:0105D8000B17
:0105D9000819
:0105DA00061A
:0105DB00031C
:0105DC00011D
:0105DD001EFF
:0105DE001C00
:0105DF001902
:0105E0001703
:0105E1001405
:0105E2001206
:0105E3000F08
:0105E4000D09
:0105E5000A0B
:0105E600080C
:0105E700050E
:0105E800030F
:0105E9000011
:0105EA001EF2
:0105EB001BF4
:0105EC0019F5
:0105ED0016F7
:0105EE0014F8
:0105EF0011FA
:0105F0000FFB
:0105F1000CFD
:0105F2000AFE
:0105F3000700
:0105F4000501
:0105F5000203
:0105F6000004
:0105F7001DE6
:0105F8001BE7
:0105F90018E9
:0105FA0016EA
:0105FB0013EC
:0105FC0011ED
:0105FD000EEF
:0105FE000CF0
:0105FF0009F2
:0106000007F2
:0106010004F4
:0106020002F5
:010603001FD7
:010604001DD8
:010605001BD9
:0106060018DB
:0106070016DC
:0106080013DE
:0106090011DF
:01060A000EE1
:01060B000CE2
:01060C0009E4
:01060D0007E5
:01060E0004E7
:01060F0002E8
:010610001FCA
:010611001DCB
:010612001ACD
:0106130018CE
:0106140015D0
:0106150013D1
:0106160010D3
:010617000ED4
:010618000CD5
:0106190009D7
:01061A0007D8
:01061B0004DA
:01061C0002DB
:01061D001FBD
:01061E001DBE
:01061F001AC0
:0106200018C1
:0106210015C3
:0106220013C4
:0106230010C6
:010624000EC7
:010625000CC8
:0106260009CA
:0106270007CB
:0106280004CD
:0106290002CE
:01062A001FB0
:01062B001DB1
:01062C001AB3
:01062D0018B4
:01062E0015B6
:01062F0013B7
:0106300011B8
:010631000EBA
:010632000CBB
:0106330009BD
:0106340007BE
:0106350004C0
:0106360002C1
:010637001FA3
:010638001DA4
:010639001BA5
:01063A0018A7
:01063B0016A8
:01063C0013AA
:01063D0011AB
:01063E000EAD
:01063F000CAE
:0106400009B0
:0106410007B1
:0106420005B2
:0106430002B4
:0106440000B5
:010645001D97
:010646001B98
:01064700189A
:01064800169B
:01064900149C
:01064A00119E
:01064B000F9F
:01064C000CA1
:01064D000AA2
:01064E0007A4
:01064F0005A5
:0106500003A6
:0106510000A8
:010652001E89
:010653001B8B
:01065400198C
:01065500168E
:01065600148F
:010657001290
:010658000F92
:010659000D93
:01065A000A95
:01065B000896
:01065C000598
:01065D000399
:01065E00019A
:01065F001E7C
:010660001C7D
:01066100197F
:010662001780
:010663001581
:010664001283
:010665001084
:010666000D86
:010667000B87
:010668000889
:01066900068A
:01066A00048B
:01066B00018D
:01066C001F6E
:01066D001C70
:01066E001A71
:01066F001872
:010670001574
:010671001375
:010672001077
:010673000E78
:010674000C79
:01067500097B
:01067600077C
:01067700047E
:01067800027F
:010679000080
:01067A001D62
:01067B001B63
:01067C001865
:01067D001666
:01067E001467
:01067F001169
:010680000F6A
:010681000C6C
:010682000A6D
:01068300086E
:010684000570
:010685000371
:010686000073
:010687001E54
:010688001C55
:010689001957
:01068A001758
:01068B00145A
:01068C00125B
:01068D00105C
:01068E000D5E
:01068F000B5F
:010690000861
:010691000662
:010692000463
:010693000165
:010694001F46
:010695001C48
:010696001A49
:01069700184A
:01069800154C
:01069900134D
:01069A00114E
:01069B000E50
:01069C000C51
:01069D000953
:01069E000754
:01069F000555
:0106A0000257
:0106A1000058
:0106A2001E39
:0106A3001B3B
:0106A400193C
:0106A500163E
:0106A600143F
:0106A7001240
:0106A8000F42
:0106A9000D43
:0106AA000B44
:0106AB000846
:0106AC000647
:0106AD000349
:0106AE00014A
:0106AF001F2B
:0106B0001C2D
:0106B1001A2E
:0106B200182F
:0106B3001531
:0106B4001332
:0106B5001034
:0106B6000E35
:0106B7000C36
:0106B8000938
:0106B9000739
:0106BA00053A
:0106BB00023C
:0106BC00003D
:0106BD001E1E
:0106BE001B20
:0106BF001921
:0106C0001623
:0106C1001424
:0106C2001225
:0106C3000F27
:0106C4000D28
:0106C5000B29
:0106C600082B
:0106C700062C
:0106C800042D
:0106C900012F
:0106CA001F10
:0106CB001D11
:0106CC001A13
:0106CD001814
:0106CE001615
:0106CF001317
:0106D0001118
:0106D1000E1A
:0106D2000C1B
:0106D3000A1C
:0106D400071E
:0106D500051F
:0106D6000320
:0106D7000022
:0106D8001E03
:0106D9001C04
:0106DA001906
:0106DB001707
:0106DC001508
:0106DD00120A
:0106DE00100B
:0106DF000E0C
:0106E0000B0E
:0106E100090F
:0106E2000710
:0106E3000412
:0106E4000213
:0106E5000014
:0106E6001DF6
:0106E7001BF7
:0106E80019F8
:0106E90016FA
:0106EA0014FB
:0106EB0012FC
:0106EC000FFE
:0106ED000DFF
:0106EE000B00
:0106EF000802
:0106F0000603
:0106F1000404
:0106F2000106
:0106F3001FE7
:0106F4001DE8
:0106F5001AEA
:0106F60018EB
:0106F70016EC
:0106F80013EE
:0106F90011EF
:0106FA000FF0
:0106FB000CF2
:0106FC000AF3
:0106FD0008F4
:0106FE0005F6
:0106FF0003F7
:0107000001F7
:010701001ED9
:010702001CDA
:010703001ADB
:0107040017DD
:0107050015DE
:0107060013DF
:0107070011E0
:010708000EE2
:010709000CE3
:01070A000AE4
:01070B0007E6
:01070C0005E7
:01070D0003E8
:01070E0000EA
:01070F001ECB
:010710001CCC
:0107110019CE
:0107120017CF
:0107130015D0
:0107140012D2
:0107150010D3
:010716000ED4
:010717000CD5
:0107180009D7
:0107190007D8
:01071A0005D9
:01071B0002DB
:01071C0000DC
:01071D001EBD
:01071E001BBF
:01071F0019C0
:0107200017C1
:0107210014C3
:0107220012C4
:0107230010C5
:010724000EC6
:010725000BC8
:0107260009C9
:0107270007CA
:0107280004CC
:0107290002CD
:01072A0000CE
:01072B001EAF
:01072C001BB1
:01072D0019B2
:01072E0017B3
:01072F0014B5
:0107300012B6
:0107310010B7
:010732000DB9
:010733000BBA
:0107340009BB
:0107350007BC
:0107360004BE
:0107370002BF
:0107380000C0
:010739001DA2
:01073A001BA3
:01073B0019A4
:01073C0017A5
:01073D0014A7
:01073E0012A8
:01073F0010A9
:010740000DAB
:010741000BAC
:0107420009AD
:0107430007AE
:0107440004B0
:0107450002B1
:0107460000B2
:010747001D94
:010748001B95
:010749001996
:01074A001797
:01074B001499
:01074C00129A
:01074D00109B
:01074E000E9C
:01074F000B9E
:01075000099F
:0107510007A0
:0107520004A2
:0107530002A3
:0107540000A4
:010755001E85
:010756001B87
:010757001988
:010758001789
:01075900158A
:01075A00128C
:01075B00108D
:01075C000E8E
:01075D000B90
:01075E000991
:01075F000792
:010760000593
:010761000295
:010762000096
:010763001E77
:010764001C78
:01076500197A
:01076600177B
:01076700157C
:01076800137D
:01076900107F
:01076A000E80
:01076B000C81
:01076C000A82
:01076D000784
:01076E000585
:01076F000386
:010770000088
:010771001E69
:010772001C6A
:010773001A6B
:01077400176D
:01077500156E
:01077600136F
:010777001170
:010778000E72
:010779000C73
:01077A000A74
:01077B000875
:01077C000577
:01077D000378
:01077E000179
:01077F001F5A
:010780001C5C
:010781001A5D
:01078200185E
:01078300165F
:010784001361
:010785001162
:010786000F63
:010787000D64
:010788000B65
:010789000867
:01078A000668
:01078B000469
:01078C00026A
:01078D001F4C
:01078E001D4D
:01078F001B4E
:01079000194F
:010791001651
:010792001452
:010793001253
:010794001054
:010795000D56
:010796000B57
:010797000958
:010798000759
:01079900045B
:01079A00025C
:01079B00005D
:01079C001E3E
:01079D001C3F
:01079E001941
:01079F001742
:0107A0001543
:0107A1001344
:0107A2001046
:0107A3000E47
:0107A4000C48
:0107A5000A49
:0107A600074B
:0107A700054C
:0107A800034D
:0107A900014E
:0107AA001F2F
:0107AB001C31
:0107AC001A32
:0107AD001833
:0107AE001634
:0107AF001336
:0107B0001137
:0107B1000F38
:0107B2000D39
:0107B3000B3A
:0107B400083C
:0107B500063D
:0107B600043E
:0107B700023F
:0107B8000040
:0107B9001D22
:0107BA001B23
:0107BB001924
:0107BC001725
:0107BD001427
:0107BE001228
:0107BF001029
:0107C0000E2A
:0107C1000C2B
:0107C200092D
:0107C300072E
:0107C400052F
:0107C5000330
:0107C6000131
:0107C7001E13
:0107C8001C14
:0107C9001A15
:0107CA001816
:0107CB001617
:0107CC001319
:0107CD00111A
:0107CE000F1B
:0107CF000D1C
:0107D0000A1E
:0107D100081F
:0107D2000620
:0107D3000421
:0107D4000222
:0107D5001F04
:0107D6001D05
:0107D7001B06
:0107D8001907
:0107D9001708
:0107DA00140A
:0107DB00120B
:0107DC00100C
:0107DD000E0D
:0107DE000C0E
:0107DF000A0F
:0107E0000711
:0107E1000512
:0107E2000313
:0107E3000114
:0107E4001FF5
:0107E5001CF7
:0107E6001AF8
:0107E70018F9
:0107E80016FA
:0107E90014FB
:0107EA0011FD
:0107EB000FFE
:0107EC000DFF
:0107ED000B00
:0107EE000901
:0107EF000603
:0107F0000404
:0107F1000205
:0107F2000006
:0107F3001EE7
:0107F4001CE8
:0107F50019EA
:0107F60017EB
:0107F70015EC
:0107F80013ED
:0107F90011EE
:0107FA000EF0
:0107FB000CF1
:0107FC000AF2
:0107FD0008F3
:0107FE0006F4
:0107FF0004F5
:0108000001F6
:010801001FD7
:010802001DD8
:010803001BD9
:0108040019DA
:0108050016DC
:0108060014DD
:0108070012DE
:0108080010DF
:010809000EE0
:01080A000CE1
:01080B0009E3
:01080C0007E4
:01080D0005E5
:01080E0003E6
:01080F0001E7
:010810001FC8
:010811001CCA
:010812001ACB
:0108130018CC
:0108140016CD
:0108150014CE
:0108160012CF
:010817000FD1
:010818000DD2
:010819000BD3
:01081A0009D4
:01081B0007D5
:01081C0005D6
:01081D0002D8
:01081E0000D9
:01081F001EBA
:010820001CBB
:010821001ABC
:0108220018BD
:0108230015BF
:0108240013C0
:0108250011C1
:010826000FC2
:010827000DC3
:010828000BC4
:0108290009C5
:01082A0006C7
:01082B0004C8
:01082C0002C9
:01082D0000CA
:01082E001EAB
:01082F001CAC
:0108300019AE
:0108310017AF
:0108320015B0
:0108330013B1
:0108340011B2
:010835000FB3
:010836000DB4
:010837000AB6
:0108380008B7
:0108390006B8
:01083A0004B9
:01083B0002BA
:01083C0000BB
:01083D001E9C
:01083E001B9E
:01083F00199F
:0108400017A0
:0108410015A1
:0108420013A2
:0108430011A3
:010844000FA4
:010845000CA6
:010846000AA7
:0108470008A8
:0108480006A9
:0108490004AA
:01084A0002AB
:01084B0000AC
:01084C001D8E
:01084D001B8F
:01084E001990
:01084F001791
:010850001592
:010851001393
:010852001194
:010853000E96
:010854000C97
:010855000A98
:010856000899
:01085700069A
:01085800049B
:01085900029C
:01085A00009D
:01085B001D7F
:01085C001B80
:01085D001981
:01085E001782
:01085F001583
:010860001384
:010861001185
:010862000F86
:010863000C88
:010864000A89
:01086500088A
:01086600068B
:01086700048C
:01086800028D
:01086900008E
:01086A001E6F
:01086B001B71
:01086C001972
:01086D001773
:01086E001574
:01086F001375
:010870001176
:010871000F77
:010872000D78
:010873000A7A
:01087400087B
:01087500067C
:01087600047D
:01087700027E
:01087800007F
:010879001E60
:01087A001C61
:01087B001A62
:01087C001764
:01087D001565
:01087E001366
:01087F001167
:010880000F68
:010881000D69
:010882000B6A
:01088300096B
:01088400076C
:01088500046E
:01088600026F
:010887000070
:010888001E51
:010889001C52
:01088A001A53
:01088B001854
:01088C001655
:01088D001456
:01088E001158
:01088F000F59
:010890000D5A
:010891000B5B
:01089200095C
:01089300075D
:01089400055E
:01089500035F
:010896000160
:010897001F41
:010898001C43
:010899001A44
:01089A001845
:01089B001646
:01089C001447
:01089D001248
:01089E001049
:01089F000E4A
:0108A0000C4B
:0108A1000A4C
:0108A200084D
:0108A300054F
:0108A4000350
:0108A5000151
:0108A6001F32
:0108A7001D33
:0108A8001B34
:0108A9001935
:0108AA001736
:0108AB001537
:0108AC001338
:0108AD001139
:0108AE000E3B
:0108AF000C3C
:0108B0000A3D
:0108B100083E
:0108B200063F
:0108B3000440
:0108B4000241
:0108B5000042
:0108B6001E23
:0108B7001C24
:0108B8001A25
:0108B9001727
:0108BA001528
:0108BB001329
:0108BC00112A
:0108BD000F2B
:0108BE000D2C
:0108BF000B2D
:0108C000092E
:0108C100072F
:0108C2000530
:0108C3000331
:0108C4000132
:0108C5001F13
:0108C6001C15
:0108C7001A16
:0108C8001817
:0108C9001618
:0108CA001419
:0108CB00121A
:0108CC00101B
:0108CD000E1C
:0108CE000C1D
:0108CF000A1E
:0108D000081F
:0108D1000620
:0108D2000421
:0108D3000222
:0108D4001F04
:0108D5001D05
:0108D6001B06
:0108D7001907
:0108D8001708
:0108D9001509
:0108DA00130A
:0108DB00110B
:0108DC000F0C
:0108DD000D0D
:0108DE000B0E
:0108DF00090F
:0108E0000710
:0108E1000511
:0108E2000312
:0108E3000014
:0108E4001EF5
:0108E5001CF6
:0108E6001AF7
:0108E70018F8
:0108E80016F9
:0108E90014FA
:0108EA0012FB
:0108EB0010FC
:0108EC000EFD
:0108ED000CFE
:0108EE000AFF
:0108EF000800
:0108F0000601
:0108F1000402
:0108F2000203
:0108F3000004
:0108F4001DE6
:0108F5001BE7
:0108F60019E8
:0108F70017E9
:0108F80015EA
:0108F90013EB
:0108FA0011EC
:0108FB000FED
:0108FC000DEE
:0108FD000BEF
:0108FE0009F0
:0108FF0007F1
:0109000005F1
:0109010003F2
:0109020001F3
:010903001FD4
:010904001DD5
:010905001BD6
:0109060019D7
:0109070017D8
:0109080015D9
:0109090012DB
:01090A0010DC
:01090B000EDD
:01090C000CDE
:01090D000ADF
:01090E0008E0
:01090F0006E1
:0109100004E2
:0109110002E3
:0109120000E4
:010913001EC5
:010914001CC6
:010915001AC7
:0109160018C8
:0109170016C9
:0109180014CA
:0109190012CB
:01091A0010CC
:01091B000ECD
:01091C000CCE
:01091D000ACF
:01091E0008D0
:01091F0006D1
:0109200004D2
:0109210002D3
:0109220000D4
:010923001DB6
:010924001BB7
:0109250019B8
:0109260017B9
:0109270015BA
:0109280013BB
:0109290011BC
:01092A000FBD
:01092B000DBE
:01092C000BBF
:01092D0009C0
:01092E0007C1
:01092F0005C2
:0109300003C3
:0109310001C4
:010932001FA5
:010933001DA6
:010934001BA7
:0109350019A8
:0109360017A9
:0109370015AA
:0109380013AB
:0109390011AC
:01093A000FAD
:01093B000DAE
:01093C000BAF
:01093D0009B0
:01093E0007B1
:01093F0005B2
:0109400003B3
:0109410001B4
:010942001F95
:010943001D96
:010944001B97
:010945001998
:010946001799
:01094700159A
:01094800139B
:01094900119C
:01094A000F9D
:01094B000D9E
:01094C000B9F
:01094D0009A0
:01094E0007A1
:01094F0005A2
:0109500003A3
:0109510001A4
:010952001F85
:010953001D86
:010954001B87
:010955001988
:010956001789
:01095700158A
:01095800138B
:01095900118C
:01095A000E8E
:01095B000C8F
:01095C000A90
:01095D000891
:01095E000692
:01095F000493
:010960000294
:010961000095
:010962001E76
:010963001C77
:010964001A78
:010965001879
:01096600167A
:01096700147B
:01096800127C
:01096900107D
:01096A000E7E
:01096B000C7F
:01096C000A80
:01096D000881
:01096E000682
:01096F000483
:010970000284
:010971000085
:010972001F65
:010973001D66
:010974001B67
:010975001968
:010976001769
:01097700156A
:01097800136B
:01097900116C
:01097A000F6D
:01097B000D6E
:01097C000B6F
:01097D000970
:01097E000771
:01097F000572
:010980000373
:010981000174
:010982001F55
:010983001D56
:010984001B57
:010985001958
:010986001759
:01098700155A
:01098800135B
:01098900115C
:01098A000F5D
:01098B000D5E
:01098C000B5F
:01098D000960
:01098E000761
:01098F000562
:010990000363
:010991000164
:010992001F45
:010993001D46
:010994001B47
:010995001948
:010996001749
:01099700154A
:01099800134B
:01099900114C
:01099A000F4D
:01099B000D4E
:01099C000B4F
:01099D000950
:01099E000751
:01099F000552
:0109A0000353
:0109A1000154
:0109A2001F35
:0109A3001D36
:0109A4001B37
:0109A5001938
:0109A6001739
:0109A700153A
:0109A800133B
:0109A900123B
:0109AA00103C
:0109AB000E3D
:0109AC000C3E
:0109AD000A3F
:0109AE000840
:0109AF000641
:0109B0000442
:0109B1000243
:0109B2000044
:0109B3001E25
:0109B4001C26
:0109B5001A27
:0109B6001828
:0109B7001629
:0109B800142A
:0109B900122B
:0109BA00102C
:0109BB000E2D
:0109BC000C2E
:0109BD000A2F
:0109BE000830
:0109BF000631
:0109C0000432
:0109C1000233
:0109C2000034
:0109C3001E15
:0109C4001D15
:0109C5001B16
:0109C6001917
:0109C7001718
:0109C8001519
:0109C900131A
:0109CA00111B
:0109CB000F1C
:0109CC000D1D
:0109CD000B1E
:0109CE00091F
:0109CF000720
:0109D0000521
:0109D1000322
:0109D2000123
:0109D3001F04
:0109D4001D05
:0109D5001B06
:0109D6001907
:0109D7001708
:0109D8001509
:0109D9001409
:0109DA00120A
:0109DB00100B
:0109DC000E0C
:0109DD000C0D
:0109DE000A0E
:0109DF00080F
:0109E0000610
:0109E1000411
:0109E2000212
:0109E3000013
:0109E4001EF4
:0109E5001CF5
:0109E6001AF6
:0109E70018F7
:0109E80016F8
:0109E90014F9
:0109EA0012FA
:0109EB0011FA
:0109EC000FFB
:0109ED000DFC
:0109EE000BFD
:0109EF0009FE
:0109F00007FF
:0109F1000500
:0109F2000301
:0109F3000102
:0109F4001FE3
:0109F5001DE4
:0109F6001BE5
:0109F70019E6
:0109F80017E7
:0109F90015E8
:0109FA0013E9
:0109FB0012E9
:0109FC0010EA
:0109FD000EEB
:0109FE000CEC
:0109FF000AED
:010A000008ED
:010A010006EE
:010A020004EF
:010A030002F0
:010A040000F1
:010A05001ED2
:010A06001CD3
:010A07001AD4
:010A080018D5
:010A090017D5
:010A0A0015D6
:010A0B0013D7
:010A0C0011D8
:010A0D000FD9
:010A0E000DDA
:010A0F000BDB
:010A100009DC
:010A110007DD
:010A120005DE
:010A130003DF
:010A140001E0
:010A15001FC1
:010A16001DC2
:010A17001CC2
:010A18001AC3
:010A190018C4
:010A1A0016C5
:010A1B0014C6
:010A1C0012C7
:010A1D0010C8
:010A1E000EC9
:010A1F000CCA
:010A20000ACB
:010A210008CC
:010A220006CD
:010A230005CD
:010A240003CE
:010A250001CF
:010A26001FB0
:010A27001DB1
:010A28001BB2
:010A290019B3
:010A2A0017B4
:010A2B0015B5
:010A2C0013B6
:010A2D0011B7
:010A2E0010B7
:010A2F000EB8
:010A30000CB9
:010A31000ABA
:010A320008BB
:010A330006BC
:010A340004BD
:010A350002BE
:010A360000BF
:010A37001EA0
:010A38001CA1
:010A39001BA1
:010A3A0019A2
:010A3B0017A3
:010A3C0015A4
:010A3D0013A5
:010A3E0011A6
:010A3F000FA7
:010A40000DA8
:010A41000BA9
:010A420009AA
:010A430007AB
:010A440006AB
:010A450004AC
:010A460002AD
:010A470000AE
:010A48001E8F
:010A49001C90
:010A4A001A91
:010A4B001892
:010A4C001693
:010A4D001494
:010A4E001394
:010A4F001195
:010A50000F96
:010A51000D97
:010A52000B98
:010A53000999
:010A5400079A
:010A5500059B
:010A5600039C
:010A5700029C
:010A5800009D
:010A59001E7E
:010A5A001C7F
:010A5B001A80
:010A5C001881
:010A5D001682
:010A5E001483
:010A5F001284
:010A60001085
:010A61000F85
:010A62000D86
:010A63000B87
:010A64000988
:010A65000789
:010A6600058A
:010A6700038B
:010A6800018C
:010A6900008C
:010A6A001E6D
:010A6B001C6E
:010A6C001A6F
:010A6D001870
:010A6E001671
:010A6F001472
:010A70001273
:010A71001074
:010A72000F74
:010A73000D75
:010A74000B76
:010A75000977
:010A76000778
:010A77000579
:010A7800037A
:010A7900017B
:010A7A00007B
:010A7B001E5C
:010A7C001C5D
:010A7D001A5E
:010A7E00185F
:010A7F001660
:010A80001461
:010A81001262
:010A82001063
:010A83000F63
:010A84000D64
:010A85000B65
:010A86000966
:010A87000767
:010A88000568
:010A89000369
:010A8A00016A
:010A8B00006A
:010A8C001E4B
:010A8D001C4C
:010A8E001A4D
:010A8F00184E
:010A9000164F
:010A91001450
:010A92001350
:010A93001151
:010A94000F52
:010A95000D53
:010A96000B54
:010A97000955
:010A98000756
:010A99000557
:010A9A000457
:010A9B000258
:010A9C000059
:010A9D001E3A
:010A9E001C3B
:010A9F001A3C
:010AA000183D
:010AA100173D
:010AA200153E
:010AA300133F
:010AA4001140
:010AA5000F41
:010AA6000D42
:010AA7000B43
:010AA8000A43
:010AA9000844
:010AAA000645
:010AAB000446
:010AAC000247
:010AAD000048
:010AAE001E29
:010AAF001D29
:010AB0001B2A
:010AB100192B
:010AB200172C
:010AB300152D
:010AB400132E
:010AB500112F
:010AB600102F
:010AB7000E30
:010AB8000C31
:010AB9000A32
:010ABA000833
:010ABB000634
:010ABC000435
:010ABD000335
:010ABE000136
:010ABF001F17
:010AC0001D18
:010AC1001B19
:010AC200191A
:010AC300171B
:010AC400161B
:010AC500141C
:010AC600121D
:010AC700101E
:010AC8000E1F
:010AC9000C20
:010ACA000B20
:010ACB000921
:010ACC000722
:010ACD000523
:010ACE000324
:010ACF000125
:010AD0001F06
:010AD1001E06
:010AD2001C07
:010AD3001A08
:010AD4001809
:010AD500160A
:010AD600140B
:010AD700130B
:010AD800110C
:010AD9000F0D
:010ADA000D0E
:010ADB000B0F
:010ADC000910
:010ADD000810
:010ADE000611
:010ADF000412
:010AE0000213
:010AE1000014
:010AE2001EF5
:010AE3001CF6
:010AE4001BF6
:010AE50019F7
:010AE60017F8
:010AE70015F9
:010AE80013FA
:010AE90011FB
:010AEA0010FB
:010AEB000EFC
:010AEC000CFD
:010AED000AFE
:010AEE0008FF
:010AEF000600
:010AF0000500
:010AF1000301
:010AF2000102
:010AF3001FE3
:010AF4001DE4
:010AF5001BE5
:010AF6001AE5
:010AF70018E6
:010AF80016E7
:010AF90014E8
:010AFA0012E9
:010AFB0011E9
:010AFC000FEA
:010AFD000DEB
:010AFE000BEC
:010AFF0009ED
:010B000007ED
:010B010006ED
:010B020004EE
:010B030002EF
:010B040000F0
:010B05001ED1
:010B06001CD2
:010B07001BD2
:010B080019D3
:010B090017D4
:010B0A0015D5
:010B0B0013D6
:010B0C0012D6
:010B0D0010D7
:010B0E000ED8
:010B0F000CD9
:010B10000ADA
:010B110008DB
:010B120007DB
:010B130005DC
:010B140003DD
:010B150001DE
:010B16001FBF
:010B17001EBF
:010B18001CC0
:010B19001AC1
:010B1A0018C2
:010B1B0016C3
:010B1C0014C4
:010B1D0013C4
:010B1E0011C5
:010B1F000FC6
:010B20000DC7
:010B21000BC8
:010B22000AC8
:010B230008C9
:010B240006CA
:010B250004CB
:010B260002CC
:010B270001CC
:010B28001FAD
:010B29001DAE
:010B2A001BAF
:010B2B0019B0
:010B2C0018B0
:010B2D0016B1
:010B2E0014B2
:010B2F0012B3
:010B300010B4
:010B31000EB5
:010B32000DB5
:010B33000BB6
:010B340009B7
:010B350007B8
:010B360005B9
:010B370004B9
:010B380002BA
:010B390000BB
:010B3A001E9C
:010B3B001C9D
:010B3C001B9D
:010B3D00199E
:010B3E00179F
:010B3F0015A0
:010B400013A1
:010B410012A1
:010B420010A2
:010B43000EA3
:010B44000CA4
:010B45000AA5
:010B460009A5
:010B470007A6
:010B480005A7
:010B490003A8
:010B4A0001A9
:010B4B0000A9
:010B4C001E8A
:010B4D001C8B
:010B4E001A8C
:010B4F00188D
:010B5000178D
:010B5100158E
:010B5200138F
:010B53001190
:010B54001090
:010B55000E91
:010B56000C92
:010B57000A93
:010B58000894
:010B59000794
:010B5A000595
:010B5B000396
:010B5C000197
:010B5D001F78
:010B5E001E78
:010B5F001C79
:010B60001A7A
:010B6100187B
:010B6200167C
:010B6300157C
:010B6400137D
:010B6500117E
:010B66000F7F
:010B67000E7F
:010B68000C80
:010B69000A81
:010B6A000882
:010B6B000683
:010B6C000583
:010B6D000384
:010B6E000185
:010B6F001F66
:010B70001E66
:010B71001C67
:010B72001A68
:010B73001869
:010B7400166A
:010B7500156A
:010B7600136B
:010B7700116C
:010B78000F6D
:010B79000D6E
:010B7A000C6E
:010B7B000A6F
:010B7C000870
:010B7D000671
:010B7E000571
:010B7F000372
:010B80000173
:010B81001F54
:010B82001E54
:010B83001C55
:010B84001A56
:010B85001857
:010B86001658
:010B87001558
:010B88001359
:010B8900115A
:010B8A000F5B
:010B8B000E5B
:010B8C000C5C
:010B8D000A5D
:010B8E00085E
:010B8F00065F
:010B9000055F
:010B91000360
:010B92000161
:010B93001F42
:010B94001E42
:010B95001C43
:010B96001A44
:010B97001845
:010B98001745
:010B99001546
:010B9A001347
:010B9B001148
:010B9C001048
:010B9D000E49
:010B9E000C4A
:010B9F000A4B
:010BA000084C
:010BA100074C
:010BA200054D
:010BA300034E
:010BA400014F
:010BA500004F
:010BA6001E30
:010BA7001C31
:010BA8001A32
:010BA9001932
:010BAA001733
:010BAB001534
:010BAC001335
:010BAD001235
:010BAE001036
:010BAF000E37
:010BB0000C38
:010BB1000B38
:010BB2000939
:010BB300073A
:010BB400053B
:010BB500043B
:010BB600023C
:010BB700003D
:010BB8001E1E
:010BB9001C1F
:010BBA001B1F
:010BBB001920
:010BBC001721
:010BBD001522
:010BBE001422
:010BBF001223
:010BC0001024
:010BC1000E25
:010BC2000D25
:010BC3000B26
:010BC4000927
:010BC5000728
:010BC6000628
:010BC7000429
:010BC800022A
:010BC900002B
:010BCA001F0B
:010BCB001D0C
:010BCC001B0D
:010BCD00190E
:010BCE00180E
:010BCF00160F
:010BD0001410
:010BD1001310
:010BD2001111
:010BD3000F12
:010BD4000D13
:010BD5000C13
:010BD6000A14
:010BD7000815
:010BD8000616
:010BD9000516
:010BDA000317
:010BDB000118
:010BDC001FF9
:010BDD001EF9
:010BDE001CFA
:010BDF001AFB
:010BE00018FC
:010BE10017FC
:010BE20015FD
:010BE30013FE
:010BE40011FF
:010BE50010FF
:010BE6000E00
:010BE7000C01
:010BE8000A02
:010BE9000902
:010BEA000703
:010BEB000504
:010BEC000404
:010BED000205
:010BEE000006
:010BEF001EE7
:010BF0001DE7
:010BF1001BE8
:010BF20019E9
:010BF30017EA
:010BF40016EA
:010BF50014EB
:010BF60012EC
:010BF70010ED
:010BF8000FED
:010BF9000DEE
:010BFA000BEF
:010BFB000AEF
:010BFC0008F0
:010BFD0006F1
:010BFE0004F2
:010BFF0003F2
:010C000001F2
:010C01001FD3
:010C02001DD4
:010C03001CD4
:010C04001AD5
:010C050018D6
:010C060017D6
:010C070015D7
:010C080013D8
:010C090011D9
:010C0A0010D9
:010C0B000EDA
:010C0C000CDB
:010C0D000ADC
:010C0E0009DC
:010C0F0007DD
:010C100005DE
:010C110004DE
:010C120002DF
:010C130000E0
:010C14001EC1
:010C15001DC1
:010C16001BC2
:010C170019C3
:010C180018C3
:010C190016C4
:010C1A0014C5
:010C1B0012C6
:010C1C0011C6
:010C1D000FC7
:010C1E000DC8
:010C1F000CC8
:010C20000AC9
:010C210008CA
:010C220006CB
:010C230005CB
:010C240003CC
:010C250001CD
:010C260000CD
:010C27001EAE
:010C28001CAF
:010C29001AB0
:010C2A0019B0
:010C2B0017B1
:010C2C0015B2
:010C2D0014B2
:010C2E0012B3
:010C2F0010B4
:010C30000EB5
:010C31000DB5
:010C32000BB6
:010C330009B7
:010C340008B7
:010C350006B8
:010C360004B9
:010C370002BA
:010C380001BA
:010C39001F9B
:010C3A001D9C
:010C3B001C9C
:010C3C001A9D
:010C3D00189E
:010C3E00169F
:010C3F00159F
:010C400013A0
:010C410011A1
:010C420010A1
:010C43000EA2
:010C44000CA3
:010C45000BA3
:010C460009A4
:010C470007A5
:010C480005A6
:010C490004A6
:010C4A0002A7
:010C4B0000A8
:010C4C001F88
:010C4D001D89
:010C4E001B8A
:010C4F001A8A
:010C5000188B
:010C5100168C
:010C5200148D
:010C5300138D
:010C5400118E
:010C55000F8F
:010C56000E8F
:010C57000C90
:010C58000A91
:010C59000991
:010C5A000792
:010C5B000593
:010C5C000394
:010C5D000294
:010C5E000095
:010C5F001E76
:010C60001D76
:010C61001B77
:010C62001978
:010C63001878
:010C64001679
:010C6500147A
:010C6600137A
:010C6700117B
:010C68000F7C
:010C69000D7D
:010C6A000C7D
:010C6B000A7E
:010C6C00087F
:010C6D00077F
:010C6E000580
:010C6F000381
:010C70000281
:010C71000082
:010C72001E63
:010C73001D63
:010C74001B64
:010C75001965
:010C76001865
:010C77001666
:010C78001467
:010C79001268
:010C7A001168
:010C7B000F69
:010C7C000D6A
:010C7D000C6A
:010C7E000A6B
:010C7F00086C
:010C8000076C
:010C8100056D
:010C8200036E
:010C8300026E
:010C8400006F
:010C85001E50
:010C86001D50
:010C87001B51
:010C88001952
:010C89001852
:010C8A001653
:010C8B001454
:010C8C001354
:010C8D001155
:010C8E000F56
:010C8F000D57
:010C90000C57
:010C91000A58
:010C92000859
:010C93000759
:010C9400055A
:010C9500035B
:010C9600025B
:010C9700005C
:010C98001E3D
:010C99001D3D
:010C9A001B3E
:010C9B00193F
:010C9C00183F
:010C9D001640
:010C9E001441
:010C9F001341
:010CA0001142
:010CA1000F43
:010CA2000E43
:010CA3000C44
:010CA4000A45
:010CA5000945
:010CA6000746
:010CA7000547
:010CA8000447
:010CA9000248
:010CAA000049
:010CAB001F29
:010CAC001D2A
:010CAD001B2B
:010CAE001A2B
:010CAF00182C
:010CB000162D
:010CB100152D
:010CB200132E
:010CB300112F
:010CB400102F
:010CB5000E30
:010CB6000C31
:010CB7000B31
:010CB8000932
:010CB9000733
:010CBA000633
:010CBB000434
:010CBC000235
:010CBD000135
:010CBE001F16
:010CBF001D17
:010CC0001C17
:010CC1001A18
:010CC2001819
:010CC3001719
:010CC400151A
:010CC500131B
:010CC600121B
:010CC700101C
:010CC8000E1D
:010CC9000D1D
:010CCA000B1E
:010CCB00091F
:010CCC00081F
:010CCD000620
:010CCE000520
:010CCF000321
:010CD0000122
:010CD1000022
:010CD2001E03
:010CD3001C04
:010CD4001B04
:010CD5001905
:010CD6001706
:010CD7001606
:010CD8001407
:010CD9001208
:010CDA001108
:010CDB000F09
:010CDC000D0A
:010CDD000C0A
:010CDE000A0B
:010CDF00080C
:010CE000070C
:010CE100050D
:010CE200030E
:010CE300020E
:010CE400000F
:010CE5001FEF
:010CE6001DF0
:010CE7001BF1
:010CE8001AF1
:010CE90018F2
:010CEA0016F3
:010CEB0015F3
:010CEC0013F4
:010CED0011F5
:010CEE0010F5
:010CEF000EF6
:010CF0000CF7
:010CF1000BF7
:010CF20009F8
:010CF30007F9
:010CF40006F9
:010CF50004FA
:010CF60003FA
:010CF70001FB
:010CF8001FDC
:010CF9001EDC
:010CFA001CDD
:010CFB001ADE
:010CFC0019DE
:010CFD0017DF
:010CFE0015E0
:010CFF0014E0
:010D000012E0
:010D010011E0
:010D02000FE1
:010D03000DE2
:010D04000CE2
:010D05000AE3
:010D060008E4
:010D070007E4
:010D080005E5
:010D090003E6
:010D0A0002E6
:010D0B0000E7
:010D0C001EC8
:010D0D001DC8
:010D0E001BC9
:010D0F001AC9
:010D100018CA
:010D110016CB
:010D120015CB
:010D130013CC
:010D140011CD
:010D150010CD
:010D16000ECE
:010D17000DCE
:010D18000BCF
:010D190009D0
:010D1A0008D0
:010D1B0006D1
:010D1C0004D2
:010D1D0003D2
:010D1E0001D3
:010D1F001FB4
:010D20001EB4
:010D21001CB5
:010D22001BB5
:010D230019B6
:010D240017B7
:010D250016B7
:010D260014B8
:010D270012B9
:010D280011B9
:010D29000FBA
:010D2A000EBA
:010D2B000CBB
:010D2C000ABC
:010D2D0009BC
:010D2E0007BD
:010D2F0005BE
:010D300004BE
:010D310002BF
:010D320001BF
:010D33001FA0
:010D34001DA1
:010D35001CA1
:010D36001AA2
:010D370018A3
:010D380017A3
:010D390015A4
:010D3A0014A4
:010D3B0012A5
:010D3C0010A6
:010D3D000FA6
:010D3E000DA7
:010D3F000CA7
:010D40000AA8
:010D410008A9
:010D420007A9
:010D430005AA
:010D440003AB
:010D450002AB
:010D460000AC
:010D47001F8C
:010D48001D8D
:010D49001B8E
:010D4A001A8E
:010D4B00188F
:010D4C00178F
:010D4D001590
:010D4E001391
:010D4F001291
:010D50001092
:010D51000E93
:010D52000D93
:010D53000B94
:010D54000A94
:010D55000895
:010D56000696
:010D57000596
:010D58000397
:010D59000297
:010D5A000098
:010D5B001E79
:010D5C001D79
:010D5D001B7A
:010D5E001A7A
:010D5F00187B
:010D6000167C
:010D6100157C
:010D6200137D
:010D6300117E
:010D6400107E
:010D65000E7F
:010D66000D7F
:010D67000B80
:010D68000981
:010D69000881
:010D6A000682
:010D6B000582
:010D6C000383
:010D6D000184
:010D6E000084
:010D6F001E65
:010D70001D65
:010D71001B66
:010D72001967
:010D73001867
:010D74001668
:010D75001568
:010D76001369
:010D7700116A
:010D7800106A
:010D79000E6B
:010D7A000D6B
:010D7B000B6C
:010D7C00096D
:010D7D00086D
:010D7E00066E
:010D7F00056E
:010D8000036F
:010D81000170
:010D82000070
:010D83001E51
:010D84001D51
:010D85001B52
:010D86001953
:010D87001853
:010D88001654
:010D89001554
:010D8A001355
:010D8B001156
:010D8C001056
:010D8D000E57
:010D8E000D57
:010D8F000B58
:010D90000959
:010D91000859
:010D9200065A
:010D9300055A
:010D9400035B
:010D9500025B
:010D9600005C
:010D97001E3D
:010D98001D3D
:010D99001B3E
:010D9A001A3E
:010D9B00183F
:010D9C001640
:010D9D001540
:010D9E001341
:010D9F001241
:010DA0001042
:010DA1000E43
:010DA2000D43
:010DA3000B44
:010DA4000A44
:010DA5000845
:010DA6000745
:010DA7000546
:010DA8000347
:010DA9000247
:010DAA000048
:010DAB001F28
:010DAC001D29
:010DAD001B2A
:010DAE001A2A
:010DAF00182B
:010DB000172B
:010DB100152C
:010DB200142C
:010DB300122D
:010DB400102E
:010DB5000F2E
:010DB6000D2F
:010DB7000C2F
:010DB8000A30
:010DB9000831
:010DBA000731
:010DBB000532
:010DBC000432
:010DBD000233
:010DBE000133
:010DBF001F14
:010DC0001D15
:010DC1001C15
:010DC2001A16
:010DC3001916
:010DC4001717
:010DC5001617
:010DC6001418
:010DC7001219
:010DC8001119
:010DC9000F1A
:010DCA000E1A
:010DCB000C1B
:010DCC000B1B
:010DCD00091C
:010DCE00071D
:010DCF00061D
:010DD000041E
:010DD100031E
:010DD200011F
:010DD3001F00
:010DD4001E00
:010DD5001C01
:010DD6001B01
:010DD7001902
:010DD8001802
:010DD9001603
:010DDA001503
:010DDB001304
:010DDC001105
:010DDD001005
:010DDE000E06
:010DDF000D06
:010DE0000B07
:010DE1000A07
:010DE2000808
:010DE3000609
:010DE4000509
:010DE500030A
:010DE600020A
:010DE700000B
:010DE8001FEB
:010DE9001DEC
:010DEA001BED
:010DEB001AED
:010DEC0018EE
:010DED0017EE
:010DEE0015EF
:010DEF0014EF
:010DF00012F0
:010DF10010F1
:010DF2000FF1
:010DF3000DF2
:010DF4000CF2
:010DF5000AF3
:010DF60009F3
:010DF70007F4
:010DF80006F4
:010DF90004F5
:010DFA0002F6
:010DFB0001F6
:010DFC001FD7
:010DFD001ED7
:010DFE001CD8
:010DFF001BD8
:010E000019D8
:010E010018D8
:010E020016D9
:010E030014DA
:010E040013DA
:010E050011DB
:010E060010DB
:010E07000EDC
:010E08000DDC
:010E09000BDD
:010E0A000ADD
:010E0B0008DE
:010E0C0006DF
:010E0D0005DF
:010E0E0003E0
:010E0F0002E0
:010E100000E1
:010E11001FC1
:010E12001DC2
:010E13001CC2
:010E14001AC3
:010E150018C4
:010E160017C4
:010E170015C5
:010E180014C5
:010E190012C6
:010E1A0011C6
:010E1B000FC7
:010E1C000EC7
:010E1D000CC8
:010E1E000AC9
:010E1F0009C9
:010E200007CA
:010E210006CA
:010E220004CB
:010E230003CB
:010E240001CC
:010E250000CC
:010E26001EAD
:010E27001DAD
:010E28001BAE
:010E290019AF
:010E2A0018AF
:010E2B0016B0
:010E2C0015B0
:010E2D0013B1
:010E2E0012B1
:010E2F0010B2
:010E30000FB2
:010E31000DB3
:010E32000CB3
:010E33000AB4
:010E340008B5
:010E350007B5
:010E360005B6
:010E370004B6
:010E380002B7
:010E390001B7
:010E3A001F98
:010E3B001E98
:010E3C001C99
:010E3D001B99
:010E3E00199A
:010E3F00189A
:010E4000169B
:010E4100149C
:010E4200139C
:010E4300119D
:010E4400109D
:010E45000E9E
:010E46000D9E
:010E47000B9F
:010E48000A9F
:010E490008A0
:010E4A0007A0
:010E4B0005A1
:010E4C0004A1
:010E4D0002A2
:010E4E0000A3
:010E4F001F83
:010E50001D84
:010E51001C84
:010E52001A85
:010E53001985
:010E54001786
:010E55001686
:010E56001487
:010E57001387
:010E58001188
:010E59001088
:010E5A000E89
:010E5B000D89
:010E5C000B8A
:010E5D000A8A
:010E5E00088B
:010E5F00068C
:010E6000058C
:010E6100038D
:010E6200028D
:010E6300008E
:010E64001F6E
:010E65001D6F
:010E66001C6F
:010E67001A70
:010E68001970
:010E69001771
:010E6A001671
:010E6B001472
:010E6C001372
:010E6D001173
:010E6E001073
:010E6F000E74
:010E70000C75
:010E71000B75
:010E72000976
:010E73000876
:010E74000677
:010E75000577
:010E76000378
:010E77000278
:010E78000079
:010E79001F59
:010E7A001D5A
:010E7B001C5A
:010E7C001A5B
:010E7D00195B
:010E7E00175C
:010E7F00165C
:010E8000145D
:010E8100135D
:010E8200115E
:010E8300105E
:010E84000E5F
:010E85000D5F
:010E86000B60
:010E87000A60
:010E88000861
:010E89000662
:010E8A000562
:010E8B000363
:010E8C000263
:010E8D000064
:010E8E001F44
:010E8F001D45
:010E90001C45
:010E91001A46
:010E92001946
:010E93001747
:010E94001647
:010E95001448
:010E96001348
:010E97001149
:010E98001049
:010E99000E4A
:010E9A000D4A
:010E9B000B4B
:010E9C000A4B
:010E9D00084C
:010E9E00074C
:010E9F00054D
:010EA000044D
:010EA100024E
:010EA200014E
:010EA3001F2F
:010EA4001E2F
:010EA5001C30
:010EA6001B30
:010EA7001931
:010EA8001831
:010EA9001632
:010EAA001532
:010EAB001333
:010EAC001233
:010EAD001034
:010EAE000F34
:010EAF000D35
:010EB0000C35
:010EB1000A36
:010EB2000936
:010EB3000737
:010EB4000637
:010EB5000438
:010EB6000338
:010EB7000139
:010EB8001F1A
:010EB9001E1A
:010EBA001C1B
:010EBB001B1B
:010EBC00191C
:010EBD00181C
:010EBE00161D
:010EBF00151D
:010EC000131E
:010EC100121E
:010EC200101F
:010EC3000F1F
:010EC4000D20
:010EC5000C20
:010EC6000A21
:010EC7000921
:010EC8000722
:010EC9000622
:010ECA000423
:010ECB000323
:010ECC000124
:010ECD000024
:010ECE001E05
:010ECF001D05
:010ED0001B06
:010ED1001A06
:010ED2001906
:010ED3001707
:010ED4001607
:010ED5001408
:010ED6001308
:010ED7001109
:010ED8001009
:010ED9000E0A
:010EDA000D0A
:010EDB000B0B
:010EDC000A0B
:010EDD00080C
:010EDE00070C
:010EDF00050D
:010EE000040D
:010EE100020E
:010EE200010E
:010EE3001FEF
:010EE4001EEF
:010EE5001CF0
:010EE6001BF0
:010EE70019F1
:010EE80018F1
:010EE90016F2
:010EEA0015F2
:010EEB0013F3
:010EEC0012F3
:010EED0010F4
:010EEE000FF4
:010EEF000DF5
:010EF0000CF5
:010EF1000AF6
:010EF20009F6
:010EF30007F7
:010EF40006F7
:010EF50004F8
:010EF60003F8
:010EF70001F9
:010EF80000F9
:010EF9001EDA
:010EFA001DDA
:010EFB001BDB
:010EFC001ADB
:010EFD0018DC
:010EFE0017DC
:010EFF0015DD
:010F000014DC
:010F010013DC
:010F020011DD
:010F030010DD
:010F04000EDE
:010F05000DDE
:010F06000BDF
:010F07000ADF
:010F080008E0
:010F090007E0
:010F0A0005E1
:010F0B0004E1
:010F0C0002E2
:010F0D0001E2
:010F0E001FC3
:010F0F001EC3
:010F10001CC4
:010F11001BC4
:010F120019C5
:010F130018C5
:010F140016C6
:010F150015C6
:010F160013C7
:010F170012C7
:010F180010C8
:010F19000FC8
:010F1A000EC8
:010F1B000CC9
:010F1C000BC9
:010F1D0009CA
:010F1E0008CA
:010F1F0006CB
:010F200005CB
:010F210003CC
:010F220002CC
:010F230000CD
:010F24001FAD
:010F25001DAE
:010F26001CAE
:010F27001AAF
:010F280019AF
:010F290017B0
:010F2A0016B0
:010F2B0014B1
:010F2C0013B1
:010F2D0012B1
:010F2E0010B2
:010F2F000FB2
:010F30000DB3
:010F31000CB3
:010F32000AB4
:010F330009B4
:010F340007B5
:010F350006B5
:010F360004B6
:010F370003B6
:010F380001B7
:010F390000B7
:010F3A001E98
:010F3B001D98
:010F3C001C98
:010F3D001A99
:010F3E001999
:010F3F00179A
:010F4000169A
:010F4100149B
:010F4200139B
:010F4300119C
:010F4400109C
:010F45000E9D
:010F46000D9D
:010F47000B9E
:010F48000A9E
:010F4900089F
:010F4A00079F
:010F4B00069F
:010F4C0004A0
:010F4D0003A0
:010F4E0001A1
:010F4F0000A1
:010F50001E82
:010F51001D82
:010F52001B83
:010F53001A83
:010F54001884
:010F55001784
:010F56001585
:010F57001485
:010F58001385
:010F59001186
:010F5A001086
:010F5B000E87
:010F5C000D87
:010F5D000B88
:010F5E000A88
:010F5F000889
:010F60000789
:010F6100058A
:010F6200048A
:010F6300038A
:010F6400018B
:010F6500008B
:010F66001E6C
:010F67001D6C
:010F68001B6D
:010F69001A6D
:010F6A00186E
:010F6B00176E
:010F6C00156F
:010F6D00146F
:010F6E00136F
:010F6F001170
:010F70001070
:010F71000E71
:010F72000D71
:010F73000B72
:010F74000A72
:010F75000873
:010F76000773
:010F77000574
:010F78000474
:010F79000374
:010F7A000175
:010F7B000075
:010F7C001E56
:010F7D001D56
:010F7E001B57
:010F7F001A57
:010F80001858
:010F81001758
:010F82001658
:010F83001459
:010F84001359
:010F8500115A
:010F8600105A
:010F87000E5B
:010F88000D5B
:010F89000B5C
:010F8A000A5C
:010F8B00095C
:010F8C00075D
:010F8D00065D
:010F8E00045E
:010F8F00035E
:010F9000015F
:010F9100005F
:010F92001E40
:010F93001D40
:010F94001C40
:010F95001A41
:010F96001941
:010F97001742
:010F98001642
:010F99001443
:010F9A001343
:010F9B001144
:010F9C001044
:010F9D000F44
:010F9E000D45
:010F9F000C45
:010FA0000A46
:010FA1000946
:010FA2000747
:010FA3000647
:010FA4000448
:010FA5000348
:010FA6000248
:010FA7000049
:010FA8001F29
:010FA9001D2A
:010FAA001C2A
:010FAB001A2B
:010FAC00192B
:010FAD00182B
:010FAE00162C
:010FAF00152C
:010FB000132D
:010FB100122D
:010FB200102E
:010FB3000F2E
:010FB4000D2F
:010FB5000C2F
:010FB6000B2F
:010FB7000930
:010FB8000830
:010FB9000631
:010FBA000531
:010FBB000332
:010FBC000232
:010FBD000132
:010FBE001F13
:010FBF001E13
:010FC0001C14
:010FC1001B14
:010FC2001915
:010FC3001815
:010FC4001715
:010FC5001516
:010FC6001416
:010FC7001217
:010FC8001117
:010FC9000F18
:010FCA000E18
:010FCB000D18
:010FCC000B19
:010FCD000A19
:010FCE00081A
:010FCF00071A
:010FD000051B
:010FD100041B
:010FD200031B
:010FD300011C
:010FD400001C
:010FD5001EFD
:010FD6001DFD
:010FD7001BFE
:010FD8001AFE
:010FD90019FE
:010FDA0017FF
:010FDB0016FF
:010FDC001400
:010FDD001300
:010FDE001101
:010FDF001001
:010FE0000F01
:010FE1000D02
:010FE2000C02
:010FE3000A03
:010FE4000903
:010FE5000803
:010FE6000604
:010FE7000504
:010FE8000305
:010FE9000205
:010FEA000006
:010FEB001FE6
:010FEC001EE6
:010FED001CE7
:010FEE001BE7
:010FEF0019E8
:010FF00018E8
:010FF10017E8
:010FF20015E9
:010FF30014E9
:010FF40012EA
:010FF50011EA
:010FF6000FEB
:010FF7000EEB
:010FF8000DEB
:010FF9000BEC
:010FFA000AEC
:010FFB0008ED
:010FFC0007ED
:010FFD0006ED
:010FFE0004EE
:010FFF0003EE
:00000001ff
