:020000040000FA
:0100000000FF
:0100010000FE
:0100020000FD
:0100030001FB
:0100040000FB
:0100050001F9
:0100060001F8
:0100070001F7
:0100080001F6
:0100090000F6
:01000A0001F4
:01000B0000F4
:01000C0001F2
:01000D0001F1
:01000E0001F0
:01000F0001EF
:0100100000EF
:0100110000EE
:0100120000ED
:0100130001EB
:0100140001EA
:0100150001E9
:0100160000E9
:0100170000E8
:0100180001E6
:0100190001E5
:01001A0000E5
:01001B0001E3
:01001C0000E3
:01001D0000E2
:01001E0001E0
:01001F0000E0
:0100200000DF
:0100210000DE
:0100220001DC
:0100230001DB
:0100240000DB
:0100250001D9
:0100260000D9
:0100270001D7
:0100280001D6
:0100290001D5
:01002A0001D4
:01002B0000D4
:01002C0001D2
:01002D0000D2
:01002E0001D0
:01002F0001CF
:0100300000CF
:0100310001CD
:0100320001CC
:0100330000CC
:0100340001CA
:0100350001C9
:0100360000C9
:0100370000C8
:0100380000C7
:0100390001C5
:01003A0001C4
:01003B0000C4
:01003C0001C2
:01003D0001C1
:01003E0001C0
:01003F0001BF
:0100400000BF
:0100410001BD
:0100420001BC
:0100430000BC
:0100440000BB
:0100450001B9
:0100460000B9
:0100470000B8
:0100480001B6
:0100490000B6
:01004A0001B4
:01004B0000B4
:01004C0001B2
:01004D0000B2
:01004E0000B1
:01004F0001AF
:0100500000AF
:0100510000AE
:0100520000AD
:0100530001AB
:0100540000AB
:0100550000AA
:0100560000A9
:0100570001A7
:0100580001A6
:0100590000A6
:01005A0000A5
:01005B0000A4
:01005C0001A2
:01005D0000A2
:01005E0000A1
:01005F0000A0
:01006000009F
:01006100019D
:01006200009D
:01006300019B
:01006400019A
:01006500009A
:010066000099
:010067000197
:010068000196
:010069000195
:01006A000194
:01006B000193
:01006C000093
:01006D000191
:01006E000190
:01006F00018F
:01007000018E
:01007100018D
:01007200018C
:01007300008C
:01007400018A
:01007500008A
:010076000188
:010077000088
:010078000087
:010079000086
:01007A000085
:01007B000084
:01007C000083
:01007D000181
:01007E000081
:01007F000080
:01008000007F
:01008100017D
:01008200017C
:01008300007C
:01008400007B
:010085000179
:010086000079
:010087000078
:010088000077
:010089000175
:01008A000075
:01008B000173
:01008C000172
:01008D000171
:01008E000170
:01008F00016F
:01009000006F
:01009100006E
:01009200016C
:01009300006C
:01009400016A
:01009500006A
:010096000069
:010097000167
:010098000166
:010099000066
:01009A000164
:01009B000064
:01009C000063
:01009D000062
:01009E000061
:01009F000060
:0100A000005F
:0100A100005E
:0100A200015C
:0100A300015B
:0100A400015A
:0100A5000159
:0100A6000059
:0100A7000157
:0100A8000156
:0100A9000155
:0100AA000055
:0100AB000153
:0100AC000053
:0100AD000151
:0100AE000051
:0100AF000050
:0100B000014E
:0100B100004E
:0100B200004D
:0100B300004C
:0100B400004B
:0100B5000149
:0100B6000049
:0100B7000048
:0100B8000047
:0100B9000145
:0100BA000144
:0100BB000143
:0100BC000043
:0100BD000042
:0100BE000140
:0100BF000040
:0100C000003F
:0100C100003E
:0100C200013C
:0100C300003C
:0100C400013A
:0100C500003A
:0100C6000138
:0100C7000137
:0100C8000037
:0100C9000135
:0100CA000035
:0100CB000034
:0100CC000132
:0100CD000032
:0100CE000031
:0100CF00012F
:0100D000002F
:0100D100012D
:0100D200002D
:0100D300002C
:0100D400012A
:0100D5000129
:0100D6000029
:0100D7000127
:0100D8000027
:0100D9000125
:0100DA000124
:0100DB000024
:0100DC000023
:0100DD000121
:0100DE000021
:0100DF00011F
:0100E000001F
:0100E100001E
:0100E200011C
:0100E300011B
:0100E400001B
:0100E500001A
:0100E6000118
:0100E7000117
:0100E8000116
:0100E9000115
:0100EA000015
:0100EB000014
:0100EC000013
:0100ED000012
:0100EE000011
:0100EF000010
:0100F000000F
:0100F100000E
:0100F200000D
:0100F300010B
:0100F400010A
:0100F5000109
:0100F6000009
:0100F7000107
:0100F8000106
:0100F9000105
:0100FA000104
:0100FB000004
:0100FC000102
:0100FD000002
:0100FE000001
:0100FF0001FF
:0101000001FD
:0101010001FC
:0101020001FB
:0101030000FB
:0101040000FA
:0101050001F8
:0101060000F8
:0101070001F6
:0101080000F6
:0101090001F4
:01010A0000F4
:01010B0001F2
:01010C0001F1
:01010D0000F1
:01010E0001EF
:01010F0000EF
:0101100000EE
:0101110001EC
:0101120001EB
:0101130000EB
:0101140001E9
:0101150001E8
:0101160001E7
:0101170000E7
:0101180000E6
:0101190001E4
:01011A0000E4
:01011B0001E2
:01011C0001E1
:01011D0001E0
:01011E0000E0
:01011F0001DE
:0101200000DE
:0101210000DD
:0101220001DB
:0101230000DB
:0101240000DA
:0101250001D8
:0101260000D8
:0101270001D6
:0101280001D5
:0101290000D5
:01012A0001D3
:01012B0001D2
:01012C0000D2
:01012D0001D0
:01012E0000D0
:01012F0001CE
:0101300000CE
:0101310000CD
:0101320001CB
:0101330000CB
:0101340000CA
:0101350001C8
:0101360001C7
:0101370001C6
:0101380000C6
:0101390000C5
:01013A0000C4
:01013B0000C3
:01013C0000C2
:01013D0000C1
:01013E0000C0
:01013F0000BF
:0101400000BE
:0101410000BD
:0101420000BC
:0101430000BB
:0101440000BA
:0101450000B9
:0101460000B8
:0101470000B7
:0101480001B5
:0101490000B5
:01014A0000B4
:01014B0000B3
:01014C0000B2
:01014D0000B1
:01014E0001AF
:01014F0001AE
:0101500001AD
:0101510000AD
:0101520001AB
:0101530000AB
:0101540001A9
:0101550000A9
:0101560001A7
:0101570000A7
:0101580000A6
:0101590001A4
:01015A0001A3
:01015B0000A3
:01015C0001A1
:01015D0000A1
:01015E00019F
:01015F00019E
:01016000019D
:01016100019C
:01016200009C
:01016300009B
:01016400009A
:010165000198
:010166000098
:010167000097
:010168000195
:010169000194
:01016A000193
:01016B000093
:01016C000092
:01016D000091
:01016E00018F
:01016F00008F
:01017000018D
:01017100008D
:01017200008C
:01017300008B
:010174000189
:010175000188
:010176000088
:010177000087
:010178000185
:010179000085
:01017A000183
:01017B000182
:01017C000082
:01017D000180
:01017E000080
:01017F00017E
:01018000007E
:01018100007D
:01018200017B
:01018300017A
:01018400007A
:010185000178
:010186000078
:010187000077
:010188000076
:010189000075
:01018A000173
:01018B000073
:01018C000171
:01018D000170
:01018E000070
:01018F00016E
:01019000016D
:01019100016C
:01019200016B
:01019300006B
:010194000169
:010195000168
:010196000167
:010197000067
:010198000066
:010199000065
:01019A000163
:01019B000063
:01019C000062
:01019D000061
:01019E000060
:01019F00005F
:0101A000005E
:0101A100015C
:0101A200005C
:0101A300015A
:0101A4000159
:0101A5000158
:0101A6000157
:0101A7000057
:0101A8000056
:0101A9000055
:0101AA000153
:0101AB000152
:0101AC000151
:0101AD000150
:0101AE00014F
:0101AF00014E
:0101B000004E
:0101B100004D
:0101B200014B
:0101B300004B
:0101B400004A
:0101B5000148
:0101B6000048
:0101B7000047
:0101B8000046
:0101B9000144
:0101BA000143
:0101BB000043
:0101BC000042
:0101BD000140
:0101BE000040
:0101BF00003F
:0101C000013D
:0101C100013C
:0101C200003C
:0101C300013A
:0101C400003A
:0101C5000039
:0101C6000038
:0101C7000136
:0101C8000135
:0101C9000134
:0101CA000034
:0101CB000132
:0101CC000032
:0101CD000031
:0101CE00012F
:0101CF00002F
:0101D000002E
:0101D100002D
:0101D200002C
:0101D300002B
:0101D4000129
:0101D5000128
:0101D6000028
:0101D7000126
:0101D8000125
:0101D9000124
:0101DA000024
:0101DB000023
:0101DC000121
:0101DD000021
:0101DE00011F
:0101DF00001F
:0101E000001E
:0101E100011C
:0101E200011B
:0101E300001B
:0101E400001A
:0101E5000019
:0101E6000117
:0101E7000017
:0101E8000016
:0101E9000114
:0101EA000014
:0101EB000112
:0101EC000012
:0101ED000110
:0101EE000010
:0101EF00010E
:0101F000000E
:0101F100000D
:0101F200010B
:0101F300000B
:0101F400000A
:0101F5000009
:0101F6000107
:0101F7000106
:0101F8000006
:0101F9000005
:0101FA000004
:0101FB000102
:0101FC000101
:0101FD000001
:0101FE000000
:0101FF0000FF
:0102000000FD
:0102010001FB
:0102020001FA
:0102030001F9
:0102040001F8
:0102050000F8
:0102060001F6
:0102070001F5
:0102080001F4
:0102090001F3
:01020A0001F2
:01020B0001F1
:01020C0000F1
:01020D0000F0
:01020E0000EF
:01020F0000EE
:0102100000ED
:0102110001EB
:0102120001EA
:0102130001E9
:0102140001E8
:0102150001E7
:0102160000E7
:0102170001E5
:0102180000E5
:0102190001E3
:01021A0001E2
:01021B0001E1
:01021C0001E0
:01021D0000E0
:01021E0000DF
:01021F0001DD
:0102200001DC
:0102210001DB
:0102220001DA
:0102230001D9
:0102240000D9
:0102250000D8
:0102260000D7
:0102270001D5
:0102280000D5
:0102290000D4
:01022A0000D3
:01022B0001D1
:01022C0001D0
:01022D0001CF
:01022E0000CF
:01022F0000CE
:0102300000CD
:0102310001CB
:0102320000CB
:0102330001C9
:0102340000C9
:0102350001C7
:0102360000C7
:0102370000C6
:0102380001C4
:0102390000C4
:01023A0001C2
:01023B0001C1
:01023C0000C1
:01023D0001BF
:01023E0001BE
:01023F0000BE
:0102400001BC
:0102410000BC
:0102420000BB
:0102430001B9
:0102440001B8
:0102450001B7
:0102460000B7
:0102470000B6
:0102480001B4
:0102490000B4
:01024A0000B3
:01024B0000B2
:01024C0000B1
:01024D0000B0
:01024E0001AE
:01024F0001AD
:0102500001AC
:0102510000AC
:0102520000AB
:0102530000AA
:0102540000A9
:0102550000A8
:0102560001A6
:0102570001A5
:0102580000A5
:0102590001A3
:01025A0000A3
:01025B0000A2
:01025C0001A0
:01025D0000A0
:01025E00019E
:01025F00019D
:01026000019C
:01026100009C
:01026200019A
:010263000199
:010264000099
:010265000098
:010266000097
:010267000195
:010268000194
:010269000193
:01026A000192
:01026B000092
:01026C000190
:01026D000090
:01026E00008F
:01026F00018D
:01027000008D
:01027100018B
:01027200018A
:01027300008A
:010274000089
:010275000088
:010276000087
:010277000185
:010278000184
:010279000084
:01027A000083
:01027B000082
:01027C000081
:01027D000080
:01027E00007F
:01027F00017D
:01028000017C
:01028100007C
:01028200017A
:01028300007A
:010284000178
:010285000177
:010286000176
:010287000175
:010288000075
:010289000074
:01028A000073
:01028B000072
:01028C000170
:01028D00016F
:01028E00016E
:01028F00006E
:01029000016C
:01029100016B
:01029200006B
:010293000169
:010294000168
:010295000068
:010296000067
:010297000066
:010298000164
:010299000163
:01029A000063
:01029B000161
:01029C000061
:01029D00015F
:01029E00005F
:01029F00005E
:0102A000015C
:0102A100005C
:0102A200015A
:0102A300005A
:0102A4000158
:0102A5000058
:0102A6000057
:0102A7000155
:0102A8000055
:0102A9000054
:0102AA000053
:0102AB000052
:0102AC000150
:0102AD00014F
:0102AE00004F
:0102AF00004E
:0102B000014C
:0102B100014B
:0102B200004B
:0102B3000149
:0102B4000148
:0102B5000147
:0102B6000047
:0102B7000145
:0102B8000144
:0102B9000044
:0102BA000142
:0102BB000141
:0102BC000140
:0102BD00013F
:0102BE00013E
:0102BF00013D
:0102C000003D
:0102C100003C
:0102C200003B
:0102C300003A
:0102C4000039
:0102C5000038
:0102C6000136
:0102C7000036
:0102C8000035
:0102C9000034
:0102CA000132
:0102CB000032
:0102CC000031
:0102CD00012F
:0102CE00012E
:0102CF00012D
:0102D000002D
:0102D100002C
:0102D200002B
:0102D300002A
:0102D4000128
:0102D5000028
:0102D6000027
:0102D7000125
:0102D8000025
:0102D9000123
:0102DA000122
:0102DB000121
:0102DC000021
:0102DD00011F
:0102DE00011E
:0102DF00011D
:0102E000001D
:0102E100011B
:0102E200011A
:0102E3000119
:0102E4000118
:0102E5000018
:0102E6000017
:0102E7000115
:0102E8000015
:0102E9000113
:0102EA000013
:0102EB000111
:0102EC000110
:0102ED00010F
:0102EE00010E
:0102EF00010D
:0102F000010C
:0102F100010B
:0102F200000B
:0102F3000109
:0102F4000009
:0102F5000008
:0102F6000106
:0102F7000006
:0102F8000104
:0102F9000103
:0102FA000102
:0102FB000002
:0102FC000100
:0102FD0001FF
:0102FE0000FF
:0102FF0001FD
:0103000001FB
:0103010001FA
:0103020001F9
:0103030001F8
:0103040000F8
:0103050000F7
:0103060000F6
:0103070000F5
:0103080001F3
:0103090001F2
:01030A0001F1
:01030B0001F0
:01030C0000F0
:01030D0001EE
:01030E0000EE
:01030F0000ED
:0103100000EC
:0103110001EA
:0103120000EA
:0103130001E8
:0103140000E8
:0103150000E7
:0103160001E5
:0103170000E5
:0103180001E3
:0103190000E3
:01031A0000E2
:01031B0001E0
:01031C0000E0
:01031D0001DE
:01031E0001DD
:01031F0000DD
:0103200001DB
:0103210001DA
:0103220001D9
:0103230001D8
:0103240001D7
:0103250000D7
:0103260001D5
:0103270000D5
:0103280000D4
:0103290001D2
:01032A0001D1
:01032B0001D0
:01032C0001CF
:01032D0000CF
:01032E0001CD
:01032F0001CC
:0103300001CB
:0103310000CB
:0103320000CA
:0103330001C8
:0103340000C8
:0103350000C7
:0103360001C5
:0103370000C5
:0103380001C3
:0103390000C3
:01033A0001C1
:01033B0000C1
:01033C0000C0
:01033D0001BE
:01033E0000BE
:01033F0000BD
:0103400000BC
:0103410001BA
:0103420001B9
:0103430001B8
:0103440000B8
:0103450000B7
:0103460000B6
:0103470001B4
:0103480000B4
:0103490001B2
:01034A0001B1
:01034B0000B1
:01034C0000B0
:01034D0001AE
:01034E0000AE
:01034F0000AD
:0103500001AB
:0103510000AB
:0103520001A9
:0103530001A8
:0103540001A7
:0103550001A6
:0103560001A5
:0103570001A4
:0103580000A4
:0103590000A3
:01035A0000A2
:01035B0001A0
:01035C00019F
:01035D00009F
:01035E00019D
:01035F00019C
:01036000009C
:01036100019A
:010362000199
:010363000198
:010364000098
:010365000097
:010366000096
:010367000194
:010368000193
:010369000192
:01036A000092
:01036B000091
:01036C000090
:01036D00018E
:01036E00008E
:01036F00018C
:01037000008C
:01037100008B
:010372000189
:010373000188
:010374000187
:010375000186
:010376000185
:010377000085
:010378000183
:010379000182
:01037A000082
:01037B000180
:01037C000080
:01037D00017E
:01037E00017D
:01037F00007D
:01038000007C
:01038100007B
:01038200007A
:010383000178
:010384000177
:010385000176
:010386000175
:010387000174
:010388000173
:010389000073
:01038A000072
:01038B000071
:01038C000070
:01038D00016E
:01038E00016D
:01038F00006D
:01039000006C
:01039100006B
:010392000169
:010393000069
:010394000068
:010395000166
:010396000066
:010397000065
:010398000064
:010399000162
:01039A000161
:01039B000160
:01039C00015F
:01039D00015E
:01039E00015D
:01039F00015C
:0103A000005C
:0103A100005B
:0103A200005A
:0103A3000158
:0103A4000157
:0103A5000156
:0103A6000056
:0103A7000154
:0103A8000153
:0103A9000152
:0103AA000052
:0103AB000150
:0103AC000050
:0103AD00014E
:0103AE00004E
:0103AF00014C
:0103B000014B
:0103B100004B
:0103B2000149
:0103B3000148
:0103B4000147
:0103B5000146
:0103B6000145
:0103B7000045
:0103B8000044
:0103B9000043
:0103BA000141
:0103BB000140
:0103BC00013F
:0103BD00003F
:0103BE00003E
:0103BF00003D
:0103C000003C
:0103C100003B
:0103C200003A
:0103C3000138
:0103C4000137
:0103C5000037
:0103C6000135
:0103C7000035
:0103C8000133
:0103C9000132
:0103CA000032
:0103CB000130
:0103CC00012F
:0103CD00002F
:0103CE00012D
:0103CF00012C
:0103D000012B
:0103D100012A
:0103D2000129
:0103D3000128
:0103D4000028
:0103D5000126
:0103D6000026
:0103D7000124
:0103D8000123
:0103D9000023
:0103DA000022
:0103DB000120
:0103DC00011F
:0103DD00011E
:0103DE00011D
:0103DF00001D
:0103E000011B
:0103E100011A
:0103E2000119
:0103E3000019
:0103E4000018
:0103E5000116
:0103E6000016
:0103E7000015
:0103E8000014
:0103E9000013
:0103EA000111
:0103EB000011
:0103EC000010
:0103ED00000F
:0103EE00000E
:0103EF00000D
:0103F000010B
:0103F100010A
:0103F200000A
:0103F3000108
:0103F4000008
:0103F5000007
:0103F6000006
:0103F7000104
:0103F8000103
:0103F9000102
:0103FA000101
:0103FB000001
:0103FC0001FF
:0103FD0000FF
:0103FE0001FD
:0103FF0000FD
:00000001ff
